:020000040000FA
:10000000980901202121000087650000F5200000EB
:10001000F5200000F5200000F5200000F52000008C
:10002000000000000000000000000000AD1C000007
:10003000F520000000000000F5200000F520000081
:100040000D1D00000D1D00000D1D00000D1D000008
:100050000D1D00000D1D00000D1D00000D1D0000F8
:100060000D1D00000D1D00000D1D00000D1D0000E8
:100070000D1D00000D1D00000D1D00000D1D0000D8
:100080000D1D00000D1D00000D1D00000D1D0000C8
:100090000D1D00000D1D00000D1D00000D1D0000B8
:1000A0000D1D00000D1D00000D1D00000D1D0000A8
:1000B0000D1D00000D1D00000D1D00000D1D000098
:1000C0000D1D00000D1D00000D1D00000D1D000088
:1000D0000D1D00000D1D00000D1D00000D1D000078
:1000E0000D1D00000D1D00000D1D00000D1D000068
:1000F0000D1D00000D1D00000D1D00000D1D000058
:100100000D1D00000D1D00000D1D00000D1D000047
:100110000D1D00000D1D00000D1D00000D1D000037
:100120000D1D00000D1D00000D1D00000D1D000027
:100130000D1D00000D1D00000D1D00000D1D000017
:100140000D1D000053B94AB9002908BF00281CBF83
:100150004FF0FF314FF0FF3000F06CB9ADF1080CFB
:100160006DE904CE00F006F8DDF804E0DDE90223D5
:1001700004B070472DE9F047089D04468846002BDF
:100180007DD18A4217463FD9B2FA82F242B1C2F11A
:1001900020009140974024FA00F0944040EA010882
:1001A0004FEA174C230C1FFA87FEB8FBFCF60CFB3A
:1001B000168106FB0EF043EA0143984205D9FB186D
:1001C00002D2984200F22481013E191AA3B2B1FB77
:1001D000FCF00CFB101100FB0EFE43EA0144A645A7
:1001E00005D93C1902D2A64500F20F81013840EA38
:1001F0000640A4EB0E0400261DB1D4400023C5E93F
:1002000000433146BDE8F08702B9FFDEB2FA82F260
:10021000002A50D1CB1B4FEA174E1FFA87F8012650
:10022000210CB3FBFEFC0EFB1C300B4608FB0CF94B
:1002300041EA004189450AD979182CBF01230023DE
:10024000894502D9002B00F0D9800CF1FF3CA1EBCD
:100250000901A3B2B1FBFEF00EFB101108FB00F880
:1002600043EA0144A04505D93C1902D2A04500F259
:10027000C9800138A4EB080440EA0C40BCE78B427B
:1002800009D9002D00F0B1800026C5E900013046F3
:100290003146BDE8F087B3FA83F6002E46D18B4293
:1002A000C0F0A680824240F2A3803046002DA8D044
:1002B000C5E90048A5E79740C2F1200301FA02F022
:1002C0004FEA174ED94024FA03F31FFA87F89440F7
:1002D0000343B1FBFEF01E0C0EFB101100FB08FCEB
:1002E00046EA01418C4509D979182CBF0126002620
:1002F0008C4502D9002E00F093800138A1EB0C014F
:100300009BB2B1FBFEF60EFB161106FB08FC43EA9E
:1003100001418C4505D9791802D28C4500F28780BD
:10032000013EA1EB0C0346EA004679E7C6F120073F
:1003300003FA06F402FA06FC01FA06FEFA4020FA75
:1003400007F8F94000FA06F3224348EA0E044FEAA0
:1003500012484FEA144E1FFA82F9B1FBF8FA08FB73
:100360001A110AFB09F04EEA014E70450AD912EB48
:100370000E0E2CBF01210021704501D9002952D059
:100380000AF1FF3AAEEB000EA4B2BEFBF8F008FB98
:1003900010EE00FB09F944EA0E4EF14505D912EBC7
:1003A0000E0E01D2F14538D8013840EA0A40AEEBD2
:1003B000090EA0FB0C89CE4541464C4602D306D11E
:1003C000434504D20138B8EB0C0169EB020415B3C4
:1003D0005A1A6EEB040EF2400EFA07F72EFA06F3E5
:1003E00000261743C5E900730BE72E46284608E7A9
:1003F000841A61EB03010120884657E7ACF1020C37
:10040000394424E702383C4434E702383C44EEE601
:10041000023E3B44D9E62E46F3E602389644C4E752
:10042000023839446AE7AAF1020A9644AAE7023E72
:10043000394476E7704700BF7FB5304B304A3148CA
:10044000C3F800264921C3F80426C3F80826C3F8D8
:100450000C26C3F81026C3F81426C3F81826C3F8D0
:100460001C2605F0CCFF05F081FB274800F05CF866
:1004700028B94521244A254805F0C1FFFEE701A817
:1004800000F070FC224B1B68834204D045212148B8
:1004900005F0B5FFFEE74921039A1F4805F0AFFFBD
:1004A00049211E4805F0ABFF4FF48031002002F0D7
:1004B00067FF20B145211A4805F0A1FFFEE7694614
:1004C0009DF8080000F03CF8009B039C1C44019B35
:1004D0001D8900F02FFF66194FF02002EFF3118302
:1004E00082F31288BFF36F8F635983F308887368B0
:1004F000984745210B4805F082FFFEE70080015038
:100500003546526E98720000B1720000C47200004D
:10051000C4C60020E37200000673000035730000BB
:100520005A7300008D73000010B5044C236813B992
:1005300003F0CAFD2060206810BD00BFC0C60020C7
:1005400008B540B1024600230448452105F057FF95
:100550006FF0150008BD0860FCE700BFB073000035
:100560002DE9F04FDFF81C92DDB01546DDE9684853
:100570001E46DDF898B1D9F8007000F0A9FE0122FE
:100580007E4B3CA8C3F8002504F01EFACDF8149069
:100590003CB1B8F1000F04DD424621463CA805F00D
:1005A0003AFE4FF000096B89B5F808809844EB6873
:1005B0009844C8454ED80FA93CA804F077FA002209
:1005C0006E4BC3F80025C3F800256A9B23B1202297
:1005D00018460FA906F015F8002332460093294665
:1005E0004FF6FF7309A805F0C2FA0446002844D16B
:1005F0004FF0FF35DFF890A1DFF8808103900DF117
:100600001E0307AA08A909A805F0FDFA041E34DB99
:1006100040F0A480BDF81E90B9F1100F38D1BDF89C
:100620001C90B9F1200F40F0A3804B46304608994A
:100630003CAA05F0F2FE0446F8B94A463CA90FA8C8
:1006400005F058FB04464E4B1B68834215D101232D
:100650000393D4E7679AA8EB09039A4228BF1A4686
:1006600049461346924630465A4605F0D6FE0446A1
:1006700038B10022414BC3F8002520465DB0BDE8EB
:10068000F08F524659463CA805F0C5FDD14490E78D
:10069000B9F1010F3FD1BDF81C30202B68D830468E
:1006A00008993CAA05F0B9FE04460028E5D19DF85A
:1006B0001C50202D0AD8DAF80030DFF8D0B00493AF
:1006C000049B9C4205DB0023C8F800354FF0FF3443
:1006D0001DE000F0FDFDC8F800951FA804F074F9B6
:1006E000DBF804201FA812685BF8081B05F093FDD7
:1006F00017A91FA804F0DAF900223CA9C8F80025C0
:1007000017A82A4605F06DFF18B9C8F80005254658
:1007100075E70134D4E7B9F1220F7FF470AF002DF3
:1007200019DBDAF80030AB4215DDBDF81C30802B48
:100730001ED8304608993CAA05F06FFE04460028F2
:100740009BD1EDB22021BDF81C3000953CAA0FA82A
:1007500000F01EF807464FF0FF3550E7039B53B1FA
:10076000074B1B68BB4201D0059B1F683C4684E7D2
:100770004FF0FF3481E701247FE700BF0000845081
:10078000C4C6002000C50020086F00000C6F0000E8
:100790002DE9F04196B017461D469DF87020354B67
:1007A0000E4653F8321003EBC2035B6880461868AC
:1007B00001913023014402AA01A805F0B9FC10B14F
:1007C0004FF0FF3053E0DDE901431C44214606AB06
:1007D00003AA01A805F0D4FC0028F1D1049A072A45
:1007E000EED12549059805F0FCFE0028E8D1079ACE
:1007F000082AE5D12149089805F0F3FE0028DFD149
:10080000214602AA01A805F0A7FC0028D8D1DDE9FD
:10081000013213449C42D3D1412AD1D13D443023EB
:10082000294603AA02A8029705F082FC0028C7D136
:10083000DDE9023213449D42C2D32A4602A906A82A
:1008400005F02CFA0028BBD12A4602A90EA805F013
:1008500025FA0028B4D1202EB2D101990B78042BAF
:10086000AED13346404606AA013100F049FD16B02C
:10087000BDE8F0810C6F0000D6730000DE7300004D
:100880002DE9F041032386B00D466F460026DFF8C0
:100890006880ADF8003017F8010B01A901F0FCF8F1
:1008A0000446A0B901981023816802AA103905F006
:1008B000B4FD0446019805F0AFFD44B9102241464D
:1008C00002A805F08EFE40B12EB14FF0FF34204655
:1008D00006B0BDE8F0810126DDE7019806F069F871
:1008E0000423A0F108012A46019805F096FD04466C
:1008F000019805F091FDEAE7EC7000002DE9F04168
:10090000384B88B0064600200D461C6805F023F9D8
:1009100006A9C0B201F0C0F8002857D1294605F059
:100920001AF92C2407A9C0B204FB056401F0B4F83D
:10093000002836D04FF02C0808FB05F806EB080716
:10094000396911F0100137D14FF480730193264BB0
:10095000224600930846CDE90311069B0291FFF75A
:10096000FFFD0446214B56F8082006989A420CD108
:100970003A89FB68D1438B4207D81344826893427B
:1009800003D21B4B1B68A3421DD045B382680021D4
:1009900005F08DFD174A4521174805F030FD01246B
:1009A00011E0079805F0BBFD0746079805F034FDF8
:1009B000631EE21C93420DD1002DF0D03046069903
:1009C00005F096FA2C46069805F026FD204608B05C
:1009D000BDE8F08113F8011FB942EBD0AAE7074A3E
:1009E000D9E700BF00C5002080DC00203DB8F396A9
:1009F000C4C60020E7730000F9730000F173000023
:100A000073B50D46002104462846CDE9001105F0D6
:100A10002EFA30B3164E2268B24203D1204601AA04
:100A200005F099F9E36AB34204D16A4601212046F0
:100A300005F091F9DDE90032934288BF0193019BF3
:100A4000AB60019A2946204600F03AFB094B1A6830
:100A5000002A03DD5721084805F0D1FC002002B030
:100A600070BD05F10801FFF70BFFAB680193E8E7E4
:100A70003DB8F39628DB0020217400002DE9F84FE3
:100A80008A46904699460026DFF870B0194C1A4DF8
:100A90000B9B9E4201D300200FE00B9B50469F1BF7
:100AA000B7F5806F28BF4FF48067144A3B4606EBCA
:100AB000090105F0B2FC10B10120BDE8F88F0A99D8
:100AC0003B465A464046711805F0C3FC0028F3D156
:100AD000C4F800563E44C4F80456C4F80856C4F896
:100AE0000C56C4F81056C4F81456C4F81856C4F876
:100AF0001C56CDE7008001503546526E28C70020B5
:100B00002DE9F0430F4600218E4B85B01E688E4BB9
:100B1000044643628D4B0365084605F01CF804F15A
:100B20002001C0B200F0B8FF0121002005F013F849
:100B300004F14C01C0B200F0AFFF0546204605F0BD
:100B40006BF9804668B900222046114605F04BF942
:100B5000804608B3002257217D4805F050FC012350
:100B600092E04FF4807257217A4805F048FC012347
:100B7000984584F85830E6D194F85830042B8DF815
:100B8000073000F28480012B00F2888000F09F8003
:100B9000FF2384F858309AE0204600F0A7F9002897
:100BA000DDD0684605F05AF96946204605F0F5F9AA
:100BB00018B1424657216848CFE7684605F057F913
:100BC00080F001006A46C1B2204605F00CF90246E9
:100BD0000028BFD1684605F04AF9804660BB6946E7
:100BE0002046FFF70DFF9DF8073084F85830033B8F
:100BF000012B06D8404605F01FFA10B1FF2384F8F8
:100C000058309DF80730023B022B0BD8002005F02E
:100C100001FA38B1FF2384F8583045214F4805F0D8
:100C2000EEFBFEE794F85830FF2BF6D06A46002121
:100C3000204605F0D8F892E79DF80790B9F1010F2A
:100C400017D1104602F022FC831E022B80460DD8DD
:100C500049462046FFF752FE414B1B68984205D09B
:100C600001280CBF4FF001084FF0050884F85880A8
:100C700082E701212046FFF741FE394B1B6898426D
:100C800014BF05239DF8073084F8583074E7052B0E
:100C90007FF47EAF002005F0CFF913E069462046CF
:100CA000FFF7AEFE94F858300546DA1E012A0CD83C
:100CB000002005F0C1F9054600287FF469AF002047
:100CC00005F0A8F9054610B162E7022BF7D094F8B9
:100CD0005830FF2B04D14521204805F090FBFEE75A
:100CE000012B06D06A460021204605F07CF8054617
:100CF000D0B900212046FFF701FE0646DFF86080EC
:100D0000D8F8003098420FD110220021684605F033
:100D100083FC206A04F028FF00253871236AD8F884
:100D200000605B683C60BB60E06C05F075FB206AAE
:100D300005F072FB002D14BF2846304605B0BDE813
:100D4000F08300BF00C5002028CB002028D300205E
:100D50009274000050740000BE740000E87400003B
:100D6000C4C6002038B5064D04466022002128463E
:100D700005F052FC21462846FFF7C2FE38BD00BFF1
:100D8000C8C6002073B516461C4633B3436A5D6877
:100D90006379012B15D101BB1F4B22681B689A4256
:100DA00098BF0025002004F0D6FE01A9C0B200F0D3
:100DB00073FEF0B10125019805F02EFB284602B024
:100DC00070BD022B09D12368012B08D9124A126881
:100DD000934202D8B1FA81F149090025E2E7FCD13A
:100DE0000029DFD00129F8D12179023918BF01216A
:100DF000F3E7294620233246019805F00EFB05460D
:100E00000028D7D1002CD6D0356804482D1A18BF39
:100E10004FF0FF35CFE700BF04C500203DB8F39683
:100E20002DE9F04F07460C4685B0014600201646D6
:100E300004F067FF051E52DB3846E46D04F06BFFDB
:100E40005FFA84F94FF0000A4FF0010B4FF0FF34C6
:100E500005F1FF3809FB08089DB9BAF1010F03DD60
:100E60004521214805F0CBFA631C06D0FF2C2ADC73
:100E700040F2011301343460B380284605B0BDE868
:100E8000F08F6B1E00934146012338460DF10F028F
:100E900005F0C3FA031E019323DB012238460DF14E
:100EA0000F0105F097FD019B40B15B4501D00AF1B0
:100EB000010A9B46009DA8EB0908CDE7B4F1FF3F6E
:100EC00008BF2C46F5E70223A4F580747371631004
:100ED00004F001040133013433603471CDE7072598
:100EE000CBE70125C9E700BFF4740000816A426DB9
:100EF00038B58A4208D0531C8B4205D0572114487C
:100F000005F07DFA002038BDB1F5807F1CD957214E
:100F10001048F5E7446A056D04EBC30405EBC3050F
:100F200064686D68AC4202D057210B48E8E7013392
:100F30009A42EFD1914205D9436A03EBC20253684A
:100F4000A342F1D10120DEE700231C46F0E700BFF9
:100F5000177500004F7500007E75000000B589B060
:100F6000032004A905F09BFD9DF81020012A41D023
:100F7000254B2649032A18BF0B469DF8132049210B
:100F800002929DF81220224801929DF811200092B1
:100F9000204A05F034FA072006A905F080FD9DF8E7
:100FA0001820012A28D0184B1849032A18BF0B46CD
:100FB0009DF81B20492102929DF81A2014480192A5
:100FC0009DF819200092144A05F019FA9DF8103086
:100FD000012B13D19DF81230032B0FD19DF818303F
:100FE000012B0BD00D48492105F009FA022009B068
:100FF0005DF804FB0A4BC0E7094BD9E709484921D2
:1010000005F0FDF90020F2E7AF750000B5750000AE
:10101000C7750000B975000008760000187600005A
:10102000AA7500003776000070B54B6814461E4A5A
:1010300003F0FF23934206460D4686B02FD10B687E
:10104000012B2CD1204604A902F0D0F99DF81020E4
:10105000012A26D0154B1649032A18BF0B469DF8C6
:101060001320492102929DF81220124801929DF806
:1010700011200092104A05F0C2F99DF81030032BA0
:101080000DD12146304604F033FF204605F0FEFC2A
:101090002046A96804F050FE204602F099F906B0F7
:1010A00070BD064BDBE700BF00010004AF75000018
:1010B000B5750000C775000008760000AA7500002D
:1010C0002DE9F04F436A2DED028B0C465E68054614
:1010D000012100238BB033449A42084601F10101FB
:1010E000F9D8784F3860204604F0C1FEBB46C8B13D
:1010F000E86D04F001FE0022AB6A013B32449042ED
:1011000001D9013BFAE7DBF800209A420AD35721C4
:101110006D4805F074F90123E3710BB0BDEC028B4F
:10112000BDE8F08F08A9032000F0B6FC09A907204C
:1011300000F0B2FC21462846099AFFF775FF637953
:10114000012B08D1DBF80070DFF880A1DBF800305C
:10115000A7B90123236002230127DFF8708163719F
:101160000593DBF80030DDF820909F424DD94846CA
:1011700005F052F9099805F04FF9CEE722680133DE
:101180009B1A9F423FD86B6A012A196853F83700AF
:1011900003EBC70353F8083CDDF82080A3EB010301
:1011A00008EE103AA0EB010912D1E268099B022A6D
:1011B0000AD041462846039304F09AFE224641464F
:1011C000284604F0CBFE039B1946284604F090FE07
:1011D00032464946404604F089FE18EE103A42462F
:1011E00041462846CDE90096FFF748FC21462846AF
:1011F00004F04AFE23680133236020B1DAF800309E
:101200000133CAF80030013FA0E723689F4256D35C
:10121000696A286D51F83730FA0004930B68083A70
:1012200050F802C0039303682079DDF824A0012858
:10123000ACEB030341D189580793039B3246C91A8B
:101240004846069104F052FE0699079B4A460091D3
:101250002846514601960693FFF710FC2146284682
:1012600004F012FE059B2371069B20B1D8F80020E4
:101270000132C8F80020194632465046069304F061
:1012800035FE069B494600932846DDE90323019677
:101290009B1A5246FFF7F2FB2146284604F0F4FD64
:1012A0002368013323604FF00103237138B1D8F86C
:1012B00000300133C8F8003001E00228DBD00137EC
:1012C0004FE700BF04C500204E76000028DB002059
:1012D00070B5094D2B7853B90126084CC4F8006548
:1012E00003F014FC28B92E70C4F8000570BD00206E
:1012F000FCE74FF0FF30F9E780DD0020000084506C
:1013000070B5AEB01D460446CDE90221FFF7E0FFFF
:10131000DDE902210123064E05A8C6F80035234663
:10132000009505F013FC0023C6F800352EB070BD03
:101330000000845010B501234FF0FF3400211A4AF9
:101340001A481360C2F84443C2F8044302F58052BD
:101350001360174B8022C3F84843C3F80843A3F532
:101360005043C3F80015C3F8084305F055F980222F
:101370000021104805F050F900210F4B8022C3F8DE
:1013800000150E48C3F8084305F046F980220021F5
:101390000B4805F041F90B4BC3F808454FF05023BB
:1013A000C3F8084310BD00BF0440015080800050C6
:1013B00000500150808100500090005080900050FB
:1013C00080910050007001500B6801330B60014B9D
:1013D0001B68184708C5002007B50B4600210246C8
:1013E0000191034801A900F0EDF803B05DF804FB9A
:1013F000C91300002DE9F74FB0F81890044619F012
:10140000080893460ED001290CBF49F0100949F095
:101410002009A0F818908BF31188BFF36F8F03B0E9
:10142000BDE8F08FDFF898A109F00709022907D17C
:10143000204604F037FF0028EDD00128238B4DD142
:101440006769218B002F15DA256821F00701C4E9AF
:10145000008841F0010121830026218B01F0070261
:101460004A4502D0A368002B59D10DB9002E71D086
:10147000002355E001F007035A1F012A1FD821F06D
:101480000701062B256889B2C4E900880CD1002D1C
:101490002B4638BF00232BB1628B1B68013262835D
:1014A000002BF8D141F002012046218304F0FAFE1E
:1014B0000028D1D0238B43F020032383CCE7042BD7
:1014C0000AD121F0070189B22046218304F0EAFE07
:1014D00010B141F0200121830025BDE7032809D187
:1014E000226923F00703166843F0060300252383CF
:1014F0002F46B2E7042806D1226923F00703566875
:1015000043F00403F2E7052806D1226923F007031C
:10151000966843F00503E9E700252E46E8E7012336
:1015200041F0080121838BF31188BFF36F8F03BB58
:10153000002D34D116B151462046B0474FF020035C
:10154000EFF3118B83F31288BFF36F8F238B23F09C
:1015500008032383238BDA062AD5012123F0100305
:101560002383B4F8189009F0070900297FF45EAFCF
:1015700051E7A1680029DBD00B68002B38BF00239E
:10158000994620463B46D1F804B00192D847019ACB
:10159000B9F1000FCCD04946D9F80030EDE7294623
:1015A0003B46204601922D6804F098FE019ABFE761
:1015B00013F020011EBF23F0200302212383D0E774
:1015C000096300002DE9F04F8B464FF0000A8FB001
:1015D0001F46531E00900193019B58785C1C2528E0
:1015E00022D14FF0000C4FF0FF36184661463446CA
:1015F0004FF00A0E0230CDF808C002780190392A67
:1016000000F1010058D81F2A18D8002A00F0FF81E5
:101610005946009B25209847019B59461878009B06
:1016200098470AF1020AD7E7002800F0F0815946EE
:10163000009B98470AF1010A0194CDE7A2F120032B
:10164000192BE5D801A555F823F000BFB516000009
:101650001116000011160000B5160000111600004A
:1016600035170000111600001116000011160000B9
:101670001116000077170000B516000011160000C3
:101680008B17000043170000111600004F170000D1
:101690006B1700006B1700006B1700006B17000042
:1016A0006B1700006B1700006B1700006B17000032
:1016B0006B1700009446A0E7582A00F04081A2F181
:1016C0006303DDB2172DA3D8172BA1D801A555F8B8
:1016D00023F000BF99190000B11700001116000097
:1016E000111600001116000091170000B11700003C
:1016F00011160000111600009117000011160000CD
:101700001116000011160000E91800001116000063
:10171000111600007B19000011160000B11700001F
:101720001116000011160000E91800001116000043
:101730009117000059462520009B98470AF1010A9D
:101740004AE7029B002603F0FE03029355E7002CB4
:101750000BDA002E0BDA029B002B00F0548124EAF6
:10176000E4740EFB0424303C47E7002EF7DB0EFB4D
:101770000626303E41E7002E57F8043B01DB1E46AB
:101780003BE71C1EBFF639AF64420223029334E7E5
:10179000682A03D1682906D148212EE76C2A02D194
:1017A0006C2900F0328100297FF432AF114624E722
:1017B0007A290FD13B68752A984607F1040540F055
:1017C00088804FF00009BCF1200F40F08580924FD7
:1017D000013C15E06C29EDD04C29EBD1FD1D25F025
:1017E0000705752AF5E80289EDD0B8F1000F79F107
:1017F0000003E8DAD8F10008884F69EB4909013C99
:101800000DAB059300230393039B40460493013BD8
:10181000494603930A220023FEF794FC059B3032CD
:1018200003F8012940460A22494605930023CDE9E1
:101830000689FEF787FCDDE90623002B08BF0A2A8C
:1018400080468946E0D2049B0EAAC3F1010902EB4F
:101850000308002EA8F1040804DA029B13F0010F1C
:1018600018BF2646A6EB0903002B0393029BD4BFA7
:10187000A4EB0904A41B9A0740F1AF80AAEB07066A
:1018800006EB070A17F8010B002840F0A880039E1A
:10189000013E40F1A880039B4E465A1E0132ACBF68
:1018A0001F460027013E40F1A38009F1FF320132BB
:1018B000ACBF4B460023264603EB0709013E40F12F
:1018C0009D80631E0133B8BF0024A1442F46CA4443
:1018D00082E64FEAE37988E7BCF12B0F0ABF504F4D
:1018E000504F04F1FF348BE7702A28D13D4655F85C
:1018F000040B00285AD000214B4F023C4FF0000847
:1019000002F06002A2F139090DF1340E00F00F036C
:10191000092B88BF4B44303300290EF8013908BF2A
:1019200010284FEA101308F1FF3C43EA01734FEA15
:1019300011121ED20EABC8F10109984489E76C2937
:1019400004D13D46002155F8040B06E04C29F8D19E
:10195000FD1D25F00705F5E80201BCF1230F06D1B6
:10196000314B12F0200F314F18BF1F46C5E72D4FE6
:10197000C4E7E04618461146C8E73D4655F8048BD3
:10198000404604F01BFE002E814602DBB042A8BF99
:10199000B1460026234F65E73D4655F8043B4FF01E
:1019A00001098DF820300DF12008F2E74FF005090C
:1019B000DFF87C80EDE759462020009B9847013EE8
:1019C000F9D5621E531CACBF21460021C4F10004AE
:1019D000B8BF00248A44144450E72646EFE759462E
:1019E000009B98474CE75946009B302098474FE7AB
:1019F000594618F8010B009B984753E75946009B3E
:101A0000202098475AE70123C0E64C21F5E55046CF
:101A10000FB0BDE8F08F00BFB07A0000D8760000AC
:101A2000DA760000B07E0000DC760000DF76000091
:101A3000E276000008B54FF02002EFF3118382F345
:101A40001288BFF36F8F00F09BFB034804F01DFC6E
:101A500000F080F8FCE700BFE87600004FF02002BD
:101A6000EFF3118382F31288BFF36F8F0121044AD1
:101A7000C2F8401583F31188BFF36F8F00207047C1
:101A80000090035020B1034B800143F0010318473D
:101A9000704700BF006F00000C4B70B51B6873B13E
:101AA0000B4A15680022AA4202DB6FF0010070BDEC
:101AB0001C4613F8106B864204D00132F3E76FF036
:101AC0000C00F4E700200C60F1E700BF0CC500201B
:101AD000C86F000070B588B005460C46C0B26946B4
:101AE0001646FFF7D9FF00281FDB009BEBB15A68B1
:101AF000216802929A68D868CDE9032600220195F0
:101B0000CDE90612059202F0DFFA0546009804F0CE
:101B100083FC6DB12846084901AA04F078FE0798B5
:101B200008B9059B236008B070BD6FF01500FAE797
:101B30006FF01200F7E700BF31650000014802F0C6
:101B40009BBC00BFCC6F0000014910220A607047A7
:101B500010ED00E072B6404080F31188BFF36F8F44
:101B6000BFF34F8F30BF62B6BFF36F8F704700BFB8
:101B700072B6494081F3118820BF80F3118862B6A4
:101B8000704700BF37B505460C46C9B18B68104891
:101B90000093D1E90023452104F031FC636945211C
:101BA0000093D4E903230B4804F029FC4521E269A2
:101BB000094804F024FC4521A269084804F01FFCF0
:101BC0002146284603B0BDE8304002F0A9BA00BF64
:101BD00015770000497700007D77000091770000BD
:101BE00043B2002B08DB012200F01F0002FA00F0D4
:101BF000024A5B0942F82300704700BF00E100E0A1
:101C0000054B420953F82220012300F01F0003FA7C
:101C100000F01040704700BF00E100E043B2002B2D
:101C200001F10101ACBF03F16043064B4FEA4111E2
:101C3000C9B2ABBF03F5614300F00F0083F8001396
:101C40001954704714ED00E030BFFFF7FDBF00BF2F
:101C5000144A08B5144B22F07F029A60BFF34F8FED
:101C6000BFF36F8FD3F8882022F47002C3F8882066
:101C7000D3F8882042F4A002C3F888204FF04042F5
:101C8000C3F83422BFF34F8FBFF36F8F0023E1EE11
:101C9000103A02F09BFA02F0DDFA00F035FA02F099
:101CA0009FFA00BF0000000000ED00E01EF0040FEE
:101CB0000CBFEFF30880EFF30980816911F8021C73
:101CC0000229FFD001B504F056FC01BD04460846C8
:101CD00011461A460023E1EE103A83F30B880A4BB3
:101CE0002025A3F5205686F30B8883F3098863B675
:101CF0004FF0000383F31188BFF36F8FA04785F384
:101D00001188BFF36F8FFEE79809012001B5EFF34B
:101D10000580A0F110004FEAC0000449014409C940
:101D20009847BDE80140024908470000806C000068
:101D3000351D0000704700BF70B5224C06460D46A9
:101D40002148452104F05BFBA26AD00603D545215A
:101D50001E4804F054FBA36A190703D545211C480B
:101D600004F04DFB174CA36A9A0710D5452119487A
:101D700004F045FB626BA36A1B0608D54521164893
:101D800004F03DFB1EB1A36A23F08003A3620D4C57
:101D9000A26AD00703D54521104804F030FBA36A9E
:101DA000990603D545210E4804F029FB0020054B78
:101DB0009A6AD20658BF9A6A9A6A42F0FF029A62F9
:101DC000287070BD00ED00E0C4770000DF770000F0
:101DD000177800002F7800004C780000677800002A
:101DE0008B78000070B5234C06460D4622484521ED
:101DF00004F005FBA26AD10403D545211F4804F075
:101E0000FEFAA36A1A0503D545211D4804F0F7FA26
:101E1000184CA36A9B0510D51A48452104F0EFFA27
:101E2000A26BA36A180408D54521174804F0E7FA05
:101E30001EB1A36A23F40043A3620E4CA36A5905A2
:101E400003D54521114804F0DAFAA36ADA050BD567
:101E500045210F4804F0D3FA0020064A936A43F460
:101E60007F439362287070BDA36A9B04F4D545211B
:101E70000848EFE700ED00E0BF780000DA780000E6
:101E800017780000F07800000E7900002879000033
:101E9000487900008B78000038B5214C4521214855
:101EA00004F0ADFAA26A950103D545211E4804F05D
:101EB000A6FAA36ADC0103D545211C4804F09FFA69
:101EC000174DAC6A14F4801404D04521184804F06E
:101ED00096FA0224AB6A180303D54521154804F08D
:101EE0008EFA0F4DAA6A510303D54521124804F01A
:101EF00086FAAB6A9A0303D54521104804F07FFAAD
:101F0000074DAB6ADB0303D545210D4804F077FA92
:101F1000AB6A20466FEA03436FEA1343AB6238BDF6
:101F200000ED00E065790000827900009A790000F8
:101F3000B9790000E87900000B7A0000357A0000DA
:101F4000547A00002DE9F043574B0025D3F8049054
:101F50008BB0C9F3080885F31188BFF36F8F02F0C7
:101F60007F43B3F17F4F07D102F00C03082B05D15B
:101F700045214E4804F043FA2F4604E012074EBFB5
:101F80000F46074601250022A8F1030614468DF8E6
:101F90000720092E76D8DFE806F0056A6E677575AA
:101FA000757575724521424804F029FA3E4B8DF84B
:101FB0000740DC6A14F0020405D045213D4804F0D6
:101FC0001EFA002406E0DA6A002A1DDA45213A48A2
:101FD00004F015FA9DF807309BB92022394602A873
:101FE00004F00FFB099B002D59D0C3F3080222B95E
:101FF0006FEA53236FEA43230993204602A9FFF7B0
:10200000C1FD0BB0BDE8F083DB6A5B00E2D5452182
:102010002A4804F0F4F9BB6933F8022C4DF6027338
:102020009A420CD003F1604303F626631B786BB130
:1020300001200DF10701FFF77FFE0446CAE74521A5
:102040003A681F4804F0DBF93C68C3E71D4B1B7876
:102050002BB101200DF10701FFF7C4FEEDE71A4B8C
:102060001B889BB2002BB5D0FFF716FFE5E70020D9
:102070000DF10701DFE700200DF10701ECE7452135
:1020800012489CE7124919F4F87F124A124808BF17
:102090000A46A8F11003452104F0B1F991E723F4B1
:1020A000FF7323F00103A7E700ED00E0B27A000020
:1020B000E27A0000FE7A0000247B0000377B0000FB
:1020C0005B7B000029ED00E02AED00E07C7B000056
:1020D000847A0000997A0000A57B0000044B5A69BD
:1020E00042F010025A615A6942F480625A617047A4
:1020F00000ED00E0EFF30880EFF3098101B57246CF
:10210000FFF720FF01BD00BF002320210348C218B4
:102110000133412B82F80013F9D1704700E100E050
:10212000002080F31488BFF36F8F002080F30A88AB
:1021300080F30B8804F036FD00200E490860BFF3E1
:102140004F8F0D4880F3088800F03CF8202080F382
:1021500011880A484FF40061401880F30988EFF3B2
:1021600014800221084380F31488BFF36F8FFFF7B8
:102170006FFD000094ED00E098090120980901200E
:10218000BFF34F8F0549064BCA6802F4E062134360
:10219000CB60BFF34F8F00BFFDE700BF00ED00E055
:1021A0000400FA0500231846054A1168C1F3072107
:1021B0008B4200D17047936010610133F8E700BF94
:1021C00090ED00E010B572B6002484F31388FFF799
:1021D000E9FF0E4A234611464FF0FF3403F1200079
:1021E0000133102B42F82040F8D100234FF0FF308C
:1021F00003F160020133102B41F82200F8D162B6DE
:10220000BFF34F8FBFF36F8F10BD00BF00E100E041
:102210000121024B024A034800F00CB900000420DF
:1022200000C50020D46F000010B50B680C7A23F0B5
:102230001F0204F01F031A43CB68640923F01F0335
:10224000044943EA440343F001038860CA600B6118
:1022500010BD00BF90ED00E030B54B680C6885B054
:102260000A898D7A0094013B24F01F04234402F074
:102270001F0242EA451223F01F030F2804468DF87F
:102280000820039309D902464521064804F0B7F80F
:102290006FF01504204605B030BD6946FFF7C4FF56
:1022A000F8E700BFC17B00002DE9F04F89461446D6
:1022B00006464FF00008524D85B0C84523DA7768CE
:1022C000002F42D01F2F17D9FB0615D1D6F800A03A
:1022D0001AF01F0F10D1504604F05CF9834607EB4B
:1022E0000A00013804F056F9834510D06FF0150B41
:1022F0005A464521434802E042464521424804F0FF
:102300007EF86FF01504204605B0BDE8F08F1BF194
:10231000160FEDD0631E5B45EADBC5F808B0E9682F
:10232000C5F808B02F6921F01F01D6E900321A4420
:10233000994247F01F0702F1FF3A1CD1574508D1D7
:1023400031465FFA8BF0FFF787FF08F101080C3682
:10235000B3E73146C5F808B0EB6822F01F0203F07E
:102360001F031A43EA60E0B2FFF776FF10F1160F81
:10237000C7D0441CE9E7013B5745E0B223F01F03F7
:10238000C5F808B006D12A69314602F01F0213438E
:102390002B61E9E7296901F01F010B432B613146ED
:1023A000FFF75AFF10F1160FABD0C5F808B0EA6876
:1023B0009DF80830013F62F304038DF808302B6963
:1023C0009DF808205B0863F347128DF80820D6E9D2
:1023D00000321344009323F01F033B44441CA3EB3F
:1023E0000A0AE0B22AF01F030F28039303D902461A
:1023F0004521064883E76946FFF716FFB9E700BFA6
:1024000090ED00E0147C0000EC7B0000C17B00003C
:102410000522034B5A60BFF34F8FBFF36F8F704796
:1024200090ED00E0BFF35F8F0022014B5A607047D0
:1024300090ED00E010B5034C2278FFF735FF2070D7
:1024400010BD00BF81DD002038B50E4C2568102D71
:1024500014D8FFF7E7FF00200B4B0C4A1A638542A4
:1024600005D10B4B1D70FFF7D3FF002038BD61680D
:1024700001EB0011FFF7D8FE0130F0E74FF0FF301D
:10248000F4E700BFE06F000090ED00E0AAFF440019
:1024900081DD002008B50C4801F016FE28B9452161
:1024A0000A4803F0ACFF002008BD02698168136888
:1024B00023F4807313600B684FF42062082198475F
:1024C00049210348EDE700BF4B7C0000527C00002F
:1024D000797C000070B504460C250D480E46231A81
:1024E0009A100C4B40215343DBB25D4305F140038E
:1024F000184404F0A3F8011E04DB074B2B445B686F
:102500009847002120463346BDE87040184700BF79
:102510003CDB0020B76DDBB6207000002DE9F041F8
:102520000F4C104D031B9B105D43EBB20C255D431C
:10253000074605F140000E462044402104F097F87C
:10254000011E08DB084B2C44C4E90E36074B5B59CF
:10255000BDE8F041184738463346BDE8F04118471A
:102560003CDB0020B76DDBB6D766000020700000B2
:1025700070B50022012104460520FFF74FFB05201E
:10258000FFF72EFB0F4801F01BF90F4B984215D1B6
:1025900004F0ABFA26690D49304603F0D3FE00285B
:1025A0000BDB012535642469084904F11C0003F0A4
:1025B000C9FE002801DB0020E56470BD6FF0040057
:1025C000FBE700BF0D2600000000AD0B38700000D7
:1025D00073B50C23014600264B430A48C418403308
:1025E000D4E90E521844A663019204F05EF835B1A6
:1025F0002B46019A044802B0BDE87040184702B06B
:1026000070BD00BF3CDB0020086C000010B1012849
:1026100004D07047034B1B6C5B0701D1FFF7D8BF99
:10262000704700BF3CDB002008B54FF02003EFF3FC
:10263000118183F31288BFF36F8F124A136843F03E
:10264000020013F0010310600CD04FF05022D2F8BA
:102650000C34D2F80C2413F0010303D00A4804F020
:1026600024F8012381F31188BFF36F8F23B1BDE8F4
:1026700008400020FFF7ACBF0120BDE8084001F092
:10268000AFB800BF8CDB00207CDB0020074BD3E819
:10269000EF2F22F00201C3E8E01F0028F7D1D30793
:1026A00002D4012001F0CEB8704700BF8CDB0020BF
:1026B0002DE9F843012206463649D1E8EF3FC1E84B
:1026C000E02F0028F9D133B9334934484B60CB604F
:1026D0008A6003F04AFE731E012B32D8012E07D107
:1026E0004FF05023D3F81C3403F00303022B28D0FF
:1026F00004F021FA044618B9294B1B78002B41D16C
:102700004FF02003EFF3118583F31288BFF36F8F2F
:102710000124244FDFF89080DFF890904FF0502292
:10272000D2F81834D2F81824D2030CD503F00303DE
:10273000022B01D0012E06D1F4B185F31188BFF32D
:102740006F8FBDE8F8832846FFF712FA4FF050224A
:10275000D2F81835DBB2012BE0D139680029DDD081
:102760000021396039680221C2F818152022C8F802
:102770008021C9F80030D1E74FF050230222C3F87E
:102780000423DEE74FF0502302220546C3F8082356
:10279000BFE700BF90DB00202CDB002058DB0020CF
:1027A00092E100200451005000E100E00850005088
:1027B00030B5406801F01F05047BB2F5005F45EAC3
:1027C000441585B04FF0000404D1284601F000FB09
:1027D00000202CE0B2F5804FCDE9024429D1B3F5B9
:1027E000003F0CBF042305238DF80830836823FACB
:1027F00001F1C90729D4B2F5A03F26D11B4A05F043
:102800001F03803352F82330DB071ED40DF1070479
:102810002146284601F048FA154B984214D120462B
:1028200001F08CFA134B98420ED06FF00B0005B0FC
:1028300030BDB3F5C02F05D0B3F5003F0CBF022368
:102840000123D1E70323CFE7039400232846194649
:1028500002AA01F0E9F8074B984204D10121284669
:1028600001F072FAB4E76FF00400E0E7002584504D
:102870000400AD0B0000AD0B10B501F04FFA04469B
:1028800068B901F023FA084B98420AD1214607485B
:1028900001F004FA224605210D20FFF7BFF90020C0
:1028A00010BD6FF00400FBE70000AD0BB128000085
:1028B000430970B518D10D4B5968A9B10C680123B3
:1028C000002C38BF00240A4E03FA00F58A682A401B
:1028D00002D030464B68984734B123682146002B1C
:1028E00038BF00231C46F1E770BD00BF94DB002019
:1028F000206C00002DE9F043476801F01F053B7B89
:102900000E46144685B045EA4315CAB902A92846C1
:1029100001F0CAF90446284601F07CFA474B984278
:1029200004D06FF0040005B0BDE8F083844205D107
:102930009DF8080001F0FCF9A042F2D10020F2E776
:102940004FF000090DF103013046CDE9029901F085
:10295000ABF94B4680464946284602AA01F064F886
:10296000364B984202D06FF01500DCE7804503D16A
:102970009DF8030001F0DCF9A3054CD5304B314A3A
:102980002340934239D00CD8062B14D004D893B1ED
:10299000022BE8D104230EE0B3F5801FE3D101231D
:1029A00009E0294A93422AD0B3F5A00F29D0B3F504
:1029B000800FD8D102238DF8043084F48073C3F3E0
:1029C0000023E0068DF805304CBF0323C4F3401309
:1029D00021058DF8063016D501217B6801FA06F62F
:1029E0009E600022284601A901F0C4F8134B9842CA
:1029F00014BF6FF01500002095E70723DBE70523E0
:102A0000D9E70323D7E7620541BF01217B6801FABB
:102A100006F6DE60E5E7E3064FF000034CBF032453
:102A2000C4F340141A46284601A98DF8044000F06A
:102A3000FBFF024B984281D095E700BF0000AD0B31
:102A40000600F0000600100002004000024B0B6080
:102A500001231360704700BFA0DB002000487047CF
:102A60009070000010B504F051F8034C206004F0A1
:102A70004AF86060002010BDA0DB0020F8B50E46CB
:102A8000144604F040F821460546304603F0ACFEFB
:102A90003746F8B1B6FBF5F305FB136323B9B4FB76
:102AA000F5F305FB134040B12346324645210C485F
:102AB00003F0A5FC6FF015000BE0A54209D804F067
:102AC00022F80546384601F079FA641B2F44F9D103
:102AD0002046F8BD2346324645210248E8E700BFBC
:102AE000BD7C0000E17C000037B50C46194620464D
:102AF0000193154603F078FE019B40B90948224630
:102B0000452103F07CFC6FF0150003B030BD33B1FC
:102B10001A462146284603F074FD0020F5E71846C2
:102B2000F3E700BFE17C0000F8B50E4619463046D9
:102B300017461C4603F058FE40B92346324645214D
:102B4000124803F05CFC6FF01500F8BD44EA06057E
:102B500015F0030504D02346324645210C48F0E722
:102B60008CB12B19032BA6EB050006D8094AD2F825
:102B70000034DB07FBD50020E7E77B1B196801F079
:102B80003BFA043DEDE72046DFE700BFE17C0000B3
:102B9000037D000000900350F0B54B79012B26D047
:102BA000032B21D110268B79032B1DD1CC790CB1AD
:102BB000012C19D10A7912B1022A15D10E220B6803
:102BC0004568B3F5164F2D6865D02DD8B3F5165F5F
:102BD00064D016D8B3F5966F62D00AD8B3F5967F55
:102BE00061D0B3F5167F61D06FF0850052E000260A
:102BF000D9E7B3F5166F5CD0B3F5965FF4D1374BD8
:102C00003CE0B3F5E14F57D007D8B3F5615F55D03D
:102C1000B3F5964FE8D1324B30E047F61227BB426E
:102C2000E2D14FF4000329E0B3F5613F48D013D857
:102C3000B3F5963F47D009D84DF6C027BB4244D0E4
:102C4000B3F5614FD0D14FF46B0317E0B3F5E13F1B
:102C5000CAD14FF0EB7311E0B3F5612F38D008D82B
:102C6000204FBB4237D0B3F5E12FBDD14FF0E86321
:102C700004E01D4FBB42B7D14FF08053C5F8243557
:102C8000036934432243043303C9C5F86C2583E840
:102C900003000020F0BD4FF41D03EFE7134BEDE7F9
:102CA0004FF49E23EAE74FF4A033E7E74FF41C33D9
:102CB000E4E74FF41D23E1E70D4BDFE70D4BDDE7C4
:102CC0004FF06C73DAE70C4BD8E74FF46503D5E7A8
:102CD0004FF07063D2E74FF08063CFE700B013008E
:102CE00000A04E0090D0030040420F00005027008B
:102CF00000C0750000F03A0000903A01F8B50546B2
:102D00000F46066903F017FF10B9294B1B78A3B9CA
:102D10004FF02003EFF3118483F31288BFF36F8F1A
:102D2000284603F0E9FD00BB84F31188BFF36F8FE1
:102D3000EEE784F31188BFF36F8F6424284603F015
:102D4000DBFD28B9012003F0CEFE013CF6D1F4E70B
:102D50004FF02003EFF3118483F31288BFF36F8FDA
:102D6000284603F0C9FD0028E3D0012206F8107FB1
:102D700069680B68C3F84465C3F848250022C3F8A6
:102D80002021D3F82001C3F85821D3F858214A68EC
:102D9000D20641BF0822C3F800254FF48002C3F8D1
:102DA000042301229A6084F31188BFF36F8FF8BD6A
:102DB00092E100202DE9F8430023476805693C684B
:102DC000C4F8003528604368DE68711C0BD001210F
:102DD000DFF83CC106F01F029140CCF80810032137
:102DE00080324CF8221019694A1C0DD01A7FDFF886
:102DF00020C1002A14BF4FF00C0E4FF0000E01F05E
:102E00001F0280324CF822E0D3F814C0BCF1FF3F1F
:102E10000ED04FF0010EDFF8F8800CF01F020EFA12
:102E200002FEC8F808E04FF0030E803248F822E0B6
:102E3000D3F818E0BEF1FF3F0DD05A7FDFF8D08005
:102E4000002A14BF4FF00C094FF000090EF01F02CA
:102E5000803248F822901B68C3F80C65C3F814153B
:102E60000169C3F808C50431C3F810E5FFF794FE03
:102E7000064678B97B6899071CD505F1120000F069
:102E800057FD204B984208D045211F4803F0B7FA60
:102E90006FF004063046BDE8F883AB7C43F0004396
:102EA000C4F8A031C4F88C300123AA7C9340174A9F
:102EB000C2F804350823C4F800353B7A5BB9C4F87E
:102EC0001031D4F8103105F11103C4F83435012361
:102ED000C4F8383523607B6810359A075CBF4FF41F
:102EE0008072C4F80423DB0644BF4FF48003C4F8A7
:102EF00004330023C4F84455C4F848350123A360C3
:102F0000E360C7E70000AD0B307D000000700150AA
:102F100000258450194970B5044622F07F460868A0
:102F2000C1E90023A6F50013101AB3F5400F4FF0C6
:102F300000050AD20125124B19680A060B0A9219DC
:102F4000104943F10003C1E9002301F0E5F9A300B2
:102F500003F1502303F58033D3F84025B2420BD15F
:102F60001DB94FF40002C3F840254FF48030064BE2
:102F700000FA04F4C3F8444370BD00BF30C600201B
:102F8000B0DB002018C60020005001500123834010
:102F900010B5DC430D4AD2E8EF1F01EA040CC2E889
:102FA000EECFBEF1000FF6D14FF4803202FA00F0FE
:102FB00002F15022C2F80803BFF35F8FBFF36F8F97
:102FC0000B4214BF0120002010BD00BFACDB00206D
:102FD00001230E4A8340D2E8EF1F1943C2E8EC1FD9
:102FE000BCF1000FF7D14FF48033094A8340C2F897
:102FF0000433084BD3E8AF3F23FA00F0C30742BFC6
:103000004FF40012044BC3F800217047ACDB0020E2
:1030100000500150A8DB002000E100E00D4B1B68D0
:10302000190A1806BFF35F8F0B4BD3F80435C0188D
:1030300041F10001B3F5801F0AD2084BD3E9002308
:10304000994208BF904203D210F1807041F1000113
:10305000704700BFB0DB00200050015018C60020B0
:103060002DE9F74F16461F460546FFF78FFF0090E4
:10307000FFF7D4FFB94208BFB0427BD200234FF024
:103080008072B6EB000867EB01094B4508BF42456B
:103090007DD3404B03EB0513D3E902239F4208BFC6
:1030A000964251D04FF4803B26F07F4214464FEABF
:1030B000850905F1500809F150294FEA880809F5FA
:1030C00080391FFA88F808F15028D9F84005324BAA
:1030D00008F580380BFA05FBD3F804A5A0EB0A002D
:1030E00020F07F402AF07F410128C9F8401505D122
:1030F0000192132003F025FD274B019A0AF1020CDF
:10310000A4EB0C0020F07F400021B0F5000F88BF39
:103110006446C8F80010D8F8000024F07F40C3F8D7
:1031200044B3C9F84005D3F80405824506D0201AF7
:10313000023820F07F40B0F5000F19D8A41A24F00F
:103140007F44321947F10003124C290104EB0510AA
:10315000C0E902230C9A0D9B625000244360009B3F
:1031600013B12846FFF734FF204603B0BDE8F08FC7
:103170002046B1E70123094AAB40D2E8EF1F1943CB
:10318000C2E8E01F0028F8D132463B46DCE76FF08A
:103190001504E4E720C6002000500150A8DB002001
:1031A00073B500244FF0FF304FF0FF31164D174B31
:1031B000C5F80845C3E902014FF4803302264FF4F5
:1031C0000012C5F80433124B0121C5F80463152021
:1031D000C3F880212246FEF721FD1520FEF700FDF1
:1031E00001230C4A204613600B4A2B6013600B4BE3
:1031F0000B4A009301940023FFF732FF3046FFF79C
:1032000057FA204602B070BD0050015020C6002081
:1032100000E100E008500150ACDB0020152F000059
:10322000FFFF7F00334B2DE97343D3F804339A0734
:1032300009D5314B1A6832B100221A602F4A1B6837
:103240001368013313604FF02003EFF3118283F30F
:103250001288BFF36F8F274BD3F80433DB030DD5F0
:10326000274BD3E8EF1F21F00100C3E8E40F002C47
:10327000F7D1244B002935D1196899BB002382F37B
:103280001188BFF36F8F53B3FFF7C8FE04464FF0AA
:103290002003EFF3118083F31288BFF36F8F1A4B73
:1032A0000022D3E90289494508BF44451FD3D3E929
:1032B00000164FF0FF344FF0FF351A604FF48032A4
:1032C000C3E902450B4BC3F8482380F31188BFF3D1
:1032D0006F8F21B142464B4600200096884702B0CE
:1032E000BDE87083002119601B680123C7E7114600
:1032F000EBE700BF0050015004510150B0DB00204B
:10330000A8DB00204051015020C60020144B13B50B
:10331000B0F1FF3F08BF1846441E002C1DDD9C4243
:10332000A8BF1C46FFF77AFE0E4B0F49D3E90023D6
:10333000801AB0F5000F28BF00240130044408486B
:103340000091844228BF044600201219019043F1E5
:103350000003FFF785FE02B010BD0024E2E700BFC6
:10336000FFFF7F0030C60020152F000008B5FFF7D3
:1033700055FE024B1B68C01A08BD00BF30C60020B6
:1033800040EA0103C3F30E0330B58BB940F21515C3
:10339000094CC90BC0F3C730994201D1002030BDA0
:1033A000C218D2B202F5C07244F822500133F3E7DA
:1033B0006FF01500F3E700BF0030005003484521CF
:1033C00008B503F01CF80020FEF7DAFE727D00005D
:1033D000816808B5044A1023103903F03AF8003820
:1033E00018BF012008BD00BFEC70000030B50C46CE
:1033F000816887B0102302AA1039054603F00DF842
:10340000002811DB1022284602A903F0C1FA68B196
:1034100003232370A968012328460DF107022839E8
:1034200002F0FBFF00280BDA01202AE010221649E7
:1034300002A803F0D6F8002814BF02230123E8E70E
:103440009DF80730284603F00F021B0962702371B4
:1034500001220DF1070103F09BFA10B96378042BE8
:1034600003D90123637000232371AA682846203AF8
:10347000A11C03F0B5FA0028D6D12846E11C03F0C0
:103480000AFB07B030BD00BFEC7000002DE9F0432F
:1034900085B005466946032003F001FB044618B1D8
:1034A000FF2005B0BDE8F083072002A903F0F7FA7A
:1034B000012838D12A464921284802F0A0FF284B8C
:1034C0008DF80C40029300229DF800509DF8086092
:1034D0009DF803709DF80B809DF80290214C2946C1
:1034E000207803F069FA18B33146607803F064FA83
:1034F000F0B1A378042B01D0BB4219D1E378042B9F
:1035000001D0434514D12379042B0FD16379022BC9
:1035100019D1154A1548492102F071FF6079831EBF
:10352000022BBED9BCE70028CDD0B9E74B45EDD082
:103530000132032A04F10604D1D10D48492102F0D9
:103540005EFF0120ADE7032B05D00A4A0A49042B90
:1035500018BF0A46DEE7094ADCE700BFB77D000076
:10356000030103032A7E00009B7D0000027E000011
:10357000157E0000947D0000A57D0000A07D000068
:10358000064A074B1B681068BFF34F8F092B03D106
:10359000431E584258417047002070473401FF00D5
:1035A0003001FF0008B55A4A5A4B1B681268BFF336
:1035B0004F8F092B01BF4FF050230022C3F8142175
:1035C000C3F81821FFF7DCFF30B10123524A136022
:1035D000A2F63822C2F878354E4B1A6804331B68BD
:1035E000BFF34F8F092A05D1012B1EBF01224B4B80
:1035F000C3F87825FFF7C4FF10B10E22484B1A60BC
:10360000444B434A1B681268BFF34F8F092B04D108
:103610000022444B1A6001225A600022D30003F5B5
:103620007F03D3F80013BFF34F8F013108D0D3F8D5
:1036300000130132D3F80433B2F5807F0B60EDD173
:10364000394BDB69BFF34F8FD90745D5374B194647
:10365000D3F80024012AFBD1C3F80425D1F80034A3
:10366000012BFBD1304BDA69BFF34F8FD2070AD55C
:10367000DA6922F00102DA61BFF34F8F2B4AD2F8E8
:103680000034012BFBD12A4B1B68BFF34F8F013352
:103690000DD1254A136A23F0FF0343F02003136280
:1036A000BFF34F8F214AD2F80034012BFBD1002207
:1036B0001E4BC3F80425D3F80024012AFBD1BFF325
:1036C0004F8F1C491C4BCA6802F4E0621343CB6065
:1036D000BFF34F8F00BFFDE7154B1B68BFF34F8F44
:1036E0000133B3D0134BD3F88C2042F44062C3F8BB
:1036F0008C20D3F8882042F47002C3F88820BFF3EE
:103700004F8FBFF36F8F0D4B0D4A1A6008BD00BF7E
:103710003401FF003001FF00384A005000400050E3
:10372000E4AE03500C4700500080FF0000900350AF
:103730002080FF0000ED00E00400FA0538C50020FD
:103740000090D00370B501250368B3FA83F2202AF4
:10375000C2F11F0410D005FA04F223EA0202D0E8F5
:10376000EF6F9E4204D1C0E8EC2FBCF1000FF6D100
:10377000EAD102480C7070BD0148FCE70000AD0BB7
:103780000200AD0B036810B5CB40DB0711D4012359
:1037900003FA01F1036841EA0302D0E8EF4F9C42CB
:1037A00004D1C0E8EC2FBCF1000FF6D1F2D10248F1
:1037B00010BD0248FCE700BF0000AD0B0400AD0BDC
:1037C000044B1A7922B9012218601A710248704715
:1037D00002487047B4DB00200000AD0B0C00AD0BBD
:1037E00010B1012820D070474FF05022D2F8183481
:1037F000D2F81814C90311D503F00303022B0DD11D
:10380000C2F8183500220D4B1A601B6802224FF0D7
:103810005023C3F8042301229A6070474FF05023CD
:103820000122C3F81825EDE70022054B1A601B683A
:103830004FF05023C3F80403186070470451005040
:103840000051005038B510B1012818D038BD4FF0E4
:1038500050230222012142F210751C46C3F80823AE
:10386000154A10601268154A1160D4F81834DB0349
:10387000ECD5012003F037F9013DF6D1E6E74FF032
:103880005024002242F210750D4BC4F808031A6050
:103890001B680C4B1860D4F80C34D4F80C2403F0DB
:1038A0000103D203D2D5002BD0D0012003F01BF9A5
:1038B000013DF0D1CAE700BF045100500C50005048
:1038C0000051005004500050164B10B51A6852B108
:1038D000002018601B6801224FF05023C3F8082312
:1038E000114B1B689847114B1A688AB100221A6065
:1038F0001B684FF05023D3F81824D3F8181402F0A3
:103900000302012A4FF0020103D1C3F818159A608F
:1039100010BDC3F80813044B0120BDE810401B681C
:10392000184700BF00510050B4DB00200451005084
:1039300001460148FFF706BF3CC5002070B50D4C9D
:1039400000F1080334F813300546DA050E4607D5B2
:10395000C3F3432304EBC302526854F8333098474F
:10396000A3682BB131462846E268BDE8704018478D
:1039700070BD00BF40C50020134B083033F8102045
:1039800010B4D1051CD5C2F3432122F4F85223F818
:103990001020002003F1100434F8022B12F4807F71
:1039A00003D0C2F3432291420AD001302028F3D140
:1039B000002206485DF8044B43F83120FFF7E2BED1
:1039C0005DF8044B704700BF40C5002094C500203F
:1039D00038B50C4C00F1080534F815309A060AD5B4
:1039E00000225B0B9B0003F1A04303F55043C3F897
:1039F0001025C3F81025FFF7BFFF002324F815306A
:103A000038BD00BF40C50020064A00F01F0002EB91
:103A10008000D0F8003223F4403343EA0141C0F87B
:103A20000012704700258450F7B50446F9B14C4F99
:103A300000F1080C37F81C0000F02205222D02D1FD
:103A4000484803B0F0BD484D04F01F0605EB86065C
:103A5000D6F80052097825F00F0520F0020045EA5B
:103A6000810140F00100C6F8001227F81C0092B155
:103A70003B4804F1080630F8161015788F07526895
:103A80000CD5002ADCD130F8162022F01C0242EAC4
:103A9000850520F81650D3BB3448D2E721F0200129
:103AA000C904C90C20F81610002AECD0032DC7D881
:103AB00092F800C06246920002F1A04202F5504224
:103AC00025B9C2F81055C2F81055DCE7D2F81075C8
:103AD0004FEA042E27F00307C2F81075D2F81075CC
:103AE0000EF4F85E27F4473727F44077C2F81075D4
:103AF000D2F8107541EA4C3147EA054747EA0E070C
:103B000041F02001C2F8107520F81610BBE72046DE
:103B1000D3E90067FFF730FF002EBDD0104D2B68B2
:103B20009E4204D16B689F4201D1002209E01048F7
:103B30000DF10701FFF706FE0C4B984281D19DF86D
:103B4000072005EBC20308345F6035F8143045F8F0
:103B5000326043EA422343F4807325F814309BE734
:103B600040C500200400AD0B002584500000AD0BC3
:103B700094C500202DE9F043002944D0434E00F1C4
:103B8000080C36F81C50AB0704D4AF0602D54048E9
:103B9000BDE8F08315F01C0F02D04B78012BF6D056
:103BA0003C4B11F1010E00F01F0714BF022400244A
:103BB00003EB87078B1C14BF4FF00C094FF0000973
:103BC00044EA0904D7F8008244F4E06444F00104B4
:103BD00028EA0408BEF1000F03D091F801E04FEA93
:103BE0004E0E0BB18C78A300097845F0030543EA2B
:103BF000012343EA080343EA0E0343F00103C7F835
:103C0000003226F81C500AB92348C1E71F4D00F1C5
:103C1000080635F81640A307B9D50023177824F015
:103C20002004B90001F1A041E40401F55041E40C85
:103C3000C1F8103525F81640C1F8103592F801C0CA
:103C4000BCF1000FE0D0D1F81035927823F498132E
:103C500023F4F853C1F81035D1F810E5030203F44A
:103C6000F8534FEA0C4043EA0E0300F440301205CB
:103C7000034302F4801244EA4734134344F020041F
:103C8000C1F8103525F81640BEE700BF40C500203A
:103C90000400AD0B002584500000AD0B014BC3E9BF
:103CA0000201704740C50020054B083033F8103042
:103CB0009A0643BF5B0B03480B700348704700BF75
:103CC00040C500200000AD0B0400AD0B38B50E4C14
:103CD00094F85850B5B94022294604F1100002F07A
:103CE0009BFC0D20FDF77CFF4FF00042074B08487E
:103CF0001D601B68074BC3F80423012384F8583068
:103D0000636538BD0448FCE740C500207CD1005005
:103D10000000AD0B00D000500500AD0B034B93F835
:103D20005800003818BF0120704700BF40C5002070
:103D300001460148FFF726BD90C500200146014815
:103D4000FFF700BD90C500201E4B00F1080233F8BC
:103D5000123010B49A061ED513F002041BD15B0B6F
:103D60009A0002F1A04000F5514002F1A042046027
:103D700002F550420068D2F8100540F00100C2F888
:103D8000100529B1012202FA03F30F4AC2F80433E5
:103D90005DF8044B7047C3F38203042B0DD0052B51
:103DA0000DD00A4B196900F01F03D94001F0010141
:103DB00002315DF8044BFFF727BE0321F9E702212A
:103DC000F7E700BF40C5002000D000500025845018
:103DD0000E4B00F1080233F81230990613D59A07FA
:103DE00011D401225B0B9A4009499B0003F1A043C7
:103DF000C1F8082303F55043D3F8102522F003023D
:103E0000C3F8102570470021FFF7FEBD40C5002014
:103E100000D000500C4B00F1080213F8123010B51E
:103E2000DB0704460DD5FFF7D3FF2046FFF7D0FD93
:103E30000222064B04F01F048034054843F8242076
:103E400010BD0448FCE700BF40C500200025845099
:103E50000000AD0B0400AD0B2DE9F04F0026012250
:103E600034464B4B4B484C4985B01D6835B1D0F8B2
:103E7000045315421EBF1C601D68164304338B4259
:103E80004FEA4202F1D1454F3B6883B1444D0DF1F9
:103E90000C082B6A03932B624FF00109039840B979
:103EA00038603B682B6A03932B62002BF4D101240A
:103EB00069E090FAA0FABAFA8AFA3A4A0AF10803D3
:103EC00032F813104FEADA0C0AF0070309FA03F488
:103ED00018F80C30C1F3820223EA040308F80C300E
:103EE00005EB8A03D3F80042C8069346C4F30144A5
:103EF00018D5114650460193FFF720FD019BE4B20F
:103F0000D3F80032C3F301439C4207D1002150464D
:103F1000FFF77AFD21465046FFF776FD09FA0AF0D1
:103F20002862BBE7022C0CBF0321022150460192FC
:103F3000FFF76AFD019A032A04D0022C07D1BBF1D6
:103F4000010FEBD159465046FFF7F8FCE6E7032C8A
:103F5000E4D1BBF1020FF4E796FAA6F3B3FA83F3C8
:103F600004FA03F29B0003F1A04303F55043D3F896
:103F70001005D3F81015C0F30420C1F3014126EA5F
:103F80000206FFF7DBFC002EE6D105B0BDE8F08F9E
:103F900000D1005000D0005020D100507CD1005002
:103FA0000025845040C500200022034BC3F884251F
:103FB000C3F80425704700BF0090035008B5C0F354
:103FC0000B0383B90222094BC3F88425C3F80425E7
:103FD0004FF0FF320260D3F80024D207FBD5FFF781
:103FE000E3FF034808BD0348FCE700BF009003500F
:103FF0000000AD0B0A00AD0B0122074BC3F884256E
:10400000C3F80425D3F80824D207FBD50160BFF319
:104010005F8FFFF7C9BF00BF00900350032310B5A7
:10402000134C144A23616361134BA261E3614FF4A3
:10403000806323620023A3626362E36222660F4A05
:104040000F4962661022E01DA2662367E36663677C
:1040500002F0AAFABFF35F8F0A49204602F0A4FAE1
:10406000BFF35F8F2023A371BFF35F8F10BD00BF2D
:10407000BCDB00203C7E000092DD002082DD0020C1
:10408000457E0000497E00000E4B70B553F820407D
:10409000013053F82060A64200D870BDD4E9003545
:1040A0002846984765B1EB6830B10028B8BF404258
:1040B000FF28A8BFFF2018705A7842F001025A70FA
:1040C0000834E8E7FC70000070B5054610B900241C
:1040D000204670BD0378002BF9D00F4A0F4C1646CE
:1040E000944208D10D4CB442F1D0204602F019FDA3
:1040F00050B91834F7E7204602F013FD10B12368D9
:10410000AB42E5D01834EBE72846216802F05DFAAF
:104110000028EED1DCE700BF806C0000086C0000D6
:1041200073B504460D464FF02003EFF3118683F379
:104130001288BFF36F8F0022042896BF114B124BD9
:1041400053F82030009245210246104802F057F9FA
:104150003DB1EB69C3F308031BB145210C4802F0E4
:104160004EF900220B4B45210B4802F048F9294635
:104170002046FFF723F986F31188BFF36F8F02B053
:1041800070BD00BF10710000507E00005E7E000018
:104190008B7E0000B17E0000B97E0000012208B5D0
:1041A000084B02201A70FFF76FFF02F0CEFC0320CD
:1041B000FFF76AFFFCF740F9034A137B23F0010382
:1041C000137308BD92E1002038C600200248034A5C
:1041D0000021121A02F020BA18C6002094E1002033
:1041E00008B5194B03F5006282F3088883F30A8847
:1041F0000025E023154C84F82230E5772576657696
:10420000A57684F82050636A43F4E023636284F85F
:104210002350FDF763FFFDF797FC4FF0FF33A362D8
:10422000E362FEF711F9FDF7F3FF02F079FC28468F
:10423000FFF72AFF0120FFF727FF2B462A462946D2
:104240000348FDF743FD00BF9809012000ED00E0A1
:104250009D41000008B50648064A0749121A02F0B7
:10426000D0F9BDE80840054A0549064802F0C9B939
:1042700000C5002018C600203C7F000000000000A0
:10428000247F000000C50020034B1B680BB9FFF71B
:104290006DB80020704700BF64DC002030B50368B3
:1042A00068B10A4A5268904209D043B1D3E9042167
:1042B000D0E90445121945EB0101C3E90421426824
:1042C00013605A600023C0E9003330BD9CC5002054
:1042D000104B10B51C689C4208BF0024FFF7D4FFA8
:1042E0009CB1D4E90423121A63EBE073012A73F141
:1042F00000010DDB10466FF0004219460023824298
:1043000073EB010400DA104610BD6FF00040FBE7CC
:104310000020F9E79CC500202DE9F74F4FF020035E
:10432000EFF3118483F31288BFF36F8FDFF8ACA033
:10433000294D5146DFF8A8B02860D5F800C0DBF859
:1043400000006246DAE90089D3175845CDE9002319
:104350000DD060B1D0E90467B445BB411DDA009BC4
:10436000B6EB030C019B67EB0306C0E904C600260D
:10437000009B2E6013EB0802019B43EB0903C1E98C
:104380000023FFF7A5FF3146FEF7C0FF84F3118835
:10439000BFF36F8F03B0BDE8F08F0022002318EB4E
:1043A000060849EBE679C0E90423ACEB0606CAE946
:1043B00000892E60FFF772FF84F31188BFF36F8FBF
:1043C000836898474FF02003EFF3118483F312883A
:1043D000BFF36F8F0149B0E764DC0020B8C600204E
:1043E0009CC5002010B50A4C23681BB10123002096
:1043F000236010BD00F052F80028F7D001380628DD
:1044000003D8044B53F8200010BD034810BD00BF73
:1044100068DC002024710000FE8FFFFFBFF34F8F88
:104420000549064BCA6802F4E0621343CB60BFF350
:104430004F8F00BFFDE700BF00ED00E00400FA056C
:104440004FF0FE33002130B4064A074D074C2B6075
:1044500013602360064A074CEB606368C2F80015DE
:1044600030BC18470414845000148450081484503D
:1044700000008450A4C50020024BD0E90012C3E91B
:1044800000127047A4C5002038B131B100220144A8
:104490000346013088421A70FAD1704710B500F017
:1044A00033F820B1032400F067F8204610BD00F077
:1044B00035F890B900F0B0F890B90F4B1B681B0E9F
:1044C000F02B08D10D4A0E4B12689A420AD00724ED
:1044D00000F01CF8E7E70624FAE70424204610BDA4
:1044E0000024F5E7012000F097F804460028F7D1F2
:1044F000044B1860D9E700BF28198450241A84504F
:104500000000E0200C1A8450002070470020704703
:10451000014B1860704700BF041A845010B5114851
:1045200000F048F800B110BD0F4800F043F8002833
:10453000F9D10E4C204600F03DF80028F3D10C4B89
:104540000C481C6000F036F801460028EBD100F062
:104550002DF8044608B1204610BD00F03FF8204673
:10456000FAE700BFB8C50020ACC50020B4C50020E4
:10457000BCC50020B0C5002008B5084800F024F8EC
:10458000074800F021F8074800F01EF8064800F040
:104590001BF8BDE8084000F00BB800BFB8C500200C
:1045A000ACC50020B4C50020B0C500200020704775
:1045B000704700BF08B5034B02681B681068984736
:1045C000002008BDC8C5002008B5034B02685B6821
:1045D00010689847002008BDC8C5002070B5094C78
:1045E000094D2069AB68984718B1084B08485B68CB
:1045F00098470021074AEB6811602069BDE87040C8
:10460000184700BFD8C50020C8C50020A4C5002099
:10461000407100006CDC002070B51A4D1A4E044643
:10462000B26828699047F0B95CB1184C2368ABB107
:10463000012B1AD0013B23602869F36898470020BA
:1046400070BD124C216839B90120114B114AC3F8D1
:1046500000051368002BFCD101312160F368286943
:104660009847002070BD0C4870BD0A4A1368002BA3
:10467000FCD1074A6FF07E40C2F80035FFF748FFD3
:104680002368D7E7D8C50020C8C500206CDC00200F
:104690000000845010198450E98FFFFF10B50446C4
:1046A00030B16368DB0602D500232360636010BD70
:1046B000024B03485B689847F3E700BFA4C500209E
:1046C0006071000068B143683BB1DB0607D5BFF3FA
:1046D0005F8F002303601846704703487047034804
:1046E00070476FF4E0407047EA8FFFFFE98FFFFFEC
:1046F00010B5044620B1002211232260636010BD72
:104700000148FFF79DFEF6E788710000A0B14368FD
:1047100083B1DB060CD50122D0E8EF3FC0E8E12FE2
:104720000029F9D1012BF7D0BFF35F8F002070472C
:1047300003487047034870476FF4E040704700BF7C
:10474000E98FFFFFEA8FFFFF30B10268034B044897
:104750009A4208BF0020704702487047DD55AABB47
:104760008208F0007108F00038B50D460446B0B17B
:10477000A0220021043002F002FA95B10822294655
:1047800004F1640002F001FA082205F1200104F1AD
:10479000840002F0FAF90020034B236038BD03487F
:1047A000FCE70348FAE700BFDD55AABB7108F0003B
:1047B0008308F0002DE9F74305460E469946114659
:1047C000FFF7C2FF0446002840F08480002E00F06E
:1047D0008580002900F08480B9F1200F40F08280AC
:1047E00005F14404082205F10408204602F0CDF941
:1047F00005F1240708223146404602F0C6F906F1C9
:1048000020010822384602F0C0F902A941F8049DAF
:104810004FF4807002F0ADF9002865D14FF4807339
:10482000324A0121136093600823314A00F034FBBF
:104830000121052308462F4A00F02EFB082342469B
:1048400001211C2000F028FB08233A460121032007
:1048500000F022FB224608230121022000F01CFB6D
:104860000823254A01211A2000F016FB0523234ABC
:1048700001211B2000F010FB0823214A01211420F4
:1048800000F00AFB08231F4A0121152000F004FB59
:10489000082305F164020121162000F0FDFA082327
:1048A00005F184020121172000F0F6FA0823164AC8
:1048B00001210B2000F0F0FA00F04AFB04460198B9
:1048C00000F0D8FA114B002C18BF1C46A421284632
:1048D00002F057F9204603B0BDE8F0830C4CF9E72D
:1048E0000C4CF7E70C4CF5E7084CEFE790108450C0
:1048F000EC71000064720000AC71000050720000A6
:104900001072000030720000CC7100008408F000CA
:104910007608F0008008F0008108F000C2690C4BB6
:104920001A60826943F8042C426943F8082C026932
:1049300043F80C2CC26843F8102C826843F8142CFE
:10494000426843F8182C026843F81C2C704700BFDB
:104950005C1684500C4B1B68C3610C4B1B68836155
:104960000B4B1B6843610B4B1B6803610A4B1B68B5
:10497000C3600A4B1B688360094B1B684360094B8B
:104980001B680360704700BF5C1684505816845043
:1049900054168450501684504C1684504816845037
:1049A000441684504016845030B10268034B0448CA
:1049B0009A4208BF0020704702487047DD55AABBE5
:1049C0000202F0000002F00038B5044668B1051D8F
:1049D0007021284602F0D5F828462022044902F02A
:1049E000CCF80020034B236038BD0348FCE700BF30
:1049F00078720000DD55AABB0002F0002DE9F043FB
:104A000085B015466F46274B04460E460FCB87E808
:104A10000F002DB94FF00009484605B0BDE8F083FE
:104A20002046FFF7C1FF81460028F5D1231D0193E1
:104A3000636AA3BB236F8BB1C3F14008A84528BFAD
:104A4000A84604F1300031461844424602F095F879
:104A5000236F464443442367A5EB0805226F402A91
:104A600006D104F13001384600F0B4FB002323677F
:104A700005F03F0835F03F0505D031462A46384657
:104A800000F0A8FB2E44B8F1000FC3D042463146D7
:104A900004F1300002F071F8C4F87080BCE7DFF870
:104AA0000890B9E7F06E00000C02F0002DE9FF411C
:104AB00004466F46134B0E460FCB87E80F00204687
:104AC000FFF772FF8046B0B9CEB1636A251D01952C
:104AD0003BB90123226F636204F13001384600F0D4
:104AE00079FB2B46043E243453F8042B12BAA3421C
:104AF00046F8042FF8D1404604B0BDE8F081DFF855
:104B00000880F8E7F06E00000502F000084B1B6813
:104B10001B0EF02B08D1074B1A68074B9A4205D1A0
:104B20000020064B1860704705207047062070472C
:104B300028198450241A84500000E0200C1A845054
:104B4000002230B5134640F6FC754900023802F1E8
:104B5000A15404F5823490424FEA840402F1010228
:104B6000CABF236025605B181E2AF0D1034A136078
:104B70000B445360024B034A1A6030BD78108450D6
:104B80008410845020F80F001E4B30B51A4685B0B3
:104B9000196800910099CC07FAD500F1A15000F5F1
:104BA00082308000016813680193019BD807FAD511
:104BB000154B164C186820231F3090FBF3F0144D52
:104BC0000138002810DA00230130400153B14FF0C2
:104BD0000042A0F12001134204D1013888424FEA7B
:104BE0005202F8D105B030BD13680393039BDB0775
:104BF000FAD5431823602B680293029B002BE3D164
:104C00000138DEE7B4108450AC108450E4108450B6
:104C1000DC108450F0B51D6885B001F01F040DB99B
:104C20001F2C28D1174D2E462F680197019FFF0793
:104C3000FAD500F1A15000F5823080000068356897
:104C40000395039DED07FAD51F2C00EB611018BFEB
:104C5000C9430D4D18BF01F01F0128600B480068C3
:104C6000029002981CBF00FA01F111604FF00001A0
:104C700008BF1060196010684300C00F136005B0D2
:104C8000F0BD00BFB4108450E4108450DC10845098
:104C90000C4B890118603F3020F03F0040305860D5
:104CA00099600948D9601961596199611C3382B0D2
:104CB000196002680192019AD207FAD5196002B010
:104CC000704700BF90108450B410845038B5A0F1E4
:104CD0002003B3F5426F05462CD88F2826D800F163
:104CE000470300F16604DB064FEA541400D0013498
:104CF00064013F34A409013411B1A1421AD30C4616
:104D00004FF48050E300B0FBF3F0202828BF2020B0
:104D100002B110600122084B21461A60FFF710FF14
:104D200028462146FFF7B4FF002038BD00F11F04DC
:104D30006409DDE70148F8E71C1884502221F000DF
:104D4000464BF0B51D4689B01C680194019CE407F0
:104D5000FAD5434B002413449B001A680B181E2BF2
:104D600088BFC0F11E011F320B1852095343B3F51F
:104D7000806F84BF4FF48061B1FBF2F1274688BF9A
:104D8000091ADFF8E4E000F1A150DFF8E0C000F517
:104D90008230A14233DC2B680493049BDB07FAD5F5
:104DA000304B1B68296805910599CF07FAD52E4C21
:104DB0002E49236000231E46934203F1010040D197
:104DC0001946002620F0010228488A423CD829686A
:104DD00006910699CE07FAD52549096828680790F3
:104DE0000798C007FAD5216000210C461F488B4266
:104DF0002DD100201D499A422CD809B0F0BD2B6856
:104E00000293029BDB07FAD503199B001B682E68EF
:104E10000396039EF607FAD5CEF80030002393429E
:104E200003F1010306D1164623F00103B34204D86F
:104E30000134AEE7CCF80070F1E7CCF80070013631
:104E4000F4E70E600346B7E706600131BDE7046092
:104E50000131CCE708600133CDE700BFB4108450C6
:104E6000240421147C108450D4108450D810845011
:104E70007810845008B540B1202801464FF0070251
:104E800028BF20210020FFF75BFF0022014B1A60A2
:104E900008BD00BF1C188450F0B5294D85B02C46C4
:104EA0002E680096009EF607FAD500F1A15000F595
:104EB000823080000568206801900198C707FAD504
:104EC0002048214F056002EB8306B24229D100271A
:104ED0005A1C1D4E22F001029A4227D823680293E1
:104EE000029BDE07FAD5194B0B449B001B681F334E
:104EF0005B099A4213D2216803910399C907FAD535
:104F000000211544056008469B1A0F4A8B4210D8B1
:104F100000205A1C0C4922F001029A420CD805B01C
:104F2000F0BD52F804CBC7F800C0CEE737600133BC
:104F3000D2E710600131E9E708600133EDE700BF17
:104F4000B4108450D4108450D810845024042114F8
:104F50002DE9F041814BA0B01D68986820331E46B2
:104F60001A680192019AD707FAD57D4B7D4A1A60DB
:104F700032680292029AD407FAD57B4A1A607B4AB9
:104F80001446116803910399C907FAD5784A116844
:104F9000C1F3402137680497049FFF07FAD5754F86
:104FA0001F6027680597059FFF07FAD51768002936
:104FB00000F0CF80B90540F1CC80316806910699A8
:104FC000CF07FAD56C491960216807910799C9077D
:104FD000FAD51168C1F3402137680897089FFF0789
:104FE000FAD5664F1F6027680997099FFF07FAD512
:104FF0001268002900F0AF80910540F1AC80326862
:105000000A920A9AD207FAD5564A1A6032680B9267
:105010000B9AD707FAD55A4A1A6031680C910C9945
:10502000CC07FAD55749196031680D910D99C90718
:10503000FAD55549196031680E910E99CF07FAD506
:105040005249196031680F910F99CC07FAD5504930
:105050001960504B1E46196810911099C907FAD56E
:105060003F4C4D4B236033681193119BDB07FAD5FE
:105070004A4B236033681293129BDF07FAD5484BE3
:1050800023603A4B9846196813911399C907FAD5CA
:10509000324F386033681493149BDB07FAD52260D3
:1050A00033681593159BD807FAD53E4B23603368B8
:1050B0001693169BD907FAD53B4B23603368179399
:1050C000179BDA07FAD5394B236033681893189B7E
:1050D000DB07FAD5364B236033681993199BD80741
:1050E000FAD5344B236033681A931A9BD907FAD543
:1050F000314B236033681B931B9BDA07FAD52F4B88
:10510000236000F01DFC08BBD8F800301C931C9BEA
:10511000DB07F9D53D6033681D931D9BD907FAD590
:10512000274B236033681E931E9BDA07FAD5254B65
:105130002360D8F800301F931F9BDB07F9D50C4B79
:105140001B6813F4805F204B08BF184620B0BDE8F1
:10515000F0811E48FAE71E48F8E700BF901084501F
:105160008010845000100251C01F7229B410845066
:1051700088108450C0CF0129C01F0E29C03F0029CC
:1051800040010249003184A800001649400108A1ED
:1051900080440888B0108450C044708880077A41E9
:1051A000C0077E4100006A498006164940006E49EA
:1051B00000020021008220214082202180822421BF
:1051C00040A161A100C861510308F1000108F1008C
:1051D0000208F100324B2DE9F74F8046924699467E
:1051E00044681A68002AFCD12E4B9B461A68002A94
:1051F000FCD14FF0FF30019100F094FC802000F0D2
:1052000097FC01230720284A284DA2F59E722B60A7
:10521000C2F83C011360636A254F264E3B60A36AC7
:1052200020463360D8F8003042F8043CD8F8083003
:1052300098470199D9F80030002BFBD1BAF1000F43
:1052400020D104221C4B1A60D9F80030002BFBD16E
:10525000DBF800A0BAF1000FFAD1D8F80C302046E4
:1052600098473B6863623368A362144BC3F800A09D
:10527000C3F844A1D9F80030002BFBD12B6003B058
:10528000BDE8F08F236A4020012B04BF0B4A136056
:105290000B4B1960C3F804A000F050FCD4E700BF2A
:1052A00010198450201C8450001984501818845000
:1052B000CC178450D0178450C8178450841684505B
:1052C000281C8450544B10B5194698B01A680192A6
:1052D000019AD207FAD5514B514A1A600A680292D4
:1052E000029AD407FAD54F4A1A600A680392039AC1
:1052F000D007FAD54C4818600A680492049AD2077D
:10530000FAD54A4A1A600A680592059AD407FAD56E
:10531000474A1A600A680692069AD207FAD5454AA1
:105320001A600A680792079AD407FAD5424A1A60A7
:105330000A680892089AD207FAD5404A1A600A68A1
:105340000992099AD407FAD53D4A1A600A680A9266
:105350000A9AD207FAD53B4A1A600A680B920B9A4E
:10536000D407FAD5384A1A600A680C920C9AD20708
:10537000FAD5364A1A600A680D920D9AD407FAD502
:10538000334A1A600A680E920E9AD207FAD5314A49
:105390001A600A680F920F9AD407FAD52E4A1A603B
:1053A0000A681092109AD207FAD52C4A1A601A4B42
:1053B00019461C681194119CE407FAD5174B186024
:1053C000086812901298C407FAD51A600A681392F6
:1053D000139AD007FAD5124A1A600A681492149ADE
:1053E000D207FAD51E4A1A600A681592159AD40790
:1053F000FAD51C4A1A600A681692169AD007FAD58E
:10540000194A1A600A681792179AD207FAD5174AEA
:105410001A6018B010BD00BFB010845080108450C6
:1054200000936521000431904096659000836121CE
:1054300000C3302100C364900081619000461021B8
:10544000008111210041442100C320290C4610C8CD
:105450000086312100C3602140C128294096652182
:105460000013319040962529594614C8400432490A
:10547000494B10B5194694B01A680092009AD207A9
:10548000FAD5464B464A1A600A680192019AD40737
:10549000FAD5444A1A600A680292029AD007FAD5ED
:1054A000414818600A680392039AD207FAD53F4A26
:1054B0001A600A680492049AD407FAD53C4A1A6022
:1054C0000A680592059AD207FAD53A4A1A600A681C
:1054D0000692069AD407FAD5374A1A600A680792E4
:1054E000079AD207FAD5354A1A600A680892089ACC
:1054F000D407FAD5324A1A600A680992099AD20783
:10550000FAD5304A1A600A680A920A9AD407FAD57C
:105510002D4A1A600A680B920B9AD207FAD52B4AC9
:105520001A600A680C920C9AD407FAD5284A1A60B5
:105530000A680D920D9AD207FAD5264A1A600A68AF
:105540000E920E9AD407FAD5234A1A600A680F926F
:105550000F9AD207FAD5214A1A600F4B19461C68D8
:105560001094109CE407FAD50C4B18600868119051
:105570001198C407FAD51A600A681292129AD007D5
:10558000FAD5174A1A600A681392139AD207FAD505
:10559000144A1A6014B010BDB010845080108450AA
:1055A000809065210004099040966590808061217B
:1055B00080200821802064900081619000461021A5
:1055C000008111210041442180202029024610C879
:1055D00000860921802060214021282940966521EC
:1055E00040962529594614C8504B10B51C4696B014
:1055F0001A680192019AD207FAD54D4B4D4A1A60AA
:1056000022680292029AD207FAD54B4A1A604B4A94
:1056100042EA804022680392039AD207FAD51860C2
:1056200022680492049AD007FAD5454A1A60A2F576
:10563000800242EA814122680592059AD207FAD592
:10564000196022680692069AD007FAD53D4A1A6078
:1056500022680792079AD107FAD53B4A1A60226856
:105660000892089AD207FAD5384A1A602268099235
:10567000099AD007FAD5364A1A6022680A920A9A1D
:10568000D107FAD5334A1A6022680B920B9AD207D7
:10569000FAD5314A1A6022680C920C9AD007FAD5D2
:1056A0002E4A1A6022680D920D9AD107FAD52C4A1B
:1056B0001A6022680E920E9AD207FAD5294A1A6009
:1056C00022680F920F9AD007FAD5274A1A602168EC
:1056D00010911099C907FAD51A60144B1A46196827
:1056E00011911199C807FAD5114B20491960116819
:1056F00012911299C907FAD51D49196011681391C1
:105700001399CC07FAD50B491960116814911499B3
:10571000C807FAD517491960116815911599C90775
:10572000FAD5154A1A6016B010BD00BFB0108450EB
:10573000801084504004419000862929D81001C867
:1057400040144190401421294014652100344090B8
:1057500000310C90C0400C90C030202940960D9034
:1057600000416090031645C8008611210041602168
:10577000594644C84014459040142D90264870B5B1
:10578000054688B004680094009CE607FAD5234CCF
:1057900023480460234C44EA83432C680194019C11
:1057A000E407FAD50360930143EA824242F01044D1
:1057B00044F4C0442B680293029BDE07FAD50460D0
:1057C0002B680393039BDB07FAD5174B03608B0110
:1057D00043EA814141F0104343F4C0432E680496EC
:1057E000049EF607FAD503602B680593059BDE0738
:1057F000FAD5046041F058412B680693069BDC07FC
:10580000FAD5016042F058422B680793079BDB07EB
:10581000FAD5026008B070BDB0108450C0210229D2
:10582000801084508071009880611890354B8EB044
:1058300019461A680092009AD207FAD5324B334AB9
:105840001A600A680192019AD007FAD5304A1A60A4
:105850000A680292029AD207FAD52E4A1A600A689A
:105860000392039AD007FAD52B4A1A600A68049269
:10587000049AD207FAD5294A1A600A680592059A4D
:10588000D007FAD5264A1A600A680692069AD20705
:10589000FAD5244A1A600A680792079AD007FAD5FF
:1058A000214A1A600A680892089AD207FAD51F4A54
:1058B0001A600A680992099AD007FAD51C4A1A6038
:1058C0000A680A920A9AD207FAD51A4A1A60086830
:1058D0000B900B98C007FAD51A600A680C920C9AC4
:1058E000D007FAD5144A1A600A680D920D9AD207A9
:1058F000FAD5124A0E211A6000200D230F220EB095
:10590000FFF73CBFB01084508010845080430129C1
:1059100040633921807001298020542100D13490C6
:10592000C0403490C0302029C0530D9000413890C1
:10593000832308C880E3102100413821CF4308C8E1
:1059400001232DE9F04192B0CDE90333624B1D46AE
:105950001A680592059AD207FAD5604B604C23600D
:10596000604B19461A680692069AD707FAD55E4B1D
:105970001A68D60400F1A8802A680792079AD0070F
:10598000FAD55A4A22600A680892089AD207FAD5CC
:105990001E68C6F30036002E40F098801220FFF7F4
:1059A000F3F807461320FFF7EFF887428CBF122069
:1059B0001320FFF7E9F8471EFFF738FF03AB01AAF2
:1059C00039461220FFF726F904AB804602AA394671
:1059D0001320FFF71FF900EB4800022832D00328FC
:1059E0003ED0012874D12B680993099BDB07FAD5B7
:1059F0003F4B23602B680A930A9BD807FAD53D4B8F
:105A000023602B680F930F9BD907FAD53A4B23607D
:105A10002B681093109BDA07FAD5384B23602B685C
:105A20001193119BDB07FAD5354B2360013F25D538
:105A30001023192218210020FFF7A0FE304612B0D3
:105A4000BDE8F0812B680B930B9BD907FAD52D4B42
:105A500023602B680C930C9BDA07FAD52A4BCFE70F
:105A60002B680D930D9BDB07FAD5284B23602B6821
:105A70000E930E9BD807FAD5254BC1E703AB01AABD
:105A800039461220FFF7C6F804AB044602AA39468D
:105A90001320FFF7BFF810EB440402D1FFF712FC0C
:105AA000C4E7FFF7E5FC022C08D0032C09D0012C39
:105AB00010D117211620FFF797FDB7E71521142005
:105AC000F9E70F210E20F6E7124EB7E7124EB5E7C1
:105AD000124EB3E7124EB1E7B010845000084A519D
