:020000040000FA
:10000000A089012039210000636000000D2100005B
:100010000D2100000D2100000D2100000D21000028
:10002000000000000000000000000000C51C0000EF
:100030000D210000000000000D21000057640000A9
:10004000251D0000251D0000251D0000251D0000A8
:10005000251D0000251D0000251D0000251D000098
:10006000251D0000251D0000251D0000251D000088
:10007000251D0000251D0000251D0000251D000078
:10008000251D0000251D0000251D0000251D000068
:10009000251D0000251D0000251D0000251D000058
:1000A000251D0000251D0000251D0000251D000048
:1000B000251D0000251D0000251D0000251D000038
:1000C000251D0000251D0000251D0000251D000028
:1000D000251D0000251D0000251D0000251D000018
:1000E000251D0000251D0000251D0000251D000008
:1000F000251D0000251D0000251D0000251D0000F8
:10010000251D0000251D0000251D0000251D0000E7
:10011000251D0000251D0000251D0000251D0000D7
:10012000251D0000251D0000251D0000251D0000C7
:10013000251D0000251D0000251D0000251D0000B7
:10014000251D000053B94AB9002908BF00281CBF6B
:100150004FF0FF314FF0FF3000F06CB9ADF1080CFB
:100160006DE904CE00F006F8DDF804E0DDE90223D5
:1001700004B070472DE9F047089D04468846002BDF
:100180007DD18A4217463FD9B2FA82F242B1C2F11A
:1001900020009140974024FA00F0944040EA010882
:1001A0004FEA174C230C1FFA87FEB8FBFCF60CFB3A
:1001B000168106FB0EF043EA0143984205D9FB186D
:1001C00002D2984200F22481013E191AA3B2B1FB77
:1001D000FCF00CFB101100FB0EFE43EA0144A645A7
:1001E00005D93C1902D2A64500F20F81013840EA38
:1001F0000640A4EB0E0400261DB1D4400023C5E93F
:1002000000433146BDE8F08702B9FFDEB2FA82F260
:10021000002A50D1CB1B4FEA174E1FFA87F8012650
:10022000210CB3FBFEFC0EFB1C300B4608FB0CF94B
:1002300041EA004189450AD979182CBF01230023DE
:10024000894502D9002B00F0D9800CF1FF3CA1EBCD
:100250000901A3B2B1FBFEF00EFB101108FB00F880
:1002600043EA0144A04505D93C1902D2A04500F259
:10027000C9800138A4EB080440EA0C40BCE78B427B
:1002800009D9002D00F0B1800026C5E900013046F3
:100290003146BDE8F087B3FA83F6002E46D18B4293
:1002A000C0F0A680824240F2A3803046002DA8D044
:1002B000C5E90048A5E79740C2F1200301FA02F022
:1002C0004FEA174ED94024FA03F31FFA87F89440F7
:1002D0000343B1FBFEF01E0C0EFB101100FB08FCEB
:1002E00046EA01418C4509D979182CBF0126002620
:1002F0008C4502D9002E00F093800138A1EB0C014F
:100300009BB2B1FBFEF60EFB161106FB08FC43EA9E
:1003100001418C4505D9791802D28C4500F28780BD
:10032000013EA1EB0C0346EA004679E7C6F120073F
:1003300003FA06F402FA06FC01FA06FEFA4020FA75
:1003400007F8F94000FA06F3224348EA0E044FEAA0
:1003500012484FEA144E1FFA82F9B1FBF8FA08FB73
:100360001A110AFB09F04EEA014E70450AD912EB48
:100370000E0E2CBF01210021704501D9002952D059
:100380000AF1FF3AAEEB000EA4B2BEFBF8F008FB98
:1003900010EE00FB09F944EA0E4EF14505D912EBC7
:1003A0000E0E01D2F14538D8013840EA0A40AEEBD2
:1003B000090EA0FB0C89CE4541464C4602D306D11E
:1003C000434504D20138B8EB0C0169EB020415B3C4
:1003D0005A1A6EEB040EF2400EFA07F72EFA06F3E5
:1003E00000261743C5E900730BE72E46284608E7A9
:1003F000841A61EB03010120884657E7ACF1020C37
:10040000394424E702383C4434E702383C44EEE601
:10041000023E3B44D9E62E46F3E602389644C4E752
:10042000023839446AE7AAF1020A9644AAE7023E72
:10043000394476E7704700BF7FB5314B314A3248C7
:10044000C3F800264921C3F80426C3F80826C3F8D8
:100450000C26C3F81026C3F81426C3F81826C3F8D0
:100460001C2605F038FD05F0EFF8284800F05EF88E
:1004700028B94521254A264805F02DFDFEE701A8AB
:1004800000F076FC234B1B68834204D045212248B0
:1004900005F021FDFEE74921039A204805F01BFDE8
:1004A00049211F4805F017FD4FF48031002002F06C
:1004B000F9FF20B145211B4805F00DFDFEE7694617
:1004C0009DF8080000F03EF8009B039C1C44019B33
:1004D0001D8905F0C1FF661900F032FF4FF02002C0
:1004E000EFF3118382F31288BFF36F8F635983F3A5
:1004F00008887368984745210B4805F0ECFCFEE737
:10050000008001503546526E886D0000A16D0000DC
:10051000B46D00006C460120D36D0000F66D000044
:10052000256E00004A6E00007D6E000010B5044C80
:10053000236813B903F042FB2060206810BD00BFA0
:100540006846012008B540B1024600230448452111
:1005500005F0C1FC6FF0150008BD0860FCE700BFA6
:10056000A06E00002DE9F04FDFF81C92DDB01546BB
:10057000DDE968481E46DDF898B1D9F8007000F052
:10058000ADFE01227E4B3CA8C3F8002503F08CFF92
:10059000CDF814903CB1B8F1000F04DD424621467D
:1005A0003CA805F0A4FB4FF000096B89B5F8088062
:1005B0009844EB689844C8454ED80FA93CA803F06E
:1005C000E5FF00226E4BC3F80025C3F800256A9BA7
:1005D00023B1202218460FA905F081FD00233246E1
:1005E000009329464FF6FF7309A805F02EF804463C
:1005F000002844D14FF0FF35DFF890A1DFF880816B
:1006000003900DF11E0307AA08A909A805F069F8CF
:10061000041E34DB40F0A480BDF81E90B9F1100F29
:1006200038D1BDF81C90B9F1200F40F0A3804B46A3
:10063000304608993CAA05F07CFC0446F8B94A46C5
:100640003CA90FA805F0C4F804464E4B1B68834232
:1006500015D101230393D4E7679AA8EB09039A42C3
:1006600028BF1A4649461346924630465A4605F078
:1006700060FC044638B10022414BC3F800252046F7
:100680005DB0BDE8F08F524659463CA805F02FFBFF
:10069000D14490E7B9F1010F3FD1BDF81C30202BB8
:1006A00068D8304608993CAA05F043FC0446002867
:1006B000E5D19DF81C50202D0AD8DAF80030DFF87B
:1006C000D0B00493049B9C4205DB0023C8F800359E
:1006D0004FF0FF341DE000F001FEC8F800951FA8A0
:1006E00003F0E2FEDBF804201FA812685BF8081B89
:1006F00005F0FDFA17A91FA803F048FF00223CA946
:10070000C8F8002517A82A4605F0D9FC18B9C8F87A
:100710000005254675E70134D4E7B9F1220F7FF4CF
:1007200070AF002D19DBDAF80030AB4215DDBDF8F3
:100730001C30802B1ED8304608993CAA05F0F9FBE6
:10074000044600289BD1EDB22021BDF81C30009555
:100750003CAA0FA800F01EF807464FF0FF3550E7FF
:10076000039B53B1074B1B68BB4201D0059B1F681D
:100770003C4684E74FF0FF3481E701247FE700BF68
:10078000000084506C46012000450120086A0000EA
:100790000C6A00002DE9F04196B017461D469DF801
:1007A0007020354B0E4653F8321003EBC2035B68E2
:1007B0008046186801913023014402AA01A805F07F
:1007C00023FA10B14FF0FF3053E0DDE901431C4440
:1007D000214606AB03AA01A805F03EFA0028F1D194
:1007E000049A072AEED12549059805F068FC0028EF
:1007F000E8D1079A082AE5D12149089805F05FFC5D
:100800000028DFD1214602AA01A805F011FA00282C
:10081000D8D1DDE9013213449C42D3D1412AD1D150
:100820003D443023294603AA02A8029705F0ECF9BB
:100830000028C7D1DDE9023213449D42C2D32A46C3
:1008400002A906A804F098FF0028BBD12A4602A9F5
:100850000EA804F091FF0028B4D1202EB2D1019946
:100860000B78042BAED13346404606AA013100F086
:100870004DFD16B0BDE8F0810C6A0000C66E0000A8
:10088000CE6E00002DE9F041032386B00D466F4681
:100890000026DFF86C80ADF8003017F8010B01A9D5
:1008A00001F01CF90446D8B901981023816802AA06
:1008B000103905F03EFB044628B1019805F038FBDD
:1008C0000EE00126E9E71022414602A805F0F7FBF9
:1008D00050B1019805F02CFB002EF2D04FF0FF3400
:1008E000204606B0BDE8F081019805F0D2FD042352
:1008F000A0F108012A46019805F01BFB0446DCE73D
:10090000DC6B00002DE9F041384B88B00646002032
:100910000D461C6804F08FFE06A9C0B201F0DEF897
:10092000002857D1294604F086FE2C2407A9C0B21E
:1009300004FB056401F0D2F8002836D04FF02C08F3
:1009400008FB05F806EB0807396911F0100137D1EB
:100950004FF480730193264B224600930846CDE95D
:100960000311069B0291FFF7FDFD0446214B56F84B
:10097000082006989A420CD13A89FB68D1438B42F1
:1009800007D813448268934203D21B4B1B68A342CF
:100990001DD045B38268002105F015FB174A45219B
:1009A000174805F098FA012411E0079805F043FB79
:1009B0000746079805F0BCFA631EE21C93420DD16E
:1009C000002DF0D03046069904F0FFFF2C46069823
:1009D00005F0AEFA204608B0BDE8F08113F8011F1B
:1009E000B942EBD0AAE7074AD9E700BF004501208A
:1009F0008C5C01203DB8F3966C460120D76E000058
:100A0000E96E0000E16E000073B50D46002104465A
:100A10002846CDE9001104F097FF30B3164E226846
:100A2000B24203D1204601AA04F002FFE36AB342B6
:100A300004D16A460121204604F0FAFEDDE90032C5
:100A4000934288BF0193019BAB60019A29462046DF
:100A500000F034FB094B1A68002A03DD57210848CF
:100A600005F039FA002002B070BD05F10801FFF76A
:100A700009FFAB680193E8E73DB8F396D05A01202F
:100A8000116F00002DE9F84F8A46904699460026DE
:100A9000DFF870B0194C1A4D0B9B9E4201D3002019
:100AA0000FE00B9B50469F1BB7F5806F28BF4FF49C
:100AB0008067144A3B4606EB090105F03AFA10B18B
:100AC0000120BDE8F88F0A993B465A464046711806
:100AD00005F04BFA0028F3D1C4F800563E44C4F8A0
:100AE0000456C4F80856C4F80C56C4F81056C4F896
:100AF0001456C4F81856C4F81C56CDE700800150AF
:100B00003546526ED04601202DE9F043904B044605
:100B1000602285B00F4600211E6805F0EBFA002127
:100B20008C4B084663628C4B236504F084FD04F112
:100B30002001C0B200F0D2FF0121002004F07BFDB3
:100B400004F14C01C0B200F0C9FF0546204604F094
:100B5000D0FE804668B900222046114604F0B0FE5F
:100B6000804608B3002257217C4805F0B4F90123E0
:100B700092E04FF480725721794805F0ACF90123D7
:100B8000984584F85830E6D194F85830042B8DF805
:100B9000073000F28480012B00F2888000F09F80F3
:100BA000FF2384F858309AE0204600F09DF9002891
:100BB000DDD0684604F0BFFE6946204604F05AFFC7
:100BC00018B1424657216748CFE7684604F0BCFE9B
:100BD00080F001006A46C1B2204604F071FE024670
:100BE0000028BFD1684604F0AFFE804660BB69466E
:100BF0002046FFF709FF9DF8073084F85830033B83
:100C0000012B06D8404604F083FF10B1FF2384F87F
:100C100058309DF80730023B022B0BD8002004F01F
:100C200065FF38B1FF2384F8583045214E4805F060
:100C300052F9FEE794F85830FF2BF6D06A460021AF
:100C4000204604F03DFE92E79DF80790B9F1010FB0
:100C500017D1104602F0ACFC831E022B80460DD843
:100C600049462046FFF74EFE404B1B68984205D090
:100C700001280CBF4FF001084FF0050884F8588098
:100C800082E701212046FFF73DFE384B1B68984262
:100C900014BF05239DF8073084F8583074E7052BFE
:100CA0007FF47EAF002004F033FF13E06946204656
:100CB000FFF7AAFE94F858300546DA1E012A0CD830
:100CC000002004F025FF054600287FF469AF0020CE
:100CD00004F00CFF054610B162E7022BF7D094F840
:100CE0005830FF2B04D145211F4805F0F4F8FEE7EA
:100CF000012B06D06A460021204604F0E1FD05469E
:100D0000C0B900212046FFF7FDFD0646DFF85C80F4
:100D1000D8F8003098420DD10025102200216846F5
:100D200005F0E8F9236AD8F800605A783A715B68F0
:100D30003C60BB60E06C05F0FBF8206A05F0F8F859
:100D4000002D14BF2846304605B0BDE8F08300BF33
:100D500000450120D04A0120D0520120826F0000BE
:100D6000406F0000AE6F0000D86F00006C4601209D
:100D700008B501460148FFF7C7FE08BD70460120CF
:100D800073B516461C4633B3436A5D686379012B1D
:100D900015D101BB1F4B22681B689A4298BF0025E2
:100DA000002004F048FC01A9C0B200F097FEF0B1A9
:100DB0000125019805F0BCF8284602B070BD022B51
:100DC00009D12368012B08D9124A1268934202D82C
:100DD000B1FA81F149090025E2E7FCD10029DFD011
:100DE0000129F8D12179023918BF0121F3E72946F9
:100DF00020233246019805F09CF805460028D7D1FB
:100E0000002CD6D0356804482D1A18BF4FF0FF3596
:100E1000CFE700BF044501203DB8F3962DE9F04F20
:100E200007460C4685B001460020164604F0D7FC64
:100E3000051E52DB3846E46D04F0DBFC5FFA84F9F2
:100E40004FF0000A4FF0010B4FF0FF3405F1FF386F
:100E500009FB08089DB9BAF1010F03DD45212148BE
:100E600005F039F8631C06D0FF2C2ADC40F2011390
:100E700001343460B380284605B0BDE8F08F6B1EA6
:100E800000934146012338460DF10F0205F051F859
:100E9000031E019323DB012238460DF10F0105F0FB
:100EA00009FB019B40B15B4501D00AF1010A9B4659
:100EB000009DA8EB0908CDE7B4F1FF3F08BF2C4621
:100EC000F5E70223A4F580747371631004F0010444
:100ED0000133013433603471CDE70725CBE70125B9
:100EE000C9E700BFE46F0000816A426D38B58A42ED
:100EF00008D0531C8B4205D05721144804F0EBFF57
:100F0000002038BDB1F5807F1CD957211048F5E786
:100F1000446A056D04EBC30405EBC30564686D68A2
:100F2000AC4202D057210B48E8E701339A42EFD197
:100F3000914205D9436A03EBC2025368A342F1D13F
:100F40000120DEE700231C46F0E700BF0770000029
:100F50003F7000006E70000000B589B0032004A946
:100F600005F00BFB9DF81020012A41D0254B2649A6
:100F7000032A18BF0B469DF81320492102929DF8C1
:100F80001220224801929DF811200092204A04F07C
:100F9000A2FF072006A905F0F0FA9DF81820012A03
:100FA00028D0184B1849032A18BF0B469DF81B2060
:100FB000492102929DF81A20144801929DF81920A7
:100FC0000092144A04F087FF9DF81030012B13D1D2
:100FD0009DF81230032B0FD19DF81830012B0BD048
:100FE0000D48492104F077FF022009B05DF804FBA9
:100FF0000A4BC0E7094BD9E70948492104F06BFFC8
:101000000020F2E79F700000A5700000B77000009C
:10101000A9700000F8700000087100009A700000CC
:101020002771000070B54B6814461E4A03F0FF2379
:10103000934206460D4686B02FD10B68012B2CD16A
:10104000204604A902F064FA9DF81020012A26D057
:10105000154B1649032A18BF0B469DF8132049214A
:1010600002929DF81220124801929DF811200092E0
:10107000104A04F030FF9DF81030032B0DD12146AB
:10108000304604F0A2FC204605F06EFA2046A9681E
:1010900004F0BFFB204602F02DFA06B070BD064BEF
:1010A000DBE700BF000100049F700000A570000096
:1010B000B7700000F87000009A7000002DE9F04F42
:1010C000436A2DED028B0C465E6805460121002324
:1010D0008BB033449A42084601F10101F9D8784FA8
:1010E0003860204604F030FCBB46C8B1E86D04F01F
:1010F00071FB0022AB6A013B3244904201D9013BB3
:10110000FAE7DBF800209A420AD357216D4804F031
:10111000E2FE0123E3710BB0BDEC028BBDE8F08F62
:1011200008A9032000F0DAFC09A9072000F0D6FC8A
:1011300021462846099AFFF775FF6379012B08D1EC
:10114000DBF80070DFF880A1DBF80030A7B90123DD
:10115000236002230127DFF8708163710593DBF8B8
:101160000030DDF820909F424DD9484604F0E0FE63
:10117000099804F0DDFECEE7226801339B1A9F42F6
:101180003FD86B6A012A196853F8370003EBC7038D
:1011900053F8083CDDF82080A3EB010308EE103A79
:1011A000A0EB010912D1E268099B022A0AD041464C
:1011B0002846039304F009FC22464146284604F0E1
:1011C0003AFC039B1946284604F0FFFB3246494689
:1011D000404604F0F8FB18EE103A424641462846D5
:1011E000CDE90096FFF74EFC2146284604F0B9FBF6
:1011F00023680133236020B1DAF800300133CAF8E4
:101200000030013FA0E723689F4256D3696A286DEA
:1012100051F83730FA0004930B68083A50F802C0CE
:10122000039303682079DDF824A00128ACEB0303C5
:1012300041D189580793039B3246C91A4846069103
:1012400004F0C1FB0699079B4A4600912846514687
:1012500001960693FFF716FC2146284604F081FB11
:10126000059B2371069B20B1D8F800200132C8F8F5
:101270000020194632465046069304F0A4FB069B14
:10128000494600932846DDE9032301969B1A5246FE
:10129000FFF7F8FB2146284604F063FB236801337F
:1012A00023604FF00103237138B1D8F800300133C7
:1012B000C8F8003001E00228DBD001374FE700BF5B
:1012C000044501203E710000D05A0120024B0A461D
:1012D0001B680021184700BF0845012070B5094D63
:1012E0002B7853B90126084CC4F8006503F07EF949
:1012F00028B92E70C4F8000570BD0020FCE74FF03F
:10130000FF30F9E78C5D01200000845070B5AEB06D
:101310001D460446CDE90221FFF7E0FFDDE9022189
:101320000123064E05A8C6F800352346009505F0B2
:101330007BF90023C6F800352EB070BD0000845044
:1013400010B501234FF0FF3400211A4A1A481360E8
:10135000C2F84443C2F8044302F580521360174BAD
:101360008022C3F84843C3F80843A3F55043C3F8A9
:101370000015C3F8084304F0BDFE80220021104888
:1013800004F0B8FE00210F4B8022C3F800150E4870
:10139000C3F8084304F0AEFE802200210B4804F09D
:1013A000A9FE0B4BC3F808454FF05023C3F8084380
:1013B00010BD00BF0440015080800050005001501B
:1013C000808100500090005080900050809100502B
:1013D000007001500B6801330B60014B1B6818470C
:1013E0000C45012007B50B46002102460191034838
:1013F00001A900F0EDF803B05DF804FBD51300007F
:101400002DE9F74FB0F81890044619F008089346F4
:101410000ED001290CBF49F0100949F02009A0F8AD
:1014200018908BF31188BFF36F8F03B0BDE8F08F76
:10143000DFF898A109F00709022907D1204604F036
:101440009DFC0028EDD00128238B4DD16769218BAD
:10145000002F15DA256821F00701C4E9008841F062
:10146000010121830026218B01F007024A4502D0A9
:10147000A368002B59D10DB9002E71D0002355E07F
:1014800001F007035A1F012A1FD821F00701062B7C
:10149000256889B2C4E900880CD1002D2B4638BFDD
:1014A00000232BB1628B1B6801326283002BF8D1C1
:1014B00041F002012046218304F060FC0028D1D0D5
:1014C000238B43F020032383CCE7042B0AD121F0A4
:1014D000070189B22046218304F050FC10B141F08D
:1014E000200121830025BDE7032809D1226923F0CB
:1014F0000703166843F00603002523832F46B2E74F
:10150000042806D1226923F00703566843F0040338
:10151000F2E7052806D1226923F00703966843F015
:101520000503E9E700252E46E8E7012341F008011D
:1015300021838BF31188BFF36F8F03BB002D34D150
:1015400016B151462046B0474FF02003EFF3118B00
:1015500083F31288BFF36F8F238B23F00803238359
:10156000238BDA062AD5012123F010032383B4F854
:10157000189009F0070900297FF45EAF51E7A168D0
:101580000029DBD00B68002B38BF0023994620468A
:101590003B46D1F804B00192D847019AB9F1000F47
:1015A000CCD04946D9F80030EDE729463B462046E5
:1015B00001922D6804F0FEFB019ABFE713F02001B1
:1015C0001EBF23F0200302212383D0E7E15D00004A
:1015D0002DE9F04F8B464FF0000A8FB01F46531E87
:1015E00000900193019B58785C1C252822D14FF074
:1015F000000C4FF0FF361846614634464FF00A0E95
:101600000230CDF808C002780190392A00F10100BB
:1016100058D81F2A18D8002A00F0FF815946009B8D
:1016200025209847019B59461878009B98470AF156
:10163000020AD7E7002800F0F0815946009B98473E
:101640000AF1010A0194CDE7A2F12003192BE5D894
:1016500001A555F823F000BFC11600001D160000BB
:101660001D160000C11600001D16000041170000E5
:101670001D1600001D1600001D1600001D1600009E
:1016800083170000C11600001D1600009717000008
:101690004F1700001D1600005B17000077170000B1
:1016A0007717000077170000771700007717000002
:1016B00077170000771700007717000077170000F2
:1016C0009446A0E7582A00F04081A2F16303DDB2FE
:1016D000172DA3D8172BA1D801A555F823F000BFCB
:1016E000A5190000BD1700001D1600001D16000002
:1016F0001D1600009D170000BD1700001D160000FC
:101700001D1600009D1700001D1600001D1600008C
:101710001D160000F51800001D1600001D16000023
:10172000871900001D160000BD1700001D160000DF
:101730001D160000F51800001D1600009D17000082
:1017400059462520009B98470AF1010A4AE7029B67
:10175000002603F0FE03029355E7002C0BDA002E5F
:101760000BDA029B002B00F0548124EAE4740EFB98
:101770000424303C47E7002EF7DB0EFB0626303E04
:1017800041E7002E57F8043B01DB1E463BE71C1ED9
:10179000BFF639AF64420223029334E7682A03D1CB
:1017A000682906D148212EE76C2A02D16C2900F065
:1017B000328100297FF432AF114624E77A290FD114
:1017C0003B68752A984607F1040540F088804FF081
:1017D0000009BCF1200F40F08580924F013C15E0DC
:1017E0006C29EDD04C29EBD1FD1D25F00705752A9C
:1017F000F5E80289EDD0B8F1000F79F10003E8DADD
:10180000D8F10008884F69EB4909013C0DAB0593FD
:1018100000230393039B40460493013B49460393F3
:101820000A220023FEF78EFC059B303203F80129C3
:1018300040460A22494605930023CDE90689FEF772
:1018400081FCDDE90623002B08BF0A2A8046894671
:10185000E0D2049B0EAAC3F1010902EB0308002E9B
:10186000A8F1040804DA029B13F0010F18BF264602
:10187000A6EB0903002B0393029BD4BFA4EB09043E
:10188000A41B9A0740F1AF80AAEB070606EB070AF4
:1018900017F8010B002840F0A880039E013E40F19C
:1018A000A880039B4E465A1E0132ACBF1F4600273C
:1018B000013E40F1A38009F1FF320132ACBF4B463B
:1018C0000023264603EB0709013E40F19D80631E7D
:1018D0000133B8BF0024A1442F46CA4482E64FEA30
:1018E000E37988E7BCF12B0F0ABF504F504F04F14A
:1018F000FF348BE7702A28D13D4655F8040B0028A9
:101900005AD000214B4F023C4FF0000802F0600219
:10191000A2F139090DF1340E00F00F03092B88BF35
:101920004B44303300290EF8013908BF10284FEA24
:10193000101308F1FF3C43EA01734FEA11121ED263
:101940000EABC8F10109984489E76C2904D13D46E2
:10195000002155F8040B06E04C29F8D1FD1D25F0B7
:101960000705F5E80201BCF1230F06D1314B12F057
:10197000200F314F18BF1F46C5E72D4FC4E7E04683
:1019800018461146C8E73D4655F8048B404604F01A
:1019900083FB002E814602DBB042A8BFB146002681
:1019A000234F65E73D4655F8043B4FF001098DF89C
:1019B00020300DF12008F2E74FF00509DFF87C80B8
:1019C000EDE759462020009B9847013EF9D5621E5D
:1019D000531CACBF21460021C4F10004B8BF002451
:1019E0008A44144450E72646EFE75946009B98473F
:1019F0004CE75946009B302098474FE7594618F866
:101A0000010B009B984753E75946009B20209847BD
:101A10005AE70123C0E64C21F5E550460FB0BDE87A
:101A2000F08F00BFA0750000C8710000CA710000EF
:101A3000AA790000CC710000CF710000D2710000C3
:101A400007B501904FF02002EFF3118382F3128863
:101A5000BFF36F8F04F000FD019800F09DFB034879
:101A600004F07FF900F082F8FCE700BFD8710000B5
:101A70004FF02002EFF3118382F31288BFF36F8FD0
:101A80000121044AC2F8401583F31188BFF36F8F18
:101A9000002070470090035020B1034B800143F0B9
:101AA00001031847704700BF006A0000094B30B5BA
:101AB0001D68094B1C6800239D4202DC002108467A
:101AC00030BD1A01A25C04EB03118242F7D001334E
:101AD000F2E700BFC86A000010450120084B10B5AE
:101AE0001B680C462BB1FFF7E1FF28B120600020F6
:101AF00010BD6FF00C00FBE76FF00100F8E700BFCE
:101B00001045012030B589B00C4615460190FFF70D
:101B1000CDFFB8B14368226802938368C068CDE9FD
:101B200003350023CDE90623059304F0E1F960B104
:101B3000074901AA04F0D9FB079808B9059B23605F
:101B400009B030BD6FF01500FAE76FF01200F7E74B
:101B5000F55E0000014802F009BA00BFCC6A00003F
:101B6000014910220A60704710ED00E072B6404053
:101B700080F31188BFF36F8FBFF34F8F30BF62B612
:101B8000BFF36F8F704700BF72B6494081F3118871
:101B900020BF80F3118862B6704700BF37B5054695
:101BA0000C46C9B18B6810480093D1E90023452148
:101BB00004F091F9636945210093D4E903230B48AC
:101BC00004F089F94521E269094804F084F94521C6
:101BD000A269084804F07FF92146284603B0BDE811
:101BE000304002F017B800BF0572000039720000E3
:101BF0006D7200008172000043B2002B08DB0122ED
:101C000000F01F0002FA00F0024A5B0942F82300CC
:101C1000704700BF00E100E0054B420953F8222065
:101C2000012300F01F0003FA00F01040704700BFCE
:101C300000E100E043B2002B01F10101ACBF03F170
:101C40006043064B4FEA4111C9B2ABBF03F5614394
:101C500000F00F0083F800131954704714ED00E0F2
:101C600030BFFFF7FDBF00BF144A08B5144B22F088
:101C70007F029A60BFF34F8FBFF36F8FD3F8882036
:101C800022F47002C3F88820D3F8882042F4A0021E
:101C9000C3F888204FF04042C3F83422BFF34F8F7F
:101CA000BFF36F8F0023E1EE103A02F009F802F063
:101CB0004BF800F035FA02F00DF800BF000000000C
:101CC00000ED00E01EF0040F0CBFEFF30880EFF30F
:101CD0000980816911F8021C0229FFD001B504F0C6
:101CE000B8F901BD0446084611461A460023E1EE44
:101CF000103A83F30B880A4B2025A3F5205686F370
:101D00000B8883F3098863B64FF0000383F31188CF
:101D1000BFF36F8FA04785F31188BFF36F8FFEE786
:101D2000A089012001B5EFF30580A0F110004FEA72
:101D3000C0000449014409C99847BDE8014002496F
:101D400008470000746700004D1D0000704700BF89
:101D500070B5224C06460D462148452104F0BBF8DB
:101D6000A26AD00603D545211E4804F0B4F8A36A40
:101D7000190703D545211C4804F0ADF8174CA36A98
:101D80009A0710D54521194804F0A5F8626BA36A9B
:101D90001B0608D54521164804F09DF81EB1A36A1C
:101DA00023F08003A3620D4CA26AD00703D545211E
:101DB000104804F090F8A36A990603D545210E480F
:101DC00004F089F80020054B9A6AD20658BF9A6A37
:101DD0009A6A42F0FF029A62287070BD00ED00E03E
:101DE000B4720000CF720000077300001F73000080
:101DF0003C730000577300007B73000070B5234CE8
:101E000006460D462248452104F065F8A26AD10431
:101E100003D545211F4804F05EF8A36A1A0503D5CF
:101E200045211D4804F057F8184CA36A9B0510D5AE
:101E30001A48452104F04FF8A26BA36A180408D58C
:101E40004521174804F047F81EB1A36A23F4004364
:101E5000A3620E4CA36A590503D54521114804F02D
:101E60003AF8A36ADA050BD545210F4804F033F898
:101E70000020064A936A43F47F439362287070BD42
:101E8000A36A9B04F4D545210848EFE700ED00E084
:101E9000AF730000CA73000007730000E073000016
:101EA000FE73000018740000387400007B7300009B
:101EB00038B5214C4521214804F00DF8A26A95015E
:101EC00003D545211E4804F006F8A36ADC0103D5BA
:101ED00045211C4803F0FFFF174DAC6A14F4801431
:101EE00004D04521184803F0F6FF0224AB6A18031A
:101EF00003D54521154803F0EEFF0F4DAA6A5103A3
:101F000003D54521124803F0E6FFAB6A9A0303D5D7
:101F10004521104803F0DFFF074DAB6ADB0303D513
:101F200045210D4803F0D7FFAB6A20466FEA034313
:101F30006FEA1343AB6238BD00ED00E0557400005A
:101F4000727400008A740000A9740000D874000044
:101F5000FB74000025750000447500002DE9F04376
:101F6000574B0025D3F804908BB0C9F3080885F3CC
:101F70001188BFF36F8F02F07F43B3F17F4F07D11A
:101F800002F00C03082B05D145214E4803F0A3FFB6
:101F90002F4604E012074EBF0F46074601250022D8
:101FA000A8F1030614468DF80720092E76D8DFE83D
:101FB00006F0056A6E67757575757572452142483C
:101FC00003F089FF3E4B8DF80740DC6A14F00204F1
:101FD00005D045213D4803F07EFF002406E0DA6A83
:101FE000002A1DDA45213A4803F075FF9DF80730B5
:101FF0009BB92022394602A804F071F8099B002DF4
:1020000059D0C3F3080222B96FEA53236FEA43237E
:102010000993204602A9FFF7C1FD0BB0BDE8F0838C
:10202000DB6A5B00E2D545212A4803F054FFBB6917
:1020300033F8022C4DF602739A420CD003F1604340
:1020400003F626631B786BB101200DF10701FFF742
:102050007FFE0446CAE745213A681F4803F03BFF6C
:102060003C68C3E71D4B1B782BB101200DF1070124
:10207000FFF7C4FEEDE71A4B1B889BB2002BB5D0CF
:10208000FFF716FFE5E700200DF10701DFE700206D
:102090000DF10701ECE7452112489CE7124919F4BC
:1020A000F87F124A124808BF0A46A8F110034521DA
:1020B00003F011FF91E723F4FF7323F00103A7E777
:1020C00000ED00E0A2750000D2750000EE75000082
:1020D00014760000277600004B76000029ED00E022
:1020E0002AED00E06C760000747500008975000030
:1020F00095760000044B5A6942F010025A615A6901
:1021000042F480625A61704700ED00E0EFF308800E
:10211000EFF3098101B57246FFF720FF01BD00BF53
:10212000002320210348C2180133412B82F80013F9
:10213000F9D1704700E100E0002080F31488BFF37C
:102140006F8F002080F30A8880F30B8804F098FAE0
:1021500000200E490860BFF34F8F0D4880F30888B8
:1021600000F03CF8202080F311880A484FF4006109
:10217000401880F30988EFF314800221084380F3AC
:102180001488BFF36F8FFFF76FFD000094ED00E040
:10219000A0890120A0890120BFF34F8F0549064B7C
:1021A000CA6802F4E0621343CB60BFF34F8F00BFF5
:1021B000FDE700BF00ED00E00400FA05002318462B
:1021C000054A1168C1F307218B4200D17047936023
:1021D00010610133F8E700BF90ED00E010B572B672
:1021E000002484F31388FFF7E9FF0E4A23461146C3
:1021F0004FF0FF3403F120000133102B42F8204050
:10220000F8D100234FF0FF3003F160020133102BAF
:1022100041F82200F8D162B6BFF34F8FBFF36F8F42
:1022200010BD00BF00E100E00121024B024A03485B
:1022300000F00CB90000042000450120D46A000021
:1022400010B50B680C7A23F01F0204F01F031A4329
:10225000CB68640923F01F03044943EA440343F0B5
:1022600001038860CA600B6110BD00BF90ED00E003
:1022700030B54B680C6885B00A898D7A0094013BB3
:1022800024F01F04234402F01F0242EA451223F007
:102290001F030F2804468DF80820039309D902462E
:1022A0004521064803F017FE6FF01504204605B0DF
:1022B00030BD6946FFF7C4FFF8E700BFB176000004
:1022C0002DE9F04F8946144606464FF00008524D5E
:1022D00085B0C84523DA7768002F42D01F2F17D961
:1022E000FB0615D1D6F800A01AF01F0F10D15046EA
:1022F00003F0BEFE834607EB0A00013803F0B8FE88
:10230000834510D06FF0150B5A464521434802E033
:1023100042464521424803F0DEFD6FF01504204699
:1023200005B0BDE8F08F1BF1160FEDD0631E5B45C5
:10233000EADBC5F808B0E968C5F808B02F6921F0F4
:102340001F01D6E900321A44994247F01F0702F1F3
:10235000FF3A1CD1574508D131465FFA8BF0FFF7A1
:1023600087FF08F101080C36B3E73146C5F808B01D
:10237000EB6822F01F0203F01F031A43EA60E0B289
:10238000FFF776FF10F1160FC7D0441CE9E7013BB9
:102390005745E0B223F01F03C5F808B006D12A69FB
:1023A000314602F01F0213432B61E9E7296901F06E
:1023B0001F010B432B613146FFF75AFF10F1160F37
:1023C000ABD0C5F808B0EA689DF80830013F62F369
:1023D00004038DF808302B699DF808205B0863F32F
:1023E00047128DF80820D6E900321344009323F0F9
:1023F0001F033B44441CA3EB0A0AE0B22AF01F036C
:102400000F28039303D902464521064883E769460E
:10241000FFF716FFB9E700BF90ED00E0047700007A
:10242000DC760000B17600000522034B5A60BFF352
:102430004F8FBFF36F8F704790ED00E0BFF35F8F5A
:102440000022014B5A60704790ED00E010B5034C3C
:102450002278FFF735FF207010BD00BF8D5D012091
:1024600038B50E4C2568102D14D8FFF7E7FF002073
:102470000B4B0C4A1A63854205D10B4B1D70FFF7BD
:10248000D3FF002038BD616801EB0011FFF7D8FED3
:102490000130F0E74FF0FF30F4E700BFE06A0000E2
:1024A00090ED00E0AAFF44008D5D012008B50C48C6
:1024B00001F084FB28B945210A4803F00CFD0020F7
:1024C00008BD02698168136823F4807313600B6888
:1024D0004FF420620821984749210348EDE700BFE7
:1024E0003B770000427700006977000070B5044632
:1024F0000C250D480E46231A9A100C4B40215343CD
:10250000DBB25D4305F14003184403F005FE011EF4
:1025100004DB074B2B445B68984700212046334679
:10252000BDE87040184700BFE45A0120B76DDBB624
:102530001C6B00002DE9F0410F4C104D031B9B104C
:102540005D43EBB20C255D43074605F140000E46A6
:102550002044402103F0F9FD011E08DB084B2C4408
:10256000C4E90E36074B5B59BDE8F04118473846C1
:102570003346BDE8F0411847E45A0120B76DDBB699
:10258000B36100001C6B000070B5002201210446FD
:102590000520FFF74FFB0520FFF72EFB0F4801F04A
:1025A00041F90F4B984215D104F00DF826690D49F9
:1025B000304603F033FC00280BDB01253564246929
:1025C000084904F11C0003F029FC002801DB00206D
:1025D000E56470BD6FF00400FBE700BF2526000036
:1025E0000000AD0B346B000073B50C2301460026D0
:1025F0004B430A48C4184033D4E90E521844A6632A
:10260000019203F0C0FD35B12B46019A044802B097
:10261000BDE87040184702B070BD00BFE45A012009
:10262000E466000010B1012804D07047034B1B6C16
:102630005B0701D1FFF7D8BF704700BFE45A012004
:1026400008B54FF02003EFF3118183F31288BFF335
:102650006F8F124A136843F0020013F001031060F9
:102660000CD04FF05022D2F80C34D2F80C2413F0D6
:10267000010303D00A4803F086FD012381F311888A
:10268000BFF36F8F23B1BDE808400020FFF7ACBF58
:102690000120BDE8084001F0D5B800BF345B01203F
:1026A000245B0120074BD3E8EF2F22F00201C3E89F
:1026B000E01F0028F7D1D30702D4012001F0F4B8BD
:1026C000704700BF345B01202DE9F8430122064624
:1026D0003649D1E8EF3FC1E8E02F0028F9D133B9FE
:1026E000334934484B60CB608A6003F0AAFB731E09
:1026F000012B32D8012E07D14FF05023D3F81C34D0
:1027000003F00303022B28D003F083FF044618B91B
:10271000294B1B78002B41D14FF02003EFF311859B
:1027200083F31288BFF36F8F0124244FDFF890806A
:10273000DFF890904FF05022D2F81834D2F81824D5
:10274000D2030CD503F00303022B01D0012E06D1D6
:10275000F4B185F31188BFF36F8FBDE8F883284685
:10276000FFF712FA4FF05022D2F81835DBB2012BE6
:10277000E0D139680029DDD00021396039680221B3
:10278000C2F818152022C8F88021C9F80030D1E716
:102790004FF050230222C3F80423DEE74FF050230A
:1027A00002220546C3F80823BFE700BF385B0120BB
:1027B000D45A0120005B01209F6101200451005088
:1027C00000E100E008500050064A00F01F0002EB54
:1027D0008000D0F8003223F4403343EA0141C0F8CE
:1027E000001270470025845008B5094B1A786AB961
:1027F00001210D2019700521FFF71CFA0D20FFF7AC
:10280000FBF94FF00042034BC3F80423002008BD3E
:102810008E5D012000D00050F7B50E46416806F0ED
:102820001F05097AB2F5A03F076945EA41150AD1AB
:102830005C4805F01F01803150F82110C80707D50A
:102840006FF0850093E0B2F5005FF96800F09180C9
:102850000121F868B1400143F96001217869B14074
:10286000B2F5A03F0CBF0843884378610020BA69E5
:10287000B3F5C02F0CBF0A438A43BA613A69B3F576
:10288000802F0CBF114322EA0101474A3961D2F877
:102890000433DBB200F5A27152F82110C1F3042118
:1028A0008D426BD123FA00F1C90767D5830003F18C
:1028B000A04303F55043D3F8101521F00101C3F8EC
:1028C000101501238340C2F80833C0B201F08CF820
:1028D00028460021FFF778FFF868F04010F001006B
:1028E00045D07869F04010F001044ED0BB690DF17D
:1028F0000700F340DB0757BF3969032621FA06F6C4
:1029000006F001065CBFC6F10206F6B201F08EF8D1
:10291000264B984236D100209DF807102D028B00DF
:1029200003F1A04303F55043D3F8102505F4F855FF
:1029300022F4473222F44072C3F81025D3F8102550
:1029400015438A0002F1A04202F5514245EA0646CB
:10295000C3F8106510601268D3F8102542F0010228
:10296000C3F810250123104A8B40C2F8043303B08A
:10297000F0BD0120B04021EA00016DE701300828D8
:1029800088D1A5E76FF01200F1E739692846F140D8
:1029900001F00101C1F10301C9B2FFF715FF2046A3
:1029A000E5E700BF0025845000D000500000AD0BCB
:1029B000284B70B546682848134083423BD00DD859
:1029C000062B15D005D89BB1022B36D06FF0150021
:1029D00030E0B3F5801FF9D1012309E01F4883429D
:1029E0002DD0B3F5A00F2CD0B3F5800FEED102237C
:1029F000D0064CBF0325C2F3401582F4807412F454
:102A0000007FC2F34020C4F3002406D012F4006F0C
:102A1000766818D001228A40B26040EA4402002061
:102A200042EA032301F01F010D4A43EA8503803186
:102A300042F8213070BD0723DAE70423D8E70523E5
:102A4000D6E70323D4E7520542BF01228A40F26051
:102A5000E3E700BF0600F00006001000020040009F
:102A6000002584502DE9F84F454D2E68002E5BD08F
:102A7000444B4FF00108D3E90520D968024321EA0D
:102A80000209414A4F464FF0000B924614691B69F8
:102A90005C4029EA04047FBB2F602B6800230125DA
:102AA0001F463A48D0F8042305FA03F1114211D029
:102AB0009A0002F1A04202F55142116851B103F5AA
:102AC000A27150F821101760C1F3042105FA01F139
:102AD00012680C430133082BE4D13CBB56B10126EC
:102AE0000027284DEC68D5E905210A4324EA0204B1
:102AF000002C33D1BDE8F88F18EA070F0FD018EA81
:102B0000090F0BF01F0008BF00F180034FF0000118
:102B100008BF5AF82330FFF757FE27EA08070BF1E2
:102B2000010B4FEA4808B6E73446B7E7154B59683A
:102B30000029D3D00D68164F002D38BF00258A68B4
:102B4000224002D038464B689847002DC6D02B68EB
:102B50002946002B38BF00231D46F0E726420CD043
:102B6000296907F01F00F94001F00101C1F10301DB
:102B7000C9B2FFF729FE24EA060401377600B7E759
:102B80007CD100503C5B01200025845000D00050D7
:102B900044670000024B0B6001231360704700BFC5
:102BA000585B012000487047886B000010B503F0A7
:102BB0001BFD034C206003F014FD6060002010BD7D
:102BC000585B0120F8B50E46144603F00AFD214675
:102BD0000546304603F076FB3746F8B1B6FBF5F311
:102BE00005FB136323B9B4FBF5F305FB134040B1B8
:102BF0002346324645210C4803F06DF96FF015006D
:102C00000BE0A54209D803F0ECFC0546384600F07D
:102C10004FFF641B2F44F9D12046F8BD23463246AE
:102C200045210248E8E700BFAD770000D1770000FA
:102C300037B50C46194620460193154603F042FB72
:102C4000019B40B909482246452103F044F96FF041
:102C5000150003B030BD33B11A462146284603F0B3
:102C60003EFA0020F5E71846F3E700BFD1770000F1
:102C7000F8B50E461946304617461C4603F022FBAF
:102C800040B9234632464521124803F024F96FF03B
:102C90001500F8BD44EA060515F0030504D02346E7
:102CA000324645210C48F0E78CB12B19032BA6EBDB
:102CB000050006D8094AD2F80034DB07FBD500200E
:102CC000E7E77B1B196800F011FF043DEDE72046A4
:102CD000DFE700BFD1770000F377000000900350DA
:102CE000F0B54B79012B2AD0032B25D110268B79F7
:102CF000032B21D1CC792CB1012C1DD143685B6809
:102D00009B0719D00A7912B1022A15D10E220B683D
:102D10004568B3F5164F2D6865D02DD8B3F5165F0D
:102D200064D016D8B3F5966F62D00AD8B3F5967F03
:102D300061D0B3F5167F61D06FF0850052E00026B8
:102D4000D5E7B3F5166F5CD0B3F5965FF4D1374B8A
:102D50003CE0B3F5E14F57D007D8B3F5615F55D0EC
:102D6000B3F5964FE8D1324B30E047F61227BB421D
:102D7000E2D14FF4000329E0B3F5613F48D013D806
:102D8000B3F5963F47D009D84DF6C027BB4244D093
:102D9000B3F5614FD0D14FF46B0317E0B3F5E13FCA
:102DA000CAD14FF0EB7311E0B3F5612F38D008D8DA
:102DB000204FBB4237D0B3F5E12FBDD14FF0E863D0
:102DC00004E01D4FBB42B7D14FF08053C5F8243506
:102DD000036934432243043303C9C5F86C2583E8EF
:102DE00003000020F0BD4FF41D03EFE7134BEDE7A8
:102DF0004FF49E23EAE74FF4A033E7E74FF41C3388
:102E0000E4E74FF41D23E1E70D4BDFE70D4BDDE772
:102E10004FF06C73DAE70C4BD8E74FF46503D5E756
:102E20004FF07063D2E74FF08063CFE700B013003C
:102E300000A04E0090D0030040420F000050270039
:102E400000C0750000F03A0000903A01F8B5054660
:102E50000F46066903F0DDFB10B9294B1B78A3B9B7
:102E60004FF02003EFF3118483F31288BFF36F8FC9
:102E7000284603F0AFFA00BB84F31188BFF36F8FCD
:102E8000EEE784F31188BFF36F8F6424284603F0C4
:102E9000A1FA28B9012003F094FB013CF6D1F4E734
:102EA0004FF02003EFF3118483F31288BFF36F8F89
:102EB000284603F08FFA0028E3D0012206F8107F9D
:102EC00069680B68C3F84465C3F848250022C3F855
:102ED0002021D3F82001C3F85821D3F858214A689B
:102EE000D20641BF0822C3F800254FF48002C3F880
:102EF000042301229A6084F31188BFF36F8FF8BD19
:102F00009F610120F8B500230121456806692C68FE
:102F1000D5F808C0C4F800350CF01F02414B9140B1
:102F2000306099600321803243F82210E9684A1C1E
:102F300006D02F7E01F01F02BF00803243F82270BE
:102F4000C4F80CC5C4F8141529694F1C06D06F7E4F
:102F500001F01F02BF00803243F822706F697A1CB3
:102F60000CD04FF0010C07F01F020CFA02FCC3F862
:102F700008C04FF0030C803243F822C0C4F8087533
:102F8000C4F8101501690431FFF7AAFE074678B9A5
:102F90006B6819071BD506F1120000F0FBFC224BF1
:102FA000984207D04521214802F095FF6FF00407B1
:102FB0003846F8BDB37C43F00043C4F8A031C4F8F0
:102FC0008C300123B27C9340194AC2F8043508239F
:102FD000C4F80035EB6801330CD00023C4F810317D
:102FE000D4F8103106F11103C4F834350123C4F8C4
:102FF000383523606B6810361A075CBF4FF4807257
:10300000C4F80423DB0644BF4FF48003C4F8043340
:103010000023C4F84465C4F848350123A360E36085
:10302000C6E700BF002584500000AD0B20780000EB
:1030300000700150194970B5044622F07F460868B7
:10304000C1E90023A6F50013101AB3F5400F4FF0A5
:1030500000050AD20125124B19680A060B0A9219BB
:10306000104943F10003C1E9002300F0CFFEA300A3
:1030700003F1502303F58033D3F84025B2420BD13E
:103080001DB94FF40002C3F840254FF48030064BC1
:1030900000FA04F4C3F8444370BD00BFD8450120D2
:1030A000685B0120C045012000500150012383408E
:1030B00010B5DC430D4AD2E8EF1F01EA040CC2E868
:1030C000EECFBEF1000FF6D14FF4803202FA00F0DD
:1030D00002F15022C2F80803BFF35F8FBFF36F8F76
:1030E0000B4214BF0120002010BD00BF645B012013
:1030F00001230E4A8340D2E8EF1F1943C2E8EC1FB8
:10310000BCF1000FF7D14FF48033094A8340C2F875
:103110000433084BD3E8AF3F23FA00F0C30742BFA4
:103120004FF40012044BC3F800217047645B012088
:1031300000500150605B012000E100E00D4B1B6876
:10314000190A1806BFF35F8F0B4BD3F80435C0186C
:1031500041F10001B3F5801F0AD2084BD3E90023E7
:10316000994208BF904203D210F1807041F10001F2
:10317000704700BF685B012000500150C04501202E
:103180002DE9F74F16461F460546FFF78FFF0090C3
:10319000FFF7D4FFB94208BFB0427BD200234FF003
:1031A0008072B6EB000867EB01094B4508BF42454A
:1031B0007DD3404B03EB0513D3E902239F4208BFA5
:1031C000964251D04FF4803B26F07F4214464FEA9E
:1031D000850905F1500809F150294FEA880809F5D9
:1031E00080391FFA88F808F15028D9F84005324B89
:1031F00008F580380BFA05FBD3F804A5A0EB0A000C
:1032000020F07F402AF07F410128C9F8401505D100
:103210000192132003F003FA274B019A0AF1020CE2
:10322000A4EB0C0020F07F400021B0F5000F88BF18
:103230006446C8F80010D8F8000024F07F40C3F8B6
:1032400044B3C9F84005D3F80405824506D0201AD6
:10325000023820F07F40B0F5000F19D8A41A24F0EE
:103260007F44321947F10003124C290104EB051089
:10327000C0E902230C9A0D9B625000244360009B1E
:1032800013B12846FFF734FF204603B0BDE8F08FA6
:103290002046B1E70123094AAB40D2E8EF1F1943AA
:1032A000C2E8E01F0028F8D132463B46DCE76FF069
:1032B0001504E4E7C845012000500150605B01207F
:1032C000334B2DE97343D3F804339A0709D5314BB7
:1032D0001A6832B100221A602F4A1B681368013342
:1032E00013604FF02003EFF3118283F31288BFF3D2
:1032F0006F8F274BD3F80433DB030DD5274BD3E86F
:10330000EF1F21F00100C3E8E40F002CF7D1244B9C
:10331000002935D1196899BB002382F31188BFF3C6
:103320006F8F53B3FFF70AFF04464FF02003EFF30C
:10333000118083F31288BFF36F8F1A4B0022D3E9F9
:103340000289494508BF44451FD3D3E900164FF011
:10335000FF344FF0FF351A604FF48032C3E9024565
:103360000B4BC3F8482380F31188BFF36F8F21B153
:1033700042464B4600200096884702B0BDE8708365
:10338000002119601B680123C7E71146EBE700BF66
:103390000050015004510150685B0120605B012026
:1033A00040510150C845012073B500244FF0FF3053
:1033B0004FF0FF31174D184BC5F80845C3E902011E
:1033C0004FF4803302264FF40012C5F80433134B38
:1033D0000121C5F804631520C3F880212246FEF7B9
:1033E00029FC1520FEF708FC01230D4AC5F80463EB
:1033F00013600C4A2B6013600B4B0C4A0093204661
:1034000000230194FFF7BCFE3046FFF75DF920462C
:1034100002B070BD00500150C845012000E100E03D
:1034200008500150645B012035300000FFFF7F0031
:10343000144B13B5B0F1FF3F08BF1846441E002CD3
:103440001DDD9C42A8BF1C46FFF778FE0E4B0F49BE
:10345000D3E90023801AB0F5000F28BF0024013003
:10346000044408480091844228BF044600201219F1
:10347000019043F10003FFF783FE02B010BD00246A
:10348000E2E700BFFFFF7F00D84501203530000094
:1034900008B5FFF753FE024B1B68C01A08BD00BFFA
:1034A000D845012040EA0103C3F30E0330B58BB9C0
:1034B00040F21515094CC90BC0F3C730994201D130
:1034C000002030BDC218D2B202F5C07244F82250BA
:1034D0000133F3E76FF01500F3E700BF0030005051
:1034E0000348452108B502F0F6FC0020FEF754FE23
:1034F0006C780000816808B5044A1023103902F086
:1035000034FD003818BF012008BD00BFDC6B00008F
:1035100030B50C46816887B0102302AA10390546E1
:1035200002F007FD002811DB1022284602A902F054
:103530009FFF68B103232370A968012328460DF17A
:103540000702283902F0F5FC00280BDA01202AE0F6
:103550001022164902A802F0B2FD002814BF02236F
:103560000123E8E79DF80730284603F00F021B0906
:103570006270237101220DF1070102F079FF10B989
:103580006378042B03D90123637000232371AA6895
:103590002846203AA11C02F093FF0028D6D12846E5
:1035A000E11C02F0E6FF07B030BD00BFDC6B00009D
:1035B0002DE9F04385B005466946032002F0DDFFA2
:1035C000044618B1FF2005B0BDE8F083072002A92A
:1035D00002F0D3FF012838D12A464921284802F0B9
:1035E0007AFC284B8DF80C40029300229DF8005085
:1035F0009DF808609DF803709DF80B809DF802907F
:10360000214C2946207802F047FF18B331466078F4
:1036100002F042FFF0B1A378042B01D0BB4219D1D4
:10362000E378042B01D0434514D12379042B0FD127
:103630006379022B19D1154A1548492102F04BFC38
:103640006079831E022BBED9BCE70028CDD0B9E734
:103650004B45EDD00132032A04F10604D1D10D48C7
:10366000492102F038FC0120ADE7032B05D00A4ABE
:103670000A49042B18BF0A46DEE7094ADCE700BF07
:10368000B17800000301030324790000957800005D
:10369000FC7800000F7900008E7800009F78000011
:1036A0009A780000054B1868043B1B68092B03D16E
:1036B000431E584258417047002070473401FF00B4
:1036C00008B54C4B1B68092B01BF4FF0502300225B
:1036D000C3F81421C3F81821FFF7E4FF30B1012328
:1036E000454A1360A2F63822C2F87835414B1B6870
:1036F000092B07D1414B1B68012B1EBF0122404BF8
:10370000C3F87825FFF7CEFF10B10E223D4B1A60AB
:10371000384B1B68092B04D100223B4B1A60012255
:103720005A600022D30003F57F03D3F80013013160
:1037300008D0D3F800130132D3F80433B2F5807FF8
:103740000B60EFD1314BDA69D1073BD5304B1946CD
:10375000D3F80024012AFBD1C3F80425D1F80034A2
:10376000012BFBD1294BDA69D20708D5DA69284940
:1037700022F00102DA61D1F80024012AFBD11A6A91
:1037800001320AD11A6A22F0FF0242F020021A62C4
:103790001F4AD2F80034012BFBD100221C4BC3F886
:1037A0000425D3F80024012AFBD1BFF34F8F194918
:1037B000194BCA6802F4E0621343CB60BFF34F8F2A
:1037C00000BFFDE71B6A0133C0D0124BD3F88C2039
:1037D00042F44062C3F88C20D3F8882042F470028F
:1037E000C3F88820BFF34F8FBFF36F8F0B4B0C4A8A
:1037F0001A6008BD3001FF00384A00503401FF0054
:1038000000400050E4AE03500C4700500080FF0021
:103810000090035000ED00E00400FA053C45012053
:103820000090D003044B1A7922B9012218601A7152
:1038300002487047024870476C5B01200000AD0BE6
:103840000C00AD0B10B1012820D070474FF0502272
:10385000D2F81834D2F81814C90311D503F00303B1
:10386000022B0DD1C2F8183500220D4B1A601B68CF
:1038700002224FF05023C3F8042301229A607047BC
:103880004FF050230122C3F81825EDE70022054B25
:103890001A601B684FF05023C3F804031860704788
:1038A000045100500051005038B510B1012818D013
:1038B00038BD4FF050230222012142F210751C4600
:1038C000C3F80823154A10601268154A1160D4F82D
:1038D0001834DB03ECD5012002F073FE013DF6D174
:1038E000E6E74FF05024002242F210750D4BC4F869
:1038F00008031A601B680C4B1860D4F80C34D4F819
:103900000C2403F00103D203D2D5002BD0D0012028
:1039100002F057FE013DF0D1CAE700BF045100504C
:103920000C5000500051005004500050164B10B580
:103930001A6852B1002018601B6801224FF0502312
:10394000C3F80823114B1B689847114B1A688AB1BA
:1039500000221A601B684FF05023D3F81824D3F8C4
:10396000181402F00302012A4FF0020103D1C3F838
:1039700018159A6010BDC3F80813044B0120BDE868
:1039800010401B68184700BF005100506C5B0120BD
:1039900004510050F0B54FF02003EFF3118783F38B
:1039A0001288BFF36F8F0D4A1668F14389B291B147
:1039B0000025ECB221FA04F3DB0705F10105F8D587
:1039C0000123A340334304700548136087F3118833
:1039D000BFF36F8FF0BD0348F8E700BF745B0120B1
:1039E0000000AD0B0200AD0B012303FA00F010F054
:1039F000FF0F12D04FF02003EFF3118183F31288F1
:103A0000BFF36F8F064AD36C23EA0000D06481F3C2
:103A10001188BFF36F8F034870470348704700BF9A
:103A2000785B01200000AD0B0400AD0B2DE9F041E7
:103A3000FF22002401260546DFF858E01448DFF88D
:103A40005880E3B24FF02001EFF3118C81F312881C
:103A5000BFF36F8F22FA03F1C9070AD5DEF84C10C5
:103A600006FA03F7394201BF40463943CEF84C10FD
:103A70002B708CF31188BFF36F8F404505D006FA89
:103A800003F39A4304F10104DBD1BDE8F08100BFE8
:103A90000200AD0B785B01200000AD0B0022034B50
:103AA000C3F88425C3F80425704700BF0090035075
:103AB00008B5C0F30B0383B90222094BC3F8842570
:103AC000C3F804254FF0FF320260D3F80024D20778
:103AD000FBD5FFF7E3FF034808BD0348FCE700BF41
:103AE000009003500000AD0B0A00AD0B0122074B04
:103AF000C3F88425C3F80425D3F80824D207FBD5DE
:103B00000160BFF35F8FFFF7C9BF00BF0090035094
:103B1000032310B5134C144A23616361134BA26154
:103B2000E3614FF4806323620023A3626362E36274
:103B300022660F4A0F4962661022E01DA2662367C3
:103B4000E366636702F09EFABFF35F8F0A4920467F
:103B500002F098FABFF35F8F2023A371BFF35F8F4A
:103B600010BD00BFC85B0120367900009F5D0120B9
:103B70008F5D01203F790000437900000E4B70B546
:103B800053F82040013053F82060A64200D870BDA1
:103B9000D4E900352846984765B1EB6830B1002874
:103BA000B8BF4042FF28A8BFFF2018705A7842F0E3
:103BB00001025A700834E8E7EC6B000070B5054666
:103BC00010B90024204670BD0378002BF9D00F4AAD
:103BD0000F4C1646944208D10D4CB442F1D0204609
:103BE00002F00DFD50B91834F7E7204602F007FD4A
:103BF00010B12368AB42E5D01834EBE728462168C2
:103C000002F051FA0028EED1DCE700BF7467000033
:103C1000E466000073B504460D464FF02003EFF351
:103C2000118683F31288BFF36F8F0022042896BF9A
:103C3000114B124B53F82030009245210246104898
:103C400002F049F93DB1EB69C3F308031BB145210B
:103C50000C4802F040F900220B4B45210B4802F0C2
:103C60003AF929462046FFF73BFC86F31188BFF35B
:103C70006F8F02B070BD00BF006C00004A79000079
:103C80005879000085790000AB790000B379000015
:103C9000012208B5084B02201A70FFF76FFF02F0EF
:103CA000C2FC0320FFF76AFFFCF7C6FB034A137B45
:103CB00023F00103137308BD9F610120E04501203B
:103CC0000248034A0021121A02F014BAC04501202A
:103CD000A061012008B5194B03F5006282F3088842
:103CE00083F30A880025E023154C84F82230E57719
:103CF00025766576A57684F82050636A43F4E02340
:103D0000636284F82350FEF7F5F9FDF729FF4FF0C1
:103D1000FF33A362E362FEF7A3FBFEF785FA02F02E
:103D20006DFC2846FFF72AFF0120FFF727FF2B46EF
:103D30002A4629460348FDF7D5FF00BFA089012088
:103D400000ED00E0913C000008B50648064A07492E
:103D5000121A02F0C4F9BDE80840054A05490648B0
:103D600002F0BDB900450120C0450120387A0000AD
:103D700000000000207A000000450120034B1B6872
:103D80000BB9FFF785BB0020704700BF705C0120B6
:103D900030B5036868B10A4A5268904209D043B10D
:103DA000D3E90421D0E90445121945EB0101C3E927
:103DB0000421426813605A600023C0E9003330BD1B
:103DC00040450120104B10B51C689C4208BF0024E0
:103DD000FFF7D4FF9CB1D4E90423121A63EBE0731C
:103DE000012A73F100010DDB10466FF00042194605
:103DF0000023824273EB010400DA104610BD6FF01D
:103E00000040FBE70020F9E7404501202DE9F74F8E
:103E10004FF02003EFF3118483F31288BFF36F8F09
:103E2000DFF8ACA0294D5146DFF8A8B02860D5F8DE
:103E300000C0DBF800006246DAE90089D317584574
:103E4000CDE900230DD060B1D0E90467B445BB4192
:103E50001DDA009BB6EB030C019B67EB0306C0E980
:103E600004C60026009B2E6013EB0802019B43EB67
:103E70000903C1E90023FFF7A5FF3146FFF7D8FA90
:103E800084F31188BFF36F8F03B0BDE8F08F002279
:103E9000002318EB060849EBE679C0E90423ACEBF4
:103EA0000606CAE900892E60FFF772FF84F31188C5
:103EB000BFF36F8F836898474FF02003EFF31184AF
:103EC00083F31288BFF36F8F0149B0E7705C012064
:103ED000604601204045012010B50A4C23681BB103
:103EE00001230020236010BD00F048F80028F7D01F
:103EF0000138062803D8044B53F8200010BD0348AE
:103F000010BD00BF745C0120146C0000FE8FFFFF29
:103F1000BFF34F8F0549064BCA6802F4E0621343B2
:103F2000CB60BFF34F8F00BFFDE700BF00ED00E0A7
:103F30000400FA054FF0FE33002130B4064A074D65
:103F4000074C2B6013602360064A074CEB606368E4
:103F5000C2F8001530BC1847041484500014845073
:103F6000081484500000845048450120024BD0E9D9
:103F70000012C3E9001270474845012010B500F057
:103F800033F820B1032400F067F8204610BD00F09C
:103F900035F890B900F0B0F890B90F4B1B681B0EC4
:103FA000F02B08D10D4A0E4B12689A420AD0072412
:103FB00000F01CF8E7E70624FAE70424204610BDC9
:103FC0000024F5E7012000F097F804460028F7D117
:103FD000044B1860D9E700BF28198450241A845074
:103FE0000000E0200C1A8450002070470020704729
:103FF000014B1860704700BF041A845010B5114877
:1040000000F048F800B110BD0F4800F043F8002858
:10401000F9D10E4C204600F03DF80028F3D10C4BAE
:104020000C481C6000F036F801460028EBD100F087
:104030002DF8044608B1204610BD00F03FF8204698
:10404000FAE700BF5C45012050450120584501209A
:10405000604501205445012008B5084800F024F8C7
:10406000074800F021F8074800F01EF8064800F065
:104070001BF8BDE8084000F00BB800BF5C4501200C
:10408000504501205845012054450120002070472B
:10409000704700BF08B5034B02681B68106898475B
:1040A000002008BD6C45012008B5034B02685B6821
:1040B00010689847002008BD6C45012070B5094C78
:1040C000094D2069AB68984718B1084B08485B68F0
:1040D00098470021074AEB6811602069BDE87040ED
:1040E000184700BF7C4501206C4501204845012050
:1040F000306C0000785C012070B51A4D1A4E0446F1
:10410000B26828699047F0B95CB1184C2368ABB12C
:10411000012B1AD0013B23602869F36898470020DF
:1041200070BD124C216839B90120114B114AC3F8F6
:1041300000051368002BFCD101312160F368286968
:104140009847002070BD0C4870BD0A4A1368002BC8
:10415000FCD1074A6FF07E40C2F80035FFF748FFF8
:104160002368D7E77C4501206C450120785C01205D
:104170000000845010198450E98FFFFF10B50446E9
:1041800030B16368DB0602D500232360636010BD95
:10419000024B03485B689847F3E700BF484501209E
:1041A000506C000068B143683BB1DB0607D5BFF334
:1041B0005F8F002303601846704703487047034829
:1041C00070476FF4E0407047EA8FFFFFE98FFFFF11
:1041D00010B5044620B1002211232260636010BD97
:1041E0000148FFF7A7FEF6E7786C0000A0B143682E
:1041F00083B1DB060CD50122D0E8EF3FC0E8E12F08
:104200000029F9D1012BF7D0BFF35F8F0020704751
:1042100003487047034870476FF4E040704700BFA1
:10422000E98FFFFFEA8FFFFF30B10268034B0448BC
:104230009A4208BF0020704702487047DD55AABB6C
:104240008208F0007108F00038B50D460446B0B1A0
:10425000A0220021043002F000FA95B1082229467C
:1042600004F1640002F0FFF9082205F1200104F1D5
:10427000840002F0F8F90020034B236038BD0348A6
:10428000FCE70348FAE700BFDD55AABB7108F00060
:104290008308F0002DE9F74305460E46994611467E
:1042A000FFF7C2FF0446002840F08480002E00F093
:1042B0008580002900F08480B9F1200F40F08280D1
:1042C00005F14404082205F10408204602F0CBF968
:1042D00005F1240708223146404602F0C4F906F1F0
:1042E00020010822384602F0BEF902A941F8049DD7
:1042F0004FF4807002F0ABF9002865D14FF4807361
:10430000324A0121136093600823314A00F034FBE4
:104310000121052308462F4A00F02EFB08234246C0
:1043200001211C2000F028FB08233A46012103202C
:1043300000F022FB224608230121022000F01CFB92
:104340000823254A01211A2000F016FB0523234AE1
:1043500001211B2000F010FB0823214A0121142019
:1043600000F00AFB08231F4A0121152000F004FB7E
:10437000082305F164020121162000F0FDFA08234C
:1043800005F184020121172000F0F6FA0823164AED
:1043900001210B2000F0F0FA00F04AFB04460198DE
:1043A00000F0D8FA114B002C18BF1C46A421284657
:1043B00002F055F9204603B0BDE8F0830C4CF9E754
:1043C0000C4CF7E70C4CF5E7084CEFE790108450E5
:1043D000DC6C0000546D00009C6C0000406D00001F
:1043E000006D0000206D0000BC6C00008408F0002F
:1043F0007608F0008008F0008108F000C2690C4BDC
:104400001A60826943F8042C426943F8082C026957
:1044100043F80C2CC26843F8102C826843F8142C23
:10442000426843F8182C026843F81C2C704700BF00
:104430005C1684500C4B1B68C3610C4B1B6883617A
:104440000B4B1B6843610B4B1B6803610A4B1B68DA
:10445000C3600A4B1B688360094B1B684360094BB0
:104460001B680360704700BF5C1684505816845068
:1044700054168450501684504C168450481684505C
:10448000441684504016845030B10268034B0448EF
:104490009A4208BF0020704702487047DD55AABB0A
:1044A0000202F0000002F00038B5044668B1051DB4
:1044B0007021284602F0D3F828462022044902F051
:1044C000CAF80020034B236038BD0348FCE700BF57
:1044D000686D0000DD55AABB0002F0002DE9F04335
:1044E00085B015466F46274B04460E460FCB87E82E
:1044F0000F002DB94FF00009484605B0BDE8F08324
:104500002046FFF7C1FF81460028F5D1231D019306
:10451000636AA3BB236F8BB1C3F14008A84528BFD2
:10452000A84604F1300031461844424602F093F8A0
:10453000236F464443442367A5EB0805226F402AB6
:1045400006D104F13001384600F0B4FB00232367A4
:1045500005F03F0835F03F0505D031462A4638467C
:1045600000F0A8FB2E44B8F1000FC3D042463146FC
:1045700004F1300002F06FF8C4F87080BCE7DFF897
:104580000890B9E7F06900000C02F0002DE9FF4146
:1045900004466F46134B0E460FCB87E80F002046AC
:1045A000FFF772FF8046B0B9CEB1636A251D019551
:1045B0003BB90123226F636204F13001384600F0F9
:1045C00079FB2B46043E243453F8042B12BAA34241
:1045D00046F8042FF8D1404604B0BDE8F081DFF87A
:1045E0000880F8E7F06900000502F000084B1B683E
:1045F0001B0EF02B08D1074B1A68074B9A4205D1C6
:104600000020064B18607047052070470620704751
:1046100028198450241A84500000E0200C1A845079
:10462000002230B5134640F6FC754900023802F10D
:10463000A15404F5823490424FEA840402F101024D
:10464000CABF236025605B181E2AF0D1034A13609D
:104650000B445360024B034A1A6030BD78108450FB
:104660008410845020F80F001E4B30B51A4685B0D8
:10467000196800910099CC07FAD500F1A15000F516
:1046800082308000016813680193019BD807FAD536
:10469000154B164C186820231F3090FBF3F0144D77
:1046A0000138002810DA00230130400153B14FF0E7
:1046B0000042A0F12001134204D1013888424FEAA0
:1046C0005202F8D105B030BD13680393039BDB079A
:1046D000FAD5431823602B680293029B002BE3D189
:1046E0000138DEE7B4108450AC108450E4108450DC
:1046F000DC108450F0B51D6885B001F01F040DB9C1
:104700001F2C28D1174D2E462F680197019FFF07B8
:10471000FAD500F1A15000F58230800000683568BC
:104720000395039DED07FAD51F2C00EB611018BF10
:10473000C9430D4D18BF01F01F0128600B480068E8
:10474000029002981CBF00FA01F111604FF00001C5
:1047500008BF1060196010684300C00F136005B0F7
:10476000F0BD00BFB4108450E4108450DC108450BD
:104770000C4B890118603F3020F03F0040305860FA
:1047800099600948D9601961596199611C3382B0F7
:10479000196002680192019AD207FAD5196002B035
:1047A000704700BF90108450B410845038B5A0F109
:1047B0002003B3F5426F05462CD88F2826D800F188
:1047C000470300F16604DB064FEA541400D00134BD
:1047D00064013F34A409013411B1A1421AD30C463B
:1047E0004FF48050E300B0FBF3F0202828BF2020D6
:1047F00002B110600122084B21461A60FFF710FF3A
:1048000028462146FFF7B4FF002038BD00F11F0401
:104810006409DDE70148F8E71C1884502221F00004
:10482000464BF0B51D4689B01C680194019CE40715
:10483000FAD5434B002413449B001A680B181E2B17
:1048400088BFC0F11E011F320B1852095343B3F544
:10485000806F84BF4FF48061B1FBF2F1274688BFBF
:10486000091ADFF8E4E000F1A150DFF8E0C000F53C
:104870008230A14233DC2B680493049BDB07FAD51A
:10488000304B1B68296805910599CF07FAD52E4C46
:104890002E49236000231E46934203F1010040D1BC
:1048A0001946002620F0010228488A423CD829688F
:1048B00006910699CE07FAD5254909682868079018
:1048C0000798C007FAD5216000210C461F488B428B
:1048D0002DD100201D499A422CD809B0F0BD2B687B
:1048E0000293029BDB07FAD503199B001B682E6815
:1048F0000396039EF607FAD5CEF8003000239342C4
:1049000003F1010306D1164623F00103B34204D894
:104910000134AEE7CCF80070F1E7CCF80070013656
:10492000F4E70E600346B7E706600131BDE70460B7
:104930000131CCE708600133CDE700BFB4108450EB
:10494000240421147C108450D4108450D810845036
:104950007810845008B540B1202801464FF0070276
:1049600028BF20210020FFF75BFF0022014B1A60C7
:1049700008BD00BF1C188450F0B5294D85B02C46E9
:104980002E680096009EF607FAD500F1A15000F5BA
:10499000823080000568206801900198C707FAD529
:1049A0002048214F056002EB8306B24229D100273F
:1049B0005A1C1D4E22F001029A4227D82368029306
:1049C000029BDE07FAD5194B0B449B001B681F3373
:1049D0005B099A4213D2216803910399C907FAD55A
:1049E00000211544056008469B1A0F4A8B4210D8D7
:1049F00000205A1C0C4922F001029A420CD805B042
:104A0000F0BD52F804CBC7F800C0CEE737600133E1
:104A1000D2E710600131E9E708600133EDE700BF3C
:104A2000B4108450D4108450D8108450240421141D
:104A30002DE9F041814BA0B01D68986820331E46D7
:104A40001A680192019AD707FAD57D4B7D4A1A6000
:104A500032680292029AD407FAD57B4A1A607B4ADE
:104A60001446116803910399C907FAD5784A116869
:104A7000C1F3402137680497049FFF07FAD5754FAB
:104A80001F6027680597059FFF07FAD5176800295B
:104A900000F0CF80B90540F1CC80316806910699CD
:104AA000CF07FAD56C491960216807910799C907A2
:104AB000FAD51168C1F3402137680897089FFF07AE
:104AC000FAD5664F1F6027680997099FFF07FAD537
:104AD0001268002900F0AF80910540F1AC80326887
:104AE0000A920A9AD207FAD5564A1A6032680B928D
:104AF0000B9AD707FAD55A4A1A6031680C910C996B
:104B0000CC07FAD55749196031680D910D99C9073D
:104B1000FAD55549196031680E910E99CF07FAD52B
:104B20005249196031680F910F99CC07FAD5504955
:104B30001960504B1E46196810911099C907FAD593
:104B40003F4C4D4B236033681193119BDB07FAD523
:104B50004A4B236033681293129BDF07FAD5484B08
:104B600023603A4B9846196813911399C907FAD5EF
:104B7000324F386033681493149BDB07FAD52260F8
:104B800033681593159BD807FAD53E4B23603368DD
:104B90001693169BD907FAD53B4B236033681793BE
:104BA000179BDA07FAD5394B236033681893189BA3
:104BB000DB07FAD5364B236033681993199BD80766
:104BC000FAD5344B236033681A931A9BD907FAD568
:104BD000314B236033681B931B9BDA07FAD52F4BAD
:104BE000236000F01DFC08BBD8F800301C931C9B10
:104BF000DB07F9D53D6033681D931D9BD907FAD5B6
:104C0000274B236033681E931E9BDA07FAD5254B8A
:104C10002360D8F800301F931F9BDB07F9D50C4B9E
:104C20001B6813F4805F204B08BF184620B0BDE816
:104C3000F0811E48FAE71E48F8E700BF9010845044
:104C40008010845000100251C01F7229B41084508B
:104C500088108450C0CF0129C01F0E29C03F0029F1
:104C600040010249003184A800001649400108A112
:104C700080440888B0108450C044708880077A410E
:104C8000C0077E4100006A498006164940006E490F
:104C900000020021008220214082202180822421E4
:104CA00040A161A100C861510308F1000108F100B1
:104CB0000208F100324B2DE9F74F804692469946A3
:104CC00044681A68002AFCD12E4B9B461A68002AB9
:104CD000FCD14FF0FF30019100F094FC802000F0F7
:104CE00097FC01230720284A284DA2F59E722B60CD
:104CF000C2F83C011360636A254F264E3B60A36AED
:104D000020463360D8F8003042F8043CD8F8083028
:104D100098470199D9F80030002BFBD1BAF1000F68
:104D200020D104221C4B1A60D9F80030002BFBD193
:104D3000DBF800A0BAF1000FFAD1D8F80C30204609
:104D400098473B6863623368A362144BC3F800A0C2
:104D5000C3F844A1D9F80030002BFBD12B6003B07D
:104D6000BDE8F08F236A4020012B04BF0B4A13607B
:104D70000B4B1960C3F804A000F050FCD4E700BF4F
:104D800010198450201C8450001984501818845025
:104D9000CC178450D0178450C81784508416845080
:104DA000281C8450544B10B5194698B01A680192CB
:104DB000019AD207FAD5514B514A1A600A680292F9
:104DC000029AD407FAD54F4A1A600A680392039AE6
:104DD000D007FAD54C4818600A680492049AD207A2
:104DE000FAD54A4A1A600A680592059AD407FAD594
:104DF000474A1A600A680692069AD207FAD5454AC7
:104E00001A600A680792079AD407FAD5424A1A60CC
:104E10000A680892089AD207FAD5404A1A600A68C6
:104E20000992099AD407FAD53D4A1A600A680A928B
:104E30000A9AD207FAD53B4A1A600A680B920B9A73
:104E4000D407FAD5384A1A600A680C920C9AD2072D
:104E5000FAD5364A1A600A680D920D9AD407FAD527
:104E6000334A1A600A680E920E9AD207FAD5314A6E
:104E70001A600A680F920F9AD407FAD52E4A1A6060
:104E80000A681092109AD207FAD52C4A1A601A4B67
:104E900019461C681194119CE407FAD5174B186049
:104EA000086812901298C407FAD51A600A6813921B
:104EB000139AD007FAD5124A1A600A681492149A03
:104EC000D207FAD51E4A1A600A681592159AD407B5
:104ED000FAD51C4A1A600A681692169AD007FAD5B3
:104EE000194A1A600A681792179AD207FAD5174A10
:104EF0001A6018B010BD00BFB010845080108450EC
:104F000000936521000431904096659000836121F3
:104F100000C3302100C364900081619000461021DD
:104F2000008111210041442100C320290C4610C8F2
:104F30000086312100C3602140C1282940966521A7
:104F40000013319040962529594614C8400432492F
:104F5000494B10B5194694B01A680092009AD207CE
:104F6000FAD5464B464A1A600A680192019AD4075C
:104F7000FAD5444A1A600A680292029AD007FAD512
:104F8000414818600A680392039AD207FAD53F4A4B
:104F90001A600A680492049AD407FAD53C4A1A6047
:104FA0000A680592059AD207FAD53A4A1A600A6841
:104FB0000692069AD407FAD5374A1A600A68079209
:104FC000079AD207FAD5354A1A600A680892089AF1
:104FD000D407FAD5324A1A600A680992099AD207A8
:104FE000FAD5304A1A600A680A920A9AD407FAD5A2
:104FF0002D4A1A600A680B920B9AD207FAD52B4AEF
:105000001A600A680C920C9AD407FAD5284A1A60DA
:105010000A680D920D9AD207FAD5264A1A600A68D4
:105020000E920E9AD407FAD5234A1A600A680F9294
:105030000F9AD207FAD5214A1A600F4B19461C68FD
:105040001094109CE407FAD50C4B18600868119076
:105050001198C407FAD51A600A681292129AD007FA
:10506000FAD5174A1A600A681392139AD207FAD52A
:10507000144A1A6014B010BDB010845080108450CF
:1050800080906521000409904096659080806121A0
:1050900080200821802064900081619000461021CA
:1050A000008111210041442180202029024610C89E
:1050B0000086092180206021402128294096652111
:1050C00040962529594614C8504B10B51C4696B039
:1050D0001A680192019AD207FAD54D4B4D4A1A60CF
:1050E00022680292029AD207FAD54B4A1A604B4ABA
:1050F00042EA804022680392039AD207FAD51860E8
:1051000022680492049AD007FAD5454A1A60A2F59B
:10511000800242EA814122680592059AD207FAD5B7
:10512000196022680692069AD007FAD53D4A1A609D
:1051300022680792079AD107FAD53B4A1A6022687B
:105140000892089AD207FAD5384A1A60226809925A
:10515000099AD007FAD5364A1A6022680A920A9A42
:10516000D107FAD5334A1A6022680B920B9AD207FC
:10517000FAD5314A1A6022680C920C9AD007FAD5F7
:105180002E4A1A6022680D920D9AD107FAD52C4A40
:105190001A6022680E920E9AD207FAD5294A1A602E
:1051A00022680F920F9AD007FAD5274A1A60216811
:1051B00010911099C907FAD51A60144B1A4619684C
:1051C00011911199C807FAD5114B2049196011683E
:1051D00012911299C907FAD51D49196011681391E6
:1051E0001399CC07FAD50B491960116814911499D9
:1051F000C807FAD517491960116815911599C9079B
:10520000FAD5154A1A6016B010BD00BFB010845010
:10521000801084504004419000862929D81001C88C
:1052200040144190401421294014652100344090DD
:1052300000310C90C0400C90C030202940960D9059
:1052400000416090031645C800861121004160218D
:10525000594644C84014459040142D90264870B5D6
:10526000054688B004680094009CE607FAD5234CF4
:1052700023480460234C44EA83432C680194019C36
:10528000E407FAD50360930143EA824242F01044F6
:1052900044F4C0442B680293029BDE07FAD50460F5
:1052A0002B680393039BDB07FAD5174B03608B0135
:1052B00043EA814141F0104343F4C0432E68049611
:1052C000049EF607FAD503602B680593059BDE075D
:1052D000FAD5046041F058412B680693069BDC0721
:1052E000FAD5016042F058422B680793079BDB0711
:1052F000FAD5026008B070BDB0108450C0210229F8
:10530000801084508071009880611890354B8EB069
:1053100019461A680092009AD207FAD5324B334ADE
:105320001A600A680192019AD007FAD5304A1A60C9
:105330000A680292029AD207FAD52E4A1A600A68BF
:105340000392039AD007FAD52B4A1A600A6804928E
:10535000049AD207FAD5294A1A600A680592059A72
:10536000D007FAD5264A1A600A680692069AD2072A
:10537000FAD5244A1A600A680792079AD007FAD524
:10538000214A1A600A680892089AD207FAD51F4A79
:105390001A600A680992099AD007FAD51C4A1A605D
:1053A0000A680A920A9AD207FAD51A4A1A60086855
:1053B0000B900B98C007FAD51A600A680C920C9AE9
:1053C000D007FAD5144A1A600A680D920D9AD207CE
:1053D000FAD5124A0E211A6000200D230F220EB0BA
:1053E000FFF73CBFB01084508010845080430129E7
:1053F00040633921807001298020542100D13490EC
:10540000C0403490C0302029C0530D9000413890E6
:10541000832308C880E3102100413821CF4308C806
:1054200001232DE9F04192B0CDE90333624B1D46D3
:105430001A680592059AD207FAD5604B604C236032
:10544000604B19461A680692069AD707FAD55E4B42
:105450001A68D60400F1A8802A680792079AD00734
:10546000FAD55A4A22600A680892089AD207FAD5F1
:105470001E68C6F30036002E40F098801220FFF719
:10548000F3F807461320FFF7EFF887428CBF12208E
:105490001320FFF7E9F8471EFFF738FF03AB01AA17
:1054A00039461220FFF726F904AB804602AA394696
:1054B0001320FFF71FF900EB4800022832D0032821
:1054C0003ED0012874D12B680993099BDB07FAD5DC
:1054D0003F4B23602B680A930A9BD807FAD53D4BB4
:1054E00023602B680F930F9BD907FAD53A4B2360A3
:1054F0002B681093109BDA07FAD5384B23602B6882
:105500001193119BDB07FAD5354B2360013F25D55D
:105510001023192218210020FFF7A0FE304612B0F8
:10552000BDE8F0812B680B930B9BD907FAD52D4B67
:1055300023602B680C930C9BDA07FAD52A4BCFE734
:105540002B680D930D9BDB07FAD5284B23602B6846
:105550000E930E9BD807FAD5254BC1E703AB01AAE2
:1055600039461220FFF7C6F804AB044602AA3946B2
:105570001320FFF7BFF810EB440402D1FFF712FC31
:10558000C4E7FFF7E5FC022C08D0032C09D0012C5E
:1055900010D117211620FFF797FDB7E7152114202A
:1055A000F9E70F210E20F6E7124EB7E7124EB5E7E6
:1055B000124EB3E7124EB1E7B010845000084A51C2
:1055C00080108450B41084508810845000084E51CC
:1055D00000065A4940065E4900044241001442490F
:1055E00040042E49000652494006564900063A49F1
:1055F00040063E490608F1000708F1000408F100E2
:105600000508F100014B1860704700BF081A84506C
:10561000014B1860704700BF041A8450034A136896
:105620001842FCD0024A106018467047001A845095
:10563000081A8450704729B1012914BF6FF0150072
:10564000072070470320704770472DE9F7430E4647
:1056500017469946044628B94FF0FF38404603B034
:10566000BDE8F0830029F7D0002AF5D0CB680D897A
:1056700038461D44042329460DEB030200F059FC73
:1056800080460028E8D146F60812BDF80410738958
:10569000914223D1BDF806109942DDD1042338464A
:1056A0000DEB0302294400F044FC0028D4D146F657
:1056B0000713BDF804209A42CED19DF82830BDF8DA
:1056C0000620A3727389C4E900672B44E3600435A4
:1056D0001344A4F8089063612561BFE7002BE6D06E
:1056E000BAE72DE9F7430F4690461E46044620B917
:1056F0004FF0FF3003B0BDE8F0830368002BF7D014
:105700004368002BF4D04FF6FF79D4E904239A4282
:1057100016D223685B8923B1E368934204BF043344
:1057200023610423216960680DEB030200F001FC92
:105730000028DDD1A37A256923B1E368AB4201D803
:105740000120D7E72189BDF80630494503F104025D
:1057500003D0BDF804C08C450BD116B1BDF80410C0
:10576000318004353D60A8F800302369134423617B
:10577000C0E715442561C8E773B50C4606461146D7
:105780000223204601AA00F03FFA0546E8B9019A33
:105790001F2A0ED9A2F12001304620222368194485
:1057A00000F09DFC2368019A13442360284602B050
:1057B00070BD0146C2F12002304600F09BFC019A08
:1057C0002168C2F120003044EAE76FF00205EDE7FE
:1057D00000F075BC4FF440735843303070470B787D
:1057E00003F0FB03032B14BF4FF0FF304FF4407066
:1057F000704710B5044600F015FC4FF44072A368E2
:10580000303B02FB103010BD81680122203900F0CE
:10581000A1BE13B50446019100F03BFE0423A0F1A4
:1058200008010DEB0302204600F067FE02B010BD38
:10583000F7B5054600200C461746FFF7FCFE694603
:10584000C0B2FCF74BF930B10125009800F070FBB5
:10585000284603B0F0BD2C2101FB04542189E368E4
:105860000098CE18042331460DEB030200F061FBD3
:1058700005460028E8D146F60813BDF804206489DF
:105880009A421AD1BDF806309C4201D00325DCE7CC
:10589000042300980DEB0302A11900F04AFB002835
:1058A000D2D146F60713BDF804209A42EED1BDF8D6
:1058B0000610214431443960C7E7002CF1D0E5E7F8
:1058C00073B5134601920E46024600210546FBF7CA
:1058D00057FA044650B901212846019B05F12C02D4
:1058E000FBF74EFA10B1002E18BF0446204602B056
:1058F00070BD37B54FF480750446426A01A9032094
:105900000195FCF7FFF858B9019B0720226DA362AF
:1059100001A90195FCF7F6F8054628B1092500E034
:105920000125284603B030BD019B206A636500F065
:1059300079FBE065F5E70123036003F10123436090
:105940000023C0E9023370474379012B07D1036874
:10595000012B04D10079431E584258417047002062
:10596000704770B586B006460D46032003A9FCF7C4
:10597000B5F830BB0398FFF73CFFF16D04462846AD
:1059800000F0E4F80444039800F04CFB0190039805
:1059900000F051FB0822014604A800F0ABFB2A7975
:1059A00021468DF81020019B039804AA00F0DDFA2F
:1059B000041E18BF0124039800F0BAFA204606B06E
:1059C00070BD0124F7E700F0FEBA2DE9F8430E465A
:1059D000002107460846FFF72EFE0446012100205D
:1059E000FFF729FE33789C4221D0984221D101242F
:1059F0002C2303FB0474F86DA56AFFF7EBFE4FF050
:105A000000080746013D636A304603EBC50253F8C0
:105A10003510D2F804901B684A46C91AC844FFF7EB
:105A2000D2FFB84505F1FF35EDD3BDE8F88300247A
:105A3000DEE70120F9E737B515460C460720694631
:105A400000F09BFDE979012903D00022204600F0F7
:105A5000A8FD9DF80330012B02D1204600F084FD03
:105A6000A9682046FFF7D5FE2046FDF743FD00203C
:105A700003B030BD73B50D460646FBF76DFA04461C
:105A8000E86038B102282FD1032001A9FCF726F8DD
:105A900018B10124204602B070BD2A463146019853
:105AA000FBF7BCF90446D8B9019800F0F2FC0123D9
:105AB00001460DF10302019800F03BFA044600286C
:105AC000E7D1012201980DF1030100F0F3FC10B1C0
:105AD00001238DF803309DF8033003F00F03EB71C1
