:020000040000FA
:10000000A00101202121000031660000F520000040
:10001000F5200000F5200000F5200000F52000008C
:10002000000000000000000000000000AD1C000007
:10003000F520000000000000F5200000F520000081
:100040000D1D00000D1D00000D1D00000D1D000008
:100050000D1D00000D1D00000D1D00000D1D0000F8
:100060000D1D00000D1D00000D1D00000D1D0000E8
:100070000D1D00000D1D00000D1D00000D1D0000D8
:100080000D1D00000D1D00000D1D00000D1D0000C8
:100090000D1D00000D1D00000D1D00000D1D0000B8
:1000A0000D1D00000D1D00000D1D00000D1D0000A8
:1000B0000D1D00000D1D00000D1D00000D1D000098
:1000C0000D1D00000D1D00000D1D00000D1D000088
:1000D0000D1D00000D1D00000D1D00000D1D000078
:1000E0000D1D00000D1D00000D1D00000D1D000068
:1000F0000D1D00000D1D00000D1D00000D1D000058
:100100000D1D00000D1D00000D1D00000D1D000047
:100110000D1D00000D1D00000D1D00000D1D000037
:100120000D1D00000D1D00000D1D00000D1D000027
:100130000D1D00000D1D00000D1D00000D1D000017
:100140000D1D000053B94AB9002908BF00281CBF83
:100150004FF0FF314FF0FF3000F06CB9ADF1080CFB
:100160006DE904CE00F006F8DDF804E0DDE90223D5
:1001700004B070472DE9F047089D04468846002BDF
:100180007DD18A4217463FD9B2FA82F242B1C2F11A
:1001900020009140974024FA00F0944040EA010882
:1001A0004FEA174C230C1FFA87FEB8FBFCF60CFB3A
:1001B000168106FB0EF043EA0143984205D9FB186D
:1001C00002D2984200F22481013E191AA3B2B1FB77
:1001D000FCF00CFB101100FB0EFE43EA0144A645A7
:1001E00005D93C1902D2A64500F20F81013840EA38
:1001F0000640A4EB0E0400261DB1D4400023C5E93F
:1002000000433146BDE8F08702B9FFDEB2FA82F260
:10021000002A50D1CB1B4FEA174E1FFA87F8012650
:10022000210CB3FBFEFC0EFB1C300B4608FB0CF94B
:1002300041EA004189450AD979182CBF01230023DE
:10024000894502D9002B00F0D9800CF1FF3CA1EBCD
:100250000901A3B2B1FBFEF00EFB101108FB00F880
:1002600043EA0144A04505D93C1902D2A04500F259
:10027000C9800138A4EB080440EA0C40BCE78B427B
:1002800009D9002D00F0B1800026C5E900013046F3
:100290003146BDE8F087B3FA83F6002E46D18B4293
:1002A000C0F0A680824240F2A3803046002DA8D044
:1002B000C5E90048A5E79740C2F1200301FA02F022
:1002C0004FEA174ED94024FA03F31FFA87F89440F7
:1002D0000343B1FBFEF01E0C0EFB101100FB08FCEB
:1002E00046EA01418C4509D979182CBF0126002620
:1002F0008C4502D9002E00F093800138A1EB0C014F
:100300009BB2B1FBFEF60EFB161106FB08FC43EA9E
:1003100001418C4505D9791802D28C4500F28780BD
:10032000013EA1EB0C0346EA004679E7C6F120073F
:1003300003FA06F402FA06FC01FA06FEFA4020FA75
:1003400007F8F94000FA06F3224348EA0E044FEAA0
:1003500012484FEA144E1FFA82F9B1FBF8FA08FB73
:100360001A110AFB09F04EEA014E70450AD912EB48
:100370000E0E2CBF01210021704501D9002952D059
:100380000AF1FF3AAEEB000EA4B2BEFBF8F008FB98
:1003900010EE00FB09F944EA0E4EF14505D912EBC7
:1003A0000E0E01D2F14538D8013840EA0A40AEEBD2
:1003B000090EA0FB0C89CE4541464C4602D306D11E
:1003C000434504D20138B8EB0C0169EB020415B3C4
:1003D0005A1A6EEB040EF2400EFA07F72EFA06F3E5
:1003E00000261743C5E900730BE72E46284608E7A9
:1003F000841A61EB03010120884657E7ACF1020C37
:10040000394424E702383C4434E702383C44EEE601
:10041000023E3B44D9E62E46F3E602389644C4E752
:10042000023839446AE7AAF1020A9644AAE7023E72
:10043000394476E7704700BF7FB5304B304A3148CA
:10044000C3F800264921C3F80426C3F80826C3F8D8
:100450000C26C3F81026C3F81426C3F81826C3F8D0
:100460001C2606F021F805F0D7FB274800F05CF8C1
:1004700028B94521244A254806F016F8FEE701A8C8
:1004800000F06EFC224B1B68834204D045212148BA
:1004900006F00AF8FEE74921039A1F4806F004F81F
:1004A00049211E4806F000F84FF48031002002F088
:1004B0007DFF20B145211A4805F0F6FFFEE76946A9
:1004C0009DF8080000F03CF8009B039C1C44019B35
:1004D0001D8900F029FF66194FF02002EFF3118308
:1004E00082F31288BFF36F8F635983F308887368B0
:1004F000984745210B4805F0D7FFFEE700800150E3
:100500003546526EF8730000117400002474000028
:10051000CCC600204374000066740000957400008F
:10052000BA740000ED74000010B5044C236813B9D0
:1005300003F014FE2060206810BD00BFC8C6002074
:1005400008B540B1024600230448452105F0ACFF40
:100550006FF0150008BD0860FCE700BF10750000D3
:100560002DE9F04FDFF81C92DDB01546DDE9684853
:100570001E46DDF898B1D9F8007000F0A3FE012204
:100580007E4B3CA8C3F8002504F074FACDF8149013
:100590003CB1B8F1000F04DD424621463CA805F00D
:1005A0008FFE4FF000096B89B5F808809844EB681E
:1005B0009844C8454ED80FA93CA804F0CDFA0022B3
:1005C0006E4BC3F80025C3F800256A9B23B1202297
:1005D00018460FA906F06AF8002332460093294610
:1005E0004FF6FF7309A805F018FB0446002844D114
:1005F0004FF0FF35DFF890A1DFF8808103900DF117
:100600001E0307AA08A909A805F053FB041E34DB42
:1006100040F0A480BDF81E90B9F1100F38D1BDF89C
:100620001C90B9F1200F40F0A3804B46304608994A
:100630003CAA05F047FF0446F8B94A463CA90FA872
:1006400005F0AEFB04464E4B1B68834215D10123D7
:100650000393D4E7679AA8EB09039A4228BF1A4686
:1006600049461346924630465A4605F02BFF04464B
:1006700038B10022414BC3F8002520465DB0BDE8EB
:10068000F08F524659463CA805F01AFED14490E737
:10069000B9F1010F3FD1BDF81C30202B68D830468E
:1006A00008993CAA05F00EFF04460028E5D19DF804
:1006B0001C50202D0AD8DAF80030DFF8D0B00493AF
:1006C000049B9C4205DB0023C8F800354FF0FF3443
:1006D0001DE000F0F7FDC8F800951FA804F0CAF966
:1006E000DBF804201FA812685BF8081B05F0E8FD82
:1006F00017A91FA804F030FA00223CA9C8F8002569
:1007000017A82A4605F0C2FF18B9C8F80005254603
:1007100075E70134D4E7B9F1220F7FF470AF002DF3
:1007200019DBDAF80030AB4215DDBDF81C30802B48
:100730001ED8304608993CAA05F0C4FE044600289D
:100740009BD1EDB22021BDF81C3000953CAA0FA82A
:1007500000F01EF807464FF0FF3550E7039B53B1FA
:10076000074B1B68BB4201D0059B1F683C4684E7D2
:100770004FF0FF3481E701247FE700BF0000845081
:10078000CCC6002000C50020687000006C7000001E
:100790002DE9F04196B017461D469DF87020354B67
:1007A0000E4653F8321003EBC2035B6880461868AC
:1007B00001913023014402AA01A805F00EFD10B1F9
:1007C0004FF0FF3053E0DDE901431C44214606AB06
:1007D00003AA01A805F029FD0028F1D1049A072AEF
:1007E000EED12549059805F051FF0028E8D1079A78
:1007F000082AE5D12149089805F048FF0028DFD1F3
:10080000214602AA01A805F0FCFC0028D8D1DDE9A8
:10081000013213449C42D3D1412AD1D13D443023EB
:10082000294603AA02A8029705F0D7FC0028C7D1E1
:10083000DDE9023213449D42C2D32A4602A906A82A
:1008400005F082FA0028BBD12A4602A90EA805F0BD
:100850007BFA0028B4D1202EB2D101990B78042B59
:10086000AED13346404606AA013100F043FD16B032
:10087000BDE8F0816C700000367500003E75000028
:100880002DE9F041032386B00D466F460026DFF8C0
:100890006880ADF8003017F8010B01A901F0FCF8F1
:1008A0000446A0B901981023816802AA103905F006
:1008B00009FE0446019805F004FE44B910224146A1
:1008C00002A805F0E3FE40B12EB14FF0FF34204600
:1008D00006B0BDE8F0810126DDE7019806F0C1F819
:1008E0000423A0F108012A46019805F0EBFD044617
:1008F000019805F0E6FDEAE74C7200002DE9F041B1
:10090000384B88B0064600200D461C6805F079F982
:1009100006A9C0B201F0C0F8002857D1294605F059
:1009200070F92C2407A9C0B204FB056401F0B4F8E7
:10093000002836D04FF02C0808FB05F806EB080716
:10094000396911F0100137D14FF480730193264BB0
:10095000224600930846CDE90311069B0291FFF75A
:10096000FFFD0446214B56F8082006989A420CD108
:100970003A89FB68D1438B4207D81344826893427B
:1009800003D21B4B1B68A3421DD045B382680021D4
:1009900005F0E2FD174A4521174805F085FD0124C1
:1009A00011E0079805F010FE0746079805F089FD4D
:1009B000631EE21C93420DD1002DF0D03046069903
:1009C00005F0EBFA2C46069805F07BFD204608B0B2
:1009D000BDE8F08113F8011FB942EBD0AAE7074A3E
:1009E000D9E700BF00C5002088D400203DB8F396A9
:1009F000CCC60020477500005975000051750000F5
:100A000073B50D46002104462846CDE9001105F0D6
:100A100083FA30B3164E2268B24203D1204601AAAF
:100A200005F0EFF9E36AB34204D16A46012120469A
:100A300005F0E7F9DDE90032934288BF0193019B9D
:100A4000AB60019A2946204600F034FB094B1A6836
:100A5000002A03DD5721084805F026FD002002B0DA
:100A600070BD05F10801FFF70BFFAB680193E8E7E4
:100A70003DB8F39630D30020817500002DE9F84F82
:100A80008A46904699460026DFF870B0194C1A4DF8
:100A90000B9B9E4201D300200FE00B9B50469F1BF7
:100AA000B7F5806F28BF4FF48067144A3B4606EBCA
:100AB000090105F007FD10B10120BDE8F88F0A9982
:100AC0003B465A464046711805F018FD0028F3D100
:100AD000C4F800563E44C4F80456C4F80856C4F896
:100AE0000C56C4F81056C4F81456C4F81856C4F876
:100AF0001C56CDE7008001503546526E30C70020AD
:100B00002DE9F0430F4600218D4B85B01E688D4BBB
:100B1000044643628C4B0365084605F072F804F105
:100B20002001C0B200F0B8FF0121002005F069F8F3
:100B300004F14C01C0B200F0AFFF0546204605F0BD
:100B4000C1F9804668B900222046114605F0A1F996
:100B5000804600B3002257217C4805F0A5FC012304
:100B600091E0802257217A4805F09EFC01239845A8
:100B700084F85830E7D194F85830042B8DF80730BA
:100B800000F28480012B00F2888000F09F80FF2318
:100B900084F858309AE0204600F0A4F90028DED00E
:100BA000684605F0B0F96946204605F04BFA18B1E1
:100BB000424657216748D0E7684605F0ADF980F016
:100BC00001006A46C1B2204605F063F902460028DA
:100BD000C0D1684605F0A0F9804660BB6946204652
:100BE000FFF70EFF9DF8073084F85830033B012BC8
:100BF00006D8404605F075FA10B1FF2384F8583046
:100C00009DF80730023B022B0BD8002005F057FA65
:100C100038B1FF2384F8583045214F4805F044FC93
:100C2000FEE794F85830FF2BF6D06A4600212046A4
:100C300005F02FF993E79DF80790B9F1010F17D14F
:100C4000104602F039FC831E022B80460DD849461F
:100C50002046FFF753FE414B1B68984205D0012800
:100C60000CBF4FF001084FF0050884F8588082E768
:100C700001212046FFF742FE384B1B68984214BF03
:100C800005239DF8073084F8583074E7052B7FF46E
:100C90007EAF002005F025FA13E069462046FFF7F5
:100CA000AFFE94F858300546DA1E012A0CD8002011
:100CB00005F017FA054600287FF469AF002005F01B
:100CC000FEF9054610B162E7022BF7D094F85830D0
:100CD000FF2B04D14521204805F0E6FBFEE7012B60
:100CE00006D06A460021204605F0D3F80546D0B963
:100CF00000212046FFF702FE0646DFF86080D8F8A4
:100D0000003098420FD110220021684605F0D9FC2E
:100D1000206A04F07FFF00253871236AD8F800604C
:100D20005B683C60BB60E06C05F0CBFB206A05F0C3
:100D3000C8FB002D14BF2846304605B0BDE8F0833F
:100D400000C5002030CB002030CF0020F27500001D
:100D5000B07500001E76000048760000CCC600206A
:100D600038B5064D044660220021284605F0A9FC4E
:100D700021462846FFF7C4FE38BD00BFD0C600207C
:100D800073B516461C4633B3436A5D686379012B1D
:100D900015D101BB1F4B22681B689A4298BF0025E2
:100DA000002004F02EFF01A9C0B200F075FEF0B1E2
:100DB0000125019805F085FB284602B070BD022B85
:100DC00009D12368012B08D9124A1268934202D82C
:100DD000B1FA81F149090025E2E7FCD10029DFD011
:100DE0000129F8D12179023918BF0121F3E72946F9
:100DF00020233246019805F065FB05460028D7D12F
:100E0000002CD6D0356804482D1A18BF4FF0FF3596
:100E1000CFE700BF04C500203DB8F3962DE9F04FA1
:100E200007460C4685B001460020164604F0BFFF79
:100E3000051E51DB3846E46D04F0C3FF5FFA84F908
:100E40004FF0000A4FF0010B4FF0FF3405F1FF386F
:100E500009FB08089DB9BAF1010F03DD45212048BF
:100E600005F022FB631C06D07F2C2ADC40F2011324
:100E700001343460B380284605B0BDE8F08F6B1EA6
:100E800000934146012338460DF10F0205F01AFB8D
:100E9000031E019322DB012238460DF10F0105F0FC
:100EA000F1FD019B40B15B4501D00AF1010A9B466F
:100EB000009DA8EB0908CDE7B4F1FF3F08BF2C4621
:100EC000F5E70223803C7371631004F001040133E1
:100ED000013433603471CEE70725CCE70125CAE73A
:100EE00054760000816A426D38B58A4208D0531C9E
:100EF0008B4205D05721134805F0D6FA002038BDA3
:100F000080291CD957211048F6E7446A056D04EB87
:100F1000C30405EBC30564686D68AC4202D0572179
:100F20000A48E9E701339A42EFD1914205D9436A71
:100F300003EBC2025368A342F1D10120DFE7002393
:100F40001C46F0E777760000AF760000DE76000002
:100F500000B589B0032004A905F0F9FD9DF8102023
:100F6000012A41D0254B2649032A18BF0B469DF87C
:100F70001320492102929DF81220224801929DF8E7
:100F800011200092204A05F08FFA072006A905F0EB
:100F9000DEFD9DF81820012A28D0184B1849032A95
:100FA00018BF0B469DF81B20492102929DF81A207C
:100FB000144801929DF819200092144A05F074FA21
:100FC0009DF81030012B13D19DF81230032B0FD157
:100FD0009DF81830012B0BD00D48492105F064FA1B
:100FE000022009B05DF804FB0A4BC0E7094BD9E7C2
:100FF0000948492105F058FA0020F2E70F77000070
:101000001577000027770000197700006877000047
:10101000787700000A7700009777000070B54B687A
:1010200014461E4A03F0FF23934206460D4686B03F
:101030002FD10B68012B2CD1204604A902F0ECF92A
:101040009DF81020012A26D0154B1649032A18BFF7
:101050000B469DF81320492102929DF81220124858
:1010600001929DF811200092104A05F01DFA9DF89A
:101070001030032B0DD12146304604F08EFF204660
:1010800005F05CFD2046A96804F0ACFE204602F0A5
:10109000B5F906B070BD064BDBE700BF00010004E8
:1010A0000F770000157700002777000068770000B1
:1010B0000A7700002DE9F04F436A2DED028B0C46B4
:1010C0005E680546012100238BB033449A420846EE
:1010D00001F10101F9D8784F3860204604F01CFF77
:1010E000BB46C8B1E86D04F05DFE0022AB6A013B6F
:1010F0003244904201D9013BFAE7DBF800209A42E2
:101100000AD357216D4805F0CFF90123E3710BB0E5
:10111000BDEC028BBDE8F08F08A9032000F0BCFCF9
:1011200009A9072000F0B8FC21462846099AFFF7D4
:1011300075FF6379012B08D1DBF80070DFF880A11F
:10114000DBF80030A7B90123236002230127DFF871
:10115000708163710593DBF80030DDF820909F42C9
:101160004DD9484605F0ADF9099805F0AAF9CEE742
:10117000226801339B1A9F423FD86B6A012A196883
:1011800053F8370003EBC70353F8083CDDF8208021
:10119000A3EB010308EE103AA0EB010912D1E268BB
:1011A000099B022A0AD041462846039304F0F5FE23
:1011B00022464146284604F026FF039B194628464E
:1011C00004F0EBFE32464946404604F0E4FE18EED9
:1011D000103A424641462846CDE90096FFF74EFCBC
:1011E0002146284604F0A5FE23680133236020B180
:1011F000DAF800300133CAF80030013FA0E7236875
:101200009F4256D3696A286D51F83730FA0004932B
:101210000B68083A50F802C0039303682079DDF8A0
:1012200024A00128ACEB030341D189580793039B09
:101230003246C91A4846069104F0ADFE0699079B4E
:101240004A4600912846514601960693FFF716FC40
:101250002146284604F06DFE059B2371069B20B1B4
:10126000D8F800200132C8F800201946324650460E
:10127000069304F090FE069B494600932846DDE95C
:10128000032301969B1A5246FFF7F8FB2146284696
:1012900004F04FFE2368013323604FF001032371F4
:1012A00038B1D8F800300133C8F8003001E0022826
:1012B000DBD001374FE700BF04C50020AE77000048
:1012C00030D3002070B5094D2B7853B90126084C56
:1012D000C4F8006503F070FC28B92E70C4F800054E
:1012E00070BD0020FCE74FF0FF30F9E788D5002003
:1012F0000000845070B5AEB01D460446CDE9022111
:10130000FFF7E0FFDDE902210123064E05A8C6F83C
:1013100000352346009505F0C8FC0023C6F80035CB
:101320002EB070BD0000845010B501234FF0FF3483
:1013300000211A4A1A481360C2F84443C2F8044311
:1013400002F580521360174B8022C3F84843C3F85C
:101350000843A3F55043C3F80015C3F8084305F04C
:10136000B0F980220021104805F0ABF900210F4BA5
:101370008022C3F800150E48C3F8084305F0A1F910
:10138000802200210B4805F09CF90B4BC3F808455F
:101390004FF05023C3F8084310BD00BF0440015074
:1013A000808000500050015080810050009000501B
:1013B0008090005080910050007001500B68013304
:1013C0000B60014B1B68184708C50020014B1860D3
:1013D000704700BF08C5002007B50B460021024634
:1013E0000191034801A900F0EDF803B05DF804FB9A
:1013F000BD1300002DE9F74FB0F81890044619F01E
:10140000080893460ED001290CBF49F0100949F095
:101410002009A0F818908BF31188BFF36F8F03B0E9
:10142000BDE8F08FDFF898A109F00709022907D17C
:10143000204604F08CFF0028EDD00128238B4DD1ED
:101440006769218B002F15DA256821F00701C4E9AF
:10145000008841F0010121830026218B01F0070261
:101460004A4502D0A368002B59D10DB9002E71D086
:10147000002355E001F007035A1F012A1FD821F06D
:101480000701062B256889B2C4E900880CD1002D1C
:101490002B4638BF00232BB1628B1B68013262835D
:1014A000002BF8D141F002012046218304F04FFFC8
:1014B0000028D1D0238B43F020032383CCE7042BD7
:1014C0000AD121F0070189B22046218304F03FFFB1
:1014D00010B141F0200121830025BDE7032809D187
:1014E000226923F00703166843F0060300252383CF
:1014F0002F46B2E7042806D1226923F00703566875
:1015000043F00403F2E7052806D1226923F007031C
:10151000966843F00503E9E700252E46E8E7012336
:1015200041F0080121838BF31188BFF36F8F03BB58
:10153000002D34D116B151462046B0474FF020035C
:10154000EFF3118B83F31288BFF36F8F238B23F09C
:1015500008032383238BDA062AD5012123F0100305
:101560002383B4F8189009F0070900297FF45EAFCF
:1015700051E7A1680029DBD00B68002B38BF00239E
:10158000994620463B46D1F804B00192D847019ACB
:10159000B9F1000FCCD04946D9F80030EDE7294623
:1015A0003B46204601922D6804F0EDFE019ABFE70C
:1015B00013F020011EBF23F0200302212383D0E774
:1015C000B36300002DE9F04F8B464FF0000A8FB057
:1015D0001F46531E00900193019B58785C1C2528E0
:1015E00022D14FF0000C4FF0FF36184661463446CA
:1015F0004FF00A0E0230CDF808C002780190392A67
:1016000000F1010058D81F2A18D8002A00F0FF81E5
:101610005946009B25209847019B59461878009B06
:1016200098470AF1020AD7E7002800F0F0815946EE
:10163000009B98470AF1010A0194CDE7A2F120032B
:10164000192BE5D801A555F823F000BFB516000009
:101650001116000011160000B5160000111600004A
:1016600035170000111600001116000011160000B9
:101670001116000077170000B516000011160000C3
:101680008B17000043170000111600004F170000D1
:101690006B1700006B1700006B1700006B17000042
:1016A0006B1700006B1700006B1700006B17000032
:1016B0006B1700009446A0E7582A00F04081A2F181
:1016C0006303DDB2172DA3D8172BA1D801A555F8B8
:1016D00023F000BF99190000B11700001116000097
:1016E000111600001116000091170000B11700003C
:1016F00011160000111600009117000011160000CD
:101700001116000011160000E91800001116000063
:10171000111600007B19000011160000B11700001F
:101720001116000011160000E91800001116000043
:101730009117000059462520009B98470AF1010A9D
:101740004AE7029B002603F0FE03029355E7002CB4
:101750000BDA002E0BDA029B002B00F0548124EAF6
:10176000E4740EFB0424303C47E7002EF7DB0EFB4D
:101770000626303E41E7002E57F8043B01DB1E46AB
:101780003BE71C1EBFF639AF64420223029334E7E5
:10179000682A03D1682906D148212EE76C2A02D194
:1017A0006C2900F0328100297FF432AF114624E722
:1017B0007A290FD13B68752A984607F1040540F055
:1017C00088804FF00009BCF1200F40F08580924FD7
:1017D000013C15E06C29EDD04C29EBD1FD1D25F025
:1017E0000705752AF5E80289EDD0B8F1000F79F107
:1017F0000003E8DAD8F10008884F69EB4909013C99
:101800000DAB059300230393039B40460493013BD8
:10181000494603930A220023FEF794FC059B3032CD
:1018200003F8012940460A22494605930023CDE9E1
:101830000689FEF787FCDDE90623002B08BF0A2A8C
:1018400080468946E0D2049B0EAAC3F1010902EB4F
:101850000308002EA8F1040804DA029B13F0010F1C
:1018600018BF2646A6EB0903002B0393029BD4BFA7
:10187000A4EB0904A41B9A0740F1AF80AAEB07066A
:1018800006EB070A17F8010B002840F0A880039E1A
:10189000013E40F1A880039B4E465A1E0132ACBF68
:1018A0001F460027013E40F1A38009F1FF320132BB
:1018B000ACBF4B460023264603EB0709013E40F12F
:1018C0009D80631E0133B8BF0024A1442F46CA4443
:1018D00082E64FEAE37988E7BCF12B0F0ABF504F4D
:1018E000504F04F1FF348BE7702A28D13D4655F85C
:1018F000040B00285AD000214B4F023C4FF0000847
:1019000002F06002A2F139090DF1340E00F00F036C
:10191000092B88BF4B44303300290EF8013908BF2A
:1019200010284FEA101308F1FF3C43EA01734FEA15
:1019300011121ED20EABC8F10109984489E76C2937
:1019400004D13D46002155F8040B06E04C29F8D19E
:10195000FD1D25F00705F5E80201BCF1230F06D1B6
:10196000314B12F0200F314F18BF1F46C5E72D4FE6
:10197000C4E7E04618461146C8E73D4655F8048BD3
:10198000404604F070FE002E814602DBB042A8BF44
:10199000B1460026234F65E73D4655F8043B4FF01E
:1019A00001098DF820300DF12008F2E74FF005090C
:1019B000DFF87C80EDE759462020009B9847013EE8
:1019C000F9D5621E531CACBF21460021C4F10004AE
:1019D000B8BF00248A44144450E72646EFE759462E
:1019E000009B98474CE75946009B302098474FE7AB
:1019F000594618F8010B009B984753E75946009B3E
:101A0000202098475AE70123C0E64C21F5E55046CF
:101A10000FB0BDE8F08F00BF107C000038780000E8
:101A20003A780000C57F00003C7800003F78000055
:101A30004278000008B54FF02002EFF3118382F3E3
:101A40001288BFF36F8F00F09BFB034804F072FC19
:101A500000F080F8FCE700BF487800004FF020025B
:101A6000EFF3118382F31288BFF36F8F0121044AD1
:101A7000C2F8401583F31188BFF36F8F00207047C1
:101A80000090035020B1034B800143F0010318473D
:101A9000704700BF607000000C4B70B51B6873B1DD
:101AA0000B4A15680022AA4202DB6FF0010070BDEC
:101AB0001C4613F8106B864204D00132F3E76FF036
:101AC0000C00F4E700200C60F1E700BF0CC500201B
:101AD0002871000070B588B005460C46C0B2694652
:101AE0001646FFF7D9FF00281FDB009BEBB15A68B1
:101AF000216802929A68D868CDE9032600220195F0
:101B0000CDE90612059202F029FB0546009804F083
:101B1000D8FC6DB12846084901AA04F0D0FE079808
:101B200008B9059B236008B070BD6FF01500FAE797
:101B30006FF01200F7E700BFDB650000014802F01C
:101B4000F1BC00BF2C710000014910220A607047EF
:101B500010ED00E072B6404080F31188BFF36F8F44
:101B6000BFF34F8F30BF62B6BFF36F8F704700BFB8
:101B700072B6494081F3118820BF80F3118862B6A4
:101B8000704700BF37B505460C46C9B18B68104891
:101B90000093D1E90023452104F086FC63694521C7
:101BA0000093D4E903230B4804F07EFC4521E2694D
:101BB000094804F079FC4521A269084804F074FC46
:101BC0002146284603B0BDE8304002F0F3BA00BF1A
:101BD00075780000A9780000DD780000F178000039
:101BE00043B2002B08DB012200F01F0002FA00F0D4
:101BF000024A5B0942F82300704700BF00E100E0A1
:101C0000054B420953F82220012300F01F0003FA7C
:101C100000F01040704700BF00E100E043B2002B2D
:101C200001F10101ACBF03F16043064B4FEA4111E2
:101C3000C9B2ABBF03F5614300F00F0083F8001396
:101C40001954704714ED00E030BFFFF7FDBF00BF2F
:101C5000144A08B5144B22F07F029A60BFF34F8FED
:101C6000BFF36F8FD3F8882022F47002C3F8882066
:101C7000D3F8882042F4A002C3F888204FF04042F5
:101C8000C3F83422BFF34F8FBFF36F8F0023E1EE11
:101C9000103A02F0E5FA02F027FB00F035FA02F004
:101CA000E9FA00BF0000000000ED00E01EF0040FA4
:101CB0000CBFEFF30880EFF30980816911F8021C73
:101CC0000229FFD001B504F0ABFC01BD0446084673
:101CD00011461A460023E1EE103A83F30B880A4BB3
:101CE0002025A3F5205686F30B8883F3098863B675
:101CF0004FF0000383F31188BFF36F8FA04785F384
:101D00001188BFF36F8FFEE7A001012001B5EFF34B
:101D10000580A0F110004FEAC0000449014409C940
:101D20009847BDE80140024908470000E06D000007
:101D3000351D0000704700BF70B5224C06460D46A9
:101D40002148452104F0B0FBA26AD00603D5452105
:101D50001E4804F0A9FBA36A190703D545211C48B6
:101D600004F0A2FB174CA36A9A0710D54521194825
:101D700004F09AFB626BA36A1B0608D5452116483E
:101D800004F092FB1EB1A36A23F08003A3620D4C02
:101D9000A26AD00703D54521104804F085FBA36A49
:101DA000990603D545210E4804F07EFB0020054B23
:101DB0009A6AD20658BF9A6A9A6A42F0FF029A62F9
:101DC000287070BD00ED00E0247900003F7900002C
:101DD000777900008F790000AC790000C7790000A6
:101DE000EB79000070B5234C06460D46224845218C
:101DF00004F05AFBA26AD10403D545211F4804F020
:101E000053FBA36A1A0503D545211D4804F04CFB7A
:101E1000184CA36A9B0510D51A48452104F044FBD1
:101E2000A26BA36A180408D54521174804F03CFBAF
:101E30001EB1A36A23F40043A3620E4CA36A5905A2
:101E400003D54521114804F02FFBA36ADA050BD511
:101E500045210F4804F028FB0020064A936A43F40A
:101E60007F439362287070BDA36A9B04F4D545211B
:101E70000848EFE700ED00E01F7A00003A7A000022
:101E800077790000507A00006E7A0000887A0000AE
:101E9000A87A0000EB79000038B5214C4521214893
:101EA00004F002FBA26A950103D545211E4804F007
:101EB000FBFAA36ADC0103D545211C4804F0F4FABF
:101EC000174DAC6A14F4801404D04521184804F06E
:101ED000EBFA0224AB6A180303D54521154804F038
:101EE000E3FA0F4DAA6A510303D54521124804F0C5
:101EF000DBFAAB6A9A0303D54521104804F0D4FA03
:101F0000074DAB6ADB0303D545210D4804F0CCFA3D
:101F1000AB6A20466FEA03436FEA1343AB6238BDF6
:101F200000ED00E0C57A0000E27A0000FA7A0000D5
:101F3000197B0000487B00006B7B0000957B000054
:101F4000B47B00002DE9F043574B0025D3F80490F3
:101F50008BB0C9F3080885F31188BFF36F8F02F0C7
:101F60007F43B3F17F4F07D102F00C03082B05D15B
:101F700045214E4804F098FA2F4604E012074EBF60
:101F80000F46074601250022A8F1030614468DF8E6
:101F90000720092E76D8DFE806F0056A6E677575AA
:101FA000757575724521424804F07EFA3E4B8DF8F6
:101FB0000740DC6A14F0020405D045213D4804F0D6
:101FC00073FA002406E0DA6A002A1DDA45213A484D
:101FD00004F06AFA9DF807309BB92022394602A81E
:101FE00004F064FB099B002D59D0C3F3080222B909
:101FF0006FEA53236FEA43230993204602A9FFF7B0
:10200000C1FD0BB0BDE8F083DB6A5B00E2D5452182
:102010002A4804F049FABB6933F8022C4DF60273E2
:102020009A420CD003F1604303F626631B786BB130
:1020300001200DF10701FFF77FFE0446CAE74521A5
:102040003A681F4804F030FA3C68C3E71D4B1B7820
:102050002BB101200DF10701FFF7C4FEEDE71A4B8C
:102060001B889BB2002BB5D0FFF716FFE5E70020D9
:102070000DF10701DFE700200DF10701ECE7452135
:1020800012489CE7124919F4F87F124A124808BF17
:102090000A46A8F11003452104F006FA91E723F45B
:1020A000FF7323F00103A7E700ED00E0127C0000BE
:1020B000427C00005E7C0000847C0000977C000075
:1020C000BB7C000029ED00E02AED00E0DC7C000094
:1020D000E47B0000F97B0000057D0000044B5A6999
:1020E00042F010025A615A6942F480625A617047A4
:1020F00000ED00E0EFF30880EFF3098101B57246CF
:10210000FFF720FF01BD00BF002320210348C218B4
:102110000133412B82F80013F9D1704700E100E050
:10212000002080F31488BFF36F8F002080F30A88AB
:1021300080F30B8804F0E6FD00200E490860BFF331
:102140004F8F0D4880F3088800F03CF8202080F382
:1021500011880A484FF40061401880F30988EFF3B2
:1021600014800221084380F31488BFF36F8FFFF7B8
:102170006FFD000094ED00E0A0010120A00101200E
:10218000BFF34F8F0549064BCA6802F4E062134360
:10219000CB60BFF34F8F00BFFDE700BF00ED00E055
:1021A0000400FA0500231846054A1168C1F3072107
:1021B0008B4200D17047936010610133F8E700BF94
:1021C00090ED00E010B572B6002484F31388FFF799
:1021D000E9FF0E4A234611464FF0FF3403F1200079
:1021E0000133102B42F82040F8D100234FF0FF308C
:1021F00003F160020133102B41F82200F8D162B6DE
:10220000BFF34F8FBFF36F8F10BD00BF00E100E041
:102210000121024B024A034800F00CB900000420DF
:1022200000C500203471000010B50B680C7A23F053
:102230001F0204F01F031A43CB68640923F01F0335
:10224000044943EA440343F001038860CA600B6118
:1022500010BD00BF90ED00E030B54B680C6885B054
:102260000A898D7A0094013B24F01F04234402F074
:102270001F0242EA451223F01F030F2804468DF87F
:102280000820039309D902464521064804F00CF9B9
:102290006FF01504204605B030BD6946FFF7C4FF56
:1022A000F8E700BF217D00002DE9F04F8946144674
:1022B00006464FF00008524D85B0C84523DA7768CE
:1022C000002F42D01F2F17D9FB0615D1D6F800A03A
:1022D0001AF01F0F10D1504604F0B1F9834607EBF6
:1022E0000A00013804F0ABF9834510D06FF0150BEC
:1022F0005A464521434802E042464521424804F0FF
:10230000D3F86FF01504204605B0BDE8F08F1BF13F
:10231000160FEDD0631E5B45EADBC5F808B0E9682F
:10232000C5F808B02F6921F01F01D6E900321A4420
:10233000994247F01F0702F1FF3A1CD1574508D1D7
:1023400031465FFA8BF0FFF787FF08F101080C3682
:10235000B3E73146C5F808B0EB6822F01F0203F07E
:102360001F031A43EA60E0B2FFF776FF10F1160F81
:10237000C7D0441CE9E7013B5745E0B223F01F03F7
:10238000C5F808B006D12A69314602F01F0213438E
:102390002B61E9E7296901F01F010B432B613146ED
:1023A000FFF75AFF10F1160FABD0C5F808B0EA6876
:1023B0009DF80830013F62F304038DF808302B6963
:1023C0009DF808205B0863F347128DF80820D6E9D2
:1023D00000321344009323F01F033B44441CA3EB3F
:1023E0000A0AE0B22AF01F030F28039303D902461A
:1023F0004521064883E76946FFF716FFB9E700BFA6
:1024000090ED00E0747D00004C7D0000217D000017
:102410000522034B5A60BFF34F8FBFF36F8F704796
:1024200090ED00E0BFF35F8F0022014B5A607047D0
:1024300090ED00E010B5034C2278FFF735FF2070D7
:1024400010BD00BF89D5002038B50E4C2568102D71
:1024500014D8FFF7E7FF00200B4B0C4A1A638542A4
:1024600005D10B4B1D70FFF7D3FF002038BD61680D
:1024700001EB0011FFF7D8FE0130F0E74FF0FF301D
:10248000F4E700BF4071000090ED00E0AAFF4400B7
:1024900089D50020014B1860704700BF10C500208F
:1024A00070B504460C250D480E46231A9A100C4BA5
:1024B00040215343DBB25D4305F14003184404F06F
:1024C00015F9011E04DB074B2B445B68984700217C
:1024D00020463346BDE87040184700BF44D3002073
:1024E000B76DDBB6807100002DE9F0410F4C104D47
:1024F000031B9B105D43EBB20C255D43074605F1C2
:1025000040000E462044402104F009F9011E08DB7A
:10251000084B2C44C4E90E36074B5B59BDE8F0412B
:10252000184738463346BDE8F041184744D30020E9
:10253000B76DDBB6876700008071000070B50022C0
:10254000012104460520FFF769FB0520FFF748FB42
:102550000F4801F04BF90F4B984215D104F01DFBC9
:1025600026690D49304603F042FF00280BDB0125A8
:1025700035642469084904F11C0003F038FF002881
:1025800001DB0020E56470BD6FF00400FBE700BFD5
:10259000D92500000000AD0B9871000073B50C2325
:1025A000014600264B430A48C4184033D4E90E5272
:1025B0001844A663019204F0D0F835B12B46019A75
:1025C000044802B0BDE87040184702B070BD00BFBB
:1025D00044D30020686D000010B1012804D070477A
:1025E000034B1B6C5B0701D1FFF7D8BF704700BFDF
:1025F00044D3002008B54FF02003EFF3118183F39B
:102600001288BFF36F8F124A136843F0020013F071
:10261000010310600CD04FF05022D2F80C34D2F8E5
:102620000C2413F0010303D00A4804F096F80123A8
:1026300081F31188BFF36F8F23B1BDE808400020FC
:10264000FFF7ACBF0120BDE8084001F0DFB800BFD4
:1026500094D3002084D30020074BD3E8EF2F22F03F
:102660000201C3E8E01F0028F7D1D30702D40120FC
:1026700001F0FEB8704700BF94D300202DE9F84365
:10268000012206463649D1E8EF3FC1E8E02F002895
:10269000F9D133B9334934484B60CB608A6003F0D9
:1026A000B9FE731E012B32D8012E07D14FF05023F3
:1026B000D3F81C3403F00303022B28D004F0EBFA08
:1026C000044618B9294B1B78002B41D14FF0200349
:1026D000EFF3118583F31288BFF36F8F0124244F2A
:1026E000DFF89080DFF890904FF05022D2F8183445
:1026F000D2F81824D2030CD503F00303022B01D027
:10270000012E06D1F4B185F31188BFF36F8FBDE8B8
:10271000F8832846FFF72CFA4FF05022D2F81835EC
:10272000DBB2012BE0D139680029DDD0002139600E
:1027300039680221C2F818152022C8F88021C9F88A
:102740000030D1E74FF050230222C3F80423DEE724
:102750004FF0502302220546C3F80823BFE700BF0D
:1027600098D3002034D3002060D300209BD90020D0
:102770000451005000E100E00850005008B5044842
:10278000FEF724FE0248FFF785FE002008BD00BFCB
:1027900095270000F7B5044603250F4E8DF8070076
:1027A000EFF311874FF0200181F3118801220DF121
:1027B0000701002001F07EFC87F3118820B101237E
:1027C0003370204603B0F0BD3378002BF9D0013DC3
:1027D000E6D13570F5E700BF8AD5002030B54068F6
:1027E00001F01F05047BB2F5005F45EA441585B092
:1027F0004FF0000404D1284601F000FB00202CE03B
:10280000B2F5804FCDE9024429D1B3F5003F0CBFAA
:10281000042305238DF80830836823FA01F1C907E2
:1028200029D4B2F5A03F26D11B4A05F01F038033FF
:1028300052F82330DB071ED40DF107042146284649
:1028400001F048FA154B984214D1204601F08CFA59
:10285000134B98420ED06FF00B0005B030BDB3F5AE
:10286000C02F05D0B3F5003F0CBF02230123D1E7F1
:102870000323CFE7039400232846194602AA01F058
:10288000E9F8074B984204D10121284601F072FA79
:10289000B4E76FF00400E0E7002584500400AD0BBE
:1028A0000000AD0B10B501F04FFA044668B901F015
:1028B00023FA084B98420AD12146074801F004FA4E
:1028C000224605210D20FFF7A9F9002010BD6FF069
:1028D0000400FBE70000AD0BDD280000430970B5E4
:1028E00018D10D4B5968A9B10C680123002C38BFD1
:1028F00000240A4E03FA00F58A682A4002D03046C6
:102900004B68984734B123682146002B38BF002319
:102910001C46F1E770BD00BF9CD30020806D000015
:102920002DE9F043476801F01F053B7B0E46144636
:1029300085B045EA4315CAB902A9284601F0CAF98B
:102940000446284601F07CFA474B984204D06FF0C9
:10295000040005B0BDE8F083844205D19DF808006D
:1029600001F0FCF9A042F2D10020F2E74FF000099B
:102970000DF103013046CDE9029901F0ABF94B4668
:1029800080464946284602AA01F064F8364B984230
:1029900002D06FF01500DCE7804503D19DF80300FD
:1029A00001F0DCF9A3054CD5304B314A234093426A
:1029B00039D00CD8062B14D004D893B1022BE8D10F
:1029C00004230EE0B3F5801FE3D1012309E0294A77
:1029D00093422AD0B3F5A00F29D0B3F5800FD8D1F8
:1029E00002238DF8043084F48073C3F30023E006DF
:1029F0008DF805304CBF0323C4F3401321058DF837
:102A0000063016D501217B6801FA06F69E60002289
:102A1000284601A901F0C4F8134B984214BF6FF087
:102A20001500002095E70723DBE70523D9E70323FB
:102A3000D7E7620541BF01217B6801FA06F6DE6037
:102A4000E5E7E3064FF000034CBF0324C4F3401452
:102A50001A46284601A98DF8044000F0FBFF024BFE
:102A6000984281D095E700BF0000AD0B0600F00052
:102A70000600100002004000024B0B6001231360AF
:102A8000704700BFA8D3002000487047F0710000D5
:102A900010B504F093F8034C206004F08CF86060EB
:102AA000002010BDA8D30020F8B50E46144604F04F
:102AB00082F821460546304603F0EEFE3746F8B16F
:102AC000B6FBF5F305FB136323B9B4FBF5F305FB84
:102AD000134040B12346324645210C4803F0E4FC44
:102AE0006FF015000BE0A54209D804F064F8054624
:102AF000384601F079FA641B2F44F9D12046F8BD1D
:102B00002346324645210248E8E700BFD27D000057
:102B1000F67D000037B50C46194620460193154650
:102B200003F0BAFE019B40B909482246452103F053
:102B3000BBFC6FF0150003B030BD33B11A4621461F
:102B4000284603F0B3FD0020F5E71846F3E700BF81
:102B5000F67D0000F8B50E461946304617461C466D
:102B600003F09AFE40B9234632464521124803F04D
:102B70009BFC6FF01500F8BD44EA060515F003054F
:102B800004D02346324645210C48F0E78CB12B197E
:102B9000032BA6EB050006D8094AD2F80034DB0760
:102BA000FBD50020E7E77B1B196801F03BFA043DE9
:102BB000EDE72046DFE700BFF67D0000187E00004D
:102BC00000900350F0B54B79012B26D0032B21D177
:102BD00010268B79032B1DD1CC790CB1012C19D186
:102BE0000A7912B1022A15D10E220B684568B3F595
:102BF000164F2D6865D02DD8B3F5165F64D016D862
:102C0000B3F5966F62D00AD8B3F5967F61D0B3F56D
:102C1000167F61D06FF0850052E00026D9E7B3F54A
:102C2000166F5CD0B3F5965FF4D1374B3CE0B3F54B
:102C3000E14F57D007D8B3F5615F55D0B3F5964F44
:102C4000E8D1324B30E047F61227BB42E2D14FF4D5
:102C5000000329E0B3F5613F48D013D8B3F5963FA0
:102C600047D009D84DF6C027BB4244D0B3F5614FD9
:102C7000D0D14FF46B0317E0B3F5E13FCAD14FF069
:102C8000EB7311E0B3F5612F38D008D8204FBB4269
:102C900037D0B3F5E12FBDD14FF0E86304E01D4F0D
:102CA000BB42B7D14FF08053C5F824350369344394
:102CB0002243043303C9C5F86C2583E803000020D0
:102CC000F0BD4FF41D03EFE7134BEDE74FF49E23E8
:102CD000EAE74FF4A033E7E74FF41C33E4E74FF49F
:102CE0001D23E1E70D4BDFE70D4BDDE74FF06C7384
:102CF000DAE70C4BD8E74FF46503D5E74FF0706384
:102D0000D2E74FF08063CFE700B0130000A04E0081
:102D100090D0030040420F000050270000C0750013
:102D200000F03A0000903A01F8B505460F460669F2
:102D300003F0B1FF10B9294B1B78A3B94FF0200362
:102D4000EFF3118483F31288BFF36F8F284603F0EB
:102D50002BFE00BB84F31188BFF36F8FEEE784F383
:102D60001188BFF36F8F6424284603F01DFE28B935
:102D7000012003F010FF013CF6D1F4E74FF02003EF
:102D8000EFF3118483F31288BFF36F8F284603F0AB
:102D90000BFE0028E3D0012206F8107F69680B685B
:102DA000C3F84465C3F848250022C3F82021D3F8AE
:102DB0002001C3F85821D3F858214A68D20641BFF0
:102DC0000822C3F800254FF48002C3F8042301222F
:102DD0009A6084F31188BFF36F8FF8BD9BD90020F0
:102DE0002DE9F8430023476805693C68C4F80035BD
:102DF00028604368DE68711C0BD00121DFF83CC1FC
:102E000006F01F029140CCF80810032180324CF8E4
:102E1000221019694A1C0DD01A7FDFF820C1002A40
:102E200014BF4FF00C0E4FF0000E01F01F02803265
:102E30004CF822E0D3F814C0BCF1FF3F0ED04FF0A5
:102E4000010EDFF8F8800CF01F020EFA02FEC8F83F
:102E500008E04FF0030E803248F822E0D3F818E083
:102E6000BEF1FF3F0DD05A7FDFF8D080002A14BF9B
:102E70004FF00C094FF000090EF01F02803248F8A5
:102E800022901B68C3F80C65C3F814150169C3F8D8
:102E900008C50431C3F810E5FFF794FE064678B97B
:102EA0007B6899071CD505F1120000F057FD204BF7
:102EB000984208D045211F4803F0F6FA6FF0040647
:102EC0003046BDE8F883AB7C43F00043C4F8A03142
:102ED000C4F88C300123AA7C9340174AC2F8043509
:102EE0000823C4F800353B7A5BB9C4F81031D4F834
:102EF000103105F11103C4F834350123C4F8383515
:102F000023607B6810359A075CBF4FF48072C4F869
:102F10000423DB0644BF4FF48003C4F804330023CA
:102F2000C4F84455C4F848350123A360E360C7E7FB
:102F30000000AD0B457E000000700150002584505C
:102F4000194970B5044622F07F460868C1E900239C
:102F5000A6F50013101AB3F5400F4FF000050AD282
:102F60000125124B19680A060B0A9219104943F100
:102F70000003C1E9002301F019FAA30003F1502373
:102F800003F58033D3F84025B2420BD11DB94FF47D
:102F90000002C3F840254FF48030064B00FA04F4D9
:102FA000C3F8444370BD00BF38C60020B8D300202A
:102FB00020C60020005001500123834010B5DC439F
:102FC0000D4AD2E8EF1F01EA040CC2E8EECFBEF1D1
:102FD000000FF6D14FF4803202FA00F002F15022D5
:102FE000C2F80803BFF35F8FBFF36F8F0B4214BFAC
:102FF0000120002010BD00BFB4D3002001230E4AE1
:103000008340D2E8EF1F1943C2E8EC1FBCF1000F68
:10301000F7D14FF48033094A8340C2F80433084B98
:10302000D3E8AF3F23FA00F0C30742BF4FF40012CA
:10303000044BC3F800217047B4D300200050015066
:10304000B0D3002000E100E00D4B1B68190A180600
:10305000BFF35F8F0B4BD3F80435C01841F100016B
:10306000B3F5801F0AD2084BD3E90023994208BF69
:10307000904203D210F1807041F10001704700BF0F
:10308000B8D300200050015020C600202DE9F74F92
:1030900016461F460546FFF78FFF0090FFF7D4FF47
:1030A000B94208BFB0427BD200234FF08072B6EB2A
:1030B000000867EB01094B4508BF42457DD3404BF3
:1030C00003EB0513D3E902239F4208BF964251D078
:1030D0004FF4803B26F07F4214464FEA850905F104
:1030E000500809F150294FEA880809F580391FFA7C
:1030F00088F808F15028D9F84005324B08F5803897
:103100000BFA05FBD3F804A5A0EB0A0020F07F40E2
:103110002AF07F410128C9F8401505D101921320FA
:1031200003F0BFFD274B019A0AF1020CA4EB0C003F
:1031300020F07F400021B0F5000F88BF6446C8F83A
:103140000010D8F8000024F07F40C3F844B3C9F859
:103150004005D3F80405824506D0201A023820F035
:103160007F40B0F5000F19D8A41A24F07F4432191B
:1031700047F10003124C290104EB0510C0E90223BA
:103180000C9A0D9B625000244360009B13B12846AB
:10319000FFF734FF204603B0BDE8F08F2046B1E7CB
:1031A0000123094AAB40D2E8EF1F1943C2E8E01FF0
:1031B0000028F8D132463B46DCE76FF01504E4E71F
:1031C00028C6002000500150B0D3002073B5002461
:1031D0004FF0FF304FF0FF31164D174BC5F8084543
:1031E000C3E902014FF4803302264FF40012C5F800
:1031F0000433124B0121C5F804631520C3F8802164
:103200002246FEF70BFD1520FEF7EAFC01230C4ACF
:10321000204613600B4A2B6013600B4B0B4A009344
:1032200001940023FFF732FF3046FFF727FA2046CC
:1032300002B070BD0050015028C6002000E100E03F
:1032400008500150B4D30020412F0000FFFF7F0041
:10325000334B2DE97343D3F804339A0709D5314B27
:103260001A6832B100221A602F4A1B6813680133B2
:1032700013604FF02003EFF3118283F31288BFF342
:103280006F8F274BD3F80433DB030DD5274BD3E8DF
:10329000EF1F21F00100C3E8E40F002CF7D1244B0D
:1032A000002935D1196899BB002382F31188BFF337
:1032B0006F8F53B3FFF7C8FE04464FF02003EFF3C0
:1032C000118083F31288BFF36F8F1A4B0022D3E96A
:1032D0000289494508BF44451FD3D3E900164FF082
:1032E000FF344FF0FF351A604FF48032C3E90245D6
:1032F0000B4BC3F8482380F31188BFF36F8F21B1C4
:1033000042464B4600200096884702B0BDE87083D5
:10331000002119601B680123C7E71146EBE700BFD6
:103320000050015004510150B8D30020B0D3002008
:103330004051015028C60020144B13B5B0F1FF3F97
:1033400008BF1846441E002C1DDD9C42A8BF1C4629
:10335000FFF77AFE0E4B0F49D3E90023801AB0F530
:10336000000F28BF00240130044408480091844223
:1033700028BF044600201219019043F10003FFF713
:1033800085FE02B010BD0024E2E700BFFFFF7F0012
:1033900038C60020412F000008B5FFF755FE024B4C
:1033A0001B68C01A08BD00BF38C6002040EA0103F0
:1033B000C3F30E0330B58BB940F21515094CC90B98
:1033C000C0F3C730994201D1002030BDC218D2B23B
:1033D00002F5C07244F822500133F3E76FF0150094
:1033E000F3E700BF003000500348452108B503F063
:1033F0005BF80020FEF7C4FE877E0000816808B5F8
:10340000044A1023103903F079F8003818BF01205E
:1034100008BD00BF4C72000030B50C46816887B013
:10342000102302AA1039054603F04CF8002811DBDE
:103430001022284602A903F003FB68B1032323707E
:10344000A968012328460DF10702283903F03AF84C
:1034500000280BDA01202AE01022164902A803F006
:1034600015F9002814BF02230123E8E79DF807306F
:10347000284603F00F021B096270237101220DF12F
:10348000070103F0DDFA10B96378042B03D9012397
:10349000637000232371AA682846203AA11C03F018
:1034A000F7FA0028D6D12846E11C03F04CFB07B000
:1034B00030BD00BF4C7200002DE9F04385B00546D9
:1034C0006946032003F043FB044618B1FF2005B012
:1034D000BDE8F083072002A903F039FB012838D1A9
:1034E0002A464921284802F0DFFF284B8DF80C407E
:1034F000029300229DF800509DF808609DF803702B
:103500009DF80B809DF80290214C2946207803F00D
:10351000ABFA18B33146607803F0A6FAF0B1A3789D
:10352000042B01D0BB4219D1E378042B01D04345D1
:1035300014D12379042B0FD16379022B19D1154AA9
:103540001548492102F0B0FF6079831E022BBED9D5
:10355000BCE70028CDD0B9E74B45EDD00132032AB6
:1035600004F10604D1D10D48492102F09DFF01204C
:10357000ADE7032B05D00A4A0A49042B18BF0A46B7
:10358000DEE7094ADCE700BFCC7E0000030103034D
:103590003F7F0000B07E0000177F00002A7F000000
:1035A000A97E0000BA7E0000B57E0000064A074BE7
:1035B0001B681068BFF34F8F092B03D1431E58427D
:1035C00058417047002070473401FF003001FF0070
:1035D00008B55A4A5A4B1B681268BFF34F8F092B24
:1035E00001BF4FF050230022C3F81421C3F8182163
:1035F000FFF7DCFF30B10123524A1360A2F63822F4
:10360000C2F878354E4B1A6804331B68BFF34F8FEE
:10361000092A05D1012B1EBF01224B4BC3F8782587
:10362000FFF7C4FF10B10E22484B1A60444B434AC7
:103630001B681268BFF34F8F092B04D10022444B43
:103640001A6001225A600022D30003F57F03D3F8E9
:103650000013BFF34F8F013108D0D3F800130132AC
:10366000D3F80433B2F5807F0B60EDD1394BDB69C1
:10367000BFF34F8FD90745D5374B1946D3F80024F0
:10368000012AFBD1C3F80425D1F80034012BFBD16A
:10369000304BDA69BFF34F8FD2070AD5DA6922F0CF
:1036A0000102DA61BFF34F8F2B4AD2F80034012BAD
:1036B000FBD12A4B1B68BFF34F8F01330DD1254A35
:1036C000136A23F0FF0343F020031362BFF34F8F0D
:1036D000214AD2F80034012BFBD100221E4BC3F843
:1036E0000425D3F80024012AFBD1BFF34F8F1C49D6
:1036F0001C4BCA6802F4E0621343CB60BFF34F8FE8
:1037000000BFFDE7154B1B68BFF34F8F0133B3D0EC
:10371000134BD3F88C2042F44062C3F88C20D3F8CA
:10372000882042F47002C3F88820BFF34F8FBFF3A4
:103730006F8F0D4B0D4A1A6008BD00BF3401FF00AA
:103740003001FF00384A005000400050E4AE035002
:103750000C4700500080FF00009003502080FF00C5
:1037600000ED00E00400FA053CC500200090D00305
:1037700070B501250368B3FA83F2202AC2F11F0451
:1037800010D005FA04F223EA0202D0E8EF6F9E425D
:1037900004D1C0E8EC2FBCF1000FF6D1EAD1024809
:1037A0000C7070BD0148FCE70000AD0B0200AD0BD2
:1037B000036810B5CB40DB0711D4012303FA01F1F4
:1037C000036841EA0302D0E8EF4F9C4204D1C0E80D
:1037D000EC2FBCF1000FF6D1F2D1024810BD024827
:1037E000FCE700BF0000AD0B0400AD0B044B1A79E1
:1037F00022B9012218601A710248704702487047C6
:10380000BCD300200000AD0B0C00AD0B10B10128A3
:1038100020D070474FF05022D2F81834D2F8181444
:10382000C90311D503F00303022B0DD1C2F81835DB
:1038300000220D4B1A601B6802224FF05023C3F880
:10384000042301229A6070474FF050230122C3F8ED
:103850001825EDE70022054B1A601B684FF0502336
:10386000C3F8040318607047045100500051005021
:1038700038B510B1012818D038BD4FF050230222BE
:10388000012142F210751C46C3F80823154A106046
:103890001268154A1160D4F81834DB03ECD5012006
:1038A00003F079F9013DF6D1E6E74FF0502400220C
:1038B00042F210750D4BC4F808031A601B680C4BDC
:1038C0001860D4F80C34D4F80C2403F00103D203AC
:1038D000D2D5002BD0D0012003F05DF9013DF0D10D
:1038E000CAE700BF045100500C5000500051005076
:1038F00004500050164B10B51A6852B100201860E1
:103900001B6801224FF05023C3F80823114B1B689A
:103910009847114B1A688AB100221A601B684FF051
:103920005023D3F81824D3F8181402F00302012A04
:103930004FF0020103D1C3F818159A6010BDC3F807
:103940000813044B0120BDE810401B68184700BF56
:1039500000510050BCD300200451005001460148E2
:10396000FFF706BF40C5002070B50D4C00F10803FD
:1039700034F813300546DA050E4607D5C3F3432362
:1039800004EBC302526854F833309847A3682BB154
:1039900031462846E268BDE87040184770BD00BF58
:1039A00044C50020134B083033F8102010B4D10563
:1039B0001CD5C2F3432122F4F85223F81020002032
:1039C00003F1100434F8022B12F4807F03D0C2F309
:1039D000432291420AD001302028F3D10022064828
:1039E0005DF8044B43F83120FFF7E2BE5DF8044B6D
:1039F000704700BF44C5002098C5002038B50C4C66
:103A000000F1080534F815309A060AD500225B0B40
:103A10009B0003F1A04303F55043C3F81025C3F8FE
:103A20001025FFF7BFFF002324F8153038BD00BF75
:103A300044C50020064A00F01F0002EB8000D0F8C9
:103A4000003223F4403343EA0141C0F800127047CA
:103A500000258450F7B50446F9B14C4F00F1080C2D
:103A600037F81C0000F02205222D02D1484803B08F
:103A7000F0BD484D04F01F0605EB8606D6F800524F
:103A8000097825F00F0520F0020045EA810140F099
:103A90000100C6F8001227F81C0092B13B4804F15F
:103AA000080630F8161015788F0752680CD5002AD2
:103AB000DCD130F8162022F01C0242EA850520F8FD
:103AC0001650D3BB3448D2E721F02001C904C90CF9
:103AD00020F81610002AECD0032DC7D892F800C0A9
:103AE0006246920002F1A04202F5504225B9C2F8A6
:103AF0001055C2F81055DCE7D2F810754FEA042EC5
:103B000027F00307C2F81075D2F810750EF4F85EAE
:103B100027F4473727F44077C2F81075D2F81075AC
:103B200041EA4C3147EA054747EA0E0741F02001D8
:103B3000C2F8107520F81610BBE72046D3E90067DD
:103B4000FFF730FF002EBDD0104D2B689E4204D1F0
:103B50006B689F4201D1002209E010480DF1070176
:103B6000FFF706FE0C4B984281D19DF8072005EB2C
:103B7000C20308345F6035F8143045F8326043EA18
:103B8000422343F4807325F814309BE744C500209A
:103B90000400AD0B002584500000AD0B98C500203B
:103BA0002DE9F043002944D0434E00F1080C36F8CB
:103BB0001C50AB0704D4AF0602D54048BDE8F083E3
:103BC00015F01C0F02D04B78012BF6D03C4B11F1B5
:103BD000010E00F01F0714BF0224002403EB870727
:103BE0008B1C14BF4FF00C094FF0000944EA090484
:103BF000D7F8008244F4E06444F0010428EA0408A1
:103C0000BEF1000F03D091F801E04FEA4E0E0BB168
:103C10008C78A300097845F0030543EA012343EAC1
:103C2000080343EA0E0343F00103C7F8003226F805
:103C30001C500AB92348C1E71F4D00F1080635F8AA
:103C40001640A307B9D50023177824F02004B90043
:103C500001F1A041E40401F55041E40CC1F8103534
:103C600025F81640C1F8103592F801C0BCF1000FDC
:103C7000E0D0D1F81035927823F4981323F4F85358
:103C8000C1F81035D1F810E5030203F4F8534FEAF8
:103C90000C4043EA0E0300F440301205034302F4E3
:103CA000801244EA4734134344F02004C1F810352D
:103CB00025F81640BEE700BF44C500200400AD0B48
:103CC000002584500000AD0B014BC3E90201704791
:103CD00044C50020054B083033F810309A0643BF26
:103CE0005B0B03480B700348704700BF44C50020BE
:103CF0000000AD0B0400AD0B38B50E4C94F85850D5
:103D0000B5B94022294604F1100002F0DAFC0D207A
:103D1000FDF766FF4FF00042074B08481D601B6827
:103D2000074BC3F80423012384F85830636538BD7A
:103D30000448FCE744C500207CD100500000AD0BD6
:103D400000D000500500AD0B034B93F8580000382D
:103D500018BF0120704700BF44C50020014601483C
:103D6000FFF726BD94C5002001460148FFF700BDBE
:103D700094C500201E4B00F1080233F8123010B435
:103D80009A061ED513F002041BD15B0B9A0002F1B8
:103D9000A04000F5514002F1A042046002F55042FB
:103DA0000068D2F8100540F00100C2F8100529B1F2
:103DB000012202FA03F30F4AC2F804335DF8044B00
:103DC0007047C3F38203042B0DD0052B0DD00A4B93
:103DD000196900F01F03D94001F0010102315DF8BB
:103DE000044BFFF727BE0321F9E70221F7E700BFE5
:103DF00044C5002000D00050002584500E4B00F137
:103E0000080233F81230990613D59A0711D401220B
:103E10005B0B9A4009499B0003F1A043C1F80823BA
:103E200003F55043D3F8102522F00302C3F8102500
:103E300070470021FFF7FEBD44C5002000D00050B0
:103E40000C4B00F1080213F8123010B5DB070446E2
:103E50000DD5FFF7D3FF2046FFF7D0FD0222064B1A
:103E600004F01F048034054843F8242010BD0448A2
:103E7000FCE700BF44C50020002584500000AD0BC6
:103E80000400AD0B2DE9F04F0026012234464B4BC8
:103E90004B484C4985B01D6835B1D0F804531542E4
:103EA0001EBF1C601D68164304338B424FEA42025A
:103EB000F1D1454F3B6883B1444D0DF10C082B6A9D
:103EC00003932B624FF00109039840B938603B68B7
:103ED0002B6A03932B62002BF4D1012469E090FA42
:103EE000A0FABAFA8AFA3A4A0AF1080332F8131029
:103EF0004FEADA0C0AF0070309FA03F418F80C3059
:103F0000C1F3820223EA040308F80C3005EB8A03AC
:103F1000D3F80042C8069346C4F3014418D51146AD
:103F200050460193FFF720FD019BE4B2D3F8003225
:103F3000C3F301439C4207D100215046FFF77AFDAD
:103F400021465046FFF776FD09FA0AF02862BBE7E2
:103F5000022C0CBF0321022150460192FFF76AFD9B
:103F6000019A032A04D0022C07D1BBF1010FEBD137
:103F700059465046FFF7F8FCE6E7032CE4D1BBF1C5
:103F8000020FF4E796FAA6F3B3FA83F304FA03F206
:103F90009B0003F1A04303F55043D3F81005D3F879
:103FA0001015C0F30420C1F3014126EA0206FFF711
:103FB000DBFC002EE6D105B0BDE8F08F00D100504B
:103FC00000D0005020D100507CD1005000258450FA
:103FD00044C500200022034BC3F88425C3F8042500
:103FE000704700BF0090035008B5C0F30B0383B9BE
:103FF0000222094BC3F88425C3F804254FF0FF3291
:104000000260D3F80024D207FBD5FFF7E3FF034893
:1040100008BD0348FCE700BF009003500000AD0B53
:104020000A00AD0B0122074BC3F88425C3F8042511
:10403000D3F80824D207FBD50160BFF35F8FFFF7E9
:10404000C9BF00BF00900350032310B5134C144A9E
:1040500023616361134BA261E3614FF480632362C8
:104060000023A3626362E36222660F4A0F4962661D
:104070001022E01DA2662367E366636702F0E9FA97
:10408000BFF35F8F0A49204602F0E3FABFF35F8F68
:104090002023A371BFF35F8F10BD00BFC4D30020E6
:1040A000517F00009BD500208BD500205A7F000057
:1040B0005E7F0000F8B51823174C00FB033503FBA7
:1040C00000402544C46A0F46012C16460FD0022C2E
:1040D0001AD0F4B9284602F074FD864205D832465B
:1040E0003946284602F07BFD34462046F8BD284676
:1040F00002F067FD8642344628BF04463946224610
:10410000284602F06CFDF0E72846BDE8F84002F0D2
:1041100084BD0024E9E700BFC4D300200E4B70B576
:1041200053F82040013053F82060A64200D870BDFB
:10413000D4E900352846984765B1EB6830B10028CE
:10414000B8BF4042FF28A8BFFF2018705A7842F03D
:1041500001025A700834E8E75C72000070B5054649
:1041600010B90024204670BD0378002BF9D00F4A07
:104170000F4C1646944208D10D4CB442F1D0204663
:1041800002F07FFD50B91834F7E7204602F079FDC0
:1041900010B12368AB42E5D01834EBE7284621681C
:1041A00002F068FA0028EED1DCE700BFE06D000005
:1041B000686D000073B504460D464FF02003EFF321
:1041C000118683F31288BFF36F8F0022042896BFF5
:1041D000114B124B53F820300092452102461048F3
:1041E00002F062F93DB1EB69C3F308031BB145214D
:1041F0000C4802F059F900220B4B45210B4802F004
:1042000053F929462046FFF7EFF886F31188BFF3EC
:104210006F8F02B070BD00BF70720000657F00003C
:10422000737F0000A07F0000C67F0000CE7F0000EB
:10423000012208B5084B02201A70FFF76FFF00F04B
:104240001BF90320FFF76AFFFCF7F6F8034A137B1C
:1042500023F00103137308BD9BD9002040C6002042
:104260000248034A0021121A02F02BBA20C600208D
:104270009CD9002008B5194B03F5006282F3088829
:1042800083F30A880025E023154C84F82230E57773
:1042900025766576A57684F82050636A43F4E0239A
:1042A000636284F82350FDF719FFFDF74DFC4FF0D2
:1042B000FF33A362E362FEF7C7F8FDF7A9FF02F040
:1042C000DFFC2846FFF72AFF0120FFF727FF2B46D8
:1042D0002A4629460348FDF7F9FC00BFA00101204A
:1042E00000ED00E03142000008B50648064A0749E3
:1042F000121A02F0DBF9BDE80840054A05490648F4
:1043000002F0D4B900C500201CC60020888000003F
:10431000000000007080000000C50020034B1B68F7
:104320000BB9FFF739B80020704700BF6CD40020EC
:1043300030B5036868B10A4A5268904209D043B167
:10434000D3E90421D0E90445121945EB0101C3E981
:104350000421426813605A600023C0E9003330BD75
:10436000A0C50020104B10B51C689C4208BF00245B
:10437000FFF7D4FF9CB1D4E90423121A63EBE07376
:10438000012A73F100010DDB10466FF0004219465F
:104390000023824273EB010400DA104610BD6FF077
:1043A0000040FBE70020F9E7A0C500202DE9F74F0A
:1043B0004FF02003EFF3118483F31288BFF36F8F64
:1043C000DFF8ACA0294D5146DFF8A8B02860D5F839
:1043D00000C0DBF800006246DAE90089D3175845CF
:1043E000CDE900230DD060B1D0E90467B445BB41ED
:1043F0001DDA009BB6EB030C019B67EB0306C0E9DB
:1044000004C60026009B2E6013EB0802019B43EBC1
:104410000903C1E90023FFF7A5FF3146FEF78CFF32
:1044200084F31188BFF36F8F03B0BDE8F08F0022D3
:10443000002318EB060849EBE679C0E90423ACEB4E
:104440000606CAE900892E60FFF772FF84F311881F
:10445000BFF36F8F836898474FF02003EFF3118409
:1044600083F31288BFF36F8F0149B0E76CD400204B
:10447000C0C60020A0C50020024A0349034801F03D
:1044800059BF00BFC57F0000388000004780000092
:1044900010B50A4C23681BB101230020236010BD16
:1044A00000F052F80028F7D00138062803D8044B52
:1044B00053F8200010BD034810BD00BF70D4002089
:1044C00084720000FE8FFFFFBFF34F8F0549064B3C
:1044D000CA6802F4E0621343CB60BFF34F8F00BFA2
:1044E000FDE700BF00ED00E00400FA054FF0FE33E9
:1044F000002130B4064A074D074C2B60136023603F
:10450000064A074CEB606368C2F8001530BC1847D8
:104510000414845000148450081484500000845003
:10452000A8C50020024BD0E90012C3E90012704771
:10453000A8C5002038B131B1002201440346013042
:1045400088421A70FAD1704710B500F033F820B1E4
:10455000032400F067F8204610BD00F035F890B94C
:1045600000F0B0F890B90F4B1B681B0EF02B08D170
:104570000D4A0E4B12689A420AD0072400F01CF82C
:10458000E7E70624FAE70424204610BD0024F5E7F7
:10459000012000F097F804460028F7D1044B18607A
:1045A000D9E700BF28198450241A84500000E02065
:1045B0000C1A84500020704700207047014B18608F
:1045C000704700BF041A845010B5114800F048F835
:1045D00000B110BD0F4800F043F80028F9D10E4C8F
:1045E000204600F03DF80028F3D10C4B0C481C602D
:1045F00000F036F801460028EBD100F02DF8044613
:1046000008B1204610BD00F03FF82046FAE700BF91
:10461000BCC50020B0C50020B8C50020C0C5002022
:10462000B4C5002008B5084800F024F8074800F099
:1046300021F8074800F01EF8064800F01BF8BDE816
:10464000084000F00BB800BFBCC50020B0C500207A
:10465000B8C50020B4C5002000207047704700BFD7
:1046600008B5034B02681B6810689847002008BD16
:10467000CCC5002008B5034B02685B6810689847FA
:10468000002008BDCCC5002070B5094C094D20693B
:10469000AB68984718B1084B08485B6898470021F9
:1046A000074AEB6811602069BDE87040184700BFF9
:1046B000DCC50020CCC50020A8C50020A0720000E9
:1046C00074D4002070B51A4D1A4E0446B268286999
:1046D0009047F0B95CB1184C2368ABB1012B1AD0EC
:1046E000013B23602869F3689847002070BD124C95
:1046F000216839B90120114B114AC3F8000513682C
:10470000002BFCD101312160F36828699847002013
:1047100070BD0C4870BD0A4A1368002BFCD1074AD3
:104720006FF07E40C2F80035FFF748FF2368D7E7F7
:10473000DCC50020CCC5002074D4002000008450CB
:1047400010198450E98FFFFF10B5044630B163683B
:10475000DB0602D500232360636010BD024B0348D3
:104760005B689847F3E700BFA8C50020C07200004F
:1047700068B143683BB1DB0607D5BFF35F8F002309
:1047800003601846704703487047034870476FF44A
:10479000E0407047EA8FFFFFE98FFFFF10B5044646
:1047A00020B1002211232260636010BD0148FFF791
:1047B0009DFEF6E7E8720000A0B1436883B1DB0616
:1047C0000CD50122D0E8EF3FC0E8E12F0029F9D154
:1047D000012BF7D0BFF35F8F00207047034870476D
:1047E000034870476FF4E040704700BFE98FFFFF58
:1047F000EA8FFFFF30B10268034B04489A4208BFBA
:104800000020704702487047DD55AABB8208F000BF
:104810007108F00038B50D460446B0B1A022002161
:10482000043002F05BFA95B10822294604F16400D5
:1048300002F05AFA082205F1200104F1840002F086
:1048400053FA0020034B236038BD0348FCE70348BC
:10485000FAE700BFDD55AABB7108F0008308F0003D
:104860002DE9F74305460E4699461146FFF7C2FF6C
:104870000446002840F08480002E00F08580002946
:1048800000F08480B9F1200F40F0828005F14404EB
:10489000082205F10408204602F026FA05F1240753
:1048A00008223146404602F01FFA06F12001082294
:1048B000384602F019FA02A941F8049D4FF48070BD
:1048C00002F006FA002865D14FF48073324A0121C4
:1048D000136093600823314A00F034FB0121052363
:1048E00008462F4A00F02EFB0823424601211C20D7
:1048F00000F028FB08233A460121032000F022FBA8
:10490000224608230121022000F01CFB0823254A2F
:1049100001211A2000F016FB0523234A01211B2048
:1049200000F010FB0823214A0121142000F00AFBAB
:1049300008231F4A0121152000F004FB082305F17C
:1049400064020121162000F0FDFA082305F184021B
:104950000121172000F0F6FA0823164A01210B2046
:1049600000F0F0FA00F04AFB0446019800F0D8FA93
:10497000114B002C18BF1C46A421284602F0B0F9A8
:10498000204603B0BDE8F0830C4CF9E70C4CF7E788
:104990000C4CF5E7084CEFE7901084504C73000086
:1049A000C47300000C730000B0730000707300004B
:1049B000907300002C7300008408F0007608F0006B
:1049C0008008F0008108F000C2690C4B1A6082690F
:1049D00043F8042C426943F8082C026943F80C2C74
:1049E000C26843F8102C826843F8142C426843F8DC
:1049F000182C026843F81C2C704700BF5C168450CA
:104A00000C4B1B68C3610C4B1B6883610B4B1B6811
:104A100043610B4B1B6803610A4B1B68C3600A4B65
:104A20001B688360094B1B684360094B1B6803606C
:104A3000704700BF5C16845058168450541684503A
:104A4000501684504C168450481684504416845096
:104A50004016845030B10268034B04489A4208BFA4
:104A60000020704702487047DD55AABB0202F000E3
:104A70000002F00038B5044668B1051D70212846D3
:104A800002F02EF928462022044902F025F90020E0
:104A9000034B236038BD0348FCE700BFD873000018
:104AA000DD55AABB0002F0002DE9F04385B01546A4
:104AB0006F46274B04460E460FCB87E80F002DB9F3
:104AC0004FF00009484605B0BDE8F0832046FFF7E7
:104AD000C1FF81460028F5D1231D0193636AA3BB62
:104AE000236F8BB1C3F14008A84528BFA84604F145
:104AF000300031461844424602F0EEF8236F464437
:104B000043442367A5EB0805226F402A06D104F130
:104B10003001384600F0B4FB0023236705F03F085E
:104B200035F03F0505D031462A46384600F0A8FB4F
:104B30002E44B8F1000FC3D04246314604F1300094
:104B400002F0CAF8C4F87080BCE7DFF80890B9E753
:104B5000507000000C02F0002DE9FF4104466F4642
:104B6000134B0E460FCB87E80F002046FFF772FF6E
:104B70008046B0B9CEB1636A251D01953BB90123CA
:104B8000226F636204F13001384600F079FB2B4656
:104B9000043E243453F8042B12BAA34246F8042FDF
:104BA000F8D1404604B0BDE8F081DFF80880F8E7AE
:104BB000507000000502F000084B1B681B0EF02B24
:104BC00008D1074B1A68074B9A4205D10020064BC3
:104BD00018607047052070470620704728198450D8
:104BE000241A84500000E0200C1A8450002230B5B2
:104BF000134640F6FC754900023802F1A15404F551
:104C0000823490424FEA840402F10102CABF236059
:104C100025605B181E2AF0D1034A13600B445360D1
:104C2000024B034A1A6030BD7810845084108450BF
:104C300020F80F001E4B30B51A4685B01968009158
:104C40000099CC07FAD500F1A15000F58230800020
:104C5000016813680193019BD807FAD5154B164CD0
:104C6000186820231F3090FBF3F0144D0138002802
:104C700010DA00230130400153B14FF00042A0F19F
:104C80002001134204D1013888424FEA5202F8D180
:104C900005B030BD13680393039BDB07FAD54318B7
:104CA00023602B680293029B002BE3D10138DEE7DF
:104CB000B4108450AC108450E4108450DC10845044
:104CC000F0B51D6885B001F01F040DB91F2C28D167
:104CD000174D2E462F680197019FFF07FAD500F167
:104CE000A15000F582308000006835680395039D6F
:104CF000ED07FAD51F2C00EB611018BFC9430D4D0D
:104D000018BF01F01F0128600B480068029002984C
:104D10001CBF00FA01F111604FF0000108BF1060E4
:104D2000196010684300C00F136005B0F0BD00BFEC
:104D3000B4108450E4108450DC1084500C4B890172
:104D400018603F3020F03F004030586099600948BB
:104D5000D9601961596199611C3382B01960026888
:104D60000192019AD207FAD5196002B0704700BFCC
:104D700090108450B410845038B5A0F12003B3F5DE
:104D8000426F05462CD88F2826D800F1470300F142
:104D90006604DB064FEA541400D0013464013F344A
:104DA000A409013411B1A1421AD30C464FF480502A
:104DB000E300B0FBF3F0202828BF202002B11060F0
:104DC0000122084B21461A60FFF710FF28462146B2
:104DD000FFF7B4FF002038BD00F11F046409DDE7D0
:104DE0000148F8E71C1884502221F000464BF0B52A
:104DF0001D4689B01C680194019CE407FAD5434B19
:104E0000002413449B001A680B181E2B88BFC0F1A6
:104E10001E011F320B1852095343B3F5806F84BF34
:104E20004FF48061B1FBF2F1274688BF091ADFF821
:104E3000E4E000F1A150DFF8E0C000F58230A142CB
:104E400033DC2B680493049BDB07FAD5304B1B68DB
:104E5000296805910599CF07FAD52E4C2E49236074
:104E600000231E46934203F1010040D1194600265B
:104E700020F0010228488A423CD829680691069908
:104E8000CE07FAD525490968286807900798C00712
:104E9000FAD5216000210C461F488B422DD10020FD
:104EA0001D499A422CD809B0F0BD2B680293029B91
:104EB000DB07FAD503199B001B682E680396039E37
:104EC000F607FAD5CEF800300023934203F1010330
:104ED00006D1164623F00103B34204D80134AEE7ED
:104EE000CCF80070F1E7CCF800700136F4E70E6002
:104EF0000346B7E706600131BDE704600131CCE746
:104F000008600133CDE700BFB4108450240421149D
:104F10007C108450D4108450D81084507810845061
:104F200008B540B1202801464FF0070228BF2021D4
:104F30000020FFF75BFF0022014B1A6008BD00BF95
:104F40001C188450F0B5294D85B02C462E6800966B
:104F5000009EF607FAD500F1A15000F582308000DE
:104F60000568206801900198C707FAD52048214FAD
:104F7000056002EB8306B24229D100275A1C1D4E60
:104F800022F001029A4227D823680293029BDE078F
:104F9000FAD5194B0B449B001B681F335B099A42DF
:104FA00013D2216803910399C907FAD5002115444A
:104FB000056008469B1A0F4A8B4210D800205A1CE5
:104FC0000C4922F001029A420CD805B0F0BD52F80B
:104FD00004CBC7F800C0CEE737600133D2E71060DA
:104FE0000131E9E708600133EDE700BFB4108450F8
:104FF000D4108450D8108450240421142DE9F04199
:10500000814BA0B01D68986820331E461A68019233
:10501000019AD707FAD57D4B7D4A1A603268029211
:10502000029AD407FAD57B4A1A607B4A1446116863
:1050300003910399C907FAD5784A1168C1F3402151
:1050400037680497049FFF07FAD5754F1F602768DC
:105050000597059FFF07FAD51768002900F0CF8054
:10506000B90540F1CC80316806910699CF07FAD591
:105070006C491960216807910799C907FAD5116829
:10508000C1F3402137680897089FFF07FAD5664F9C
:105090001F6027680997099FFF07FAD51268002942
:1050A00000F0AF80910540F1AC8032680A920A9A14
:1050B000D207FAD5564A1A6032680B920B9AD70774
:1050C000FAD55A4A1A6031680C910C99CC07FAD576
:1050D0005749196031680D910D99C907FAD555499D
:1050E000196031680E910E99CF07FAD552491960AF
:1050F00031680F910F99CC07FAD550491960504B80
:105100001E46196810911099C907FAD53F4C4D4BAE
:10511000236033681193119BDB07FAD54A4B236058
:1051200033681293129BDF07FAD5484B23603A4B42
:105130009846196813911399C907FAD5324F386008
:1051400033681493149BDB07FAD5226033681593F8
:10515000159BD807FAD53E4B236033681693169BF0
:10516000D907FAD53B4B236033681793179BDA07AF
:10517000FAD5394B236033681893189BDB07FAD5AF
:10518000364B236033681993199BD807FAD5344BF3
:10519000236033681A931A9BD907FAD5314B2360E1
:1051A00033681B931B9BDA07FAD52F4B236000F063
:1051B0001DFC08BBD8F800301C931C9BDB07F9D5FD
:1051C0003D6033681D931D9BD907FAD5274B23609B
:1051D00033681E931E9BDA07FAD5254B2360D8F857
:1051E00000301F931F9BDB07F9D50C4B1B6813F492
:1051F000805F204B08BF184620B0BDE8F0811E48F4
:10520000FAE71E48F8E700BF9010845080108450E1
:1052100000100251C01F7229B410845088108450AD
:10522000C0CF0129C01F0E29C03F002940010249FB
:10523000003184A800001649400108A18044088874
:10524000B0108450C044708880077A41C0077E4106
:1052500000006A498006164940006E49000200219C
:1052600000822021408220218082242140A161A14E
:1052700000C861510308F1000108F1000208F100C3
:10528000324B2DE9F74F80469246994644681A689A
:10529000002AFCD12E4B9B461A68002AFCD14FF005
:1052A000FF30019100F094FC802000F097FC012376
:1052B0000720284A284DA2F59E722B60C2F83C01B7
:1052C0001360636A254F264E3B60A36A2046336015
:1052D000D8F8003042F8043CD8F8083098470199D3
:1052E000D9F80030002BFBD1BAF1000F20D10422F5
:1052F0001C4B1A60D9F80030002BFBD1DBF800A062
:10530000BAF1000FFAD1D8F80C30204698473B6824
:1053100063623368A362144BC3F800A0C3F844A1CE
:10532000D9F80030002BFBD12B6003B0BDE8F08F23
:10533000236A4020012B04BF0B4A13600B4B1960FA
:10534000C3F804A000F050FCD4E700BF101984504B
:10535000201C84500019845018188450CC17845095
:10536000D0178450C817845084168450281C845049
:10537000544B10B5194698B01A680192019AD20799
:10538000FAD5514B514A1A600A680292029AD40720
:10539000FAD54F4A1A600A680392039AD007FAD5E1
:1053A0004C4818600A680492049AD207FAD54A4A0F
:1053B0001A600A680592059AD407FAD5474A1A6016
:1053C0000A680692069AD207FAD5454A1A600A6810
:1053D0000792079AD407FAD5424A1A600A680892D7
:1053E000089AD207FAD5404A1A600A680992099ABF
:1053F000D407FAD53D4A1A600A680A920A9AD20777
:10540000FAD53B4A1A600A680B920B9AD407FAD570
:10541000384A1A600A680C920C9AD207FAD5364AB2
:105420001A600A680D920D9AD407FAD5334A1A60A9
:105430000A680E920E9AD207FAD5314A1A600A68A3
:105440000F920F9AD407FAD52E4A1A600A68109262
:10545000109AD207FAD52C4A1A601A4B19461C68C2
:105460001194119CE407FAD5174B18600868129044
:105470001298C407FAD51A600A681392139AD007D3
:10548000FAD5124A1A600A681492149AD207FAD509
:105490001E4A1A600A681592159AD407FAD51C4A52
:1054A0001A600A681692169AD007FAD5194A1A6035
:1054B0000A681792179AD207FAD5174A1A6018B0D5
:1054C00010BD00BFB010845080108450009365213F
:1054D00000043190409665900083612100C3302123
:1054E00000C3649000816190004610210081112169
:1054F0000041442100C320290C4610C800863121F8
:1055000000C3602140C128294096652100133190D5
:1055100040962529594614C840043249494B10B5D4
:10552000194694B01A680092009AD207FAD5464BF1
:10553000464A1A600A680192019AD407FAD5444A89
:105540001A600A680292029AD007FAD54148186098
:105550000A680392039AD207FAD53F4A1A600A688A
:105560000492049AD407FAD53C4A1A600A68059254
:10557000059AD207FAD53A4A1A600A680692069A3C
:10558000D407FAD5374A1A600A680792079AD207F1
:10559000FAD5354A1A600A680892089AD407FAD5EB
:1055A000324A1A600A680992099AD207FAD5304A33
:1055B0001A600A680A920A9AD407FAD52D4A1A6024
:1055C0000A680B920B9AD207FAD52B4A1A600A681E
:1055D0000C920C9AD407FAD5284A1A600A680D92E0
:1055E0000D9AD207FAD5264A1A600A680E920E9AC8
:1055F000D407FAD5234A1A600A680F920F9AD20785
:10560000FAD5214A1A600F4B19461C681094109C59
:10561000E407FAD50C4B1860086811901198C4077C
:10562000FAD51A600A681292129AD007FAD5174A68
:105630001A600A681392139AD207FAD5144A1A60AC
:1056400014B010BDB010845080108450809065213B
:105650000004099040966590808061218020082197
:10566000802064900081619000461021008111210A
:105670000041442180202029024610C800860921CB
:1056800080206021402128294096652140962529C7
:10569000594614C8504B10B51C4696B01A68019272
:1056A000019AD207FAD54D4B4D4A1A6022680292F0
:1056B000029AD207FAD54B4A1A604B4A42EA804016
:1056C00022680392039AD207FAD5186022680492DE
:1056D000049AD007FAD5454A1A60A2F5800242EA38
:1056E000814122680592059AD207FAD5196022688D
:1056F0000692069AD007FAD53D4A1A6022680792A8
:10570000079AD107FAD53B4A1A6022680892089A8C
:10571000D207FAD5384A1A6022680992099AD00746
:10572000FAD5364A1A6022680A920A9AD107FAD53F
:10573000334A1A6022680B920B9AD207FAD5314A83
:105740001A6022680C920C9AD007FAD52E4A1A6079
:1057500022680D920D9AD107FAD52C4A1A60226858
:105760000E920E9AD207FAD5294A1A6022680F9231
:105770000F9AD007FAD5274A1A602168109110991C
:10578000C907FAD51A60144B1A4619681191119974
:10579000C807FAD5114B2049196011681291129966
:1057A000C907FAD51D491960116813911399CC07DF
:1057B000FAD50B491960116814911499C807FAD5E4
:1057C00017491960116815911599C907FAD5154A35
:1057D0001A6016B010BD00BFB01084508010845005
:1057E0004004419000862929D81001C840144190F6
:1057F00040142129401465210034409000310C9060
:10580000C0400C90C030202940960D90004160901F
:10581000031645C80086112100416021594644C83D
:105820004014459040142D90264870B5054688B028
:1058300004680094009CE607FAD5234C23480460D2
:10584000234C44EA83432C680194019CE407FAD575
:105850000360930143EA824242F0104444F4C0449E
:105860002B680293029BDE07FAD504602B68039332
:10587000039BDB07FAD5174B03608B0143EA814199
:1058800041F0104343F4C0432E680496049EF6078B
:10589000FAD503602B680593059BDE07FAD50460F3
:1058A00041F058412B680693069BDC07FAD501604E
:1058B00042F058422B680793079BDB07FAD502603A
:1058C00008B070BDB0108450C021022980108450EF
:1058D0008071009880611890354B8EB019461A6817
:1058E0000092009AD207FAD5324B334A1A600A68FE
:1058F0000192019AD007FAD5304A1A600A680292DA
:10590000029AD207FAD52E4A1A600A680392039ABD
:10591000D007FAD52B4A1A600A680492049AD20773
:10592000FAD5294A1A600A680592059AD007FAD56D
:10593000264A1A600A680692069AD207FAD5244ABD
:105940001A600A680792079AD007FAD5214A1A60A6
:105950000A680892089AD207FAD51F4A1A600A689C
:105960000992099AD007FAD51C4A1A600A680A9265
:105970000A9AD207FAD51A4A1A6008680B900B984F
:10598000C007FAD51A600A680C920C9AD007FAD5AB
:10599000144A1A600A680D920D9AD207FAD5124A73
:1059A0000E211A6000200D230F220EB0FFF73CBF1E
:1059B000B010845080108450804301294063392105
:1059C000807001298020542100D13490C04034904F
:1059D000C0302029C0530D9000413890832308C85F
:1059E00080E3102100413821CF4308C801232DE96D
:1059F000F04192B0CDE90333624B1D461A6805921F
:105A0000059AD207FAD5604B604C2360604B19466B
:105A10001A680692069AD707FAD55E4B1A68D6041A
:105A200000F1A8802A680792079AD007FAD55A4A47
:105A300022600A680892089AD207FAD51E68C6F34F
:105A40000036002E40F098801220FFF7F3F807464A
:105A50001320FFF7EFF887428CBF12201320FFF7C7
:105A6000E9F8471EFFF738FF03AB01AA39461220B9
:105A7000FFF726F904AB804602AA39461320FFF748
:105A80001FF900EB4800022832D003283ED001283D
:105A900074D12B680993099BDB07FAD53F4B236030
:105AA0002B680A930A9BD807FAD53D4B23602B68D5
:105AB0000F930F9BD907FAD53A4B23602B681093AD
:105AC000109BDA07FAD5384B23602B681193119B92
:105AD000DB07FAD5354B2360013F25D5102319226A
