:020000040000FA
:10000000201201202D2400005D7700000124000053
:10001000012400000124000001240000012400004C
:100020000000000000000000000000005D1F000054
:100030000124000000000000C91E0000012400008F
:10004000012000000120000001200000012000002C
:10005000012000000120000001200000012000001C
:10006000012000000120000001200000012000000C
:1000700001200000012000000120000001200000FC
:1000800001200000012000000120000001200000EC
:1000900001200000012000000120000001200000DC
:1000A00001200000012000000120000001200000CC
:1000B00001200000012000000120000001200000BC
:1000C00001200000012000000120000001200000AC
:1000D000012000000120000001200000012000009C
:1000E000012000000120000001200000012000008C
:1000F000012000000120000001200000012000007C
:10010000012000000120000001200000012000006B
:10011000012000000120000001200000012000005B
:10012000012000000120000001200000012000004B
:10013000012000000120000001200000012000003B
:100140000120000053B94AB9002908BF00281CBF8C
:100150004FF0FF314FF0FF3000F06CB9ADF1080CFB
:100160006DE904CE00F006F8DDF804E0DDE90223D5
:1001700004B070472DE9F047089D04468846002BDF
:100180007DD18A4217463FD9B2FA82F242B1C2F11A
:1001900020009140974024FA00F0944040EA010882
:1001A0004FEA174C230C1FFA87FEB8FBFCF60CFB3A
:1001B000168106FB0EF043EA0143984205D9FB186D
:1001C00002D2984200F22481013E191AA3B2B1FB77
:1001D000FCF00CFB101100FB0EFE43EA0144A645A7
:1001E00005D93C1902D2A64500F20F81013840EA38
:1001F0000640A4EB0E0400261DB1D4400023C5E93F
:1002000000433146BDE8F08702B9FFDEB2FA82F260
:10021000002A50D1CB1B4FEA174E1FFA87F8012650
:10022000210CB3FBFEFC0EFB1C300B4608FB0CF94B
:1002300041EA004189450AD979182CBF01230023DE
:10024000894502D9002B00F0D9800CF1FF3CA1EBCD
:100250000901A3B2B1FBFEF00EFB101108FB00F880
:1002600043EA0144A04505D93C1902D2A04500F259
:10027000C9800138A4EB080440EA0C40BCE78B427B
:1002800009D9002D00F0B1800026C5E900013046F3
:100290003146BDE8F087B3FA83F6002E46D18B4293
:1002A000C0F0A680824240F2A3803046002DA8D044
:1002B000C5E90048A5E79740C2F1200301FA02F022
:1002C0004FEA174ED94024FA03F31FFA87F89440F7
:1002D0000343B1FBFEF01E0C0EFB101100FB08FCEB
:1002E00046EA01418C4509D979182CBF0126002620
:1002F0008C4502D9002E00F093800138A1EB0C014F
:100300009BB2B1FBFEF60EFB161106FB08FC43EA9E
:1003100001418C4505D9791802D28C4500F28780BD
:10032000013EA1EB0C0346EA004679E7C6F120073F
:1003300003FA06F402FA06FC01FA06FEFA4020FA75
:1003400007F8F94000FA06F3224348EA0E044FEAA0
:1003500012484FEA144E1FFA82F9B1FBF8FA08FB73
:100360001A110AFB09F04EEA014E70450AD912EB48
:100370000E0E2CBF01210021704501D9002952D059
:100380000AF1FF3AAEEB000EA4B2BEFBF8F008FB98
:1003900010EE00FB09F944EA0E4EF14505D912EBC7
:1003A0000E0E01D2F14538D8013840EA0A40AEEBD2
:1003B000090EA0FB0C89CE4541464C4602D306D11E
:1003C000434504D20138B8EB0C0169EB020415B3C4
:1003D0005A1A6EEB040EF2400EFA07F72EFA06F3E5
:1003E00000261743C5E900730BE72E46284608E7A9
:1003F000841A61EB03010120884657E7ACF1020C37
:10040000394424E702383C4434E702383C44EEE601
:10041000023E3B44D9E62E46F3E602389644C4E752
:10042000023839446AE7AAF1020A9644AAE7023E72
:10043000394476E7704700BF7FB5304B304A3148CA
:10044000C3F800264921C3F80426C3F80826C3F8D8
:100450000C26C3F81026C3F81426C3F81826C3F8D0
:100460001C2607F0B8F806F063FC274800F05CF89B
:1004700028B94521244A254807F0ADF8FEE701A830
:1004800000F070FC224B1B68834204D045212148B8
:1004900007F0A1F8FEE74921039A1F4807F09BF8EF
:1004A00049211E4807F097F84FF48031002003F0EF
:1004B000ADF920B145211A4807F08DF8FEE76946ED
:1004C0009DF8080000F03CF8009B039C1C44019B35
:1004D0001D8900F02FFF66194FF02002EFF3118302
:1004E00082F31288BFF36F8F635983F308887368B0
:1004F000984745210B4807F06EF8FEE70080015051
:100500003546526EA0860000B9860000CC860000F9
:100510001CC80020EB8600000E8700003D8700000D
:10052000628700009587000010B5044C236813B95A
:1005300004F010F82060206810BD00BF18C800202B
:1005400008B540B1024600230448452107F043F8AE
:100550006FF0150008BD0860FCE700BFB887000019
:100560002DE9F04FDFF81C92DDB01546DDE9684853
:100570001E46DDF898B1D9F8007000F0A9FE0122FE
:100580007E4B3CA8C3F8002505F000FBCDF8149085
:100590003CB1B8F1000F04DD424621463CA806F00C
:1005A0001CFF4FF000096B89B5F808809844EB6890
:1005B0009844C8454ED80FA93CA805F059FB002225
:1005C0006E4BC3F80025C3F800256A9B23B1202297
:1005D00018460FA907F004F9002332460093294674
:1005E0004FF6FF7309A806F0A4FB0446002844D187
:1005F0004FF0FF35DFF890A1DFF8808103900DF117
:100600001E0307AA08A909A806F0DFFB041E34DBB5
:1006100040F0A480BDF81E90B9F1100F38D1BDF89C
:100620001C90B9F1200F40F0A3804B46304608994A
:100630003CAA06F0DEFF0446F8B94A463CA90FA8DA
:1006400006F03AFC04464E4B1B68834215D1012349
:100650000393D4E7679AA8EB09039A4228BF1A4686
:1006600049461346924630465A4606F0C2FF0446B3
:1006700038B10022414BC3F8002520465DB0BDE8EB
:10068000F08F524659463CA806F0A7FED14490E7A9
:10069000B9F1010F3FD1BDF81C30202B68D830468E
:1006A00008993CAA06F0A5FF04460028E5D19DF86C
:1006B0001C50202D0AD8DAF80030DFF8D0B00493AF
:1006C000049B9C4205DB0023C8F800354FF0FF3443
:1006D0001DE000F0FDFDC8F800951FA805F056FAD2
:1006E000DBF804201FA812685BF8081B06F075FEF3
:1006F00017A91FA805F0BCFA00223CA9C8F80025DC
:1007000017A82A4607F05CF818B9C8F8000525466E
:1007100075E70134D4E7B9F1220F7FF470AF002DF3
:1007200019DBDAF80030AB4215DDBDF81C30802B48
:100730001ED8304608993CAA06F05BFF0446002804
:100740009BD1EDB22021BDF81C3000953CAA0FA82A
:1007500000F01EF807464FF0FF3550E7039B53B1FA
:10076000074B1B68BB4201D0059B1F683C4684E7D2
:100770004FF0FF3481E701247FE700BF0000845081
:100780001CC8002000C50020088300000C83000066
:100790002DE9F04196B017461D469DF87020354B67
:1007A0000E4653F8321003EBC2035B6880461868AC
:1007B00001913023014402AA01A806F09BFD10B16B
:1007C0004FF0FF3053E0DDE901431C44214606AB06
:1007D00003AA01A806F0B6FD0028F1D1049A072A61
:1007E000EED12549059806F0EBFF0028E8D1079ADD
:1007F000082AE5D12149089806F0E2FF0028DFD158
:10080000214602AA01A806F089FD0028D8D1DDE919
:10081000013213449C42D3D1412AD1D13D443023EB
:10082000294603AA02A8029706F064FD0028C7D152
:10083000DDE9023213449D42C2D32A4602A906A82A
:1008400006F00EFB0028BBD12A4602A90EA806F02E
:1008500007FB0028B4D1202EB2D101990B78042BCC
:10086000AED13346404606AA013100F049FD16B02C
:10087000BDE8F0810C830000DE870000E687000001
:100880002DE9F041032386B00D466F460026DFF8C0
:100890006880ADF8003017F8010B01A901F0FCF8F1
:1008A0000446A0B901981023816802AA103906F005
:1008B000A0FE0446019806F09BFE44B91022414672
:1008C00002A806F07DFF40B12EB14FF0FF34204664
:1008D00006B0BDE8F0810126DDE7019807F03AF99E
:1008E0000423A0F108012A46019806F082FE04467E
:1008F000019806F07DFEEAE7F08400002DE9F04162
:10090000384B88B0064600200D461C6806F005FAF4
:1009100006A9C0B201F0C0F8002857D1294606F058
:10092000FCF92C2407A9C0B204FB056401F0B4F85B
:10093000002836D04FF02C0808FB05F806EB080716
:10094000396911F0100137D14FF480730193264BB0
:10095000224600930846CDE90311069B0291FFF75A
:10096000FFFD0446214B56F8082006989A420CD108
:100970003A89FB68D1438B4207D81344826893427B
:1009800003D21B4B1B68A3421DD045B382680021D4
:1009900006F079FE174A4521174806F01CFE01248F
:1009A00011E0079806F0A7FE0746079806F020FE1C
:1009B000631EE21C93420DD1002DF0D03046069903
:1009C00006F078FB2C46069806F012FE204608B08A
:1009D000BDE8F08113F8011FB942EBD0AAE7074A3E
:1009E000D9E700BF00C500204CE300203DB8F396D6
:1009F0001CC80020EF87000001880000F987000074
:100A000073B50D46002104462846CDE9001106F0D5
:100A100010FB30B3164E2268B24203D1204601AA21
:100A200006F07BFAE36AB34204D16A46012120460C
:100A300006F073FADDE90032934288BF0193019B0F
:100A4000AB60019A2946204600F03AFB094B1A6830
:100A5000002A03DD5721084806F0BDFD002002B042
:100A600070BD05F10801FFF70BFFAB680193E8E7E4
:100A70003DB8F39680DC0020298800002DE9F84F6E
:100A80008A46904699460026DFF870B0194C1A4DF8
:100A90000B9B9E4201D300200FE00B9B50469F1BF7
:100AA000B7F5806F28BF4FF48067144A3B4606EBCA
:100AB000090106F09EFD10B10120BDE8F88F0A99EA
:100AC0003B465A464046711806F0AFFD0028F3D168
:100AD000C4F800563E44C4F80456C4F80856C4F896
:100AE0000C56C4F81056C4F81456C4F81856C4F876
:100AF0001C56CDE7008001503546526E80C800205C
:100B00002DE9F0430F4600218E4B85B01E688E4BB9
:100B1000044643628D4B0365084606F0FEF804F177
:100B20002001C0B200F0B8FF0121002006F0F5F866
:100B300004F14C01C0B200F0AFFF0546204606F0BC
:100B40004DFA804668B900222046114606F02DFA7B
:100B5000804608B3002257217D4806F03CFD012362
:100B600092E04FF4807257217A4806F034FD012359
:100B7000984584F85830E6D194F85830042B8DF815
:100B8000073000F28480012B00F2888000F09F8003
:100B9000FF2384F858309AE0204600F0A7F9002897
:100BA000DDD0684606F03CFA6946204606F0D7FAE2
:100BB00018B1424657216848CFE7684606F039FA2F
:100BC00080F001006A46C1B2204606F0EEF9024606
:100BD0000028BFD1684606F02CFA804660BB694603
:100BE0002046FFF70DFF9DF8073084F85830033B8F
:100BF000012B06D8404606F001FB10B1FF2384F814
:100C000058309DF80730023B022B0BD8002006F02D
:100C1000E3FA38B1FF2384F8583045214F4806F0F5
:100C2000DAFCFEE794F85830FF2BF6D06A46002134
:100C3000204606F0BAF992E79DF80790B9F1010F46
:100C400017D1104602F068FE831E022B80460DD895
:100C500049462046FFF752FE414B1B68984205D09B
:100C600001280CBF4FF001084FF0050884F85880A8
:100C700082E701212046FFF741FE394B1B6898426D
:100C800014BF05239DF8073084F8583074E7052B0E
:100C90007FF47EAF002006F0B1FA13E069462046EB
:100CA000FFF7AEFE94F858300546DA1E012A0CD83C
:100CB000002006F0A3FA054600287FF469AF002063
:100CC00006F08AFA054610B162E7022BF7D094F8D5
:100CD0005830FF2B04D14521204806F07CFCFEE76C
:100CE000012B06D06A460021204606F05EF9054633
:100CF000D0B900212046FFF701FE0646DFF86080EC
:100D0000D8F8003098420FD110220021684606F032
:100D100072FD206A06F00AF800253871236AD8F8B7
:100D200000605B683C60BB60E06C06F061FC206AC0
:100D300006F05EFC002D14BF2846304605B0BDE825
:100D4000F08300BF00C5002080CC002080D40020AC
:100D50009A88000058880000C6880000F0880000CB
:100D60001CC8002038B5064D0446602200212846E4
:100D700006F041FD21462846FFF7C2FE38BD00BF00
:100D800020C8002073B516461C4633B3436A5D681D
:100D90006379012B15D101BB1F4B22681B689A4256
:100DA00098BF0025002005F0B8FF01A9C0B200F0EF
:100DB00073FEF0B10125019806F01AFC284602B036
:100DC00070BD022B09D12368012B08D9124A126881
:100DD000934202D8B1FA81F149090025E2E7FCD13A
:100DE0000029DFD00129F8D12179023918BF01216A
:100DF000F3E7294620233246019806F0FAFB054620
:100E00000028D7D1002CD6D0356804482D1A18BF39
:100E10004FF0FF35CFE700BF04C500203DB8F39683
:100E20002DE9F04F07460C4685B0014600201646D6
:100E300006F049F8051E52DB3846E46D06F04DF821
:100E40005FFA84F94FF0000A4FF0010B4FF0FF34C6
:100E500005F1FF3809FB08089DB9BAF1010F03DD60
:100E60004521214806F0B7FB631C06D0FF2C2ADC85
:100E700040F2011301343460B380284605B0BDE868
:100E8000F08F6B1E00934146012338460DF10F028F
:100E900006F0AFFB031E019323DB012238460DF160
:100EA0000F0106F068FE019B40B15B4501D00AF1DD
:100EB000010A9B46009DA8EB0908CDE7B4F1FF3F6E
:100EC00008BF2C46F5E70223A4F580747371631004
:100ED00004F001040133013433603471CDE7072598
:100EE000CBE70125C9E700BFFC880000816A426D9D
:100EF00038B58A4208D0531C8B4205D0572114487C
:100F000006F069FB002038BDB1F5807F1CD9572160
:100F10001048F5E7446A056D04EBC30405EBC3050F
:100F200064686D68AC4202D057210B48E8E7013392
:100F30009A42EFD1914205D9436A03EBC20253684A
:100F4000A342F1D10120DEE700231C46F0E700BFF9
:100F50001F890000578900008689000000B589B00C
:100F6000032004A906F06CFE9DF81020012A41D050
:100F7000254B2649032A18BF0B469DF8132049210B
:100F800002929DF81220224801929DF811200092B1
:100F9000204A06F020FB072006A906F051FE9DF826
:100FA0001820012A28D0184B1849032A18BF0B46CD
:100FB0009DF81B20492102929DF81A2014480192A5
:100FC0009DF819200092144A06F005FB9DF8103098
:100FD000012B13D19DF81230032B0FD19DF818303F
:100FE000012B0BD00D48492106F0F5FA022009B07B
:100FF0005DF804FB0A4BC0E7094BD9E709484921D2
:1010000006F0E9FA0020F2E7B7890000BD89000088
:10101000CF890000C1890000108A0000208A0000EA
:10102000B28900003F8A000070B54B6814461E4A22
:1010300003F0FF23934206460D4686B02FD10B687E
:10104000012B2CD1204604A902F016FC9DF810209B
:10105000012A26D0154B1649032A18BF0B469DF8C6
:101060001320492102929DF81220124801929DF806
:1010700011200092104A06F0AEFA9DF81030032BB2
:101080000DD12146304606F015F8204606F0CFFD7A
:101090002046A96805F032FF204602F0DFFB06B0CB
:1010A00070BD064BDBE700BF00010004B7890000FC
:1010B000BD890000CF890000108A0000B2890000BD
:1010C0002DE9F04F436A2DED028B0C465E68054614
:1010D000012100238BB033449A42084601F10101FB
:1010E000F9D8784F3860204605F0A3FFBB46C8B159
:1010F000E86D05F0E3FE0022AB6A013B324490420A
:1011000001D9013BFAE7DBF800209A420AD35721C4
:101110006D4806F060FA0123E3710BB0BDEC028B61
:10112000BDE8F08F08A9032000F0B6FC09A907204C
:1011300000F0B2FC21462846099AFFF775FF637953
:10114000012B08D1DBF80070DFF880A1DBF800305C
:10115000A7B90123236002230127DFF8708163719F
:101160000593DBF80030DDF820909F424DD94846CA
:1011700006F03EFA099806F03BFACEE72268013302
:101180009B1A9F423FD86B6A012A196853F83700AF
:1011900003EBC70353F8083CDDF82080A3EB010301
:1011A00008EE103AA0EB010912D1E268099B022A6D
:1011B0000AD041462846039305F07CFF224641466B
:1011C000284605F0ADFF039B1946284605F072FF3F
:1011D00032464946404605F06BFF18EE103A42464B
:1011E00041462846CDE90096FFF748FC21462846AF
:1011F00005F02CFF23680133236020B1DAF80030BA
:101200000133CAF80030013FA0E723689F4256D35C
:10121000696A286D51F83730FA0004930B68083A70
:1012200050F802C0039303682079DDF824A0012858
:10123000ACEB030341D189580793039B3246C91A8B
:101240004846069105F034FF0699079B4A460091EF
:101250002846514601960693FFF710FC2146284682
:1012600005F0F4FE059B2371069B20B1D8F8002001
:101270000132C8F80020194632465046069305F060
:1012800017FF069B494600932846DDE90323019694
:101290009B1A5246FFF7F2FB2146284605F0D6FE80
:1012A0002368013323604FF00103237138B1D8F86C
:1012B00000300133C8F8003001E00228DBD00137EC
:1012C0004FE700BF04C50020568A000080DC0020E4
:1012D00070B5094D2B7853B90126084CC4F8006548
:1012E00004F0F6FC28B92E70C4F8000570BD00208B
:1012F000FCE74FF0FF30F9E74CE400200000845099
:1013000070B5AEB01D460446CDE90221FFF7E0FFFF
:10131000DDE902210123064E05A8C6F80035234663
:10132000009506F027FE0023C6F800352EB070BDEC
:101330000000845010B501234FF0FF3400211A4AF9
:101340001A481360C2F84443C2F8044302F58052BD
:101350001360174B8022C3F84843C3F80843A3F532
:101360005043C3F80015C3F8084306F044FA80223E
:101370000021104806F03FFA00210F4B8022C3F8ED
:1013800000150E48C3F8084306F035FA8022002104
:101390000B4806F030FA0B4BC3F808454FF05023CA
:1013A000C3F8084310BD00BF0440015080800050C6
:1013B00000500150808100500090005080900050FB
:1013C00080910050007001500B6801330B60014B9D
:1013D0001B68184708C5002007B50B4600210246C8
:1013E0000191034801A900F0EDF803B05DF804FB9A
:1013F000C91300002DE9F74FB0F81890044619F012
:10140000080893460ED001290CBF49F0100949F095
:101410002009A0F818908BF31188BFF36F8F03B0E9
:10142000BDE8F08FDFF898A109F00709022907D17C
:10143000204606F019F80028EDD00128238B4DD165
:101440006769218B002F15DA256821F00701C4E9AF
:10145000008841F0010121830026218B01F0070261
:101460004A4502D0A368002B59D10DB9002E71D086
:10147000002355E001F007035A1F012A1FD821F06D
:101480000701062B256889B2C4E900880CD1002D1C
:101490002B4638BF00232BB1628B1B68013262835D
:1014A000002BF8D141F002012046218305F0DCFF3A
:1014B0000028D1D0238B43F020032383CCE7042BD7
:1014C0000AD121F0070189B22046218305F0CCFF23
:1014D00010B141F0200121830025BDE7032809D187
:1014E000226923F00703166843F0060300252383CF
:1014F0002F46B2E7042806D1226923F00703566875
:1015000043F00403F2E7052806D1226923F007031C
:10151000966843F00503E9E700252E46E8E7012336
:1015200041F0080121838BF31188BFF36F8F03BB58
:10153000002D34D116B151462046B0474FF020035C
:10154000EFF3118B83F31288BFF36F8F238B23F09C
:1015500008032383238BDA062AD5012123F0100305
:101560002383B4F8189009F0070900297FF45EAFCF
:1015700051E7A1680029DBD00B68002B38BF00239E
:10158000994620463B46D1F804B00192D847019ACB
:10159000B9F1000FCCD04946D9F80030EDE7294623
:1015A0003B46204601922D6805F07AFF019ABFE77D
:1015B00013F020011EBF23F0200302212383D0E774
:1015C000CD7400002DE9F04F8B464FF0000A8FB02C
:1015D0001F46531E00900193019B58785C1C2528E0
:1015E00022D14FF0000C4FF0FF36184661463446CA
:1015F0004FF00A0E0230CDF808C002780190392A67
:1016000000F1010058D81F2A18D8002A00F0FF81E5
:101610005946009B25209847019B59461878009B06
:1016200098470AF1020AD7E7002800F0F0815946EE
:10163000009B98470AF1010A0194CDE7A2F120032B
:10164000192BE5D801A555F823F000BFB516000009
:101650001116000011160000B5160000111600004A
:1016600035170000111600001116000011160000B9
:101670001116000077170000B516000011160000C3
:101680008B17000043170000111600004F170000D1
:101690006B1700006B1700006B1700006B17000042
:1016A0006B1700006B1700006B1700006B17000032
:1016B0006B1700009446A0E7582A00F04081A2F181
:1016C0006303DDB2172DA3D8172BA1D801A555F8B8
:1016D00023F000BF99190000B11700001116000097
:1016E000111600001116000091170000B11700003C
:1016F00011160000111600009117000011160000CD
:101700001116000011160000E91800001116000063
:10171000111600007B19000011160000B11700001F
:101720001116000011160000E91800001116000043
:101730009117000059462520009B98470AF1010A9D
:101740004AE7029B002603F0FE03029355E7002CB4
:101750000BDA002E0BDA029B002B00F0548124EAF6
:10176000E4740EFB0424303C47E7002EF7DB0EFB4D
:101770000626303E41E7002E57F8043B01DB1E46AB
:101780003BE71C1EBFF639AF64420223029334E7E5
:10179000682A03D1682906D148212EE76C2A02D194
:1017A0006C2900F0328100297FF432AF114624E722
:1017B0007A290FD13B68752A984607F1040540F055
:1017C00088804FF00009BCF1200F40F08580924FD7
:1017D000013C15E06C29EDD04C29EBD1FD1D25F025
:1017E0000705752AF5E80289EDD0B8F1000F79F107
:1017F0000003E8DAD8F10008884F69EB4909013C99
:101800000DAB059300230393039B40460493013BD8
:10181000494603930A220023FEF794FC059B3032CD
:1018200003F8012940460A22494605930023CDE9E1
:101830000689FEF787FCDDE90623002B08BF0A2A8C
:1018400080468946E0D2049B0EAAC3F1010902EB4F
:101850000308002EA8F1040804DA029B13F0010F1C
:1018600018BF2646A6EB0903002B0393029BD4BFA7
:10187000A4EB0904A41B9A0740F1AF80AAEB07066A
:1018800006EB070A17F8010B002840F0A880039E1A
:10189000013E40F1A880039B4E465A1E0132ACBF68
:1018A0001F460027013E40F1A38009F1FF320132BB
:1018B000ACBF4B460023264603EB0709013E40F12F
:1018C0009D80631E0133B8BF0024A1442F46CA4443
:1018D00082E64FEAE37988E7BCF12B0F0ABF504F4D
:1018E000504F04F1FF348BE7702A28D13D4655F85C
:1018F000040B00285AD000214B4F023C4FF0000847
:1019000002F06002A2F139090DF1340E00F00F036C
:10191000092B88BF4B44303300290EF8013908BF2A
:1019200010284FEA101308F1FF3C43EA01734FEA15
:1019300011121ED20EABC8F10109984489E76C2937
:1019400004D13D46002155F8040B06E04C29F8D19E
:10195000FD1D25F00705F5E80201BCF1230F06D1B6
:10196000314B12F0200F314F18BF1F46C5E72D4FE6
:10197000C4E7E04618461146C8E73D4655F8048BD3
:10198000404605F00AFF002E814602DBB042A8BFA8
:10199000B1460026234F65E73D4655F8043B4FF01E
:1019A00001098DF820300DF12008F2E74FF005090C
:1019B000DFF87C80EDE759462020009B9847013EE8
:1019C000F9D5621E531CACBF21460021C4F10004AE
:1019D000B8BF00248A44144450E72646EFE759462E
:1019E000009B98474CE75946009B302098474FE7AB
:1019F000594618F8010B009B984753E75946009B3E
:101A0000202098475AE70123C0E64C21F5E55046CF
:101A10000FB0BDE8F08F00BF678F0000E08A0000C4
:101A2000E28A00001D930000E48A0000E78A0000BB
:101A3000EA8A000008B54FF02002EFF3118382F329
:101A40001288BFF36F8F00F021FD034805F0FFFC03
:101A500000F03CF9FCE700BFF08A00004FF02002E4
:101A6000EFF3118382F31288BFF36F8F0121044AD1
:101A7000C2F8401583F31188BFF36F8F00207047C1
:101A80000090035020B1034B800143F0010318473D
:101A9000704700BF008300000C4B70B51B6873B12A
:101AA0000B4A15680022AA4202DB6FF0010070BDEC
:101AB0001C4613F8106B864204D00132F3E76FF036
:101AC0000C00F4E700200C60F1E700BF0CC500201B
:101AD000C883000070B588B005460C46C0B26946A0
:101AE0001646FFF7D9FF00281FDB009BEBB15A68B1
:101AF000216802929A68D868CDE9032600220195F0
:101B0000CDE90612059202F025FD0546009805F084
:101B10006FFD6DB12846084901AA05F067FF0798D7
:101B200008B9059B236008B070BD6FF01500FAE797
:101B30006FF01200F7E700BF09770000014803F0DB
:101B40004BBD00BFCC83000008B5B0B14368042B87
:101B50000DD100220368D3E8EF1F012903D1C3E8A8
:101B6000E02F0028F7D1074808BF104608BD3BB159
:101B7000006802F085FF0020F8E76FF4E040F5E729
:101B80000148F3E7E98FFFFFEA8FFFFF10B5044636
:101B900018B90D4B0D485B689847616808290DD04E
:101BA00031F004030AD011F0020108D021460848A0
:101BB00006F0ADF8002323600023636010BD1422FB
:101BC000206805F018FEF7E7B0C500201D8B000067
:101BD00084DC002010B5044618B9164B16485B6823
:101BE00098476368042B23D0082B21D0CBB92368F6
:101BF000BBB94FF0FF324FF0FF3321460F4802F0E0
:101C000003FE08B923681BB90A4B0D485B68984767
:101C100014220021206805F0EEFD636843F0020302
:101C20006360206806F0B0F8636843F00103636006
:101C300010BD00BFB0C500201D8B000084DC00205B
:101C4000438B000008B5E8B14368042B0CD1012296
:101C50000368D3E8EF1F002903D1C3E8E02F002871
:101C6000F7D10BD1002008BD53B100684FF0FF320F
:101C70004FF0FF3302F086FE0028F3D00348F2E76E
:101C80000348F0E76FF4E040EDE700BFE98FFFFFA6
:101C9000EA8FFFFF08B5064940231422054806F0E5
:101CA0001BF8BDE808400449044803F0F3BC00BF3A
:101CB000A0DC002084DC0020E4830000D48300004A
:101CC000014910220A60704710ED00E072B64040F2
:101CD00080F31188BFF36F8FBFF34F8F30BF62B6B1
:101CE000BFF36F8F704700BF72B6494081F3118810
:101CF00020BF80F3118862B6704700BF2DE9F04124
:101D000007460C4686B000294AD08B6828480093C5
:101D1000D1E90023452105F05EFC6369452100936C
:101D2000D4E90323234805F056FC4521E269224803
:101D300005F051FC26460025DFF88880D6ED0B7AA9
:101D4000FCEEE77A96ED087ACDED057AEB1C04936C
:101D5000D6ED0A7AFCEEE77ACDED037AAB1C02935E
:101D6000D6ED097AFCEEE77ACDED017AFCEEC77A82
:101D70006B1C2A460093452117EE903A40460435E5
:101D800005F029FC102D06F11006D7D14521226E51
:101D90000A4805F020FC4521A269094805F01BFC12
:101DA0002146384606B0BDE8F04102F0FFBB00BF57
:101DB000708B0000A48B0000D88B0000348C0000D6
:101DC000488C0000EC8B000043B2002B08DB0122A2
:101DD00000F01F0002FA00F0024A5B0942F82300FB
:101DE000704700BF00E100E0054B420953F8222094
:101DF000012300F01F0003FA00F01040704700BFFD
:101E000000E100E043B2002B01F10101ACBF03F19E
:101E10006043064B4FEA4111C9B2ABBF03F56143C2
:101E200000F00F0083F800131954704714ED00E020
:101E300030BFFFF7FDBF00BF144A08B5144B22F0B6
:101E40007F029A60BFF34F8FBFF36F8FD3F8882064
:101E500022F47002C3F88820D3F8882042F4A0024C
:101E6000C3F888204FF04042C3F83422BFF34F8FAD
:101E7000BFF36F8F0023E1EE103A02F029FC03F06C
:101E8000EBF900F0C7FA02F02DFC00BF00000000E3
:101E900000ED00E0094A0A499368096858679967A4
:101EA00008494B6843F080534B60002383F311884B
:101EB000BFF36F8F9368986F704700BFFCE20020FC
:101EC0001485000000ED00E022498A6882F8BDE038
:101ED0004FF030001044EFF3098C80E8F01F1EF043
:101EE000100F03D102F17C0080EC108A202080F3D7
:101EF0001288BFF36F8F184F4FF000668A698A60AF
:101F00003E6092F9BDE0506F0023536780F3118863
:101F10001EF0100F03D00023E1EE103A03E002F1AF
:101F20007C0090EC108AEFF3148323F0040383F316
:101F30001488BFF36F8F02F1300090E8F01F8CF32C
:101F4000098802F1000004B505F00FFCBDE804406B
:101F500070470000FCE2002004ED00E01EF0040FDA
:101F60000CBFEFF30880EFF30980816911F8021CC0
:101F70000229FFD001B505F0E9FB01BD42F8203C84
:101F8000009B0D4942F81C3C019B21F0010142F8E5
:101F9000183C029B42F8081C42F8143C4FF0807336
:101FA00042F8043C002343674FF47D43203A026526
:101FB000C0F8BC30704700BFC17500000023E1EEDF
:101FC000103AEFF3148323F0040383F31488BFF370
:101FD0006F8FBFF36F8F094B9860436E83F30B884D
:101FE000104681F30988002163B681F31188BFF39D
:101FF0006F8F0022002305F0E3FA00BFFCE200200F
:1020000001B5EFF30580A0F110004FEAC0000449CC
:10201000014409C99847BDE801400249084700004A
:102020009080000029200000044B9968986988423C
:1020300003D003494FF080520A607047FCE2002051
:1020400004ED00E070B5224C06460D4621484521BE
:1020500005F0C1FAA26AD00603D545211E4805F055
:10206000BAFAA36A190703D545211C4805F0B3FA4B
:10207000174CA36A9A0710D54521194805F0ABFA09
:10208000626BA36A1B0608D54521164805F0A3FA22
:102090001EB1A36A23F08003A3620D4CA26AD0078D
:1020A00003D54521104805F096FAA36A990603D591
:1020B00045210E4805F08FFA0020054B9A6AD2069A
:1020C00058BF9A6A9A6A42F0FF029A62287070BDFD
:1020D00000ED00E07B8C0000968C0000CE8C0000B0
:1020E000E68C0000038D00001E8D0000428D000074
:1020F00070B5234C06460D462248452105F06BFA83
:10210000A26AD10403D545211F4805F064FAA36AE9
:102110001A0503D545211D4805F05DFA184CA36A40
:102120009B0510D51A48452105F055FAA26BA36A04
:10213000180408D54521174805F04DFA1EB1A36AC9
:1021400023F40043A3620E4CA36A590503D545212D
:10215000114805F040FAA36ADA050BD545210F486E
:1021600005F039FA0020064A936A43F47F439362EC
:10217000287070BDA36A9B04F4D545210848EFE799
:1021800000ED00E0768D0000918D0000CE8C000007
:10219000A78D0000C58D0000DF8D0000FF8D0000C1
:1021A000428D000038B5214C4521214805F013FA35
:1021B000A26A950103D545211E4805F00CFAA36AD1
:1021C000DC0103D545211C4805F005FA174DAC6A22
:1021D00014F4801404D04521184805F0FCF90224B9
:1021E000AB6A180303D54521154805F0F4F90F4DE6
:1021F000AA6A510303D54521124805F0ECF9AB6AF0
:102200009A0303D54521104805F0E5F9074DAB6A5F
:10221000DB0303D545210D4805F0DDF9AB6A204607
:102220006FEA03436FEA1343AB6238BD00ED00E091
:102230001C8E0000398E0000518E0000708E000050
:102240009F8E0000C28E0000EC8E00000B8F0000FD
:102250002DE9F043574B0025D3F804909DB0C9F306
:10226000080885F31188BFF36F8F02F07F43B3F145
:102270007F4F07D102F00C03082B05D145214E48B2
:1022800005F0A9F92F4604E012074EBF0F46074696
:1022900001250022A8F1030614468DF80720092E17
:1022A00076D8DFE806F0056A6E6775757575757224
:1022B0004521424805F08FF93E4B8DF80740DC6A16
:1022C00014F0020405D045213D4805F084F90024AE
:1022D00006E0DA6A002A1DDA45213A4805F07BF962
:1022E0009DF807309BB96822394602A805F078FAB4
:1022F000099B002D59D0C3F3080222B96FEA53237A
:102300006FEA43230993204602A9FFF7F7FC1DB0AB
:10231000BDE8F083DB6A5B00E2D545212A4805F081
:102320005AF9BB6933F8022C4DF602739A420CD06D
:1023300003F1604303F626631B786BB101200DF1B6
:102340000701FFF77FFE0446CAE745213A681F48A8
:1023500005F041F93C68C3E71D4B1B782BB1012008
:102360000DF10701FFF7C4FEEDE71A4B1B889BB286
:10237000002BB5D0FFF716FFE5E700200DF10701B0
:10238000DFE700200DF10701ECE7452112489CE74B
:10239000124919F4F87F124A124808BF0A46A8F1F8
:1023A0001003452105F017F991E723F4FF7323F09B
:1023B0000103A7E700ED00E0698F0000998F00009E
:1023C000B58F0000DB8F0000EE8F00001290000040
:1023D00029ED00E02AED00E0339000003B8F000083
:1023E000508F00005C900000044B5A6942F01002CC
:1023F0005A615A6942F480625A61704700ED00E008
:10240000EFF30880EFF3098101B57246FFF720FF73
:1024100001BD00BF002320210348C2180133412B16
:1024200082F80013F9D1704700E100E0002080F34A
:102430001488BFF36F8F002080F30A8880F30B8825
:1024400005F0C4FD00200E490860BFF34F8F0D4812
:1024500080F3088800F03CF8202080F311880A48B7
:102460004FF40061401880F30988EFF314800221D3
:10247000084380F31488BFF36F8FFFF7DDFC000083
:1024800094ED00E02012012060130120BFF34F8F74
:102490000549064BCA6802F4E0621343CB60BFF300
:1024A0004F8F00BFFDE700BF00ED00E00400FA051C
:1024B00000231846054A1168C1F307218B4200D159
:1024C0007047936010610133F8E700BF90ED00E0C2
:1024D00010B572B6002484F31388FFF7E9FF0E4AA3
:1024E000234611464FF0FF3403F120000133102B37
:1024F00042F82040F8D100234FF0FF3003F1600292
:102500000133102B41F82200F8D162B6BFF34F8F90
:10251000BFF36F8F10BD00BF00E100E0064B9B686A
:10252000834207D1EFF3058323B1044A536843F094
:102530008053536002F03EBEFCE2002000ED00E05C
:102540001FB5094C094A23460121094800F01AF930
:1025500000230393074B0121E41A01A8019302947D
:1025600000F01AF904B010BD0000042000C50020DE
:10257000F883000070C6002010B50B680C7A23F0B9
:102580001F0204F01F031A43CB68640923F01F03E2
:10259000044943EA440343F001038860CA600B61C5
:1025A00010BD00BF90ED00E030B54B680C6885B001
:1025B0000A898D7A0094013B24F01F04234402F021
:1025C0001F0242EA451223F01F030F2804468DF82C
:1025D0000820039309D902464521064804F0FBFF71
:1025E0006FF01504204605B030BD6946FFF7C4FF03
:1025F000F8E700BF789000002DE9F04F89461446B7
:1026000006464FF00008524D85B0C84523DA77687A
:10261000002F42D01F2F17D9FB0615D1D6F800A0E6
:102620001AF01F0F10D1504605F0A3F8834607EBB0
:102630000A00013805F09DF8834510D06FF0150BA6
:102640005A464521434802E042464521424804F0AB
:10265000C2FF6FF01504204605B0BDE8F08F1BF1F6
:10266000160FEDD0631E5B45EADBC5F808B0E968DC
:10267000C5F808B02F6921F01F01D6E900321A44CD
:10268000994247F01F0702F1FF3A1CD1574508D184
:1026900031465FFA8BF0FFF787FF08F101080C362F
:1026A000B3E73146C5F808B0EB6822F01F0203F02B
:1026B0001F031A43EA60E0B2FFF776FF10F1160F2E
:1026C000C7D0441CE9E7013B5745E0B223F01F03A4
:1026D000C5F808B006D12A69314602F01F0213433B
:1026E0002B61E9E7296901F01F010B432B6131469A
:1026F000FFF75AFF10F1160FABD0C5F808B0EA6823
:102700009DF80830013F62F304038DF808302B690F
:102710009DF808205B0863F347128DF80820D6E97E
:1027200000321344009323F01F033B44441CA3EBEB
:102730000A0AE0B22AF01F030F28039303D90246C6
:102740004521064883E76946FFF716FFB9E700BF52
:1027500090ED00E0CB900000A39000007890000086
:102760000522034B5A60BFF34F8FBFF36F8F704743
:1027700090ED00E0BFF35F8F0022014B5A6070477D
:1027800090ED00E010B5034C2278FFF735FF207084
:1027900010BD00BF4DE400202DE9F74F264D8A46BD
:1027A00006464FF00008AB46244FD0451BDAD6F85A
:1027B0000490B9F1000F39D031680846019104F056
:1027C000D8FF0199044609EB0100013804F0D1FF5C
:1027D00084424FF014021A4B08D06FF0150302FB2D
:1027E00008F84BF8083003B0BDE8F08F14F1160F6D
:1027F0002C60F8D01978A142F5DD02FB08B0BC606E
:10280000BC60FC6800F10801007B64F304000871FF
:1028100038690C79400860F347140C71F96821F0AD
:102820001F016960396921F01F01296108F1010860
:1028300014350C36B9E700BFA0E1002090ED00E0B0
:102840004DE4002038B50E4C2568102D14D8FFF744
:1028500091FF00200B4B0C4A1A63854205D10B4BAC
:102860001D70FFF77DFF002038BD616801EB00118E
:10287000FFF782FE0130F0E74FF0FF30F4E700BFD2
:102880000484000090ED00E0AAFF44004DE4002025
:1028900008B50A4801F05EFE60B1026981681368FC
:1028A00023F0004313600B684FF420621F21984708
:1028B000002008BD6FF01200FBE700BF029100008E
:1028C00070B504460C250D480E46231A9A100C4B81
:1028D00040215343DBB25D4305F14003184404F04B
:1028E0009CFF011E04DB074B2B445B6898470021CB
:1028F00020463346BDE87040184700BFC4E10020C1
:10290000B76DDBB6448400002DE9F0410F4C104D4B
:10291000031B9B105D43EBB20C255D43074605F19D
:1029200040000E462044402104F090FF011E08DBC9
:10293000084B2C44C4E90E36074B5B59BDE8F04107
:10294000184738463346BDE8F0411847C4E1002037
:10295000B76DDBB6AF7800004484000070B500228C
:10296000012104460520FFF74DFA0520FFF72CFA58
:102970000F4801F06BF90F4B984215D105F086F91D
:1029800026690D49304604F0BFFD00280BDB012508
:1029900035642469084904F11C0004F0B5FD0028E1
:1029A00001DB0020E56470BD6FF00400FBE700BFB1
:1029B000F92900000000AD0B5C84000073B50C2306
:1029C000014600264B430A48C4184033D4E90E524E
:1029D0001844A663019204F057FF35B12B46019AC3
:1029E000044802B0BDE87040184702B070BD00BF97
:1029F000C4E100203080000010B1012804D07047ED
:102A0000034B1B6C5B0701D1FFF7D8BF704700BFBA
:102A1000C4E1002008B54FF02003EFF3118183F3E8
:102A20001288BFF36F8F124A136843F0020013F04D
:102A3000010310600CD04FF05022D2F80C34D2F8C1
:102A40000C2413F0010303D00A4804F01DFF0123F6
:102A500081F31188BFF36F8F23B1BDE808400020D8
:102A6000FFF7ACBF0120BDE8084001F0FFB800BF90
:102A700014E2002004E20020074BD3E8EF2F22F0FD
:102A80000201C3E8E01F0028F7D1D30702D40120D8
:102A900001F01EB9704700BF14E200201FB50022EC
:102AA0000123CDE902236B46084ACDF800D0CDF8CA
:102AB00004D004F023FF002805DB4FF480420023FC
:102AC000684602F043F805B05DF804FBCF780000DB
:102AD0002DE9F843012206463949D1E8EF3FC1E824
:102AE000E02F0028F9D133B9364937484B60CB6025
:102AF0008A6004F01CFD731E012B32D8012E07D111
:102B00004FF05023D3F81C3403F00303022B28D0DA
:102B100005F026F9044618B92C4B1B78002B47D139
:102B20004FF02003EFF3118583F31288BFF36F8F0B
:102B30000124274FDFF89C80DFF89C904FF0502253
:102B4000D2F81834D2F81824D2030CD503F00303BA
:102B5000022B01D0012E06D124B385F31188BFF3D7
:102B60006F8FBDE8F883C4B12846FFF7BDF84FF07A
:102B70005022D2F81835DBB2012BDFD13968002999
:102B8000DCD00021396039680221C2F818152022F2
:102B9000C8F88021C9F80030D0E70021212002F0D8
:102BA000E9FAE4E74FF050230222C3F80423D8E700
:102BB0004FF0502302220546C3F80823B9E700BFAF
:102BC00018E20020B4E10020E0E100205EE80020EF
:102BD0000451005000E100E00850005030B540685A
:102BE00001F01F05047BB2F5005F45EA441585B08E
:102BF0004FF0000404D1284601F030FB00202CE007
:102C0000B2F5804FCDE9024429D1B3F5003F0CBFA6
:102C1000042305238DF80830836823FA01F1C907DE
:102C200029D4B2F5A03F26D11B4A05F01F038033FB
:102C300052F82330DB071ED40DF107042146284645
:102C400001F078FA154B984214D1204601F0BCFAF5
:102C5000134B98420ED06FF00B0005B030BDB3F5AA
:102C6000C02F05D0B3F5003F0CBF02230123D1E7ED
:102C70000323CFE7039400232846194602AA01F054
:102C800019F9074B984204D10121284601F0A2FA14
:102C9000B4E76FF00400E0E7002584500400AD0BBA
:102CA0000000AD0B10B501F07FFA044668B901F0E1
:102CB00053FA084B98420AD12146074801F034FAEA
:102CC000224605210D20FFF79DF8002010BD6FF072
:102CD0000400FBE70000AD0BDD2C0000430970B5DC
:102CE00018D10D4B5968A9B10C680123002C38BFCD
:102CF00000240A4E03FA00F58A682A4002D03046C2
:102D00004B68984734B123682146002B38BF002315
:102D10001C46F1E770BD00BF1CE2002048800000A7
:102D20002DE9F043476801F01F053B7B0E46144632
:102D300085B045EA4315CAB902A9284601F0FAF957
:102D40000446284601F0ACFA474B984204D06FF095
:102D5000040005B0BDE8F083844205D19DF8080069
:102D600001F02CFAA042F2D10020F2E74FF0000966
:102D70000DF103013046CDE9029901F0DBF94B4634
:102D800080464946284602AA01F094F8364B9842FC
:102D900002D06FF01500DCE7804503D19DF80300F9
:102DA00001F00CFAA3054CD5304B314A2340934235
:102DB00039D00CD8062B14D004D893B1022BE8D10B
:102DC00004230EE0B3F5801FE3D1012309E0294A73
:102DD00093422AD0B3F5A00F29D0B3F5800FD8D1F4
:102DE00002238DF8043084F48073C3F30023E006DB
:102DF0008DF805304CBF0323C4F3401321058DF833
:102E0000063016D501217B6801FA06F69E60002285
:102E1000284601A901F0F4F8134B984214BF6FF053
:102E20001500002095E70723DBE70523D9E70323F7
:102E3000D7E7620541BF01217B6801FA06F6DE6033
:102E4000E5E7E3064FF000034CBF0324C4F340144E
:102E50001A46284601A98DF8044001F02BF8024BD0
:102E6000984281D095E700BF0000AD0B0600F0004E
:102E70000600100002004000024B0B6001231360AB
:102E8000704700BF28E2002000487047B48400006B
:102E900037B50C46194620460193154604F093FDBC
:102EA000019B40B909482246452104F094FB6FF08C
:102EB000150003B030BD33B11A462146284604F050
:102EC0008FFC0020F5E71846F3E700BF29910000CA
:102ED000F8B50E46144604F0E7FE21460546304696
:102EE00004F071FD374648B3B6FBF5F305FB1363F9
:102EF00023B9B4FBF5F205FB124040B1234632463C
:102F00004521114804F067FB6FF0150015E0A5425C
:102F100013D84FF0FF324FF0FF330C4801F016FE8C
:102F200004F0C2FE0546384601F08EFA641B2F44B9
:102F3000F9D1064801F0EAFD2046F8BD23463246A5
:102F400045210348DEE700BF4B91000030E200203E
:102F50002991000010B501220648114604F01BFF1C
:102F600004F0A5FE044C206004F09EFE606000208A
:102F700010BD00BF30E2002028E20020F8B50E4668
:102F80001946304617461C4604F01DFD40B923463D
:102F900032464521174804F01EFB6FF01500F8BDBE
:102FA00044EA060515F0030504D0234632464521C0
:102FB0001148F0E7DCB14FF0FF324FF0FF330F481C
:102FC00001F0C4FD24F00304A54205EB060009D17D
:102FD0000B4AD2F80034DB07FBD5084801F096FD18
:102FE0000020DCE7795901F04DFA0435ECE7204682
:102FF000D5E700BF299100006F91000030E200206A
:1030000000900350F0B54B79012B26D0032B21D132
:1030100010268B79032B1DD1CC790CB1012C19D141
:103020000A7912B1022A15D10E220B684568B3F550
:10303000164F2D6865D02DD8B3F5165F64D016D81D
:10304000B3F5966F62D00AD8B3F5967F61D0B3F529
:10305000167F61D06FF0850052E00026D9E7B3F506
:10306000166F5CD0B3F5965FF4D1374B3CE0B3F507
:10307000E14F57D007D8B3F5615F55D0B3F5964F00
:10308000E8D1324B30E047F61227BB42E2D14FF491
:10309000000329E0B3F5613F48D013D8B3F5963F5C
:1030A00047D009D84DF6C027BB4244D0B3F5614F95
:1030B000D0D14FF46B0317E0B3F5E13FCAD14FF025
:1030C000EB7311E0B3F5612F38D008D8204FBB4225
:1030D00037D0B3F5E12FBDD14FF0E86304E01D4FC9
:1030E000BB42B7D14FF08053C5F824350369344350
:1030F0002243043303C9C5F86C2583E8030000208C
:10310000F0BD4FF41D03EFE7134BEDE74FF49E23A3
:10311000EAE74FF4A033E7E74FF41C33E4E74FF45A
:103120001D23E1E70D4BDFE70D4BDDE74FF06C733F
:10313000DAE70C4BD8E74FF46503D5E74FF070633F
:10314000D2E74FF08063CFE700B0130000A04E003D
:1031500090D0030040420F000050270000C07500CF
:1031600000F03A0000903A01F8B505460F460669AE
:1031700004F0F6FD10B92C4B1B7883B94FF02003F7
:10318000EFF3118483F31288BFF36F8F284604F0A6
:10319000A2FC28BB84F31188BFF36F8FEEE7642491
:1031A000284604F098FC70B9012004F06DFD013C44
:1031B000F6D10021212001F0DDFFF0E784F3118832
:1031C000BFF36F8FF5E74FF02003EFF3118483F324
:1031D0001288BFF36F8F284604F07DFC0028EDD0E5
:1031E000012206F8107F69680B68C3F84465C3F8CC
:1031F00048250022C3F82021D3F82001C3F8582124
:10320000D3F858214A68D20641BF0822C3F80025E6
:103210004FF48002C3F8042301229A6084F31188DA
:10322000BFF36F8FF8BD00BF5EE800202DE9F843C3
:103230000646012100220820FEF7E4FD0820FEF7E3
:10324000C3FD0023776835693C68C4F800352E60FB
:103250007368D868411C0BD00121DFF840C100F031
:103260001F029140CCF80810032180324CF8221044
:1032700019694A1C0DD01A7FDFF820C1002A14BF3B
:103280004FF00C0E4FF0000E01F01F0280324CF890
:1032900022E0D3F814C0BCF1FF3F0ED04FF0010E76
:1032A000DFF8F8800CF01F020EFA02FEC8F808E002
:1032B0004FF0030E803248F822E0D3F818E0BEF158
:1032C000FF3F0DD05A7FDFF8D480002A14BF4FF0A3
:1032D0000C094FF000090EF01F02803248F82290CE
:1032E0001B68C3F80C05C3F8141531693046C3F8E0
:1032F00008C50431C3F810E5FFF784FE064678B927
:103300007B6899071CD505F1120000F057FD204B92
:10331000984208D045211F4804F05DF96FF004067B
:103320003046BDE8F883AB7C43F00043C4F8A031DD
:10333000C4F88C300123AA7C9340174AC2F80435A4
:103340000823C4F800353B7A5BB9C4F81031D4F8CF
:10335000103105F11103C4F834350123C4F83835B0
:1033600023607B6810359A075CBF4FF48072C4F805
:103370000423DB0644BF4FF48003C4F80433002366
:10338000C4F84455C4F848350123A360E360C7E797
:103390000000AD0B9C91000000700150002584508E
:1033A000194970B5044622F07F460868C1E9002338
:1033B000A6F50013101AB3F5400F4FF000050AD21E
:1033C0000125124B19680A060B0A9219104943F19C
:1033D0000003C1E9002302F031F8A30003F15023F8
:1033E00003F58033D3F84025B2420BD11DB94FF419
:1033F0000002C3F840254FF48030064B00FA04F475
:10340000C3F8444370BD00BF88C6002048E20020D6
:1034100070C60020005001500123834010B5DC43EA
:103420000D4AD2E8EF1F01EA040CC2E8EECFBEF16C
:10343000000FF6D14FF4803202FA00F002F1502270
:10344000C2F80803BFF35F8FBFF36F8F0B4214BF47
:103450000120002010BD00BF44E2002001230E4ADD
:103460008340D2E8EF1F1943C2E8EC1FBCF1000F04
:10347000F7D14FF48033094A8340C2F80433084B34
:10348000D3E8AF3F23FA00F0C30742BF4FF4001266
:10349000044BC3F80021704744E200200050015063
:1034A00040E2002000E100E00D4B1B68190A1806FD
:1034B000BFF35F8F0B4BD3F80435C01841F1000107
:1034C000B3F5801F0AD2084BD3E90023994208BF05
:1034D000904203D210F1807041F10001704700BFAB
:1034E00048E200200050015070C600202DE9F74F3F
:1034F00016461F460546FFF78FFF0090FFF7D4FFE3
:10350000B94208BFB0427BD200234FF08072B6EBC5
:10351000000867EB01094B4508BF42457DD3404B8E
:1035200003EB0513D3E902239F4208BF964251D013
:103530004FF4803B26F07F4214464FEA850905F19F
:10354000500809F150294FEA880809F580391FFA17
:1035500088F808F15028D9F84005324B08F5803832
:103560000BFA05FBD3F804A5A0EB0A0020F07F407E
:103570002AF07F410128C9F8401505D10192132096
:1035800004F0F3FC274B019A0AF1020CA4EB0C00A7
:1035900020F07F400021B0F5000F88BF6446C8F8D6
:1035A0000010D8F8000024F07F40C3F844B3C9F8F5
:1035B0004005D3F80405824506D0201A023820F0D1
:1035C0007F40B0F5000F19D8A41A24F07F443219B7
:1035D00047F10003124C290104EB0510C0E9022356
:1035E0000C9A0D9B625000244360009B13B1284647
:1035F000FFF734FF204603B0BDE8F08F2046B1E767
:103600000123094AAB40D2E8EF1F1943C2E8E01F8B
:103610000028F8D132463B46DCE76FF01504E4E7BA
:1036200078C600200050015040E2002073B500240D
:103630004FF0FF304FF0FF31164D174BC5F80845DE
:10364000C3E902014FF4803302264FF40012C5F89B
:103650000433124B0121C5F804631520C3F88021FF
:103660002246FEF7CFFB1520FEF7AEFB01230C4AE6
:10367000204613600B4A2B6013600B4B0B4A0093E0
:1036800001940023FFF732FF3046FFF721FA20466E
:1036900002B070BD0050015078C6002000E100E08B
:1036A0000850015044E20020A1330000FFFF7F00DA
:1036B000334B2DE97343D3F804339A0709D5314BC3
:1036C0001A6832B100221A602F4A1B68136801334E
:1036D00013604FF02003EFF3118283F31288BFF3DE
:1036E0006F8F274BD3F80433DB030DD5274BD3E87B
:1036F000EF1F21F00100C3E8E40F002CF7D1244BA9
:10370000002935D1196899BB002382F31188BFF3D2
:103710006F8F53B3FFF7C8FE04464FF02003EFF35B
:10372000118083F31288BFF36F8F1A4B0022D3E905
:103730000289494508BF44451FD3D3E900164FF01D
:10374000FF344FF0FF351A604FF48032C3E9024571
:103750000B4BC3F8482380F31188BFF36F8F21B15F
:1037600042464B4600200096884702B0BDE8708371
:10377000002119601B680123C7E71146EBE700BF72
:10378000005001500451015048E2002040E2002066
:103790004051015078C60020144B13B5B0F1FF3FE3
:1037A00008BF1846441E002C1DDD9C42A8BF1C46C5
:1037B000FFF77AFE0E4B0F49D3E90023801AB0F5CC
:1037C000000F28BF002401300444084800918442BF
:1037D00028BF044600201219019043F10003FFF7AF
:1037E00085FE02B010BD0024E2E700BFFFFF7F00AE
:1037F00088C60020A133000008B5FFF755FE024B34
:103800001B68C01A08BD00BF88C6002040EA01033B
:10381000C3F30E0330B58BB940F21515094CC90B33
:10382000C0F3C730994201D1002030BDC218D2B2D6
:1038300002F5C07244F822500133F3E76FF015002F
:10384000F3E700BF003000500348452108B503F0FE
:10385000C2FE0020FEF71AFED7910000816808B56D
:10386000044A1023103903F0E0FE003818BF01208D
:1038700008BD00BFF084000030B50C46816887B0F9
:10388000102302AA1039054603F0B3FE002811DB0D
:103890001022284602A904F04CF968B103232370D2
:1038A000A968012328460DF10702283903F0A1FE7B
:1038B00000280BDA01202AE01022164902A803F0A2
:1038C0007FFF002814BF02230123E8E79DF807309B
:1038D000284603F00F021B096270237101220DF1CB
:1038E000070104F026F910B96378042B03D90123EA
:1038F000637000232371AA682846203AA11C04F0B3
:1039000040F90028D6D12846E11C04F095F907B00B
:1039100030BD00BFF08400002DE9F04385B00546BE
:103920006946032004F08CF9044618B1FF2005B065
:10393000BDE8F083072002A904F082F9012838D1FC
:103940002A464921284803F046FE284B8DF80C40B2
:10395000029300229DF800509DF808609DF80370C6
:103960009DF80B809DF80290214C2946207804F0A8
:10397000F4F818B33146607804F0EFF8F0B1A378AA
:10398000042B01D0BB4219D1E378042B01D043456D
:1039900014D12379042B0FD16379022B19D1154A45
:1039A0001548492103F017FE6079831E022BBED90A
:1039B000BCE70028CDD0B9E74B45EDD00132032A52
:1039C00004F10604D1D10D48492103F004FE012081
:1039D000ADE7032B05D00A4A0A49042B18BF0A4653
:1039E000DEE7094ADCE700BF1C9200000301030385
:1039F0008F92000000920000679200007A9200000F
:103A0000F99100000A92000005920000064A074B57
:103A10001B681068BFF34F8F092B03D1431E584218
:103A200058417047002070473401FF003001FF000B
:103A300008B55A4A5A4B1B681268BFF34F8F092BBF
:103A400001BF4FF050230022C3F81421C3F81821FE
:103A5000FFF7DCFF30B10123524A1360A2F638228F
:103A6000C2F878354E4B1A6804331B68BFF34F8F8A
:103A7000092A05D1012B1EBF01224B4BC3F8782523
:103A8000FFF7C4FF10B10E22484B1A60444B434A63
:103A90001B681268BFF34F8F092B04D10022444BDF
:103AA0001A6001225A600022D30003F57F03D3F885
:103AB0000013BFF34F8F013108D0D3F80013013248
:103AC000D3F80433B2F5807F0B60EDD1394BDB695D
:103AD000BFF34F8FD90745D5374B1946D3F800248C
:103AE000012AFBD1C3F80425D1F80034012BFBD106
:103AF000304BDA69BFF34F8FD2070AD5DA6922F06B
:103B00000102DA61BFF34F8F2B4AD2F80034012B48
:103B1000FBD12A4B1B68BFF34F8F01330DD1254AD0
:103B2000136A23F0FF0343F020031362BFF34F8FA8
:103B3000214AD2F80034012BFBD100221E4BC3F8DE
:103B40000425D3F80024012AFBD1BFF34F8F1C4971
:103B50001C4BCA6802F4E0621343CB60BFF34F8F83
:103B600000BFFDE7154B1B68BFF34F8F0133B3D088
:103B7000134BD3F88C2042F44062C3F88C20D3F866
:103B8000882042F47002C3F88820BFF34F8FBFF340
:103B90006F8F0D4B0D4A1A6008BD00BF3401FF0046
:103BA0003001FF00384A005000400050E4AE03509E
:103BB0000C4700500080FF00009003502080FF0061
:103BC00000ED00E00400FA0544C500200090D00399
:103BD00070B501250368B3FA83F2202AC2F11F04ED
:103BE00010D005FA04F223EA0202D0E8EF6F9E42F9
:103BF00004D1C0E8EC2FBCF1000FF6D1EAD10248A5
:103C00000C7070BD0148FCE70000AD0B0200AD0B6D
:103C1000036810B5CB40DB0711D4012303FA01F18F
:103C2000036841EA0302D0E8EF4F9C4204D1C0E8A8
:103C3000EC2FBCF1000FF6D1F2D1024810BD0248C2
:103C4000FCE700BF0000AD0B0400AD0B044B1A797C
:103C500022B9012218601A71024870470248704761
:103C60004CE200200000AD0B0C00AD0B10B10128A0
:103C700020D070474FF05022D2F81834D2F81814E0
:103C8000C90311D503F00303022B0DD1C2F8183577
:103C900000220D4B1A601B6802224FF05023C3F81C
:103CA000042301229A6070474FF050230122C3F889
:103CB0001825EDE70022054B1A601B684FF05023D2
:103CC000C3F80403186070470451005000510050BD
:103CD00038B510B1012818D038BD4FF0502302225A
:103CE000012142F210751C46C3F80823154A1060E2
:103CF0001268154A1160D4F81834DB03ECD50120A2
:103D000003F0C2FF013DF6D1E6E74FF05024002258
:103D100042F210750D4BC4F808031A601B680C4B77
:103D20001860D4F80C34D4F80C2403F00103D20347
:103D3000D2D5002BD0D0012003F0A6FF013DF0D159
:103D4000CAE700BF045100500C5000500051005011
:103D500004500050164B10B51A6852B1002018607C
:103D60001B6801224FF05023C3F80823114B1B6836
:103D70009847114B1A688AB100221A601B684FF0ED
:103D80005023D3F81824D3F8181402F00302012AA0
:103D90004FF0020103D1C3F818159A6010BDC3F8A3
:103DA0000813044B0120BDE810401B68184700BFF2
:103DB000005100504CE200200451005001460148DF
:103DC000FFF706BF48C5002070B50D4C00F1080391
:103DD00034F813300546DA050E4607D5C3F34323FE
:103DE00004EBC302526854F833309847A3682BB1F0
:103DF00031462846E268BDE87040184770BD00BFF4
:103E00004CC50020134B083033F8102010B4D105F6
:103E10001CD5C2F3432122F4F85223F810200020CD
:103E200003F1100434F8022B12F4807F03D0C2F3A4
:103E3000432291420AD001302028F3D100220648C3
:103E40005DF8044B43F83120FFF7E2BE5DF8044B08
:103E5000704700BF4CC50020A0C5002038B50C4CF1
:103E600000F1080534F815309A060AD500225B0BDC
:103E70009B0003F1A04303F55043C3F81025C3F89A
:103E80001025FFF7BFFF002324F8153038BD00BF11
:103E90004CC50020064A00F01F0002EB8000D0F85D
:103EA000003223F4403343EA0141C0F80012704766
:103EB00000258450F7B50446F9B14C4F00F1080CC9
:103EC00037F81C0000F02205222D02D1484803B02B
:103ED000F0BD484D04F01F0605EB8606D6F80052EB
:103EE000097825F00F0520F0020045EA810140F035
:103EF0000100C6F8001227F81C0092B13B4804F1FB
:103F0000080630F8161015788F0752680CD5002A6D
:103F1000DCD130F8162022F01C0242EA850520F898
:103F20001650D3BB3448D2E721F02001C904C90C94
:103F300020F81610002AECD0032DC7D892F800C044
:103F40006246920002F1A04202F5504225B9C2F841
:103F50001055C2F81055DCE7D2F810754FEA042E60
:103F600027F00307C2F81075D2F810750EF4F85E4A
:103F700027F4473727F44077C2F81075D2F8107548
:103F800041EA4C3147EA054747EA0E0741F0200174
:103F9000C2F8107520F81610BBE72046D3E9006779
:103FA000FFF730FF002EBDD0104D2B689E4204D18C
:103FB0006B689F4201D1002209E010480DF1070112
:103FC000FFF706FE0C4B984281D19DF8072005EBC8
:103FD000C20308345F6035F8143045F8326043EAB4
:103FE000422343F4807325F814309BE74CC500202E
:103FF0000400AD0B002584500000AD0BA0C50020CF
:104000002DE9F043002944D0434E00F1080C36F866
:104010001C50AB0704D4AF0602D54048BDE8F0837E
:1040200015F01C0F02D04B78012BF6D03C4B11F150
:10403000010E00F01F0714BF0224002403EB8707C2
:104040008B1C14BF4FF00C094FF0000944EA09041F
:10405000D7F8008244F4E06444F0010428EA04083C
:10406000BEF1000F03D091F801E04FEA4E0E0BB104
:104070008C78A300097845F0030543EA012343EA5D
:10408000080343EA0E0343F00103C7F8003226F8A1
:104090001C500AB92348C1E71F4D00F1080635F846
:1040A0001640A307B9D50023177824F02004B900DF
:1040B00001F1A041E40401F55041E40CC1F81035D0
:1040C00025F81640C1F8103592F801C0BCF1000F78
:1040D000E0D0D1F81035927823F4981323F4F853F4
:1040E000C1F81035D1F810E5030203F4F8534FEA94
:1040F0000C4043EA0E0300F440301205034302F47F
:10410000801244EA4734134344F02004C1F81035C8
:1041100025F81640BEE700BF4CC500200400AD0BDB
:10412000002584500000AD0B014BC3E9020170472C
:104130004CC50020054B083033F810309A0643BFB9
:104140005B0B03480B700348704700BF4CC5002051
:104150000000AD0B0400AD0B38B50E4C94F8585070
:10416000B5B94022294604F1100003F044FB0D20AC
:10417000FDF72AFE4FF00042074B08481D601B6800
:10418000074BC3F80423012384F85830636538BD16
:104190000448FCE74CC500207CD100500000AD0B6A
:1041A00000D000500500AD0B034B93F858000038C9
:1041B00018BF0120704700BF4CC5002001460148D0
:1041C000FFF726BD9CC5002001460148FFF700BD52
:1041D0009CC500201E4B00F1080233F8123010B4C9
:1041E0009A061ED513F002041BD15B0B9A0002F154
:1041F000A04000F5514002F1A042046002F5504297
:104200000068D2F8100540F00100C2F8100529B18D
:10421000012202FA03F30F4AC2F804335DF8044B9B
:104220007047C3F38203042B0DD0052B0DD00A4B2E
:10423000196900F01F03D94001F0010102315DF856
:10424000044BFFF727BE0321F9E70221F7E700BF80
:104250004CC5002000D00050002584500E4B00F1CA
:10426000080233F81230990613D59A0711D40122A7
:104270005B0B9A4009499B0003F1A043C1F8082356
:1042800003F55043D3F8102522F00302C3F810259C
:1042900070470021FFF7FEBD4CC5002000D0005044
:1042A0000C4B00F1080213F8123010B5DB0704467E
:1042B0000DD5FFF7D3FF2046FFF7D0FD0222064BB6
:1042C00004F01F048034054843F8242010BD04483E
:1042D000FCE700BF4CC50020002584500000AD0B5A
:1042E0000400AD0B2DE9F04F0026012234464B4B64
:1042F0004B484C4985B01D6835B1D0F80453154280
:104300001EBF1C601D68164304338B424FEA4202F5
:10431000F1D1454F3B6883B1444D0DF10C082B6A38
:1043200003932B624FF00109039840B938603B6852
:104330002B6A03932B62002BF4D1012469E090FADD
:10434000A0FABAFA8AFA3A4A0AF1080332F81310C4
:104350004FEADA0C0AF0070309FA03F418F80C30F4
:10436000C1F3820223EA040308F80C3005EB8A0348
:10437000D3F80042C8069346C4F3014418D5114649
:1043800050460193FFF720FD019BE4B2D3F80032C1
:10439000C3F301439C4207D100215046FFF77AFD49
:1043A00021465046FFF776FD09FA0AF02862BBE77E
:1043B000022C0CBF0321022150460192FFF76AFD37
:1043C000019A032A04D0022C07D1BBF1010FEBD1D3
:1043D00059465046FFF7F8FCE6E7032CE4D1BBF161
:1043E000020FF4E796FAA6F3B3FA83F304FA03F2A2
:1043F0009B0003F1A04303F55043D3F81005D3F815
:104400001015C0F30420C1F3014126EA0206FFF7AC
:10441000DBFC002EE6D105B0BDE8F08F00D10050E6
:1044200000D0005020D100507CD100500025845095
:104430004CC500200022034BC3F88425C3F8042593
:10444000704700BF0090035008B5C0F30B0383B959
:104450000222094BC3F88425C3F804254FF0FF322C
:104460000260D3F80024D207FBD5FFF7E3FF03482F
:1044700008BD0348FCE700BF009003500000AD0BEF
:104480000A00AD0B0122074BC3F88425C3F80425AD
:10449000D3F80824D207FBD50160BFF35F8FFFF785
:1044A000C9BF00BF00900350032310B5134C144A3A
:1044B00023616361134BA261E3614FF48063236264
:1044C0000023A3626362E36222660F4A0F496266B9
:1044D0001022E01DA2662367E366636703F053F9C9
:1044E000BFF35F8F0A49204603F04DF9BFF35F8F9A
:1044F0002023A371BFF35F8F10BD00BF54E20020E3
:10450000A19200005EE400204EE40020AA92000088
:10451000AE9200000E4B70B553F82040013053F8B6
:104520002060A64200D870BDD4E9003528469847DF
:1045300065B1EB6830B10028B8BF4042FF28A8BF82
:10454000FF2018705A7842F001025A700834E8E7E8
:104550000085000070B5054610B90024204670BDE6
:104560000378002BF9D00F4A0F4C1646944208D11D
:104570000D4CB442F1D0204603F0A4FB50B91834DE
:10458000F7E7204603F09EFB10B12368AB42E5D06D
:104590001834EBE72846216803F006F90028EED12D
:1045A000DCE700BF9080000030800000F7B50546D2
:1045B0000E464FF02003EFF3118783F31288BFF309
:1045C0006F8F00F0F1FD0022042D98BF184B0446B8
:1045D00094BF53F82530174B009245212A461648C0
:1045E00002F0F9FF3EB1F369C3F308031BB14521A3
:1045F000124802F0F0FF2CB1204603F0B7FB08B1DF
:10460000037803B90E480346224645210D4802F0BF
:10461000E2FF31462846FFF717F987F31188BFF309
:104620006F8F204603B0BDE8F040FDF777BF00BFB5
:1046300018850000B5920000CB920000F8920000AF
:10464000C39200001E93000010B5C0240F4B01223E
:1046500004FB0034002386B0CDE904230F2201932C
:10466000CDE9023218230A4A0A4903FB00234FF41A
:10467000A072009302FB0011074B204600F0F4F8F3
:10468000637B23F00403637306B010BD90C6002063
:10469000FCE2002020120120717D0000012208B5FB
:1046A000094B02201A70FFF735FF03F062FC03206C
:1046B000FFF730FF00F008F9FBF7BEFE034A137B5B
:1046C00023F00103137308BD5EE8002050C70020EB
:1046D0000248034A0021121A03F08DB870C6002068
:1046E0001CEA002080B52F4BB8B003F5006787F3B4
:1046F000088883F30A880024E0232B4D2B4E85F88D
:104700002230EC772C766C76AC7685F820406B6A9C
:1047100043F4E0236B6285F82340FDF765FEFDF767
:10472000CFFA4FF0FF33AB62EB62FEF78BF8FDF789
:1047300007FF40F20113ADF82C3008ABB360CDE9B0
:10474000214403F0BEFA2046FFF7E4FE0120FFF704
:10475000E1FE00F075FC164A164D05920122164B3B
:104760001649CDE9034228464FF42052CDE90144D1
:104770000094B56100F078F86A7B079022F004029B
:104780006A73284603F045FB2046FFF75DFF0C4A9D
:10479000094BF26028461A46079934757760FDF791
:1047A0000DFC00BF6013012000ED00E0FCE20020E2
:1047B0008593000050C700209D46000020EA00209D
:1047C00090C6002070B50E4B0E4CA34201D30020C2
:1047D00070BDD3E9030141EA000212F003020BD1DC
:1047E0009D685A61AA4201D11C33EEE75E6901322D
:1047F0000E6059610144F5E76FF01500E8E700BF6E
:1048000020C6002020C60020D3B50C4616461F4601
:104810004FF02003EFF3118183F31288BFF36F8F02
:1048200043695BB123601B68436183690133836122
:10483000002081F31188BFF36F8F11E056EA070261
:1048400003D16FF00B002360F3E70246CDE9006768
:10485000083000F047FB18B9024B9B685B69236086
:1048600002B0D0BDFCE200202DE9FF410E9E00F118
:10487000580506730426C0E916550025044607327C
:1048800022F00702C0E91912467301EB02080D9EDF
:104890000C9AC0E9065585608673C573C566029299
:1048A0000B9A01920A9A00924246FDF767FB054B6C
:1048B00065659B6803B11B6F4046236704B0BDE884
:1048C000F08100BFFCE200202DE9F0472A4E2B4D7D
:1048D000B04686B0B54205F1300410D300F0BAF905
:1048E0004FF4004940F2E7360027244CDFF890A04F
:1048F000444521D306B0BDE8F04700F085BB54F82D
:10490000043C059354F8103C049354F8143C03936E
:1049100054F8183C029354F81C3C019354F8203C82
:10492000009354E90A2354E90C01FFF79DFF54F862
:10493000303C5D652546CDE7636A5A1C0DD0304694
:10494000394623EAE373C9FB0301B94208BFB04209
:10495000256804D1284600F069FA3034C8E74FF4DE
:104960007A720023FBF7EEFB02460B4605F11800B6
:10497000514600F0DBFCF0E720C6002020C60020F6
:10498000337E00002DE9F341044616461F464FF0E2
:104990002003EFF3118883F31288BFF36F8FC3688E
:1049A000354A6BB180689168884219D056EA07038E
:1049B00018D188F31188BFF36F8F6FF00F000CE0F0
:1049C000916891F90E100133E36093682161A3604F
:1049D00088F31188BFF36F8F002002B0BDE8F0812B
:1049E0002169F0E791F90E1090F90E306FF07E0218
:1049F0009942A8BF19469142B8BF11468B422FDD9C
:104A000000F084FA054622464146CDE900671B487E
:104A100000F068FA0028E0D04FF02003EFF3118691
:104A200083F31288BFF36F8F236821699C420AD0F9
:104A30004BB193F90E309942A8BF19466FF07E032F
:104A40009942B8BF1946A06890F90E30994209D131
:104A50006DB13146094800F0EBF86FF00A00BCE791
:104A60000025D0E700F052FA0028F2D1F0E786F3F3
:104A70001188BFF36F8FF0E7FCE200205FE80020B1
:104A800038B583680446002B36D01E4A926893429C
:104A900035D1DA7B013ADA73C368012B05D9013BC2
:104AA000C36000F0B1FA002038BD4FF02003EFF3EF
:104AB000118583F31288BFF36F8F0169806890F9C5
:104AC0000E30994201D000F021FA204603F000FA9E
:104AD000A06058B190F90E2022610022826703F095
:104AE00098F92946084800F0A3F8DAE7E06085F372
:104AF0001188BFF36F8FD4E76FF01500D4E74FF044
:104B0000FF30D1E7FCE200205FE8002038B5044622
:104B10004FF02003EFF3118583F31288BFF36F8FFB
:104B200003F0D6F948B10022826703F072F92946F2
:104B3000BDE83840044800F07BB8D4E902329A421C
:104B400018BF0133A360F2E75FE8002037B51446D1
:104B50001D464FF02003EFF3118183F31288BFF35A
:104B60006F8F836843B1013B836081F31188BFF38A
:104B70006F8F002003B030BD54EA050306D181F3E6
:104B80001188BFF36F8F6FF00F00F3E70246CDE996
:104B90000045024800F0A6F9ECE700BF5FE80020FE
:104BA00010B5084C23685BB1FEF726FE2268064963
:104BB00010440861BDE810400021104603F0B6B96A
:104BC00010BD00BF2CE30020FCE20020F8B5044635
:104BD0000D464FF02003EFF3118683F31288BFF3E5
:104BE0006F8F00224FF4004740F2E73000210D4B59
:104BF000E7FB04011A6100234FF47A72FBF7A2FA73
:104C0000002C094B09DC1860084B1D60FFF7C8FF3A
:104C100086F31188BFF36F8FF8BD0228B8BF02205A
:104C2000F1E700BFFCE200202CE3002028E3002095
:104C300049B9EFF3058030B9054B9A699B689A42F0
:104C400001D0FDF727B981F31188BFF36F8F70474B
:104C5000FCE200204FF02003EFF3118183F3128870
:104C6000BFF36F8F044B9A68D37B013BD37381F3FF
:104C70001188BFF36F8F7047FCE2002038B5024601
:104C80000C4803F0BCF80C4D044600B9EC68AB6866
:104C90004AB95A7BD20606D1A26922B9DA897F2A9B
:104CA00001D9AB6138BD9C4201D0FFF779FFAC61FF
:104CB000F8E700BF18E30020FCE2002070B590F98F
:104CC0000D200146002A437B04DA03F07F0343737F
:104CD00003F06DF8174A4B7B104663F07F034B736C
:104CE00050F81C3F156A834208BF0023002B38BFD1
:104CF0000023CBB191F90E6093F90E40A6420FD07C
:104D0000A41B002C0CDD5868C1E90030016059601B
:104D10009068BDE87040431A58425841FFF7AEBF53
:104D2000AB4201D01B68E4E7C1E9000529601162CC
:104D3000EEE700BFFCE20020014670B54FF0200313
:104D4000EFF3118483F31288BFF36F8F164B174A6A
:104D500098681568A8421D4606D1FFF721FF84F325
:104D60001188BFF36F8F70BD00261660104A12685D
:104D7000BAB1C2897F2A14D8427BD20611D10D4A1A
:104D800090F90E60126896420BDB0B4A904208D0F5
:104D90001A698A4202DCFFF791FFDEE7521A1A61B4
:104DA000DDE700232B61DAE7FCE2002024E30020AA
:104DB0002CE3002028E3002090C6002070B490F976
:104DC0000D30427B002B2DDBD3062BD183694BBBEF
:104DD000154962F07F0242730A4652F81C4F0D6A71
:104DE000944218BF2346002B38BF0023ABB190F983
:104DF0000E6093F90E40A6420BD0A41B002C08DDD8
:104E00005A68C0E9003210605860002070BCFFF79B
:104E100035BFAB4201D01B68E8E7C0E90025286038
:104E20000862F2E770BC7047FCE2002010B54FF05A
:104E30002002EFF3118482F31288BFF36F8F427B5D
:104E4000510704D484F31188BFF36F8F10BD22F093
:104E500004024273FFF7B2FF2146BDE8104001484B
:104E6000FFF7E6BE5FE8002008B590F90D20014687
:104E7000002A437B04DA03F07F03437302F097FFB9
:104E8000044B9868431A58425841BDE80840FFF760
:104E9000F5BE00BFFCE200202DE9F04106461446B5
:104EA0001D464FF02003EFF3118783F31288BFF301
:104EB0006F8F02F0E0FF87F31188BFF36F8F6B1CD9
:104EC00008BFB4F1FF3F08D022462B4606F1180078
:104ED0000349BDE8F04100F029BABDE8F08100BF08
:104EE000337E000010B50C46064B11469868064B01
:104EF0001860DDE90223FFF7CFFF2046BDE8104030
:104F0000FCF7C8BFFCE2002024E30020F8B504460B
:104F10004FF02003EFF3118683F31288BFF36F8FF6
:104F2000437B49B2DA0638D18569002D35D103F0CB
:104F30007F03437302F03BFF437B817363F07F0386
:104F400043731748034653F81C7F9F4218BF3D46E2
:104F5000002D1A462B4638BF0023076AC3B193F9C8
:104F60000E50A94210D06D1A002D0DDD5A68C4E90B
:104F7000003214605C600120FFF780FE012086F3A0
:104F80001188BFF36F8FF8BDBB4201D01B68E5E706
:104F9000C4E900273C600462EDE70020A173EEE75E
:104FA000FCE2002070B50446183002F0A9FF4FF073
:104FB0002003EFF3118683F31288BFF36F8F94F908
:104FC0000D20637B002A05DA03F07F03204663731C
:104FD00002F0EDFE0B4D637BA86843F01003637392
:104FE000031B58425841FFF749FE86F31188BFF36F
:104FF0006F8FAB68A34203D1BDE8704002F0F5BEED
:1050000070BD00BFFCE2002010B54FF02003EFF3AD
:10501000118483F31288BFF36F8F084B00209A68C6
:10502000D37B0133D373FFF729FE84F31188BFF3D9
:105030006F8FBDE8104002F0D8BE00BFFCE2002038
:105040000021044B084603F11C02C3E90722FFF7C5
:10505000BDBD00BFFCE20020F8B54FF02003EFF328
:10506000118483F31288BFF36F8F1B498868437BD9
:1050700003F07F03437302F09AFE08468A68537B6D
:1050800063F07F03537350F81C3F0E6A834208BFDE
:105090000023002B38BF0023CBB192F90E7093F997
:1050A0000E50AF420FD0ED1B002D0CDD5968C2E948
:1050B00000310A605A600120FFF7E0FD2046BDE89C
:1050C000F840FCF7E7BEB34201D01B68E4E7C2E951
:1050D000000632600A62EEE7FCE200202DE9F041B2
:1050E00004460D4654EA050104D1FFF7B5FF002040
:1050F000BDE8F0816FF001010A1A4FF0FF3161EB5A
:105100000503012A73F100032ADA02F02AFF0619C7
:105110004FF02003EFF3118883F31288BFF36F8FF2
:10512000114F124BB8681860FFF79EFEB86810491F
:1051300022462B46183000F0F9F8BA684046537BF7
:1051400043F010035373FCF7A5FE02F00AFF301A78
:1051500066EB0601012871F10003B8BF0020C7E724
:105160006FF00106361AD3E7FCE2002024E30020AA
:10517000337E000008B50B46013308BFB0F1FF3F96
:1051800006D1084B9868FFF70DFF4FF0FF3008BDC0
:10519000FFF7A4FF4FF47A7380FB0301C30B43EACC
:1051A0004140F4E7FCE20020014B9868704700BFE3
:1051B000FCE200202DE9F04104464FF02003EFF31C
:1051C000118683F31288BFF36F8F437B1A0705D5CF
:1051D00086F31188BFF36F8FBDE8F08123F02002C2
:1051E00042F00801D20920D14173A36813B12046CF
:1051F00002F0E5FD04F1180002F082FE4FF0000815
:1052000004F15807A56DBD4200D0B5B90120FFF7E4
:1052100035FD104B9B68A342DAD1EFF30583002BD9
:10522000D6D13046FCF736FED2E703F05F0343F0F9
:105230000803437302F0BBFDD7E7284602F0BFFD29
:1052400005F1180002F05CFE2846C5F87880FFF7EB
:10525000B5FDD7E7FCE2002008B50648064A074935
:10526000121A02F0BDFABDE80840054A0549064891
:1052700002F0B6BA00C5002070C60020A893000056
:10528000000000009093000000C50020034B1B6845
:105290000BB9FEF7B1BA0020704700BF30E3002021
:1052A00030B5036868B10A4A5268904209D043B1E8
:1052B000D3E90421D0E90445121945EB0101C3E902
:1052C0000421426813605A600023C0E9003330BDF6
:1052D000A8C50020134B10B51C689C4208BF0024D1
:1052E000FFF7D4FFCCB1D4E90423121A63EBE073C7
:1052F000012A73F1000113DB10466FF000421946DA
:105300000023824273EB010400DA1046064B1B694E
:1053100013B19842A8BF184610BD6FF00040F5E7E2
:105320000020F3E7A8C50020FCE20020B3F1FF3F16
:1053300008BFB2F1FF3F2DE9F74F044692469B4666
:1053400073D081604FF02003EFF3118583F312884F
:10535000BFF36F8F6FF001034FF0FF32B3EB0A081A
:1053600062EB0B09B8F1000F79F100011CDB30484A
:10537000D0E900105B1A62EB0002B3EB0A0662EBA5
:105380000B07012E77F10003BCBF01260027C4E9FB
:105390000467284AD2E9003C93421ED1C4E9002C9C
:1053A000CCF8004054602DE0FFF770FF1AF10103C4
:1053B00000934BF100030193DDE90023121843EB46
:1053C000E073C4E90423E4E7B6EB080067EB0901E6
:1053D0006345C4E90401E1D01B68002BDED0D3E9AA
:1053E0000489D4E90467464577EB0901ECDAB8EBA8
:1053F000060069EB0701C3E904015968C4E90031FB
:105400000C605C60136893420BD09C4209D1FFF79B
:1054100061FF18B1084B1B69834202D00021FEF7DF
:10542000BBF985F31188BFF36F8F03B0BDE8F08F30
:1054300010C80020A8C50020FCE200202DE9F74F8D
:105440000646FFF779FC4FF02003EFF3118483F356
:105450001288BFF36F8FDFF8B0A02A4D5146DFF8F6
:10546000ACB02E60D5F800C0DBF800006246DAE987
:105470000089D3175845CDE900230DD060B1D0E99C
:105480000467B445BB411DDA009BB6EB030C019BDE
:1054900067EB0306C0E904C60026009B2E6013EBF1
:1054A0000802019B43EB0903C1E90023FFF712FF48
:1054B0003146FEF771F984F31188BFF36F8F03B0A3
:1054C000BDE8F08F0022002318EB060849EBE679CF
:1054D000C0E90423ACEB0606CAE900892E60FFF799
:1054E000DFFE84F31188BFF36F8F836898474FF016
:1054F0002003EFF3118483F31288BFF36F8F024907
:10550000B0E700BF30E3002010C80020A8C500208D
:1055100010B54FF02003EFF3118483F31288BFF32B
:105520006F8FFEF769F9064BD3E90023121843F198
:10553000000384F31188BFF36F8F1046194610BD26
:1055400010C8002010B50A4C23681BB101230020AD
:10555000236010BD00F0DAF80028F7D001380628E3
:1055600003D8044B53F8200010BD034810BD00BF02
:1055700034E300202C850000FE8FFFFFBFF34F8F28
:105580000549064BCA6802F4E0621343CB60BFF3DF
:105590004F8F00BFFDE700BF00ED00E00400FA05FB
:1055A0004FF0FE33002130B4064A074D074C2B6004
:1055B00013602360064A074CEB606368C2F800156D
:1055C00030BC1847041484500014845008148450CC
:1055D00000008450B0C50020024BD0E90012C3E99E
:1055E00000127047B0C5002010B5044630B16368A2
:1055F000DB0602D500232360636010BD024B034825
:105600005B689847F3E700BFB0C5002048850000FD
:1056100068B143683BB1DB0607D5BFF35F8F00235A
:1056200003601846704703487047034870476FF49B
:10563000E0407047EA8FFFFFE98FFFFF10B5044697
:1056400020B1002211232260636010BD0148FFF7E2
:10565000A7FFF6E770850000A0B1436883B1DB06C1
:105660000CD50122D0E8EF3FC0E8E12F0029F9D1A5
:10567000012BF7D0BFF35F8F0020704703487047BE
:10568000034870476FF4E040704700BFE98FFFFFA9
:10569000EA8FFFFF2DE9F041144C0268C368D0E99E
:1056A0000156C4E90263C4E90025114B0E6848683D
:1056B000104DC3E90060D1E902760869D5F81411EC
:1056C000C3E902761861CB060DD5002305F5887075
:1056D000C5E94433C5E96D339047236805F5DA70B1
:1056E000BDE8F0411847BDE8F08100BFC0C500200B
:1056F000D0C5002060E8002038B131B1002201445B
:105700000346013088421A70FAD1704710B500F094
:1057100033F820B1032400F067F8204610BD00F0F4
:1057200035F890B900F0B0F890B90F4B1B681B0E1C
:10573000F02B08D10D4A0E4B12689A420AD007246A
:1057400000F01CF8E7E70624FAE70424204610BD21
:105750000024F5E7012000F097F804460028F7D16F
:10576000044B1860D9E700BF28198450241A8450CC
:105770000000E0200C1A8450002070470020704781
:10578000014B1860704700BF041A845010B51148CF
:1057900000F048F800B110BD0F4800F043F80028B1
:1057A000F9D10E4C204600F03DF80028F3D10C4B07
:1057B0000C481C6000F036F801460028EBD100F0E0
:1057C0002DF8044608B1204610BD00F03FF82046F1
:1057D000FAE700BF08C60020FCC5002004C6002070
:1057E0000CC6002000C6002008B5084800F024F8C8
:1057F000074800F021F8074800F01EF8064800F0BE
:105800001BF8BDE8084000F00BB800BF08C6002038
:10581000FCC5002004C6002000C600200020704700
:10582000704700BF08B5034B02681B6810689847B3
:10583000002008BDC0C5002008B5034B02685B68A6
:1058400010689847002008BDC0C5002070B5094CFD
:10585000094D2069AB68984718B1084B08485B6848
:1058600098470021074AEB6811602069BDE8704045
:10587000184700BFD0C50020C0C50020B0C500201B
:105880009485000048E3002070B51A4D1A4E044676
:10589000B26828699047F0B95CB1184C2368ABB185
:1058A000012B1AD0013B23602869F3689847002038
:1058B00070BD124C216839B90120114B114AC3F84F
:1058C00000051368002BFCD101312160F3682869C1
:1058D0009847002070BD0C4870BD0A4A1368002B21
:1058E000FCD1074A6FF07E40C2F80035FFF748FF51
:1058F0002368D7E7D0C50020C0C5002048E30020BA
:105900000000845010198450E98FFFFF30B1026805
:10591000034B04489A4208BF002070470248704772
:10592000DD55AABB8208F0007108F00038B50D46BD
:105930000446B0B1A0220021043002F034FB95B13E
:105940000822294604F1640002F033FB082205F125
:10595000200104F1840002F02CFB0020034B2360A3
:1059600038BD0348FCE70348FAE700BFDD55AABB92
:105970007108F0008308F0002DE9F74305460E4654
:1059800099461146FFF7C2FF0446002840F0848084
:10599000002E00F08580002900F08480B9F1200FEE
:1059A00040F0828005F14404082205F104082046F5
:1059B00002F0FFFA05F1240708223146404602F0C2
:1059C000F8FA06F120010822384602F0F2FA02A99C
:1059D00041F8049D4FF4807002F0DFFA002865D191
:1059E0004FF48073324A0121136093600823314AD7
:1059F00000F034FB0121052308462F4A00F02EFB5E
:105A00000823424601211C2000F028FB08233A46C7
:105A10000121032000F022FB22460823012102205D
:105A200000F01CFB0823254A01211A2000F016FB78
:105A30000523234A01211B2000F010FB0823214AE3
:105A40000121142000F00AFB08231F4A0121152020
:105A500000F004FB082305F164020121162000F088
:105A6000FDFA082305F184020121172000F0F6FA5F
:105A70000823164A01210B2000F0F0FA00F04AFB3F
:105A80000446019800F0D8FA114B002C18BF1C46B0
:105A9000A421284602F089FA204603B0BDE8F0832D
:105AA0000C4CF9E70C4CF7E70C4CF5E7084CEFE72A
:105AB00090108450F48500006C860000B4850000CE
:105AC000588600001886000038860000D485000043
:105AD0008408F0007608F0008008F0008108F000EB
