:020000040000FA
:1000000028920120452400003972000019240000C4
:1000100019240000192400001924000019240000EC
:10002000000000000000000000000000751F00003C
:100030001924000000000000E11E0000F975000016
:1000400019200000192000001920000019200000CC
:1000500019200000192000001920000019200000BC
:1000600019200000192000001920000019200000AC
:10007000192000001920000019200000192000009C
:10008000192000001920000019200000192000008C
:10009000192000001920000019200000192000007C
:1000A000192000001920000019200000192000006C
:1000B000192000001920000019200000192000005C
:1000C000192000001920000019200000192000004C
:1000D000192000001920000019200000192000003C
:1000E000192000001920000019200000192000002C
:1000F000192000001920000019200000192000001C
:10010000192000001920000019200000192000000B
:1001100019200000192000001920000019200000FB
:1001200019200000192000001920000019200000EB
:1001300019200000192000001920000019200000DB
:100140001920000053B94AB9002908BF00281CBF74
:100150004FF0FF314FF0FF3000F06CB9ADF1080CFB
:100160006DE904CE00F006F8DDF804E0DDE90223D5
:1001700004B070472DE9F047089D04468846002BDF
:100180007DD18A4217463FD9B2FA82F242B1C2F11A
:1001900020009140974024FA00F0944040EA010882
:1001A0004FEA174C230C1FFA87FEB8FBFCF60CFB3A
:1001B000168106FB0EF043EA0143984205D9FB186D
:1001C00002D2984200F22481013E191AA3B2B1FB77
:1001D000FCF00CFB101100FB0EFE43EA0144A645A7
:1001E00005D93C1902D2A64500F20F81013840EA38
:1001F0000640A4EB0E0400261DB1D4400023C5E93F
:1002000000433146BDE8F08702B9FFDEB2FA82F260
:10021000002A50D1CB1B4FEA174E1FFA87F8012650
:10022000210CB3FBFEFC0EFB1C300B4608FB0CF94B
:1002300041EA004189450AD979182CBF01230023DE
:10024000894502D9002B00F0D9800CF1FF3CA1EBCD
:100250000901A3B2B1FBFEF00EFB101108FB00F880
:1002600043EA0144A04505D93C1902D2A04500F259
:10027000C9800138A4EB080440EA0C40BCE78B427B
:1002800009D9002D00F0B1800026C5E900013046F3
:100290003146BDE8F087B3FA83F6002E46D18B4293
:1002A000C0F0A680824240F2A3803046002DA8D044
:1002B000C5E90048A5E79740C2F1200301FA02F022
:1002C0004FEA174ED94024FA03F31FFA87F89440F7
:1002D0000343B1FBFEF01E0C0EFB101100FB08FCEB
:1002E00046EA01418C4509D979182CBF0126002620
:1002F0008C4502D9002E00F093800138A1EB0C014F
:100300009BB2B1FBFEF60EFB161106FB08FC43EA9E
:1003100001418C4505D9791802D28C4500F28780BD
:10032000013EA1EB0C0346EA004679E7C6F120073F
:1003300003FA06F402FA06FC01FA06FEFA4020FA75
:1003400007F8F94000FA06F3224348EA0E044FEAA0
:1003500012484FEA144E1FFA82F9B1FBF8FA08FB73
:100360001A110AFB09F04EEA014E70450AD912EB48
:100370000E0E2CBF01210021704501D9002952D059
:100380000AF1FF3AAEEB000EA4B2BEFBF8F008FB98
:1003900010EE00FB09F944EA0E4EF14505D912EBC7
:1003A0000E0E01D2F14538D8013840EA0A40AEEBD2
:1003B000090EA0FB0C89CE4541464C4602D306D11E
:1003C000434504D20138B8EB0C0169EB020415B3C4
:1003D0005A1A6EEB040EF2400EFA07F72EFA06F3E5
:1003E00000261743C5E900730BE72E46284608E7A9
:1003F000841A61EB03010120884657E7ACF1020C37
:10040000394424E702383C4434E702383C44EEE601
:10041000023E3B44D9E62E46F3E602389644C4E752
:10042000023839446AE7AAF1020A9644AAE7023E72
:10043000394476E7704700BF7FB5314B314A3248C7
:10044000C3F800264921C3F80426C3F80826C3F8D8
:100450000C26C3F81026C3F81426C3F81826C3F8D0
:100460001C2606F024FE06F0D1F9284800F05EF8BC
:1004700028B94521254A264806F019FEFEE701A8BD
:1004800000F076FC234B1B68834204D045212248B0
:1004900006F00DFEFEE74921039A204806F007FE0C
:1004A00049211F4806F003FE4FF48031002003F07D
:1004B0003FFA20B145211B4806F0F9FDFEE76946E9
:1004C0009DF8080000F03EF8009B039C1C44019B33
:1004D0001D8907F092F8661900F032FF4FF02002F4
:1004E000EFF3118382F31288BFF36F8F635983F3A5
:1004F00008887368984745210B4806F0D8FDFEE749
:10050000008001503546526E94810000AD8100009C
:10051000C0810000C4470120DF810000028200008A
:1005200031820000568200008982000010B5044C20
:10053000236813B903F088FD2060206810BD00BF58
:10054000C047012008B540B10246002304484521B8
:1005500006F0ADFD6FF0150008BD0860FCE700BFB8
:10056000AC8200002DE9F04FDFF81C92DDB015469B
:10057000DDE968481E46DDF898B1D9F8007000F052
:10058000ADFE01227E4B3CA8C3F8002505F06EF8B5
:10059000CDF814903CB1B8F1000F04DD424621467D
:1005A0003CA806F086FC4FF000096B89B5F808807E
:1005B0009844EB689844C8454ED80FA93CA805F06C
:1005C000C7F800226E4BC3F80025C3F800256A9BCC
:1005D00023B1202218460FA906F070FE00233246F0
:1005E000009329464FF6FF7309A806F010F9044658
:1005F000002844D14FF0FF35DFF890A1DFF880816B
:1006000003900DF11E0307AA08A909A806F04BF9EB
:10061000041E34DB40F0A480BDF81E90B9F1100F29
:1006200038D1BDF81C90B9F1200F40F0A3804B46A3
:10063000304608993CAA06F068FD0446F8B94A46D7
:100640003CA90FA806F0A6F904464E4B1B6883424E
:1006500015D101230393D4E7679AA8EB09039A42C3
:1006600028BF1A4649461346924630465A4606F077
:100670004CFD044638B10022414BC3F8002520460A
:100680005DB0BDE8F08F524659463CA806F011FC1B
:10069000D14490E7B9F1010F3FD1BDF81C30202BB8
:1006A00068D8304608993CAA06F02FFD0446002879
:1006B000E5D19DF81C50202D0AD8DAF80030DFF87B
:1006C000D0B00493049B9C4205DB0023C8F800359E
:1006D0004FF0FF341DE000F001FEC8F800951FA8A0
:1006E00004F0C4FFDBF804201FA812685BF8081BA5
:1006F00006F0DFFB17A91FA805F02AF800223CA985
:10070000C8F8002517A82A4606F0C8FD18B9C8F889
:100710000005254675E70134D4E7B9F1220F7FF4CF
:1007200070AF002D19DBDAF80030AB4215DDBDF8F3
:100730001C30802B1ED8304608993CAA06F0E5FCF8
:10074000044600289BD1EDB22021BDF81C30009555
:100750003CAA0FA800F01EF807464FF0FF3550E7FF
:10076000039B53B1074B1B68BB4201D0059B1F681D
:100770003C4684E74FF0FF3481E701247FE700BF68
:1007800000008450C447012000450120087E00007D
:100790000C7E00002DE9F04196B017461D469DF8ED
:1007A0007020354B0E4653F8321003EBC2035B68E2
:1007B0008046186801913023014402AA01A806F07E
:1007C00005FB10B14FF0FF3053E0DDE901431C445D
:1007D000214606AB03AA01A806F020FB0028F1D1B0
:1007E000049A072AEED12549059806F057FD0028FE
:1007F000E8D1079A082AE5D12149089806F04EFD6C
:100800000028DFD1214602AA01A806F0F3FA002849
:10081000D8D1DDE9013213449C42D3D1412AD1D150
:100820003D443023294603AA02A8029706F0CEFAD7
:100830000028C7D1DDE9023213449D42C2D32A46C3
:1008400002A906A806F07AF80028BBD12A4602A918
:100850000EA806F073F80028B4D1202EB2D1019969
:100860000B78042BAED13346404606AA013100F086
:100870004DFD16B0BDE8F0810C7E0000D282000074
:10088000DA8200002DE9F041032386B00D466F4661
:100890000026DFF86C80ADF8003017F8010B01A9D5
:1008A00001F01CF90446D8B901981023816802AA06
:1008B000103906F02AFC044628B1019806F024FC01
:1008C0000EE00126E9E71022414602A806F0E6FC08
:1008D00050B1019806F018FC002EF2D04FF0FF3412
:1008E000204606B0BDE8F081019806F0A3FE04237F
:1008F000A0F108012A46019806F007FC0446DCE74F
:10090000E47F00002DE9F041384B88B00646002016
:100910000D461C6805F071FF06A9C0B201F0DEF8B3
:10092000002857D1294605F068FF2C2407A9C0B23A
:1009300004FB056401F0D2F8002836D04FF02C08F3
:1009400008FB05F806EB0807396911F0100137D1EB
:100950004FF480730193264B224600930846CDE95D
:100960000311069B0291FFF7FDFD0446214B56F84B
:10097000082006989A420CD13A89FB68D1438B42F1
:1009800007D813448268934203D21B4B1B68A342CF
:100990001DD045B38268002106F001FC174A4521AD
:1009A000174806F084FB012411E0079806F02FFC9D
:1009B0000746079806F0A8FB631EE21C93420DD180
:1009C000002DF0D03046069906F0E1F82C46069846
:1009D00006F09AFB204608B0BDE8F08113F8011F2D
:1009E000B942EBD0AAE7074AD9E700BF004501208A
:1009F000586301203DB8F396C4470120E38200000C
:100A0000F5820000ED82000073B50D46002104461A
:100A10002846CDE9001106F079F830B3164E226869
:100A2000B24203D1204601AA05F0E4FFE36AB342D3
:100A300004D16A460121204605F0DCFFDDE90032E1
:100A4000934288BF0193019BAB60019A29462046DF
:100A500000F034FB094B1A68002A03DD57210848CF
:100A600006F025FB002002B070BD05F10801FFF77C
:100A700009FFAB680193E8E73DB8F396285C0120D5
:100A80001D8300002DE9F84F8A46904699460026BE
:100A9000DFF870B0194C1A4D0B9B9E4201D3002019
:100AA0000FE00B9B50469F1BB7F5806F28BF4FF49C
:100AB0008067144A3B4606EB090106F026FB10B19D
:100AC0000120BDE8F88F0A993B465A464046711806
:100AD00006F037FB0028F3D1C4F800563E44C4F8B2
:100AE0000456C4F80856C4F80C56C4F81056C4F896
:100AF0001456C4F81856C4F81C56CDE700800150AF
:100B00003546526E284801202DE9F043904B0446AB
:100B1000602285B00F4600211E6806F0DAFB002136
:100B20008C4B084663628C4B236505F066FE04F12E
:100B30002001C0B200F0D2FF0121002005F05DFECF
:100B400004F14C01C0B200F0C9FF0546204605F093
:100B5000B2FF804668B900222046114605F092FF98
:100B6000804608B3002257217C4806F0A0FA0123F2
:100B700092E04FF480725721794806F098FA0123E9
:100B8000984584F85830E6D194F85830042B8DF805
:100B9000073000F28480012B00F2888000F09F80F3
:100BA000FF2384F858309AE0204600F09DF9002891
:100BB000DDD0684605F0A1FF6946204606F03CF806
:100BC00018B1424657216748CFE7684605F09EFFB7
:100BD00080F001006A46C1B2204605F053FF02468C
:100BE0000028BFD1684605F091FF804660BB69468A
:100BF0002046FFF709FF9DF8073084F85830033B83
:100C0000012B06D8404606F065F810B1FF2384F8A2
:100C100058309DF80730023B022B0BD8002006F01D
:100C200047F838B1FF2384F8583045214E4806F084
:100C30003EFAFEE794F85830FF2BF6D06A460021C2
:100C4000204605F01FFF92E79DF80790B9F1010FCC
:100C500017D1104602F0F2FE831E022B80460DD8FB
:100C600049462046FFF74EFE404B1B68984205D090
:100C700001280CBF4FF001084FF0050884F8588098
:100C800082E701212046FFF73DFE384B1B68984262
:100C900014BF05239DF8073084F8583074E7052BFE
:100CA0007FF47EAF002006F015F813E06946204679
:100CB000FFF7AAFE94F858300546DA1E012A0CD830
:100CC000002006F007F8054600287FF469AF0020F1
:100CD00005F0EEFF054610B162E7022BF7D094F85D
:100CE0005830FF2B04D145211F4806F0E0F9FEE7FC
:100CF000012B06D06A460021204605F0C3FE0546BA
:100D0000C0B900212046FFF7FDFD0646DFF85C80F4
:100D1000D8F8003098420DD10025102200216846F5
:100D200006F0D7FA236AD8F800605A783A715B68FF
:100D30003C60BB60E06C06F0E7F9206A06F0E4F97D
:100D4000002D14BF2846304605B0BDE8F08300BF33
:100D500000450120284C0120285401208E830000EA
:100D60004C830000BA830000E4830000C4470120E4
:100D700008B501460148FFF7C7FE08BDC847012076
:100D800073B516461C4633B3436A5D686379012B1D
:100D900015D101BB1F4B22681B689A4298BF0025E2
:100DA000002005F02AFD01A9C0B200F097FEF0B1C5
:100DB0000125019806F0A8F9284602B070BD022B63
:100DC00009D12368012B08D9124A1268934202D82C
:100DD000B1FA81F149090025E2E7FCD10029DFD011
:100DE0000129F8D12179023918BF0121F3E72946F9
:100DF00020233246019806F088F905460028D7D10D
:100E0000002CD6D0356804482D1A18BF4FF0FF3596
:100E1000CFE700BF044501203DB8F3962DE9F04F20
:100E200007460C4685B001460020164605F0B9FD80
:100E3000051E52DB3846E46D05F0BDFD5FFA84F90E
:100E40004FF0000A4FF0010B4FF0FF3405F1FF386F
:100E500009FB08089DB9BAF1010F03DD45212148BE
:100E600006F025F9631C06D0FF2C2ADC40F20113A2
:100E700001343460B380284605B0BDE8F08F6B1EA6
:100E800000934146012338460DF10F0206F03DF96B
:100E9000031E019323DB012238460DF10F0106F0FA
:100EA000DAFB019B40B15B4501D00AF1010A9B4688
:100EB000009DA8EB0908CDE7B4F1FF3F08BF2C4621
:100EC000F5E70223A4F580747371631004F0010444
:100ED0000133013433603471CDE70725CBE70125B9
:100EE000C9E700BFF0830000816A426D38B58A42CD
:100EF00008D0531C8B4205D05721144806F0D7F870
:100F0000002038BDB1F5807F1CD957211048F5E786
:100F1000446A056D04EBC30405EBC30564686D68A2
:100F2000AC4202D057210B48E8E701339A42EFD197
:100F3000914205D9436A03EBC2025368A342F1D13F
:100F40000120DEE700231C46F0E700BF1384000009
:100F50004B8400007A84000000B589B0032004A906
:100F600006F0DCFB9DF81020012A41D0254B2649D4
:100F7000032A18BF0B469DF81320492102929DF8C1
:100F80001220224801929DF811200092204A06F07A
:100F90008EF8072006A906F0C1FB9DF81820012A4B
:100FA00028D0184B1849032A18BF0B469DF81B2060
:100FB000492102929DF81A20144801929DF81920A7
:100FC0000092144A06F073F89DF81030012B13D1EB
:100FD0009DF81230032B0FD19DF81830012B0BD048
:100FE0000D48492106F063F8022009B05DF804FBC2
:100FF0000A4BC0E7094BD9E70948492106F057F8E1
:101000000020F2E7AB840000B1840000C38400003C
:10101000B58400000485000014850000A68400004B
:101020003385000070B54B6814461E4A03F0FF2359
:10103000934206460D4686B02FD10B68012B2CD16A
:10104000204604A902F0AAFC9DF81020012A26D00F
:10105000154B1649032A18BF0B469DF8132049214A
:1010600002929DF81220124801929DF811200092E0
:10107000104A06F01CF89DF81030032B0DD12146C4
:10108000304605F084FD204606F03FFB2046A96867
:1010900005F0A1FC204602F073FC06B070BD064BC3
:1010A000DBE700BF00010004AB840000B184000056
:1010B000C384000004850000A68400002DE9F04FE1
:1010C000436A2DED028B0C465E6805460121002324
:1010D0008BB033449A42084601F10101F9D8784FA8
:1010E0003860204605F012FDBB46C8B1E86D05F03A
:1010F00053FC0022AB6A013B3244904201D9013BD0
:10110000FAE7DBF800209A420AD357216D4805F030
:10111000CEFF0123E3710BB0BDEC028BBDE8F08F75
:1011200008A9032000F0DAFC09A9072000F0D6FC8A
:1011300021462846099AFFF775FF6379012B08D1EC
:10114000DBF80070DFF880A1DBF80030A7B90123DD
:10115000236002230127DFF8708163710593DBF8B8
:101160000030DDF820909F424DD9484605F0CCFF75
:10117000099805F0C9FFCEE7226801339B1A9F4208
:101180003FD86B6A012A196853F8370003EBC7038D
:1011900053F8083CDDF82080A3EB010308EE103A79
:1011A000A0EB010912D1E268099B022A0AD041464C
:1011B0002846039305F0EBFC22464146284605F0FD
:1011C0001CFD039B1946284605F0E1FC32464946C2
:1011D000404605F0DAFC18EE103A424641462846F1
:1011E000CDE90096FFF74EFC2146284605F09BFC12
:1011F00023680133236020B1DAF800300133CAF8E4
:101200000030013FA0E723689F4256D3696A286DEA
:1012100051F83730FA0004930B68083A50F802C0CE
:10122000039303682079DDF824A00128ACEB0303C5
:1012300041D189580793039B3246C91A4846069103
:1012400005F0A3FC0699079B4A46009128465146A3
:1012500001960693FFF716FC2146284605F063FC2D
:10126000059B2371069B20B1D8F800200132C8F8F5
:101270000020194632465046069305F086FC069B30
:10128000494600932846DDE9032301969B1A5246FE
:10129000FFF7F8FB2146284605F045FC236801339B
:1012A00023604FF00103237138B1D8F800300133C7
:1012B000C8F8003001E00228DBD001374FE700BF5B
:1012C000044501204A850000285C0120024B0A46A3
:1012D0001B680021184700BF0845012070B5094D63
:1012E0002B7853B90126084CC4F8006504F060FA65
:1012F00028B92E70C4F8000570BD0020FCE74FF03F
:10130000FF30F9E7586401200000845070B5AEB09A
:101310001D460446CDE90221FFF7E0FFDDE9022189
:101320000123064E05A8C6F800352346009506F0B1
:101330008FFB0023C6F800352EB070BD000084502E
:1013400010B501234FF0FF3400211A4A1A481360E8
:10135000C2F84443C2F8044302F580521360174BAD
:101360008022C3F84843C3F80843A3F55043C3F8A9
:101370000015C3F8084305F0ACFF80220021104897
:1013800005F0A7FF00210F4B8022C3F800150E487F
:10139000C3F8084305F09DFF802200210B4805F0AB
:1013A00098FF0B4BC3F808454FF05023C3F8084390
:1013B00010BD00BF0440015080800050005001501B
:1013C000808100500090005080900050809100502B
:1013D000007001500B6801330B60014B1B6818470C
:1013E0000C45012007B50B46002102460191034838
:1013F00001A900F0EDF803B05DF804FBD51300007F
:101400002DE9F74FB0F81890044619F008089346F4
:101410000ED001290CBF49F0100949F02009A0F8AD
:1014200018908BF31188BFF36F8F03B0BDE8F08F76
:10143000DFF898A109F00709022907D1204605F035
:101440007FFD0028EDD00128238B4DD16769218BCA
:10145000002F15DA256821F00701C4E9008841F062
:10146000010121830026218B01F007024A4502D0A9
:10147000A368002B59D10DB9002E71D0002355E07F
:1014800001F007035A1F012A1FD821F00701062B7C
:10149000256889B2C4E900880CD1002D2B4638BFDD
:1014A00000232BB1628B1B6801326283002BF8D1C1
:1014B00041F002012046218305F042FD0028D1D0F1
:1014C000238B43F020032383CCE7042B0AD121F0A4
:1014D000070189B22046218305F032FD10B141F0A9
:1014E000200121830025BDE7032809D1226923F0CB
:1014F0000703166843F00603002523832F46B2E74F
:10150000042806D1226923F00703566843F0040338
:10151000F2E7052806D1226923F00703966843F015
:101520000503E9E700252E46E8E7012341F008011D
:1015300021838BF31188BFF36F8F03BB002D34D150
:1015400016B151462046B0474FF02003EFF3118B00
:1015500083F31288BFF36F8F238B23F00803238359
:10156000238BDA062AD5012123F010032383B4F854
:10157000189009F0070900297FF45EAF51E7A168D0
:101580000029DBD00B68002B38BF0023994620468A
:101590003B46D1F804B00192D847019AB9F1000F47
:1015A000CCD04946D9F80030EDE729463B462046E5
:1015B00001922D6805F0E0FC019ABFE713F02001CD
:1015C0001EBF23F0200302212383D0E7A56F000074
:1015D0002DE9F04F8B464FF0000A8FB01F46531E87
:1015E00000900193019B58785C1C252822D14FF074
:1015F000000C4FF0FF361846614634464FF00A0E95
:101600000230CDF808C002780190392A00F10100BB
:1016100058D81F2A18D8002A00F0FF815946009B8D
:1016200025209847019B59461878009B98470AF156
:10163000020AD7E7002800F0F0815946009B98473E
:101640000AF1010A0194CDE7A2F12003192BE5D894
:1016500001A555F823F000BFC11600001D160000BB
:101660001D160000C11600001D16000041170000E5
:101670001D1600001D1600001D1600001D1600009E
:1016800083170000C11600001D1600009717000008
:101690004F1700001D1600005B17000077170000B1
:1016A0007717000077170000771700007717000002
:1016B00077170000771700007717000077170000F2
:1016C0009446A0E7582A00F04081A2F16303DDB2FE
:1016D000172DA3D8172BA1D801A555F823F000BFCB
:1016E000A5190000BD1700001D1600001D16000002
:1016F0001D1600009D170000BD1700001D160000FC
:101700001D1600009D1700001D1600001D1600008C
:101710001D160000F51800001D1600001D16000023
:10172000871900001D160000BD1700001D160000DF
:101730001D160000F51800001D1600009D17000082
:1017400059462520009B98470AF1010A4AE7029B67
:10175000002603F0FE03029355E7002C0BDA002E5F
:101760000BDA029B002B00F0548124EAE4740EFB98
:101770000424303C47E7002EF7DB0EFB0626303E04
:1017800041E7002E57F8043B01DB1E463BE71C1ED9
:10179000BFF639AF64420223029334E7682A03D1CB
:1017A000682906D148212EE76C2A02D16C2900F065
:1017B000328100297FF432AF114624E77A290FD114
:1017C0003B68752A984607F1040540F088804FF081
:1017D0000009BCF1200F40F08580924F013C15E0DC
:1017E0006C29EDD04C29EBD1FD1D25F00705752A9C
:1017F000F5E80289EDD0B8F1000F79F10003E8DADD
:10180000D8F10008884F69EB4909013C0DAB0593FD
:1018100000230393039B40460493013B49460393F3
:101820000A220023FEF78EFC059B303203F80129C3
:1018300040460A22494605930023CDE90689FEF772
:1018400081FCDDE90623002B08BF0A2A8046894671
:10185000E0D2049B0EAAC3F1010902EB0308002E9B
:10186000A8F1040804DA029B13F0010F18BF264602
:10187000A6EB0903002B0393029BD4BFA4EB09043E
:10188000A41B9A0740F1AF80AAEB070606EB070AF4
:1018900017F8010B002840F0A880039E013E40F19C
:1018A000A880039B4E465A1E0132ACBF1F4600273C
:1018B000013E40F1A38009F1FF320132ACBF4B463B
:1018C0000023264603EB0709013E40F19D80631E7D
:1018D0000133B8BF0024A1442F46CA4482E64FEA30
:1018E000E37988E7BCF12B0F0ABF504F504F04F14A
:1018F000FF348BE7702A28D13D4655F8040B0028A9
:101900005AD000214B4F023C4FF0000802F0600219
:10191000A2F139090DF1340E00F00F03092B88BF35
:101920004B44303300290EF8013908BF10284FEA24
:10193000101308F1FF3C43EA01734FEA11121ED263
:101940000EABC8F10109984489E76C2904D13D46E2
:10195000002155F8040B06E04C29F8D1FD1D25F0B7
:101960000705F5E80201BCF1230F06D1314B12F057
:10197000200F314F18BF1F46C5E72D4FC4E7E04683
:1019800018461146C8E73D4655F8048B404605F019
:1019900072FC002E814602DBB042A8BFB146002691
:1019A000234F65E73D4655F8043B4FF001098DF89C
:1019B00020300DF12008F2E74FF00509DFF87C80B8
:1019C000EDE759462020009B9847013EF9D5621E5D
:1019D000531CACBF21460021C4F10004B8BF002451
:1019E0008A44144450E72646EFE75946009B98473F
:1019F0004CE75946009B302098474FE7594618F866
:101A0000010B009B984753E75946009B20209847BD
:101A10005AE70123C0E64C21F5E550460FB0BDE87A
:101A2000F08F00BF5B8A0000D4850000D6850000DF
:101A30001B8E0000D8850000DB850000DE850000DD
:101A400007B501904FF02002EFF3118382F3128863
:101A5000BFF36F8F05F0D1FD019800F023FD03481F
:101A600005F061FA00F03EF9FCE700BFE4850000F4
:101A70004FF02002EFF3118382F31288BFF36F8FD0
:101A80000121044AC2F8401583F31188BFF36F8F18
:101A9000002070470090035020B1034B800143F0B9
:101AA00001031847704700BF007E0000094B30B5A6
:101AB0001D68094B1C6800239D4202DC002108467A
:101AC00030BD1A01A25C04EB03118242F7D001334E
:101AD000F2E700BFC87E000010450120084B10B59A
:101AE0001B680C462BB1FFF7E1FF28B120600020F6
:101AF00010BD6FF00C00FBE76FF00100F8E700BFCE
:101B00001045012030B589B00C4615460190FFF70D
:101B1000CDFFB8B14368226802938368C068CDE9FD
:101B200003350023CDE90623059305F0CDFA60B116
:101B3000074901AA05F0C8FC079808B9059B23606E
:101B400009B030BD6FF01500FAE76FF01200F7E74B
:101B5000CD700000014803F0B9BA00BFCC7E000090
:101B600008B5B0B14368042B0DD100220368D3E857
:101B7000EF1F012903D1C3E8E02F0028F7D1074860
:101B800008BF104608BD3BB1006802F0F3FC00201E
:101B9000F8E76FF4E040F5E70148F3E7E98FFFFF6E
:101BA000EA8FFFFF10B5044618B90D4B0D485B686E
:101BB0009847616808290DD031F004030AD011F06C
:101BC000020108D02146084805F00FFE00232360DB
:101BD0000023636010BD1422206805F07AFBF7E74C
:101BE00054450120118600002C5C012010B50446EC
:101BF00018B9164B16485B6898476368042B23D0C6
:101C0000082B21D0CBB92368BBB94FF0FF324FF07E
:101C1000FF3321460F4802F071FB08B923681BB956
:101C20000A4B0D485B68984714220021206805F094
:101C300050FB636843F002036360206805F012FE06
:101C4000636843F00103636010BD00BF5445012089
:101C5000118600002C5C01203786000008B5E8B131
:101C60004368042B0CD101220368D3E8EF1F00293D
:101C700003D1C3E8E02F0028F7D10BD1002008BD25
:101C800053B100684FF0FF324FF0FF3302F0F4FB26
:101C90000028F3D00348F2E70348F0E76FF4E04090
:101CA000EDE700BFE98FFFFFEA8FFFFF08B50649A8
:101CB00040231422054805F07DFDBDE80840044995
:101CC000044803F061BA00BF485C01202C5C01208D
:101CD000E47E0000D47E0000014910220A607047B3
:101CE00010ED00E072B6404080F31188BFF36F8FB3
:101CF000BFF34F8F30BF62B6BFF36F8F704700BF27
:101D000072B6494081F3118820BF80F3118862B612
:101D1000704700BF2DE9F04107460C4686B0002908
:101D20004AD08B6828480093D1E90023452105F06B
:101D3000BEF9636945210093D4E90323234805F0E4
:101D4000B6F94521E269224805F0B1F92646002599
:101D5000DFF88880D6ED0B7AFCEEE77A96ED087A0C
:101D6000CDED057AEB1C0493D6ED0A7AFCEEE77A0A
:101D7000CDED037AAB1C0293D6ED097AFCEEE77A3F
:101D8000CDED017AFCEEC77A6B1C2A460093452103
:101D900017EE903A4046043505F089F9102D06F10A
:101DA0001006D7D14521226E0A4805F080F9452159
:101DB000A269094805F07BF92146384606B0BDE81E
:101DC000F04102F06DB900BF648600009886000003
:101DD000CC860000288700003C870000E0860000D9
:101DE00043B2002B08DB012200F01F0002FA00F0D2
:101DF000024A5B0942F82300704700BF00E100E09F
:101E0000054B420953F82220012300F01F0003FA7A
:101E100000F01040704700BF00E100E043B2002B2B
:101E200001F10101ACBF03F16043064B4FEA4111E0
:101E3000C9B2ABBF03F5614300F00F0083F8001394
:101E40001954704714ED00E030BFFFF7FDBF00BF2D
:101E5000144A08B5144B22F07F029A60BFF34F8FEB
:101E6000BFF36F8FD3F8882022F47002C3F8882064
:101E7000D3F8882042F4A002C3F888204FF04042F3
:101E8000C3F83422BFF34F8FBFF36F8F0023E1EE0F
:101E9000103A02F097F902F059FF00F0C7FA02F089
:101EA0009BF900BF0000000000ED00E0094A0A496C
:101EB000936809685867996708494B6843F08053ED
:101EC0004B60002383F31188BFF36F8F9368986F83
:101ED000704700BF086301200880000000ED00E0AB
:101EE00022498A6882F8BDE04FF030001044EFF3D9
:101EF000098C80E8F01F1EF0100F03D102F17C0066
:101F000080EC108A202080F31288BFF36F8F184F67
:101F10004FF000668A698A603E6092F9BDE0506FBA
:101F20000023536780F311881EF0100F03D00023A5
:101F3000E1EE103A03E002F17C0090EC108AEFF33E
:101F4000148323F0040383F31488BFF36F8F02F12B
:101F5000300090E8F01F8CF3098802F1000004B50E
:101F600005F071F9BDE804407047000008630120E6
:101F700004ED00E01EF0040F0CBFEFF30880EFF358
:101F80000980816911F8021C0229FFD001B505F012
:101F90004BF901BD42F8203C009B0D4942F81C3C26
:101FA000019B21F0010142F8183C029B42F8081CF9
:101FB00042F8143C4FF0807342F8043C002343671E
:101FC0004FF47D43203A0265C0F8BC30704700BF33
:101FD000997000000023E1EE103AEFF3148323F030
:101FE000040383F31488BFF36F8FBFF36F8F094B24
:101FF0009860436E83F30B88104681F309880021B3
:1020000063B681F31188BFF36F8F0022002305F0C0
:1020100043F800BF0863012001B5EFF30580A0F18C
:1020200010004FEAC0000449014409C99847BDE8BF
:102030000140024908470000847B00004120000065
:10204000044B99689869884203D003494FF0805245
:102050000A6070470863012004ED00E070B5224C6F
:1020600006460D462148452105F021F8A26AD00612
:1020700003D545211E4805F01AF8A36A190703D5B0
:1020800045211C4805F013F8174CA36A9A0710D590
:102090004521194805F00BF8626BA36A1B0608D5A9
:1020A0004521164805F003F81EB1A36A23F080030A
:1020B000A3620D4CA26AD00703D54521104804F055
:1020C000F6FFA36A990603D545210E4804F0EFFFF9
:1020D0000020054B9A6AD20658BF9A6A9A6A42F063
:1020E000FF029A62287070BD00ED00E06F8700006B
:1020F0008A870000C2870000DA870000F7870000A7
:10210000128800003688000070B5234C06460D4644
:102110002248452104F0CBFFA26AD10403D5452112
:102120001F4804F0C4FFA36A1A0503D545211D48C2
:1021300004F0BDFF184CA36A9B0510D51A48452131
:1021400004F0B5FFA26BA36A180408D5452117480F
:1021500004F0ADFF1EB1A36A23F40043A3620E4C4A
:10216000A36A590503D54521114804F0A0FFA36ACD
:10217000DA050BD545210F4804F099FF0020064AE7
:10218000936A43F47F439362287070BDA36A9B04F3
:10219000F4D545210848EFE700ED00E06A8800002B
:1021A00085880000C28700009B880000B988000075
:1021B000D3880000F38800003688000038B5214C31
:1021C0004521214804F073FFA26A950103D54521FA
:1021D0001E4804F06CFFA36ADC0103D545211C48AE
:1021E00004F065FF174DAC6A14F4801404D0452147
:1021F000184804F05CFF0224AB6A180303D545219C
:10220000154804F054FF0F4DAA6A510303D5452128
:10221000124804F04CFFAB6A9A0303D545211048DD
:1022200004F045FF074DAB6ADB0303D545210D489C
:1022300004F03DFFAB6A20466FEA03436FEA1343A5
:10224000AB6238BD00ED00E0108900002D89000070
:10225000458900006489000093890000B689000068
:10226000E0890000FF8900002DE9F043574B00256D
:10227000D3F804909DB0C9F3080885F31188BFF323
:102280006F8F02F07F43B3F17F4F07D102F00C0351
:10229000082B05D145214E4804F009FF2F4604E0E4
:1022A00012074EBF0F46074601250022A8F103067C
:1022B00014468DF80720092E76D8DFE806F0056A67
:1022C0006E677575757575724521424804F0EFFEAD
:1022D0003E4B8DF80740DC6A14F0020405D045211E
:1022E0003D4804F0E4FE002406E0DA6A002A1DDA24
:1022F00045213A4804F0DBFE9DF807309BB968227F
:10230000394602A804F0DAFF099B002D59D0C3F327
:10231000080222B96FEA53236FEA43230993204648
:1023200002A9FFF7F7FC1DB0BDE8F083DB6A5B0094
:10233000E2D545212A4804F0BAFEBB6933F8022CE5
:102340004DF602739A420CD003F1604303F6266304
:102350001B786BB101200DF10701FFF77FFE0446EA
:10236000CAE745213A681F4804F0A1FE3C68C3E76C
:102370001D4B1B782BB101200DF10701FFF7C4FEA7
:10238000EDE71A4B1B889BB2002BB5D0FFF716FF69
:10239000E5E700200DF10701DFE700200DF107015F
:1023A000ECE7452112489CE7124919F4F87F124ADC
:1023B000124808BF0A46A8F11003452104F077FE31
:1023C00091E723F4FF7323F00103A7E700ED00E09A
:1023D0005D8A00008D8A0000A98A0000CF8A000073
:1023E000E28A0000068B000029ED00E02AED00E003
:1023F000278B00002F8A0000448A0000508B0000C9
:10240000044B5A6942F010025A615A6942F48062E0
:102410005A61704700ED00E0EFF30880EFF30981A7
:1024200001B57246FFF720FF01BD00BF0023202148
:102430000348C2180133412B82F80013F9D17047C9
:1024400000E100E0002080F31488BFF36F8F0020CC
:1024500080F30A8880F30B8805F026FB00200E49E4
:102460000860BFF34F8F0D4880F3088800F03CF8F8
:10247000202080F311880A484FF40061401880F34F
:102480000988EFF314800221084380F31488BFF316
:102490006F8FFFF7DDFC000094ED00E02892012033
:1024A00068930120BFF34F8F0549064BCA6802F4B9
:1024B000E0621343CB60BFF34F8F00BFFDE700BF67
:1024C00000ED00E00400FA0500231846054A1168F3
:1024D000C1F307218B4200D1704793601061013333
:1024E000F8E700BF90ED00E010B572B6002484F369
:1024F0001388FFF7E9FF0E4A234611464FF0FF34D9
:1025000003F120000133102B42F82040F8D10023C2
:102510004FF0FF3003F160020133102B41F822002D
:10252000F8D162B6BFF34F8FBFF36F8F10BD00BFFE
:1025300000E100E0064B9B68834207D1EFF305837F
:1025400023B1044A536843F08053536002F0ACBB9C
:102550000863012000ED00E01FB5094C094A23463D
:102560000121094800F01AF900230393074B0121C8
:10257000E41A01A80193029400F01AF904B010BD06
:102580000000042000450120F87E000018460120CC
:1025900010B50B680C7A23F01F0204F01F031A43D6
:1025A000CB68640923F01F03044943EA440343F062
:1025B00001038860CA600B6110BD00BF90ED00E0B0
:1025C00030B54B680C6885B00A898D7A0094013B60
:1025D00024F01F04234402F01F0242EA451223F0B4
:1025E0001F030F2804468DF80820039309D90246DB
:1025F0004521064804F05BFD6FF01504204605B048
:1026000030BD6946FFF7C4FFF8E700BF6C8B0000E0
:102610002DE9F04F8946144606464FF00008524D0A
:1026200085B0C84523DA7768002F42D01F2F17D90D
:10263000FB0615D1D6F800A01AF01F0F10D1504696
:1026400004F005FE834607EB0A00013804F0FFFDA5
:10265000834510D06FF0150B5A464521434802E0E0
:1026600042464521424804F022FD6FF01504204601
:1026700005B0BDE8F08F1BF1160FEDD0631E5B4572
:10268000EADBC5F808B0E968C5F808B02F6921F0A1
:102690001F01D6E900321A44994247F01F0702F1A0
:1026A000FF3A1CD1574508D131465FFA8BF0FFF74E
:1026B00087FF08F101080C36B3E73146C5F808B0CA
:1026C000EB6822F01F0203F01F031A43EA60E0B236
:1026D000FFF776FF10F1160FC7D0441CE9E7013B66
:1026E0005745E0B223F01F03C5F808B006D12A69A8
:1026F000314602F01F0213432B61E9E7296901F01B
:102700001F010B432B613146FFF75AFF10F1160FE3
:10271000ABD0C5F808B0EA689DF80830013F62F315
:1027200004038DF808302B699DF808205B0863F3DB
:1027300047128DF80820D6E900321344009323F0A5
:102740001F033B44441CA3EB0A0AE0B22AF01F0318
:102750000F28039303D902464521064883E76946BB
:10276000FFF716FFB9E700BF90ED00E0BF8B000058
:10277000978B00006C8B00000522034B5A60BFF35F
:102780004F8FBFF36F8F704790ED00E0BFF35F8F07
:102790000022014B5A60704790ED00E010B5034CE9
:1027A0002278FFF735FF207010BD00BF596401206B
:1027B0002DE9F74F264D8A4606464FF00008AB46F6
:1027C000244FD0451BDAD6F80490B9F1000F39D068
:1027D00031680846019104F03AFD0199044609EB7D
:1027E0000100013804F033FD84424FF014021A4B0B
:1027F00008D06FF0150302FB08F84BF8083003B05F
:10280000BDE8F08F14F1160F2C60F8D01978A142B2
:10281000F5DD02FB08B0BC60BC60FC6800F108019B
:10282000007B64F30400087138690C79400860F398
:1028300047140C71F96821F01F016960396921F0B2
:102840001F01296108F1010814350C36B9E700BFF2
:102850004861012090ED00E05964012038B50E4C2C
:102860002568102D14D8FFF791FF00200B4B0C4A60
:102870001A63854205D10B4B1D70FFF77DFF0020C9
:1028800038BD616801EB0011FFF782FE0130F0E70F
:102890004FF0FF30F4E700BF047F000090ED00E050
:1028A000AAFF44005964012008B50A4801F0CCFB96
:1028B00060B102698168136823F0004313600B68FC
:1028C0004FF420621F219847002008BD6FF01200CE
:1028D000FBE700BFF68B000070B504460C250D48E1
:1028E0000E46231A9A100C4B40215343DBB25D4332
:1028F00005F14003184404F0FEFC011E04DB074B05
:102900002B445B689847002120463346BDE8704061
:10291000184700BF6C610120B76DDBB6407F000037
:102920002DE9F0410F4C104D031B9B105D43EBB2A2
:102930000C255D43074605F140000E46204440212A
:1029400004F0F2FC011E08DB084B2C44C4E90E36EF
:10295000074B5B59BDE8F041184738463346BDE8A0
:10296000F04118476C610120B76DDBB68B73000036
:10297000407F000070B50022012104460520FFF7CA
:102980004DFA0520FFF72CFA0F4801F091F90F4B93
:10299000984215D104F0E8FE26690D49304604F04E
:1029A0001FFB00280BDB012535642469084904F16D
:1029B0001C0004F015FB002801DB0020E56470BD5D
:1029C0006FF00400FBE700BF112A00000000AD0B10
:1029D000587F000073B50C23014600264B430A487C
:1029E000C4184033D4E90E521844A663019204F08F
:1029F000B9FC35B12B46019A044802B0BDE87040DD
:102A0000184702B070BD00BF6C6101200C7B000054
:102A100010B1012804D07047034B1B6C5B0701D138
:102A2000FFF7D8BF704700BF6C61012008B54FF0B9
:102A30002003EFF3118183F31288BFF36F8F124AE3
:102A4000136843F0020013F0010310600CD04FF044
:102A50005022D2F80C34D2F80C2413F0010303D026
:102A60000A4804F07FFC012381F31188BFF36F8FC4
:102A700023B1BDE808400020FFF7ACBF0120BDE84E
:102A8000084001F025B900BFBC610120AC61012004
:102A9000074BD3E8EF2F22F00201C3E8E01F002824
:102AA000F7D1D30702D4012001F044B9704700BF29
:102AB000BC6101201FB500220123CDE902236B4632
:102AC000084ACDF800D0CDF804D004F085FC0028E9
:102AD00005DB4FF480420023684601F0B1FD05B0EC
:102AE0005DF804FBAB7300002DE9F84301220646B4
:102AF0003949D1E8EF3FC1E8E02F0028F9D133B9D7
:102B0000364937484B60CB608A6004F07CFA731E0C
:102B1000012B32D8012E07D14FF05023D3F81C34AB
:102B200003F00303022B28D004F088FE044618B9F2
:102B30002C4B1B78002B47D14FF02003EFF311856E
:102B400083F31288BFF36F8F0124274FDFF89C8037
:102B5000DFF89C904FF05022D2F81834D2F81824A5
:102B6000D2030CD503F00303022B01D0012E06D1B2
:102B700024B385F31188BFF36F8FBDE8F883C4B128
:102B80002846FFF7BDF84FF05022D2F81835DBB2D7
:102B9000012BDFD139680029DCD000213960396888
:102BA0000221C2F818152022C8F88021C9F8003087
:102BB000D0E70021212002F057F8E4E74FF050233E
:102BC0000222C3F80423D8E74FF05023022205461F
:102BD000C3F80823B9E700BFC06101205C61012090
:102BE000886101206B6801200451005000E100E081
:102BF00008500050064A00F01F0002EB8000D0F899
:102C0000003223F4403343EA0141C0F80012704718
:102C10000025845008B5094B1A786AB901210D20A6
:102C200019700521FFF7FAF80D20FFF7D9F84FF0DA
:102C30000042034BC3F80423002008BD5A6401205E
:102C400000D00050F7B50E46416806F01F05097A1E
:102C5000B2F5A03F076945EA41150AD15C4805F085
:102C60001F01803150F82110C80707D56FF085008B
:102C700093E0B2F5005FF96800F091800121F868F7
:102C8000B1400143F96001217869B140B2F5A03F3C
:102C90000CBF0843884378610020BA69B3F5C02FA0
:102CA0000CBF0A438A43BA613A69B3F5802F0CBF5F
:102CB000114322EA0101474A3961D2F80433DBB2F9
:102CC00000F5A27152F82110C1F304218D426BD19D
:102CD00023FA00F1C90767D5830003F1A04303F588
:102CE0005043D3F8101521F00101C3F8101501234A
:102CF0008340C2F80833C0B201F0BCF82846002176
:102D0000FFF778FFF868F04010F0010045D07869CF
:102D1000F04010F001044ED0BB690DF10700F34004
:102D2000DB0757BF3969032621FA06F606F00106CC
:102D30005CBFC6F10206F6B201F0BEF8264B98421F
:102D400036D100209DF807102D028B0003F1A0431F
:102D500003F55043D3F8102505F4F85522F4473213
:102D600022F44072C3F81025D3F8102515438A00C9
:102D700002F1A04202F5514245EA0646C3F8106549
:102D800010601268D3F8102542F00102C3F8102534
:102D90000123104A8B40C2F8043303B0F0BD012078
:102DA000B04021EA00016DE70130082888D1A5E78D
:102DB0006FF01200F1E739692846F14001F0010196
:102DC000C1F10301C9B2FFF715FF2046E5E700BFD7
:102DD0000025845000D000500000AD0B284B70B58A
:102DE00046682848134083423BD00DD8062B15D0A7
:102DF00005D89BB1022B36D06FF0150030E0B3F54B
:102E0000801FF9D1012309E01F4883422DD0B3F57B
:102E1000A00F2CD0B3F5800FEED10223D0064CBF0B
:102E20000325C2F3401582F4807412F4007FC2F3CC
:102E30004020C4F3002406D012F4006F766818D046
:102E400001228A40B26040EA4402002042EA0323A1
:102E500001F01F010D4A43EA8503803142F8213019
:102E600070BD0723DAE70423D8E70523D6E7032359
:102E7000D4E7520542BF01228A40F260E3E700BF77
:102E80000600F000060010000200400000258450FB
:102E90002DE9F84F454D2E68002E5BD0444B4FF086
:102EA0000108D3E90520D968024321EA0209414A11
:102EB0004F464FF0000B924614691B695C4029EAAB
:102EC00004047FBB2F602B68002301251F463A486E
:102ED000D0F8042305FA03F1114211D09A0002F14F
:102EE000A04202F55142116851B103F5A27150F8A8
:102EF00021101760C1F3042105FA01F112680C4397
:102F00000133082BE4D13CBB56B101260027284DE4
:102F1000EC68D5E905210A4324EA0204002C33D1E8
:102F2000BDE8F88F18EA070F0FD018EA090F0BF069
:102F30001F0008BF00F180034FF0000108BF5AF8DE
:102F40002330FFF757FE27EA08070BF1010B4FEA82
:102F50004808B6E73446B7E7154B59680029D3D07F
:102F60000D68164F002D38BF00258A68224002D018
:102F700038464B689847002DC6D02B682946002B51
:102F800038BF00231D46F0E726420CD0296907F020
:102F90001F00F94001F00101C1F10301C9B2FFF7BF
:102FA00029FE24EA060401377600B7E77CD10050F9
:102FB000C46101200025845000D00050547B0000E3
:102FC000024B0B6001231360704700BFE0610120DA
:102FD00000487047AC7F000037B50C4619462046C4
:102FE0000193154604F05DFA019B40B90948224659
:102FF000452104F05CF86FF0150003B030BD33B12B
:103000001A462146284604F059F90020F5E71846EB
:10301000F3E700BF1D8C0000F8B50E46144604F01F
:10302000B1FB21460546304604F03BFA374648B32B
:10303000B6FBF5F305FB136323B9B4FBF5F205FB0F
:10304000124040B1234632464521114804F02FF882
:103050006FF0150015E0A54213D84FF0FF324FF086
:10306000FF330C4801F0ECFA04F08CFB05463846BF
:1030700000F064FF641B2F44F9D1064801F0C0FA48
:103080002046F8BD2346324645210348DEE700BF0F
:103090003F8C0000E86101201D8C000010B501226A
:1030A0000648114604F0E5FB04F06FFB044C206079
:1030B00004F068FB6060002010BD00BFE8610120E3
:1030C000E0610120F8B50E461946304617461C4609
:1030D00004F0E7F940B9234632464521174803F08A
:1030E000E6FF6FF01500F8BD44EA060515F003058C
:1030F00004D02346324645211148F0E7DCB14FF0B9
:10310000FF324FF0FF330F4801F09AFA24F0030426
:10311000A54205EB060009D10B4AD2F80034DB07C3
:10312000FBD5084801F06CFA0020DCE7795900F083
:1031300023FF0435ECE72046D5E700BF1D8C0000D7
:10314000638C0000E861012000900350F0B54B79DA
:10315000012B2AD0032B25D110268B79032B21D1CB
:10316000CC792CB1012C1DD143685B689B0719D029
:103170000A7912B1022A15D10E220B684568B3F5FF
:10318000164F2D6865D02DD8B3F5165F64D016D8CC
:10319000B3F5966F62D00AD8B3F5967F61D0B3F5D8
:1031A000167F61D06FF0850052E00026D5E7B3F5B9
:1031B000166F5CD0B3F5965FF4D1374B3CE0B3F5B6
:1031C000E14F57D007D8B3F5615F55D0B3F5964FAF
:1031D000E8D1324B30E047F61227BB42E2D14FF440
:1031E000000329E0B3F5613F48D013D8B3F5963F0B
:1031F00047D009D84DF6C027BB4244D0B3F5614F44
:10320000D0D14FF46B0317E0B3F5E13FCAD14FF0D3
:10321000EB7311E0B3F5612F38D008D8204FBB42D3
:1032200037D0B3F5E12FBDD14FF0E86304E01D4F77
:10323000BB42B7D14FF08053C5F8243503693443FE
:103240002243043303C9C5F86C2583E8030000203A
:10325000F0BD4FF41D03EFE7134BEDE74FF49E2352
:10326000EAE74FF4A033E7E74FF41C33E4E74FF409
:103270001D23E1E70D4BDFE70D4BDDE74FF06C73EE
:10328000DAE70C4BD8E74FF46503D5E74FF07063EE
:10329000D2E74FF08063CFE700B0130000A04E00EC
:1032A00090D0030040420F000050270000C075007E
:1032B00000F03A0000903A01F8B505460F4606695D
:1032C00004F0BCFA10B92C4B1B7883B94FF02003E3
:1032D000EFF3118483F31288BFF36F8F284604F055
:1032E00068F928BB84F31188BFF36F8FEEE764247D
:1032F000284604F05EF970B9012004F033FA013C6D
:10330000F6D10021212001F0AFFCF0E784F3118811
:10331000BFF36F8FF5E74FF02003EFF3118483F3D2
:103320001288BFF36F8F284604F043F90028EDD0D0
:10333000012206F8107F69680B68C3F84465C3F87A
:1033400048250022C3F82021D3F82001C3F85821D2
:10335000D3F858214A68D20641BF0822C3F8002595
:103360004FF48002C3F8042301229A6084F3118889
:10337000BFF36F8FF8BD00BF6B680120F8B507463B
:10338000002201210820FEF749FD0820FEF728FD54
:10339000002301217D683E692C68D5F808C0C4F877
:1033A00000350CF01F02424B9140376099600321B9
:1033B000803243F82210E9684A1C06D0287E01F0CA
:1033C0001F028000803243F82200C4F80CC5C4F804
:1033D00014152969481C06D0687E01F01F02800080
:1033E000803243F822006869421C0CD04FF0010C77
:1033F00000F01F020CFA02FCC3F808C04FF0030CE7
:10340000803243F822C0C4F80805C4F810153969A1
:1034100038460431FFF79AFE074678B96B681907FA
:103420001BD506F1120000F0FBFC224B984207D09E
:103430004521214803F03BFE6FF004073846F8BDF4
:10344000B37C43F00043C4F8A031C4F88C300123AE
:10345000B27C9340194AC2F804350823C4F80035F9
:10346000EB6801330CD00023C4F81031D4F81031CC
:1034700006F11103C4F834350123C4F8383523604C
:103480006B6810361A075CBF4FF48072C4F80423CF
:10349000DB0644BF4FF48003C4F804330023C4F8B0
:1034A0004465C4F848350123A360E360C6E700BF64
:1034B000002584500000AD0B908C0000007001507E
:1034C000194970B5044622F07F460868C1E9002317
:1034D000A6F50013101AB3F5400F4FF000050AD2FD
:1034E0000125124B19680A060B0A9219104943F17B
:1034F0000003C1E9002301F01BFDA30003F15023E9
:1035000003F58033D3F84025B2420BD11DB94FF4F7
:103510000002C3F840254FF48030064B00FA04F453
:10352000C3F8444370BD00BF304601200062012053
:1035300018460120005001500123834010B5DC43A0
:103540000D4AD2E8EF1F01EA040CC2E8EECFBEF14B
:10355000000FF6D14FF4803202FA00F002F150224F
:10356000C2F80803BFF35F8FBFF36F8F0B4214BF26
:103570000120002010BD00BFFC61012001230E4A84
:103580008340D2E8EF1F1943C2E8EC1FBCF1000FE3
:10359000F7D14FF48033094A8340C2F80433084B13
:1035A000D3E8AF3F23FA00F0C30742BF4FF4001245
:1035B000044BC3F800217047FC610120005001500A
:1035C000F861012000E100E00D4B1B68190A1806A4
:1035D000BFF35F8F0B4BD3F80435C01841F10001E6
:1035E000B3F5801F0AD2084BD3E90023994208BFE4
:1035F000904203D210F1807041F10001704700BF8A
:103600000062012000500150184601202DE9F74FBB
:1036100016461F460546FFF78FFF0090FFF7D4FFC1
:10362000B94208BFB0427BD200234FF08072B6EBA4
:10363000000867EB01094B4508BF42457DD3404B6D
:1036400003EB0513D3E902239F4208BF964251D0F2
:103650004FF4803B26F07F4214464FEA850905F17E
:10366000500809F150294FEA880809F580391FFAF6
:1036700088F808F15028D9F84005324B08F5803811
:103680000BFA05FBD3F804A5A0EB0A0020F07F405D
:103690002AF07F410128C9F8401505D10192132075
:1036A00004F0D1F9274B019A0AF1020CA4EB0C00AB
:1036B00020F07F400021B0F5000F88BF6446C8F8B5
:1036C0000010D8F8000024F07F40C3F844B3C9F8D4
:1036D0004005D3F80405824506D0201A023820F0B0
:1036E0007F40B0F5000F19D8A41A24F07F44321996
:1036F00047F10003124C290104EB0510C0E9022335
:103700000C9A0D9B625000244360009B13B1284625
:10371000FFF734FF204603B0BDE8F08F2046B1E745
:103720000123094AAB40D2E8EF1F1943C2E8E01F6A
:103730000028F8D132463B46DCE76FF01504E4E799
:103740002046012000500150F8610120334B2DE943
:103750007343D3F804339A0709D5314B1A6832B151
:1037600000221A602F4A1B681368013313604FF060
:103770002003EFF3118283F31288BFF36F8F274B7F
:10378000D3F80433DB030DD5274BD3E8EF1F21F02B
:103790000100C3E8E40F002CF7D1244B002935D1F8
:1037A000196899BB002382F31188BFF36F8F53B35D
:1037B000FFF70AFF04464FF02003EFF3118083F375
:1037C0001288BFF36F8F1A4B0022D3E90289494553
:1037D00008BF44451FD3D3E900164FF0FF344FF024
:1037E000FF351A604FF48032C3E902450B4BC3F832
:1037F000482380F31188BFF36F8F21B142464B46B7
:1038000000200096884702B0BDE87083002119604F
:103810001B680123C7E71146EBE700BF00500150CA
:103820000451015000620120F86101204051015013
:103830002046012073B500244FF0FF304FF0FF31D8
:10384000174D184BC5F80845C3E902014FF4803302
:1038500002264FF40012C5F80433134B0121C5F8BA
:1038600004631520C3F880212246FEF7D7FA1520FD
:10387000FEF7B6FA01230D4AC5F8046313600C4A3B
:103880002B6013600B4B0C4A0093204600230194DD
:10389000FFF7BCFE3046FFF727F9204602B070BDA7
:1038A000005001502046012000E100E00850015086
:1038B000FC610120C1340000FFFF7F00144B13B5F1
:1038C000B0F1FF3F08BF1846441E002C1DDD9C428E
:1038D000A8BF1C46FFF778FE0E4B0F49D3E9002323
:1038E000801AB0F5000F28BF0024013004440848B6
:1038F0000091844228BF044600201219019043F130
:103900000003FFF783FE02B010BD0024E2E700BF12
:10391000FFFF7F0030460120C134000008B5FFF7EB
:1039200053FE024B1B68C01A08BD00BF3046012081
:1039300040EA0103C3F30E0330B58BB940F215150D
:10394000094CC90BC0F3C730994201D1002030BDEA
:10395000C218D2B202F5C07244F822500133F3E724
:103960006FF01500F3E700BF003000500348452119
:1039700008B503F09CFB0020FEF794FDD58C0000F9
:10398000816808B5044A1023103903F0DAFB0038C7
:1039900018BF012008BD00BFE47F000030B50C4611
:1039A000816887B0102302AA1039054603F0ADFBE9
:1039B000002811DB1022284602A903F02AFE68B174
:1039C00003232370A968012328460DF10702283933
:1039D00003F09BFB00280BDA01202AE01022164995
:1039E00002A803F05BFC002814BF02230123E8E7D0
:1039F0009DF80730284603F00F021B0962702371FF
:103A000001220DF1070103F004FE10B96378042BC5
:103A100003D90123637000232371AA682846203A42
:103A2000A11C03F01EFE0028D6D12846E11C03F09D
:103A300071FE07B030BD00BFE47F00002DE9F04308
:103A400085B005466946032003F068FE044618B1B8
:103A5000FF2005B0BDE8F083072002A903F05EFE59
:103A6000012838D12A464921284803F020FB284B59
:103A70008DF80C40029300229DF800509DF80860DC
:103A80009DF803709DF80B809DF80290214C29460B
:103A9000207803F0D2FD18B33146607803F0CDFDF5
:103AA000F0B1A378042B01D0BB4219D1E378042BE9
:103AB00001D0434514D12379042B0FD16379022B14
:103AC00019D1154A1548492103F0F1FA6079831E8E
:103AD000022BBED9BCE70028CDD0B9E74B45EDD0CD
:103AE0000132032A04F10604D1D10D48492103F023
:103AF000DEFA0120ADE7032B05D00A4A0A49042B60
:103B000018BF0A46DEE7094ADCE700BF1A8D00004D
:103B1000030103038D8D0000FE8C0000658D000005
:103B2000788D0000F78C0000088D0000038D0000E8
:103B3000054B1868043B1B68092B03D1431E5842F0
:103B400058417047002070473401FF0008B54C4BC6
:103B50001B68092B01BF4FF050230022C3F814212A
:103B6000C3F81821FFF7E4FF30B10123454A136081
:103B7000A2F63822C2F87835414B1B68092B07D1D1
:103B8000414B1B68012B1EBF0122404BC3F8782517
:103B9000FFF7CEFF10B10E223D4B1A60384B1B6869
:103BA000092B04D100223B4B1A6001225A600022EB
:103BB000D30003F57F03D3F80013013108D0D3F805
:103BC00000130132D3F80433B2F5807F0B60EFD1DC
:103BD000314BDA69D1073BD5304B1946D3F8002475
:103BE000012AFBD1C3F80425D1F80034012BFBD105
:103BF000294BDA69D20708D5DA69284922F001028F
:103C0000DA61D1F80024012AFBD11A6A01320AD103
:103C10001A6A22F0FF0242F020021A621F4AD2F80A
:103C20000034012BFBD100221C4BC3F80425D3F830
:103C30000024012AFBD1BFF34F8F1949194BCA68E1
:103C400002F4E0621343CB60BFF34F8F00BFFDE788
:103C50001B6A0133C0D0124BD3F88C2042F440626F
:103C6000C3F88C20D3F8882042F47002C3F888206F
:103C7000BFF34F8FBFF36F8F0B4B0C4A1A6008BD19
:103C80003001FF00384A00503401FF00004000506E
:103C9000E4AE03500C4700500080FF00009003503A
:103CA00000ED00E00400FA05484501200090D00333
:103CB000044B1A7922B9012218601A710248704720
:103CC00002487047046201200000AD0B0C00AD0BF0
:103CD00010B1012820D070474FF05022D2F818348C
:103CE000D2F81814C90311D503F00303022B0DD128
:103CF000C2F8183500220D4B1A601B6802224FF0E3
:103D00005023C3F8042301229A6070474FF05023D8
:103D10000122C3F81825EDE70022054B1A601B6845
:103D20004FF05023C3F8040318607047045100504B
:103D30000051005038B510B1012818D038BD4FF0EF
:103D400050230222012142F210751C46C3F80823B9
:103D5000154A10601268154A1160D4F81834DB0354
:103D6000ECD5012003F0FEFC013DF6D1E6E74FF073
:103D70005024002242F210750D4BC4F808031A605B
:103D80001B680C4B1860D4F80C34D4F80C2403F0E6
:103D90000103D203D2D5002BD0D0012003F0E2FCE6
:103DA000013DF0D1CAE700BF045100500C50005053
:103DB0000051005004500050164B10B51A6852B113
:103DC000002018601B6801224FF05023C3F808231D
:103DD000114B1B689847114B1A688AB100221A6070
:103DE0001B684FF05023D3F81824D3F8181402F0AE
:103DF0000302012A4FF0020103D1C3F818159A609B
:103E000010BDC3F80813044B0120BDE810401B6827
:103E1000184700BF005100500462012004510050B7
:103E2000F0B54FF02003EFF3118783F31288BFF34F
:103E30006F8F0D4A1668F14389B291B10025ECB23B
:103E400021FA04F3DB0705F10105F8D50123A340AE
:103E5000334304700548136087F31188BFF36F8FF5
:103E6000F0BD0348F8E700BF0C6201200000AD0B75
:103E70000200AD0B012303FA00F010F0FF0F12D087
:103E80004FF02003EFF3118183F31288BFF36F8F9C
:103E9000064AD36C23EA0000D06481F31188BFF393
:103EA0006F8F034870470348704700BF10620120BE
:103EB0000000AD0B0400AD0B2DE9F041FF22002402
:103EC00001260546DFF858E01448DFF85880E3B2D1
:103ED0004FF02001EFF3118C81F31288BFF36F8F45
:103EE00022FA03F1C9070AD5DEF84C1006FA03F7E7
:103EF000394201BF40463943CEF84C102B708CF349
:103F00001188BFF36F8F404505D006FA03F39A433B
:103F100004F10104DBD1BDE8F08100BF0200AD0B6C
:103F2000106201200000AD0B0022034BC3F8842572
:103F3000C3F80425704700BF0090035008B5C0F3D4
:103F40000B0383B90222094BC3F88425C3F8042567
:103F50004FF0FF320260D3F80024D207FBD5FFF701
:103F6000E3FF034808BD0348FCE700BF009003508F
:103F70000000AD0B0A00AD0B0122074BC3F88425EE
:103F8000C3F80425D3F80824D207FBD50160BFF39A
:103F90005F8FFFF7C9BF00BF00900350032310B528
:103FA000134C144A23616361134BA261E3614FF424
:103FB000806323620023A3626362E36222660F4A86
:103FC0000F4962661022E01DA2662367E3666367FD
:103FD00003F047F9BFF35F8F0A49204603F041F928
:103FE000BFF35F8F2023A371BFF35F8F10BD00BFAE
:103FF000606201209F8D00006B6401205B640120E2
:10400000A88D0000AC8D00000E4B70B553F8204019
:10401000013053F82060A64200D870BDD4E90035C5
:104020002846984765B1EB6830B10028B8BF4042D8
:10403000FF28A8BFFF2018705A7842F001025A707A
:104040000834E8E7F47F000070B5054610B9002495
:10405000204670BD0378002BF9D00F4A0F4C16464E
:10406000944208D10D4CB442F1D0204603F098FBA5
:1040700050B91834F7E7204603F092FB10B12368DB
:10408000AB42E5D01834EBE72846216803F0FAF894
:104090000028EED1DCE700BF847B00000C7B000031
:1040A000F7B505460E464FF02003EFF3118783F373
:1040B0001288BFF36F8F00F0F1FD0022042D98BF2E
:1040C000184B044694BF53F82530174B00924521F6
:1040D0002A46164802F0EBFF3EB1F369C3F308032A
:1040E0001BB14521124802F0E2FF2CB1204603F03B
:1040F000ABFB08B1037803B90E48034622464521BD
:104100000D4802F0D4FF31462846FFF72FFC87F315
:104110001188BFF36F8F204603B0BDE8F040FEF773
:1041200009BA00BF0C800000B38D0000C98D0000EB
:10413000F68D0000C18D00001C8E000010B5C0245B
:104140000F4B012204FB0034002386B0CDE9042389
:104150000F220193CDE9023218230A4A0A4903FBD0
:1041600000234FF4A072009302FB0011074B20467E
:1041700000F0F4F8637B23F00403637306B010BD12
:104180003846012008630120289201204D78000064
:10419000012208B5094B02201A70FFF735FF03F022
:1041A00056FC0320FFF730FF00F008F9FCF744F954
:1041B000034A137B23F00103137308BD6B680120CE
:1041C000F84601200248034A0021121A03F081B880
:1041D00018460120286A012080B52F4BB8B003F59E
:1041E000006787F3088883F30A880024E0232B4DB7
:1041F0002B4E85F82230EC772C766C76AC7685F8F1
:1042000020406B6A43F4E0236B6285F82340FEF79D
:10421000F7F8FDF761FD4FF0FF33AB62EB62FEF79D
:104220001DFBFEF799F940F20113ADF82C3008ABF5
:10423000B360CDE9214403F0B2FA2046FFF7E4FE73
:104240000120FFF7E1FE00F075FC164A164D0592BD
:104250000122164B1649CDE9034228464FF420525D
:10426000CDE901440094B56100F078F86A7B0790CD
:1042700022F004026A73284603F039FB2046FFF758
:104280005DFF0C4A094BF26028461A4607993475BF
:104290007760FDF79FFE00BF6893012000ED00E00E
:1042A00008630120838E0000F84601209141000040
:1042B000286A01203846012070B50E4B0E4CA342EF
:1042C00001D3002070BDD3E9030141EA000212F0DE
:1042D00003020BD19D685A61AA4201D11C33EEE75B
:1042E0005E6901320E6059610144F5E76FF0150017
:1042F000E8E700BFC8450120C8450120D3B50C46FA
:1043000016461F464FF02003EFF3118183F3128806
:10431000BFF36F8F43695BB123601B68436183699F
:1043200001338361002081F31188BFF36F8F11E0A7
:1043300056EA070203D16FF00B002360F3E7024651
:10434000CDE90067083000F047FB18B9024B9B68C5
:104350005B69236002B0D0BD086301202DE9FF41F5
:104360000E9E00F1580506730426C0E91655002577
:104370000446073222F00702C0E91912467301EB26
:1043800002080D9E0C9AC0E9065585608673C573B8
:10439000C56602920B9A01920A9A00924246FDF774
:1043A000F9FD054B65659B6803B11B6F40462367AC
:1043B00004B0BDE8F08100BF086301202DE9F0479B
:1043C0002A4E2B4DB04686B0B54205F1300410D3CD
:1043D00000F0BAF94FF4004940F2E7360027244CC8
:1043E000DFF890A0444521D306B0BDE8F04700F0C7
:1043F00085BB54F8043C059354F8103C049354F8DE
:10440000143C039354F8183C029354F81C3C019359
:1044100054F8203C009354E90A2354E90C01FFF7B7
:104420009DFF54F8303C5D652546CDE7636A5A1C14
:104430000DD03046394623EAE373C9FB0301B94284
:1044400008BFB042256804D1284600F069FA30342C
:10445000C8E74FF47A720023FBF774FE02460B465E
:1044600005F11800514600F0DBFCF0E7C8450120DB
:10447000C84501200F7900002DE9F3410446164696
:104480001F464FF02003EFF3118883F31288BFF328
:104490006F8FC368354A6BB180689168884219D0C4
:1044A00056EA070318D188F31188BFF36F8F6FF0B6
:1044B0000F000CE0916891F90E100133E3609368EE
:1044C0002161A36088F31188BFF36F8F002002B0D1
:1044D000BDE8F0812169F0E791F90E1090F90E30F6
:1044E0006FF07E029942A8BF19469142B8BF1146AB
:1044F0008B422FDD00F084FA054622464146CDE985
:1045000000671B4800F068FA0028E0D04FF0200355
:10451000EFF3118683F31288BFF36F8F236821694D
:104520009C420AD04BB193F90E309942A8BF19466C
:104530006FF07E039942B8BF1946A06890F90E301B
:10454000994209D16DB13146094800F0EBF86FF09E
:104550000A00BCE70025D0E700F052FA0028F2D1AB
:10456000F0E786F31188BFF36F8FF0E7086301204F
:104570006C68012038B583680446002B36D01E4A8B
:104580009268934235D1DA7B013ADA73C368012B22
:1045900005D9013BC36000F0B1FA002038BD4FF0EF
:1045A0002003EFF3118583F31288BFF36F8F016946
:1045B000806890F90E30994201D000F021FA20462F
:1045C00003F0F4F9A06058B190F90E2022610022A6
:1045D000826703F08CF92946084800F0A3F8DAE76F
:1045E000E06085F31188BFF36F8FD4E76FF015009B
:1045F000D4E74FF0FF30D1E7086301206C68012059
:1046000038B504464FF02003EFF3118583F3128889
:10461000BFF36F8F03F0CAF948B10022826703F03D
:1046200066F92946BDE83840044800F07BB8D4E973
:1046300002329A4218BF0133A360F2E76C6801208E
:1046400037B514461D464FF02003EFF3118183F375
:104650001288BFF36F8F836843B1013B836081F39E
:104660001188BFF36F8F002003B030BD54EA0503FB
:1046700006D181F31188BFF36F8F6FF00F00F3E75E
:104680000246CDE90045024800F0A6F9ECE700BF7C
:104690006C68012010B5084C23685BB1FFF73EF948
:1046A0002268064910440861BDE810400021104608
:1046B00003F0AAB910BD00BF3863012008630120D0
:1046C000F8B504460D464FF02003EFF3118683F34F
:1046D0001288BFF36F8F00224FF4004740F2E7309B
:1046E00000210D4BE7FB04011A6100234FF47A729D
:1046F000FBF728FD002C094B09DC1860084B1D60F6
:10470000FFF7C8FF86F31188BFF36F8FF8BD02284B
:10471000B8BF0220F1E700BF086301203863012021
:104720003463012049B9EFF3058030B9054B9A692C
:104730009B689A4201D0FDF7B9BB81F31188BFF3A2
:104740006F8F7047086301204FF02003EFF3118152
:1047500083F31288BFF36F8F044B9A68D37B013BBE
:10476000D37381F31188BFF36F8F70470863012003
:1047700038B502460C4803F0B0F80C4D044600B9B9
:10478000EC68AB684AB95A7BD20606D1A26922B955
:10479000DA897F2A01D9AB6138BD9C4201D0FFF78D
:1047A00079FFAC61F8E700BF2463012008630120B2
:1047B00070B590F90D200146002A437B04DA03F01E
:1047C0007F03437303F061F8174A4B7B104663F095
:1047D0007F034B7350F81C3F156A834208BF0023C8
:1047E000002B38BF0023CBB191F90E6093F90E4036
:1047F000A6420FD0A41B002C0CDD5868C1E9003084
:10480000016059609068BDE87040431A58425841B1
:10481000FFF7AEBFAB4201D01B68E4E7C1E900057A
:1048200029601162EEE700BF08630120014670B500
:104830004FF02003EFF3118483F31288BFF36F8FDF
:10484000164B174A98681568A8421D4606D1FFF70F
:1048500021FF84F31188BFF36F8F70BD00261660AF
:10486000104A1268BAB1C2897F2A14D8427BD20694
:1048700011D10D4A90F90E60126896420BDB0B4A7B
:10488000904208D01A698A4202DCFFF791FFDEE706
:10489000521A1A61DDE700232B61DAE70863012071
:1048A0003063012038630120346301203846012041
:1048B00070B490F90D30427B002B2DDBD3062BD149
:1048C00083694BBB154962F07F0242730A4652F876
:1048D0001C4F0D6A944218BF2346002B38BF00239B
:1048E000ABB190F90E6093F90E40A6420BD0A41B19
:1048F000002C08DD5A68C0E90032106058600020C2
:1049000070BCFFF735BFAB4201D01B68E8E7C0E9D8
:10491000002528600862F2E770BC70470863012038
:1049200010B54FF02002EFF3118482F31288BFF329
:104930006F8F427B510704D484F31188BFF36F8FCC
:1049400010BD22F004024273FFF7B2FF2146BDE81A
:1049500010400148FFF7E6BE6C68012008B590F9E9
:104960000D200146002A437B04DA03F07F034373E2
:1049700002F08BFF044B9868431A58425841BDE837
:104980000840FFF7F5BE00BF086301202DE9F041A4
:10499000064614461D464FF02003EFF3118783F3BC
:1049A0001288BFF36F8F02F0D4FF87F31188BFF333
:1049B0006F8F6B1C08BFB4F1FF3F08D022462B4617
:1049C00006F118000349BDE8F04100F029BABDE83E
:1049D000F08100BF0F79000010B50C46064B114660
:1049E0009868064B1860DDE90223FFF7CFFF2046E9
:1049F000BDE81040FDF75ABA08630120306301207A
:104A0000F8B504464FF02003EFF3118683F31288C4
:104A1000BFF36F8F437B49B2DA0638D18569002D29
:104A200035D103F07F03437302F02FFF437B817383
:104A300063F07F0343731748034653F81C7F9F427C
:104A400018BF3D46002D1A462B4638BF0023076A83
:104A5000C3B193F90E50A94210D06D1A002D0DDD8F
:104A60005A68C4E9003214605C600120FFF780FEE0
:104A7000012086F31188BFF36F8FF8BDBB4201D0D0
:104A80001B68E5E7C4E900273C600462EDE700200D
:104A9000A173EEE70863012070B50446183002F0F8
:104AA0009DFF4FF02003EFF3118683F31288BFF3CD
:104AB0006F8F94F90D20637B002A05DA03F07F03E2
:104AC0002046637302F0E1FE0B4D637BA86843F060
:104AD00010036373031B58425841FFF749FE86F3E6
:104AE0001188BFF36F8FAB68A34203D1BDE870405C
:104AF00002F0E9BE70BD00BF0863012010B54FF0A1
:104B00002003EFF3118483F31288BFF36F8F084BF8
:104B100000209A68D37B0133D373FFF729FE84F317
:104B20001188BFF36F8FBDE8104002F0CCBE00BF0C
:104B3000086301200021044B084603F11C02C3E96D
:104B40000722FFF7BDBD00BF08630120F8B54FF095
:104B50002003EFF3118483F31288BFF36F8F1B4997
:104B60008868437B03F07F03437302F08EFE0846A0
:104B70008A68537B63F07F03537350F81C3F0E6ABF
:104B8000834208BF0023002B38BF0023CBB192F92A
:104B90000E7093F90E50AF420FD0ED1B002D0CDDBF
:104BA0005968C2E900310A605A600120FFF7E0FD50
:104BB0002046BDE8F840FDF779B9B34201D01B6843
:104BC000E4E7C2E9000632600A62EEE7086301200A
:104BD0002DE9F04104460D4654EA050104D1FFF7E2
:104BE000B5FF0020BDE8F0816FF001010A1A4FF017
:104BF000FF3161EB0503012A73F100032ADA02F0A9
:104C00001EFF06194FF02003EFF3118883F312887B
:104C1000BFF36F8F114F124BB8681860FFF79EFEFD
:104C2000B868104922462B46183000F0F9F8BA68E7
:104C30004046537B43F010035373FDF737F902F0FE
:104C4000FEFE301A66EB0601012871F10003B8BFC1
:104C50000020C7E76FF00106361AD3E7086301208A
:104C6000306301200F79000008B50B46013308BFFF
:104C7000B0F1FF3F06D1084B9868FFF70DFF4FF0EA
:104C8000FF3008BDFFF7A4FF4FF47A7380FB0301E8
:104C9000C30B43EA4140F4E708630120014B9868E5
:104CA000704700BF086301202DE9F04104464FF032
:104CB0002003EFF3118683F31288BFF36F8F437BDA
:104CC0001A0705D586F31188BFF36F8FBDE8F08111
:104CD00023F0200242F00801D20920D14173A368D9
:104CE00013B1204602F0D9FD04F1180002F076FE5F
:104CF0004FF0000804F15807A56DBD4200D0B5B9CA
:104D00000120FFF735FD104B9B68A342DAD1EFF38A
:104D10000583002BD6D13046FDF7C8F8D2E703F063
:104D20005F0343F00803437302F0AFFDD7E7284663
:104D300002F0B3FD05F1180002F050FE2846C5F858
:104D40007880FFF7B5FDD7E70863012008B506486E
:104D5000064A0749121A02F0B1FABDE80840054AAE
:104D60000549064802F0AABA00450120184601206C
:104D7000A48E0000000000008C8E00000045012081
:104D8000034B1B680BB9FEF7C9BD0020704700BF7D
:104D90003C63012030B5036868B10A4A526890420A
:104DA00009D043B1D3E90421D0E90445121945EBF8
:104DB0000101C3E90421426813605A600023C0E97D
:104DC000003330BD4C450120134B10B51C689C428C
:104DD00008BF0024FFF7D4FFCCB1D4E90423121A92
:104DE00063EBE073012A73F1000113DB10466FF0EF
:104DF000004219460023824273EB010400DA104698
:104E0000064B1B6913B19842A8BF184610BD6FF03E
:104E10000040F5E70020F3E74C450120086301203E
:104E2000B3F1FF3F08BFB2F1FF3F2DE9F74F044652
:104E300092469B4673D081604FF02003EFF31185BB
:104E400083F31288BFF36F8F6FF001034FF0FF32CF
:104E5000B3EB0A0862EB0B09B8F1000F79F100011E
:104E60001CDB3048D0E900105B1A62EB0002B3EBA8
:104E70000A0662EB0B07012E77F10003BCBF012687
:104E80000027C4E90467284AD2E9003C93421ED1B6
:104E9000C4E9002CCCF8004054602DE0FFF770FF0F
:104EA0001AF1010300934BF100030193DDE90023A4
:104EB000121843EBE073C4E90423E4E7B6EB0800FF
:104EC00067EB09016345C4E90401E1D01B68002BCD
:104ED000DED0D3E90489D4E90467464577EB0901BC
:104EE000ECDAB8EB060069EB0701C3E90401596885
:104EF000C4E900310C605C60136893420BD09C42A3
:104F000009D1FFF761FF18B1084B1B69834202D03A
:104F10000021FEF7D3FC85F31188BFF36F8F03B038
:104F2000BDE8F08FB84701204C45012008630120FF
:104F30002DE9F74F0646FFF779FC4FF02003EFF31A
:104F4000118483F31288BFF36F8FDFF8B0A02A4D6E
:104F50005146DFF8ACB02E60D5F800C0DBF8000099
:104F60006246DAE90089D3175845CDE900230DD010
:104F700060B1D0E90467B445BB411DDA009BB6EBD4
:104F8000030C019B67EB0306C0E904C60026009BE7
:104F90002E6013EB0802019B43EB0903C1E90023D8
:104FA000FFF712FF3146FEF789FC84F31188BFF347
:104FB0006F8F03B0BDE8F08F0022002318EB0608C6
:104FC00049EBE679C0E90423ACEB0606CAE900899F
:104FD0002E60FFF7DFFE84F31188BFF36F8F8368C5
:104FE00098474FF02003EFF3118483F31288BFF347
:104FF0006F8F0249B0E700BF3C630120B847012032
:105000004C45012010B54FF02003EFF3118483F3DA
:105010001288BFF36F8FFEF781FC064BD3E90023A4
:10502000121843F1000384F31188BFF36F8F104609
:10503000194610BDB847012010B50A4C23681BB1B2
:1050400001230020236010BD00F0D0F80028F7D025
:105050000138062803D8044B53F8200010BD03483C
:1050600010BD00BF4063012020800000FE8FFFFFC5
:10507000BFF34F8F0549064BCA6802F4E062134341
:10508000CB60BFF34F8F00BFFDE700BF00ED00E036
:105090000400FA054FF0FE33002130B4064A074DF4
:1050A000074C2B6013602360064A074CEB60636873
:1050B000C2F8001530BC1847041484500014845002
:1050C000081484500000845054450120024BD0E95C
:1050D0000012C3E9001270475445012010B5044680
:1050E00030B16368DB0602D500232360636010BD26
:1050F000024B03485B689847F3E700BF5445012023
:105100003C80000068B143683BB1DB0607D5BFF3C4
:105110005F8F0023036018467047034870470348B9
:1051200070476FF4E0407047EA8FFFFFE98FFFFFA1
:1051300010B5044620B1002211232260636010BD27
:105140000148FFF7A7FFF6E764800000A0B14368BD
:1051500083B1DB060CD50122D0E8EF3FC0E8E12F98
:105160000029F9D1012BF7D0BFF35F8F00207047E2
:1051700003487047034870476FF4E040704700BF32
:10518000E98FFFFFEA8FFFFF2DE9F041144C026821
:10519000C368D0E90156C4E90263C4E90025114B94
:1051A0000E684868104DC3E90060D1E902760869CD
:1051B000D5F81411C3E902761861CB060DD500238A
:1051C00005F58870C5E94433C5E96D339047236818
:1051D00005F5DA70BDE8F0411847BDE8F08100BF81
:1051E00064450120744501206C68012010B500F071
:1051F00033F820B1032400F067F8204610BD00F01A
:1052000035F890B900F0B0F890B90F4B1B681B0E41
:10521000F02B08D10D4A0E4B12689A420AD007248F
:1052200000F01CF8E7E70624FAE70424204610BD46
:105230000024F5E7012000F097F804460028F7D194
:10524000044B1860D9E700BF28198450241A8450F1
:105250000000E0200C1A84500020704700207047A6
:10526000014B1860704700BF041A845010B51148F4
:1052700000F048F800B110BD0F4800F043F80028D6
:10528000F9D10E4C204600F03DF80028F3D10C4B2C
:105290000C481C6000F036F801460028EBD100F005
:1052A0002DF8044608B1204610BD00F03FF8204616
:1052B000FAE700BFAC450120A0450120A845012028
:1052C000B0450120A445012008B5084800F024F8A5
:1052D000074800F021F8074800F01EF8064800F0E3
:1052E0001BF8BDE8084000F00BB800BFAC4501203A
:1052F000A0450120A8450120A445012000207047B9
:10530000704700BF08B5034B02681B6810689847D8
:10531000002008BD6445012008B5034B02685B68A6
:1053200010689847002008BD6445012070B5094CFD
:10533000094D2069AB68984718B1084B08485B686D
:1053400098470021074AEB6811602069BDE870406A
:10535000184700BF744501206445012054450120D1
:10536000888000005463012070B51A4D1A4E04461F
:10537000B26828699047F0B95CB1184C2368ABB1AA
:10538000012B1AD0013B23602869F368984700205D
:1053900070BD124C216839B90120114B114AC3F874
:1053A00000051368002BFCD101312160F3682869E6
:1053B0009847002070BD0C4870BD0A4A1368002B46
:1053C000FCD1074A6FF07E40C2F80035FFF748FF76
:1053D0002368D7E774450120644501205463012008
:1053E0000000845010198450E98FFFFF30B102682B
:1053F000034B04489A4208BF002070470248704798
:10540000DD55AABB8208F0007108F00038B50D46E2
:105410000446B0B1A0220021043002F032FB95B165
:105420000822294604F1640002F031FB082205F14C
:10543000200104F1840002F02AFB0020034B2360CA
:1054400038BD0348FCE70348FAE700BFDD55AABBB7
:105450007108F0008308F0002DE9F74305460E4679
:1054600099461146FFF7C2FF0446002840F08480A9
:10547000002E00F08580002900F08480B9F1200F13
:1054800040F0828005F14404082205F1040820461A
:1054900002F0FDFA05F1240708223146404602F0E9
:1054A000F6FA06F120010822384602F0F0FA02A9C5
:1054B00041F8049D4FF4807002F0DDFA002865D1B8
:1054C0004FF48073324A0121136093600823314AFC
:1054D00000F034FB0121052308462F4A00F02EFB83
:1054E0000823424601211C2000F028FB08233A46ED
:1054F0000121032000F022FB224608230121022083
:1055000000F01CFB0823254A01211A2000F016FB9D
:105510000523234A01211B2000F010FB0823214A08
:105520000121142000F00AFB08231F4A0121152045
:1055300000F004FB082305F164020121162000F0AD
:10554000FDFA082305F184020121172000F0F6FA84
:105550000823164A01210B2000F0F0FA00F04AFB64
:105560000446019800F0D8FA114B002C18BF1C46D5
:10557000A421284602F087FA204603B0BDE8F08354
:105580000C4CF9E70C4CF7E70C4CF5E7084CEFE74F
:1055900090108450E880000060810000A880000026
:1055A0004C8100000C8100002C810000C8800000AC
:1055B0008408F0007608F0008008F0008108F00010
:1055C000C2690C4B1A60826943F8042C426943F8A3
:1055D000082C026943F80C2CC26843F8102C82682E
:1055E00043F8142C426843F8182C026843F81C2C2A
:1055F000704700BF5C1684500C4B1B68C3610C4B9A
:105600001B6883610B4B1B6843610B4B1B68036179
:105610000A4B1B68C3600A4B1B688360094B1B68FD
:105620004360094B1B680360704700BF5C168450E1
:105630005816845054168450501684504C1684507A
:1056400048168450441684504016845030B1026885
:10565000034B04489A4208BF002070470248704735
:10566000DD55AABB0202F0000002F00038B5044686
:1056700068B1051D7021284602F005FA284620224F
:10568000044902F0FCF90020034B236038BD0348B5
:10569000FCE700BF74810000DD55AABB0002F000EA
:1056A0002DE9F04385B015466F46274B04460E465C
:1056B0000FCB87E80F002DB94FF00009484605B021
:1056C000BDE8F0832046FFF7C1FF81460028F5D1F1
:1056D000231D0193636AA3BB236F8BB1C3F1400801
:1056E000A84528BFA84604F1300031461844424678
:1056F00002F0C5F9236F464443442367A5EB080530
:10570000226F402A06D104F13001384600F0B4FB84
:105710000023236705F03F0835F03F0505D03146EB
:105720002A46384600F0A8FB2E44B8F1000FC3D03B
:105730004246314604F1300002F0A1F9C4F870800D
:10574000BCE7DFF80890B9E7F07D00000C02F0003C
:105750002DE9FF4104466F46134B0E460FCB87E8F9
:105760000F002046FFF772FF8046B0B9CEB1636AE2
:10577000251D01953BB90123226F636204F13001BD
:10578000384600F079FB2B46043E243453F8042BB2
:1057900012BAA34246F8042FF8D1404604B0BDE83F
:1057A000F081DFF80880F8E7F07D00000502F000E6
:1057B000084B1B681B0EF02B08D1074B1A68074BD0
:1057C0009A4205D10020064B1860704705207047AB
:1057D0000620704728198450241A84500000E020C5
:1057E0000C1A8450002230B5134640F6FC7549006F
:1057F000023802F1A15404F5823490424FEA840445
:1058000002F10102CABF236025605B181E2AF0D195
:10581000034A13600B445360024B034A1A6030BDC5
:10582000781084508410845020F80F001E4B30B53F
:105830001A4685B0196800910099CC07FAD500F195
:10584000A15000F582308000016813680193019B2C
:10585000D807FAD5154B164C186820231F3090FB3B
:10586000F3F0144D0138002810DA00230130400114
:1058700053B14FF00042A0F12001134204D101388E
:1058800088424FEA5202F8D105B030BD1368039345
:10589000039BDB07FAD5431823602B680293029B16
:1058A000002BE3D10138DEE7B4108450AC108450F3
:1058B000E4108450DC108450F0B51D6885B001F010
:1058C0001F040DB91F2C28D1174D2E462F680197A4
:1058D000019FFF07FAD500F1A15000F5823080004A
:1058E000006835680395039DED07FAD51F2C00EB82
:1058F000611018BFC9430D4D18BF01F01F0128608A
:105900000B480068029002981CBF00FA01F1116078
:105910004FF0000108BF1060196010684300C00F0D
:10592000136005B0F0BD00BFB4108450E410845083
:10593000DC1084500C4B890118603F3020F03F0090
:105940004030586099600948D9601961596199617E
:105950001C3382B0196002680192019AD207FAD50D
:10596000196002B0704700BF90108450B41084508A
:1059700038B5A0F12003B3F5426F05462CD88F2827
:1059800026D800F1470300F16604DB064FEA541401
:1059900000D0013464013F34A409013411B1A142A3
:1059A0001AD30C464FF48050E300B0FBF3F02028EC
:1059B00028BF202002B110600122084B21461A6046
:1059C000FFF710FF28462146FFF7B4FF002038BD3F
:1059D00000F11F046409DDE70148F8E71C18845052
:1059E0002221F000464BF0B51D4689B01C68019499
:1059F000019CE407FAD5434B002413449B001A682A
:105A00000B181E2B88BFC0F11E011F320B18520944
:105A10005343B3F5806F84BF4FF48061B1FBF2F163
:105A2000274688BF091ADFF8E4E000F1A150DFF84B
:105A3000E0C000F58230A14233DC2B680493049B64
:105A4000DB07FAD5304B1B68296805910599CF070C
:105A5000FAD52E4C2E49236000231E46934203F1B3
:105A6000010040D11946002620F0010228488A4250
:105A70003CD8296806910699CE07FAD525490968C8
:105A8000286807900798C007FAD5216000210C46C6
:105A90001F488B422DD100201D499A422CD809B0B5
:105AA000F0BD2B680293029BDB07FAD503199B001C
:105AB0001B682E680396039EF607FAD5CEF80030D1
:105AC0000023934203F1010306D1164623F001039C
:105AD000B34204D80134AEE7CCF80070F1E7CCF85B
