:020000040000FA
:1000000068530220BD360000C3830000ED360000B7
:10001000ED360000ED360000ED360000ED36000054
:10002000000000000000000000000000F1340000AB
:10003000ED36000000000000A934000061810000DE
:100040009536000095360000953600009536000084
:100050009536000095360000953600009536000074
:100060009536000095360000953600009536000064
:100070009536000095360000953600009536000054
:100080009536000095360000953600009536000044
:100090009536000095360000953600009536000034
:1000A0009536000095360000953600009536000024
:1000B0009536000095360000953600009536000014
:1000C0009536000095360000953600009536000004
:1000D00095360000953600009536000095360000F4
:1000E00095360000953600009536000095360000E4
:1000F00095360000953600009536000095360000D4
:1001000095360000953600009536000095360000C3
:1001100095360000953600009536000095360000B3
:1001200095360000953600009536000095360000A3
:100130009536000095360000953600009536000093
:100140009536000053B94AB9002908BF00281CBFE2
:100150004FF0FF314FF0FF3000F06CB9ADF1080CFB
:100160006DE904CE00F006F8DDF804E0DDE90223D5
:1001700004B070472DE9F047089D04468846002BDF
:100180007DD18A4217463FD9B2FA82F242B1C2F11A
:1001900020009140974024FA00F0944040EA010882
:1001A0004FEA174C230C1FFA87FEB8FBFCF60CFB3A
:1001B000168106FB0EF043EA0143984205D9FB186D
:1001C00002D2984200F22481013E191AA3B2B1FB77
:1001D000FCF00CFB101100FB0EFE43EA0144A645A7
:1001E00005D93C1902D2A64500F20F81013840EA38
:1001F0000640A4EB0E0400261DB1D4400023C5E93F
:1002000000433146BDE8F08702B9FFDEB2FA82F260
:10021000002A50D1CB1B4FEA174E1FFA87F8012650
:10022000210CB3FBFEFC0EFB1C300B4608FB0CF94B
:1002300041EA004189450AD979182CBF01230023DE
:10024000894502D9002B00F0D9800CF1FF3CA1EBCD
:100250000901A3B2B1FBFEF00EFB101108FB00F880
:1002600043EA0144A04505D93C1902D2A04500F259
:10027000C9800138A4EB080440EA0C40BCE78B427B
:1002800009D9002D00F0B1800026C5E900013046F3
:100290003146BDE8F087B3FA83F6002E46D18B4293
:1002A000C0F0A680824240F2A3803046002DA8D044
:1002B000C5E90048A5E79740C2F1200301FA02F022
:1002C0004FEA174ED94024FA03F31FFA87F89440F7
:1002D0000343B1FBFEF01E0C0EFB101100FB08FCEB
:1002E00046EA01418C4509D979182CBF0126002620
:1002F0008C4502D9002E00F093800138A1EB0C014F
:100300009BB2B1FBFEF60EFB161106FB08FC43EA9E
:1003100001418C4505D9791802D28C4500F28780BD
:10032000013EA1EB0C0346EA004679E7C6F120073F
:1003300003FA06F402FA06FC01FA06FEFA4020FA75
:1003400007F8F94000FA06F3224348EA0E044FEAA0
:1003500012484FEA144E1FFA82F9B1FBF8FA08FB73
:100360001A110AFB09F04EEA014E70450AD912EB48
:100370000E0E2CBF01210021704501D9002952D059
:100380000AF1FF3AAEEB000EA4B2BEFBF8F008FB98
:1003900010EE00FB09F944EA0E4EF14505D912EBC7
:1003A0000E0E01D2F14538D8013840EA0A40AEEBD2
:1003B000090EA0FB0C89CE4541464C4602D306D11E
:1003C000434504D20138B8EB0C0169EB020415B3C4
:1003D0005A1A6EEB040EF2400EFA07F72EFA06F3E5
:1003E00000261743C5E900730BE72E46284608E7A9
:1003F000841A61EB03010120884657E7ACF1020C37
:10040000394424E702383C4434E702383C44EEE601
:10041000023E3B44D9E62E46F3E602389644C4E752
:10042000023839446AE7AAF1020A9644AAE7023E72
:10043000394476E7704700BF10B501F08FFE094CD4
:10044000002001F091FD0028FAD123782BB900217A
:100450004FF4767004F086FFF2E70348BDE81040E1
:1004600004F0A6BFBA2302208801022008B509487B
:1004700004F01CFA084A106028B9BDE80840054994
:10048000064807F088BA4FF42062BDE8084003210F
:1004900006F026BEF094000068030220F7940000E6
:1004A00010B588B04FF476720023CDE906230023FF
:1004B0006FF00F02094CCDE90323CDE9013300931E
:1004C0004FF440722046064B064904F0EBFF2046ED
:1004D000054908B0BDE8104008F035BCA80102206D
:1004E0003904000068280220129500000122044B04
:1004F0001A704FF0FF324FF0FF33024804F078BF1C
:10050000BA230220880102202DE9F043604B614CA0
:100510006148E41AE408A40185B044F0030107F03F
:100520001FFCFFF7A3FF06F015FEFFF7B9FF5B48BE
:1005300000F0CAF830B95949594844F0010207F0AF
:100540001EFCFEE7574804F0B1F906464FF48872E6
:100550000C2106F0C5FD304606F0D1FD30B94FF054
:100560005023D3F8003403B3DA071ED401A800F0F7
:10057000B7FD0546002846D144F0030632460399EC
:10058000494807F0FCFB3146484807F0E9FB28469C
:100590004FF4803103F026FF44F001040546C0B358
:1005A0002146434807F0DCFBFEE7002140F267608C
:1005B00004F0D8FE08F00FFC4FF47A750B46A0FB50
:1005C000050105FB0311C70B47EA4147304606F01A
:1005D00096FD804608F0FFFBB8F1000FC6D1A0FBE6
:1005E000058905FB01994FEAD83242EA4942D21BFC
:1005F000B2F5E17F36D20021212004F0B3FEE5E719
:100600008368DB6836E02B4844F0010107F0A8FB63
:10061000FEE7FFF76BFF69469DF8080000F060F801
:10062000009B039E1E44019B1F8906EB07084FF0A9
:100630002002EFF3118382F31188BFF36F8F07F06D
:1006400090FD01F06BF801F04BF8F35983F3088843
:1006500085F31488D8F8043098472146164807F0E7
:100660007FFBFEE7154B1868C3681B681B07C7D4E0
:1006700083681B690821984744F00301104807F07C
:100680006FFB02F09DFA0F4802F0F6FD6EE700BF27
:10069000249100002C9100001A9500002E95000076
:1006A00041950000F094000098950000C29500006C
:1006B000E29500007A950000109600006803022081
:1006C0005B9500007891000010B5044C236813B9C5
:1006D00004F0ECF82060206810BD00BF6C0302201D
:1006E00008B570B1084A094B01469B1ADB089B010B
:1006F0000748002243F0010307F058FB6FF0150094
:1007000008BD0860FCE700BF249100002C910000A8
:100710002E9600001FB5074A03460C46106819467E
:1007200001AA07F0A7FF18B9019B2360029B636031
:1007300004B010BD6C0302202DE9F04FDBB015466C
:10074000DDE966481E46DDF890B1689F00F096FF2F
:100750000122764B3AA8C3F8002505F0FBFB3CB11B
:10076000B8F1000F04DD424621463AA807F0ADF883
:100770004FF000096B89B5F808809844EB689844FD
:10078000C8452FD80DA93AA805F056FC0022674BA2
:10079000C3F8002527B1202238460DA907F066FED0
:1007A00000233246009329464FF6FF7307A806F050
:1007B000D2FC044690B905464FF0FF37DFF874913C
:1007C000DFF868A102900DF1160305AA06A907A893
:1007D00006F00DFD00281FDA4FF0FF3420465BB015
:1007E000BDE8F08F659AA8EB09039A4228BF1A4624
:1007F00049461346924630465A4607F0A9FB04463E
:100800000028EBD1524659463AA807F05EF8D14489
:10081000B6E74FF0FF37D6E77FD1BDF81680B8F1C5
:10082000100F17D1BDF81480B8F1200FD4D1434672
:10083000304606993AAA07F08BFB04460028CDD132
:1008400042463AA90DA807F001FE0028C4D10123B1
:100850000293B8E7B8F1010F39D1BDF81430202B5D
:10086000BAD8304606993AAA07F072FB0446002827
:10087000B4D19DF814B0BBF1200F03D94FF0FF3471
:100880002746A0E7D9F80030294F0393039B9C42E9
:10089000F4DA00F0F3FECAF800851DA805F05AFB53
:1008A0007A681DA8126857F8081B07F00EF815A9FA
:1008B0001DA805F0C1FB00223AA9CAF8002515A819
:1008C0005A4607F0C3FD0028DAD00134DEE7B8F15C
:1008D000220F7FF478AF002F9BDBD9F80030BB42AA
:1008E00097DDBDF81430802B3FF676AF3046069981
:1008F0003AAA07F02DFB00287FF46EAFFFB20097F5
:100900002021BDF814303AAA0DA800F015F80028EF
:100910004FF0FF3708BF012555E7029B002B3FF43E
:100920005BAFB5FA85F04009444257E700008450B8
:1009300084910000809100002DE9F04397B090462B
:100940001E469DF87820384B0F4653F8321003EBC3
:10095000C2035B688146186801913023014402AAF2
:1009600001A806F03FFF10B14FF0FF3059E0DDE97C
:1009700001531D44294606AB03AA01A806F05AFFFD
:100980000028F1D1049A072AEED12849059807F0EA
:100990005DFD0028E8D1079A082AE5D12449089886
:1009A00007F054FD0028DFD1294602AA01A806F06D
:1009B0002DFF0028D8D1DDE90143E2189542D3D1BB
:1009C000412BD1D12378042BCED14644013430239E
:1009D000314603AA02A80194CDF8088006F002FF70
:1009E0000028C1D1DDE9023213449E42BCD3324615
:1009F00002A906A806F046FC0028B5D1324602A995
:100A00000EA806F03FFC0028AED1202FACD13B460B
:100A10004846019906AA00F049FE002818BF6FF069
:100A2000010017B0BDE8F083849100004F960000EC
:100A30005796000030B50C46816887B0102302AA93
:100A40001039054606F072FB002802DA012007B0D3
:100A500030BD012837D103232370A968012328461C
:100A60000DF10702283906F061FB0028EEDB9DF846
:100A70000730012803F00F024FEA1313627023714D
:100A800001D0042A03D90123637000232371A968CC
:100A900001232846A21C203906F048FB0028D5DB9C
:100AA00001281AD10323A370A96801232846E21C58
:100AB000183906F03BFB0028C8DB012813D10323BB
:100AC0000020E370C3E710220A4902A807F0BEFC29
:100AD000002814BF02230123BEE7A378012B0CBF1B
:100AE00001230223DFE7E378012B0CBF012302235C
:100AF000E6E700BF8C9100002DE9F041042386B0A9
:100B00000D466F460026DFF86880ADF8003017F814
:100B1000010B01A901F034FC0446D8B90198102357
:100B2000816802AA103907F013FA044628B1019827
:100B300007F00DFA0EE00126E9E71022414602A86F
:100B400007F084FC50B1019807F001FA002EF2D0B2
:100B50004FF0FF34204606B0BDE8F0810198042331
:100B600081682A46303907F0F3F90446DFE700BF11
:100B70008C910000816808B5044A1023103907F0F1
:100B800004FA003818BF012008BD00BF8C91000096
:100B90002DE9F04385B06946042006F0FAFB18B150
:100BA000FF2005B0BDE8F083082002A906F0F1FBA4
:100BB0000028F5D102469DF800509DF808609DF888
:100BC00003709DF80B809DF80290244C29462078F4
:100BD00006F0B1FBF8B13146607806F0ACFBD0B15D
:100BE000A378042B01D0BB4215D1E378042B01D0AC
:100BF000434510D12379042B0BD1194B194AD21A32
:100C00006379D2089201022B42F0030214D11649F3
:100C100019E04B45F1D00132032A04F10604D5D185
:100C20000F4B10491148C91AC908890141F0030145
:100C300007F096F80120B4E7032B0CD00C490D48BF
:100C4000042B08BF01460C4807F099F86079831E11
:100C5000022BA6D9A4E70949F5E700BFA196000039
:100C6000249100002C9100007E96000091960000D7
:100C70006796000060960000839600007996000059
:100C8000F0B5054689B000200C4606F044FA06A9E6
:100C9000C0B201F075FB002863D1214606F03BFA93
:100CA0002C2607A9C0B206FB045601F069FB98B1D7
:100CB0002C236343E818016911F010011CD0002CAB
:100CC00033D02846069906F076FC2546069807F0AC
:100CD0003EF9284609B0F0BD079806F025FA074608
:100CE000079807F034F9731EF21C9342E7D013F80B
:100CF000011FB942F9D0DBE7EA581B4B9A4216D0E4
:100D000024B106980021826807F068F9174B184A49
:100D10001849D21AD208184B9201002C08BF194664
:100D2000164842F0010207F02AF80125CEE7C26812
:100D30000089C3439A42E3D8069B024498688242E2
:100D4000DED24FF4807201920D4A08460092CDE93E
:100D5000031132460291FFF7EFFC05460028B5D09B
:100D6000CEE74FF0FF35B4E73DB8F396249100008D
:100D70002C910000BB960000B3960000C5960000C1
:100D8000D017022073B50D46002104462846CDE950
:100D9000001106F0CFFB60B3194E2268B24203D1B6
:100DA000204601AA06F03CFBE36AB34204D16A463E
:100DB0000121204606F034FBDDE90032934288BF72
:100DC0000193019BAB6029462046019A00F03EFB4F
:100DD0000C4B1968002909DD0B4A0C4B0C48D21A40
:100DE000D208920142F0020206F0C9FF002002B0D0
:100DF00070BD05F10801FFF77FFEAB680193E2E7E4
:100E00003DB8F396D01802202C91000024910000E8
:100E1000E89600002DE9F04B0E46904699460024D6
:100E2000099FDFF844B0BC4201D300200EE03D1B17
:100E3000B5F5806F28BF4FF4806530462B460A4ACF
:100E400004EB090107F084F810B10120BDE8F08B34
:100E500008992B465A464046611807F096F8002834
:100E6000F3D12C44DFE700BFD0030220F0B50446E5
:100E7000602287B00E46002107F023FB0021904B33
:100E8000084663628F4B236506F045F904F12001A3
:100E9000C0B201F075FA0121002006F03CF904F11E
:100EA0004C01C0B201F06CFA204606F01AFB014674
:100EB00068B14FF48071844A844B8548D21AD208B5
:100EC000920142F0020206F05AFF0123A0E002461E
:100ED0000190204606F0ECFA0199054640B17A4AA5
:100EE0007A4BD21AD208920142F002027948EAE71C
:100EF000204600F0B3F90028E7D002A806F011FB65
:100F0000204602A906F0ABFB074648B16E4A6F4B7C
:100F10002946D21AD20892016F4842F00202D2E763
:100F200002A806F007FB80F0010002AAC1B2204629
:100F300006F0BEFA024640B1634A644B3946D21A03
:100F4000D208920142F00202D0E702A806F0F2FABB
:100F5000054690BB204602A9FFF714FF9DF80F300D
:100F600084F85830033B012B06D8284606F0BEFB18
:100F700010B1FF2384F858309DF80F30023B022B4C
:100F800011D8002006F0A0FB68B1FF2384F8583088
:100F90004D494E4B5148C91AC908890141F0010118
:100FA00006F0DEFEFEE794F85830FF2BF0D000216B
:100FB000204602AA06F07CFA87E79DF80F70012F01
:100FC00020D11046FFF7E4FD831E022B054608D80A
:100FD00039462046FFF754FE012811D0002818BFDB
:100FE000052584F8585094F85830042B8DF80F30AC
:100FF00014D8012B18D82AD0FF2384F8583026E0C3
:101000000546EEE701212046FFF73AFE18B1052319
:1010100084F85830E7E79DF80F30F9E7052BEBD15E
:10102000002006F063FB10E0204602A9FFF7AAFEAD
:1010300094F85830DA1E012A18D8002006F056FB22
:101040000028D9D1002006F03FFB0028D4D194F825
:101050005830FF2B0DD11C491C4B2048C91AC90818
:10106000890141F0010106F07BFEFEE7022BEED183
:10107000E8E7012B07D100212046FFF701FE0546D6
:1010800090B1032507E00021204602AA06F010FADD
:1010900005460028EFD0E06C06F059FF206A06F004
:1010A00056FF284607B0F0BD1022014602A807F0FF
:1010B00008FA236A5A7832715B683460B360EAE7F1
:1010C000D0070220D00F02202C91000024910000B4
:1010D000129700004F970000769700009B97000042
:1010E00001460148FFF7C2BE7003022073B51646E1
:1010F0001C4633B3436A5D686379012B15D101BB8C
:101100001F4B22681B689A4298BF0025002006F0FA
:1011100002F801A9C0B201F033F9F0B1012501983C
:1011200006F015FF284602B070BD022B09D12368D6
:10113000012B08D9124A1268934202D8B1FA81F100
:1011400049090025E2E7FCD10029DFD00129F8D1C7
:101150002179023918BF0121F3E7294620233246BD
:10116000019806F0F5FE05460028D7D1002CD6D010
:10117000356804482D1A18BF4FF0FF35CFE700BF80
:10118000000002203DB8F3962DE9F04F07460C46CB
:1011900085B001460020164606F0E0F8051E52DB39
:1011A0003846E46D06F0E7F85FFA84F84FF000097E
:1011B0004FF0010A4FF0FF34691E08FB0101CDB961
:1011C000B9F1010F09DD2249224B2348C91AC90888
:1011D000890141F0010106F0C3FD631C06D0FF2C1C
:1011E00025DC40F2011301343460B380284605B099
:1011F000BDE8F08F012338460DF10F02019105F093
:1012000095FF002805F1FF3B1FDB0128019909D15B
:10121000BAF1010F01D009F101095D468246A1EB47
:101220000801CCE7B4F1FF3F08BF2C46F5E70223E5
:10123000A4F580747371631004F001040133013468
:1012400033603471D2E70725D0E70125CEE700BF30
:101250002C91000024910000A297000038B5826A0A
:10126000446DA2420ED0631C93420BD01D491E4B0D
:101270001E48C91AC908890141F0020106F070FD33
:10128000002038BDB2F5807F28D91649164B184882
:10129000C91AC908890141F00201EFE7416A056DE9
:1012A00001EBC30105EBC30549686D688D4208D0A9
:1012B0000C490D4B0F48C91AC908890141F00201B8
:1012C000DCE70133A342E9D19A4205D9426A02EB35
:1012D000C3035B689942EBD10120D2E70023194692
:1012E000F0E700BF2C91000024910000C09700009F
:1012F000F39700001D98000010B588B001A90420E4
:1013000006F047F81B4C1C4B9DF80410E41A1B4ACE
:10131000E408A401012944F00303039223D0184AEE
:101320001848032908BF024604929DF8052003A926
:1013300005929DF80620144806929DF80720079212
:10134000052206F04CFD9DF8043044F00301012B0A
:101350000BD19DF80630032B07D10C4806F000FD99
:10136000022008B010BD0A4ADEE70A4806F0F8FC81
:101370000020F6E72C910000249100004498000022
:101380005898000052980000619800009D98000055
:101390005C980000B798000070B5064618464B6888
:1013A0001446224A03F0FF2393420D4688B038D1F9
:1013B0000B68012B35D101A905F0EBFF1C4A1D4B31
:1013C0009DF804109B1ADB081B4A9B01012943F07E
:1013D0000303039227D0194A1948032908BF02467C
:1013E00004929DF80520174805929DF8062003A950
:1013F00006929DF807200792052206F0F0FC9DF862
:101400000430032B0DD12146304606F0D4F8204697
:1014100005F0DFFF2046A96805F0F6FF2046FFF73C
:10142000A9FB08B070BD084ADAE700BF000100045C
:10143000249100002C910000C998000058980000E9
:1014400052980000619800005C9800002DE9F04F70
:10145000436A2DED028B0C465E6805460121002390
:101460008BB033449342084601F10101F9D37A4F1E
:101470003860204606F05EF8BB46F8B1E86D05F02E
:1014800068FF0022AB6A013B3244904201D9013B24
:10149000FAE7DBF800209A4210D3704B704971488C
:1014A000C91AC908890141F0020106F059FC01235B
:1014B000E3710BB0BDEC028BBDE8F08F08A90420EE
:1014C00000F05EFF09A9082000F05AFF082321461A
:1014D0002846099AFFF760FF6379012B08D1DBF8F2
:1014E0000070DFF884A1DBF80030A7B90123236086
:1014F00002230127DFF8708163710593DBF8003068
:10150000DDF82090BB424BD2484606F020FD0998FA
:1015100006F01DFDCDE7216801335B1A9F423DD8DF
:101520006A6A0129136852F8370002EBC70252F8C1
:10153000082CA0EB0309DDF82080A2EB030312D1F5
:101540000393099B414608EE103A284606F033F80B
:1015500022464146284606F063F818EE101A28463F
:1015600006F029F8039B324649464046039306F0AD
:1015700020F8039B424641462846CDE90096FFF7F6
:1015800049FC2146284605F0E2FF23680133236029
:1015900020B1DAF800300133CAF80030013FA2E789
:1015A0002368BB4256D8696A286D51F83730FA0073
:1015B00004930B68083A50F802C00393036820793B
:1015C000DDF824A00128ACEB030341D1895807932F
:1015D000039B3246C91A4846069105F0EAFF069970
:1015E000079B4A4600912846514601960693FFF70D
:1015F00011FC2146284605F0AAFF059B2371069B96
:1016000020B1D8F800200132C8F80020194632462F
:101610005046069305F0CDFF069B494600932846A9
:10162000DDE9032301969B1A5246FFF7F3FB21469F
:10163000284605F08CFF2368013323604FF0010337
:10164000237138B1D8F800300133C8F8003001E018
:101650000228DBD0013751E700000220249100006E
:101660002C910000D9980000D0180220024B0A46A5
:101670001B680021184700BF0400022070B5094D07
:101680002B7853B90126084CC4F8006504F004FD1A
:1016900028B92E70C4F8000570BD0020FCE74FF09B
:1016A000FF30F9E7BB2302200000845070B5AEB0D4
:1016B0001D460446CDE90221FFF7E0FFDDE90221E6
:1016C0000123064E05A8C6F800352346009507F00D
:1016D000C4FB0023C6F800352EB070BD0000845056
:1016E00010B5BFF36F8F72B60B4A00234FF0FF3473
:1016F000114603F120000133102B42F82040F8D1AD
:1017000000234FF0FF3003F160020133102B41F84A
:101710002200F8D110BD00BF00E100E00122124B11
:1017200012491A604FF0FF33C1F84833C1F808334B
:1017300001F580514A60043100210D4AC2F8483356
:10174000C2F80833A2F55042C2F80015C2F80833B7
:1017500002F58052C2F80015C2F808334FF050224B
:10176000C2F80833704700BF0440015000400150E8
:10177000005001502DE9F043079C1CB9204614602D
:10178000BDE8F0830325B4FBF5F505EB4507BC4246
:1017900018BF0135B5F1804F05D34FF0FF3313600B
:1017A0006FF00B00ECE7AD0001358D4200D808B9B1
:1017B0001560F5E706460025DFF8B4E0BD42314686
:1017C0009C4606F1040603F1030329D3A54222D265
:1017D0000135A54228BF00239CF80060244F38BF84
:1017E0009CF801304FEAA60C17F80CC0A54281F80E
:1017F00000C007EB131C2FBF3D239B0003F03C03ED
:10180000FB5C36018B703D2306F030061CF8066049
:10181000CB704E700431081A106000200870AFE7DA
:1018200013F803CC13F8021C4FEAAC091EF8099018
:101830004FEA0C1C13F8018C0CF0300C06F8049CD9
:101840000EEB111919F80CC0890006F803CC01F051
:101850003C010EEB981C1CF8011008F03F0806F83C
:10186000021C1EF80810033506F8011CA6E700BF8D
:10187000DE9900002DE9F04300273C463D46079ED7
:10188000DFF82881B5420AD32E4604E00135AE4286
:101890000EF1010E05D1CCBB1460002056E04FF0D4
:1018A000000E13F805C0BCF1200FEFD0AE42F2D00D
:1018B000A6EB0509B9F1010F15D9BCF10D0F12D135
:1018C00003EB050999F80190B9F10A0F1CD0BEF19C
:1018D000000F05D1BCF13D0F08D10137022F08D907
:1018E0006FF0150032E0BCF10A0FEFE71CF0800F3B
:1018F000F6D118F80CC0BCF17F0FF1D0BCF13F0F4E
:1019000001D8002FECD101340135BBE7062504F0E6
:10191000070CE40805FB0CFC6C430CF1070CE41B02
:1019200004EBDC0478B18C420DD800270146032576
:101930003C46DFF878E0DFF878801E449E4207D10D
:10194000091A1160A9E76FF00B001460BDE8F0837D
:1019500013F8019BA9F10A0C5FFA8CFCBCF1160F7D
:1019600004D828FA0CFC1CF0010FE7D11EF809C0BE
:101970000134BCF1400F08BF013D0CF03F0C042CBA
:101980004CEA8717DAD17DB13C0C012D0C7002D1E5
:1019900001310024D2E7022D4FEA17244C7016BF04
:1019A0008F7002310331F4E72C46C7E75E990000DF
:1019B000090040002DE9F04F87B00F461946109BF3
:1019C00006461425104698469DF844B09DF848A058
:1019D0001E4C4FEAE37950EA01031AD1142D08BFD7
:1019E0003023139C18BF01352C4408BF8DF81430E8
:1019F000152C1BD0153C002C1ADC1DF805003946AF
:101A00000135B047152DF8D1002C19DC07B0BDE821
:101A1000F08F42464B46FEF795FB84460B46A25C90
:101A200060460DF805201946013DD4E70024E4E79F
:101A3000BBF1000FE1D039465046B047013CDAE730
:101A400039465046B047013CDEE700BF1E9A000011
:101A50000B6801330B60014B1B681847080002201C
:101A60002DE9F04F002605468B461C464FF0FF3807
:101A7000374687B002F1FF3A4FF0000907E0B9F1AD
:101A8000000F0BD1252800F00A815946A8471AF803
:101A9000010F0028F3D107B0BDE8F08F7A280AD8EB
:101AA000622810D8302851D044D8252800F0F5807D
:101AB0002D2800F0FB8059462520A84759469AF862
:101AC0000000A847D8E7A0F16303172BF3D801A2C1
:101AD00052F823F0931C0000951B0000B71A000079
:101AE000B71A0000B71A0000771B0000951B000012
:101AF000B71A0000B71A0000771B0000B71A0000E1
:101B0000B71A0000B71A00000F1C0000B71A000037
:101B1000B71A00005B1C0000B71A0000951B0000FC
:101B2000B71A0000B71A00003D1B0000B71A0000EA
:101B3000771B0000392815D95828BCD19AF80030F5
:101B4000702B6ED1002354F8042B75E0B8F1000F10
:101B50000BDA002F00F0AC80A0F13008002F08BF96
:101B6000022794E7B8F1000FF6DB0A2303FB08080D
:101B7000A8F13008F2E7682803D1682E06D148267C
:101B800085E76C2802D16C2E00F09480002E92D153
:101B900006467CE77A2E06D1A14659F8042BD317C6
:101BA000752823D10FE06C2EF6D04C2E05D10734CA
:101BB00024F00709F9E80223F2E77528226804F106
:101BC000040912D10023F81E18BF0120012F0CBFF9
:101BD0003024202401900A20CDE902480090594683
:101BE0002846FFF7E7FE4C4646E7D317002A73F175
:101BF0000001E8DA59462D20CDE90423A847DDE9A4
:101C00000423524263EB430308F1FF38DBE75946F4
:101C10003020A84759467820A8474FF008080127E8
:101C20008CE76C2E8ED04C2E8CD1E31D23F0070355
:101C30001C465B6854F8082BF81E18BF0120012FC2
:101C40000CBF30212021CDE9021810210190009114
:101C500028465946FFF7AEFE0EE754F8043B994676
:101C60004A4619F8010B78B9032F25D1A2EB0309D5
:101C7000A8EB0909B9F1000F7FF7FEAE5946202005
:101C8000A84709F1FF39F5E759460493A847049B93
:101C9000E6E7594654F8040B13E7594611E74E4658
:101CA0004F464FF0FF384FF00109F0E60327EEE60C
:101CB0000127ECE64C26EAE68146E8E607B50B4646
:101CC000002102460191034801A9FFF7C9FE03B0B4
:101CD0005DF804FB511A00002DE9F74FB0F8189099
:101CE000044619F0080893460ED001290CBF49F0AC
:101CF000100949F02009A0F818908BF31188BFF360
:101D00006F8F03B0BDE8F08FDFF898A109F00709E5
:101D1000022907D1204605F04BFE0028EDD001280E
:101D2000238B4DD16769218B002F15DA256821F0AF
:101D30000701C4E9008841F0010121830026218BBD
:101D400001F007024A4502D0A368002B59D10DB912
:101D5000002E71D0002355E001F007035A1F012A1D
:101D60001FD821F00701062B256889B2C4E9008835
:101D70000CD1002D2B4638BF00232BB1628B1B6882
:101D800001326283002BF8D141F002012046218309
:101D900005F00EFE0028D1D0238B43F020032383CF
:101DA000CCE7042B0AD121F0070189B22046218318
:101DB00005F0FEFD10B141F0200121830025BDE7B3
:101DC000032809D1226923F00703166843F00603AC
:101DD000002523832F46B2E7042806D1226923F089
:101DE0000703566843F00403F2E7052806D1226989
:101DF00023F00703966843F00503E9E700252E4624
:101E0000E8E7012341F0080121838BF31188BFF338
:101E10006F8F03BB002D34D116B151462046B04719
:101E20004FF02003EFF3118B83F31188BFF36F8F13
:101E3000238B23F008032383238BDA062AD5012181
:101E400023F010032383B4F8189009F00709002940
:101E50007FF45EAF51E7A1680029DBD00B68002B4F
:101E600038BF0023994620463B46D1F804B0019282
:101E7000D847019AB9F1000FCCD04946D9F80030C3
:101E8000EDE729463B46204601922D6805F0ACFD62
:101E9000019ABFE713F020011EBF23F020030221A7
:101EA0002383D0E7157A00004FF02002EFF311836F
:101EB00082F31188BFF36F8F0121044AC2F84015E5
:101EC00083F31188BFF36F8F002070470090035099
:101ED00020B1034B800143F001031847704700BF56
:101EE0007091000008B500F0A7F9094805F0F5FE6B
:101EF000042328220749084806F023FE074B084A16
:101F00004FF400401A60BDE8084000F009BA00BF75
:101F1000E0180220A85C0220E81802200C00022031
:101F2000197D0000F8B500250C4BD3E8EF7FC3E81E
:101F3000E25F002AF9D10A4C0A4E361B3611B5422F
:101F400000DBF8BD63685B792BB12368DB6813B1F4
:101F500039462046984701351034F0E7D81802205A
:101F60005C9100005C910000344B2DE9F0411B783E
:101F7000044603B940B34FF02003EFF3118683F317
:101F80001188BFF36F8F2E4805F0B7FE054686F324
:101F90001188BFF36F8F58B12A4BD3E8EF2F013A66
:101FA000C3E8E12F0029F8D18CB1284605F049FF9C
:101FB00024B9254B1B680BB1FFF7B4FF204805F08F
:101FC0009AFE041E18BF01242046BDE8F0811F4B75
:101FD0001B789BB14FF000081D4E1E4FBF1B3F11D9
:101FE000B845E2DA73685B7923B133682946304635
:101FF0001B68984708F101081036F1E72B7ADB07D8
:10200000E8D405F02DFF0646284605F0F8FE014607
:10201000304605F085FE4FF001080646002ED9D067
:10202000B6FA86F7C7F11F073946284608FA07F7B8
:1020300005F0E8FE26EA0706F0E700BFBC23022011
:10204000E0180220D4180220D8180220BD23022054
:102050005C9100005C910000264B73B51B684181C8
:1020600004469847244DE060D5E8EF3F0133C5E8CA
:10207000E23F002AF8D14FF02003EFF3118683F3FB
:102080001188BFF36F8F1D48214605F02AFE86F3A5
:102090001188BFF36F8F1A4B1B7883B14FF0200369
:1020A000EFF3118483F31188BFF36F8F0020FFF7E4
:1020B0005BFF84F31188BFF36F8F02B070BD114ACC
:1020C0002B681268002AF8D0012B07D100220023C8
:1020D0000D48CDE9002303F0EDFBEEE70A2BECD130
:1020E000094806F07AFE094802B0BDE8704003F0E6
:1020F0005FB900BF0C000220D4180220E0180220B3
:10210000BD23022004190220280202209801022087
:10211000044BD3E8EF2F0132C3E8E12F0029F8D1B7
:10212000704700BFD8180220094B4268C31A1B1120
:10213000013310B5137101224368064C5A7122789D
:10214000196012B9044803F033F90123237010BD5C
:102150005C910000BC2302209801022070B50F4B57
:10216000D3E8EF5F6A1CC3E8E12F0029F8D12DB94D
:102170000B4C0C4E361B3611B54200DB70BD237B79
:1021800043B123685B6903B19847042200212046CC
:10219000FFF7CAFF01351034EEE700BFDC1802205C
:1021A0005C9100005C910000F8B50E4F3D7875B968
:1021B000FFF7D4FF0C4C0D4E361B3611B54207DB32
:1021C0000020FFF7D1FE0028FAD101233B70F8BDB3
:1021D00063685B791BB1236820461B69984701350A
:1021E0001034EBE7BD2302205C9100005C910000FD
:1021F00048B1054B984205D3A03398422CBF00202C
:102200000120704700207047A85C022007B5043801
:102210000190D0E8EF3F5A1EC0E8E12F0029F8D125
:10222000012B03D1034801A902F078FC03B05DF84B
:1022300004FB00BFE8180220202302491A46024886
:1022400006F07FBC485D022008190220002337B544
:10225000094D01930120FFF787FE0446FFF758FF61
:1022600000220023284601A902F026FC08B1002C18
:10227000F0D1019803B030BD08190220002307B542
:10228000002201930648002301A902F015FC10B1B9
:10229000FFF7DCFF0190019803B05DF804FB00BF7D
:1022A00008190220F0B5037A457A85B00190D80765
:1022B0004FEA15151CD4DDB100242646314601989D
:1022C00005F0A0FD0746FFF793FF70B134B9019BFD
:1022D0002946186905F024FD044648B124FA06F39E
:1022E000D90702D53846FFF791FF0136AE42E5D354
:1022F000019B1A7A920704D55B69084C0393039BF0
:102300002BB9064801A902F009FC05B0F0BD1D6813
:10231000204603A902F002FC0395F0E70819022009
:1023200001230021074A10B5074C1360A04204D8CE
:1023300001B11360054B186010BD012140085B001E
:10234000F4E700BF2819022040420F0024190220A0
:10235000094B30B51D68094B1C6800239D4202DC07
:102360000021084630BD1A01A25C04EB0311824231
:10237000F7D00133F2E700BF3092000010000220D6
:10238000084B10B51B680C462BB1FFF7E1FF28B1D5
:102390002060002010BD6FF00C00FBE76FF0010023
:1023A000F8E700BF1000022030B589B00C46154692
:1023B0000190FFF7CDFFB8B14368226802938368AC
:1023C000C068CDE903350023CDE90623059302F06B
:1023D0006DFA60B1074901AA06F050F9079808B9EB
:1023E000059B236009B030BD6FF01500FAE76FF070
:1023F0001200F7E7137F000007B501904FF02002AD
:10240000EFF3118382F31188BFF36F8F05F0A9FEFC
:10241000019801F04BFA034805F0BDFA01F0E8F825
:10242000FCE700BF3C9A000070B504460C250D483F
:102430000E46231A9A100C4B40215343DBB25D43E6
:1024400005F14003184405F001FE011E04DB074BB3
:102450002B445B689847002120463346BDE8704016
:10246000184700BF3C190220B76DDBB64892000048
:102470002DE9F0410F4C104D031B9B105D43EBB257
:102480000C255D43074605F140000E4620444021DF
:1024900005F0F5FD011E08DB084B2C44C4E90E369F
:1024A000074B5B59BDE8F041184738463346BDE855
:1024B000F04118473C190220B76DDBB6E1800000FF
:1024C0004892000070B5002201210446052001F069
:1024D0003DF8052001F01CF80F4802F061F80F4BA1
:1024E000984215D106F01BFAE6680D49304605F012
:1024F000AFFA00280BDB01253564E468084904F1D4
:102500001C0005F0A5FA002801DB0020E56470BD81
:102510006FF00400FBE700BF612500000000AD0B79
:102520006092000073B50C23014600264B430A4815
:10253000C4184033D4E90E521844A663019205F042
:10254000BCFD35B12B46019A044802B0BDE870408D
:10255000184702B070BD00BF3C190220D400022011
:1025600010B1012804D07047034B1B6C5B0701D1ED
:10257000FFF7D8BF704700BF3C19022008B54FF0E5
:102580002003EFF3118183F31188BFF36F8F124A99
:10259000136843F0020013F0010310600CD04FF0F9
:1025A0005022D2F80C34D2F80C2413F0010303D0DB
:1025B0000A4805F082FD012381F31188BFF36F8F74
:1025C00023B1BDE808400020FFF7ACBF0120BDE803
:1025D000084001F0F5BF00BF8C1902207C190220D1
:1025E000074BD3E8EF2F22F00201C3E8E01F0028D9
:1025F000F7D1D30702D4012002F014B8704700BF0E
:102600008C1902200023012210B588B0CDE90632D2
:102610000193094B04AC01AACDE90444CDE902348D
:1026200005F085FD002805DB4FF48042002320469D
:1026300002F0DEFE08B010BDF58000002DE9F84381
:10264000012206463949D1E8EF3FC1E8E02F0028D2
:10265000F9D133B9364937484B60CB608A6005F011
:102660000AFA731E012B32D8012E07D14FF05023E6
:10267000D3F81C3403F00303022B28D006F05BFBD5
:10268000044618B92C4B1B78002B47D14FF0200380
:10269000EFF3118583F31188BFF36F8F0124274F68
:1026A000DFF89C80DFF89C904FF05022D2F818346D
:1026B000D2F81824D2030CD503F00303022B01D067
:1026C000012E06D124B385F31188BFF36F8FBDE8C7
:1026D000F883C4B1284600F099FF4FF05022D2F899
:1026E0001835DBB2012BDFD139680029DCD000219D
:1026F000396039680221C2F818152022C8F88021F3
:10270000C9F80030D0E70021212002F02BFEE4E7D9
:102710004FF050230222C3F80423D8E74FF0502390
:1027200002220546C3F80823B9E700BF901902202A
:102730002C1902205819022062280220045100504E
:1027400000E100E008500050821C084B22F07F425C
:10275000C3F84025D3F80425904200D17047D3F840
:102760000405821C22F07F42F2E700BF00500150B6
:102770000022074B1A601B68064A074BD3F8400536
:102780001368C01A20F07F400344136002F0E8BFD2
:1027900040510150941902200050015038B50024D6
:1027A0004FF400120E4D0F4BC5F808451C601B6816
:1027B0000D4B0121C3F880214FF480332246C5F828
:1027C0000433152000F0C2FE152000F0A1FE012305
:1027D000064A022013602B60FFF730FF204638BD09
:1027E000005001504051015000E100E008500150FC
:1027F000F8B52D4B2D4CD3F804252D4BB0F1FF3FF0
:1028000008BF20461968521A22F07F43120238D4BA
:10281000013820EAE070A042A8BF204601331844E6
:10282000A04294BF0C180C194FF4803000261E4AA9
:10283000204DC2F80803D2F80415D2F840352E60B6
:102840005B1A23F07F432F68012B21F07F47C2F8EA
:102850004075C2F8440304D10F2006F072FA2E60CE
:102860002B684FF40012144BC3F880210E4BD3F8A1
:102870000405221A22F07F42012A04D1FFF764FFE7
:102880000BE00020CAE724F07F42C3F84025D3F8CC
:102890000405241A023C2302F0D44FF48032024B88
:1028A000C3F80423F8BD00BF00500150FFFF7F00B4
:1028B000941902204051015000E100E04FF0200245
:1028C000EFF3118382F31188BFF36F8F064AD2F8BA
:1028D0000405064A1268801A20F07F4083F31188AD
:1028E000BFF36F8F704700BF005001509419022052
:1028F0004FF02003EFF3118283F31188BFF36F8F42
:102900000649074B0868D3F8043582F31188BFF3F2
:102910006F8F1B1A23F07F431844704794190220CD
:1029200000500150014803F067B800BF6C920000EE
:1029300008B530B143683BB1006802F091F900205E
:1029400008BD6FF4E040FBE70048F9E7EA8FFFFFBE
:1029500010B5044618B90B4B0B485B689847616883
:1029600059B111F00201206808D00146074802F071
:10297000D5F8002323600023636010BD142205F006
:10298000A0FDF8E7740002208F9A00009819022039
:1029900010B5044618B9144B14485B68984763682F
:1029A000CBB92368BBB94FF0FF324FF0FF3321465C
:1029B0000F4802F081F808B923681BB90A4B0D488B
:1029C0005B68984714220021206805F07AFD63684F
:1029D00043F002036360206806F0CEF8636843F0BA
:1029E0000103636010BD00BF740002208F9A0000D5
:1029F00098190220B59A000008B568B1436873B110
:102A000000684FF0FF334FF0FF3202F0B1F8054B92
:102A1000002818BF184608BD6FF4E040FBE70248E5
:102A2000F9E700BFE98FFFFFEA8FFFFF08B506490E
:102A300040231422054806F084F8BDE80840044904
:102A4000044803F02BB800BFB419022098190220E3
:102A50008492000074920000F7B5284D28688368BE
:102A60005B6C03B19847286883685B6BDBB1984760
:102A7000C8B1234C234E286883689B699BB101220F
:102A80000DF10701984701280DD12368A3B93368D8
:102A90005BB91D491D4B1E48C91AC908890141F07F
:102AA000010105F05DF903B0F0BD71681A688B4251
:102AB000326000D17260236016499DF807700A8861
:102AC0000846B2F5007F06D2236802F1010C1344D8
:102AD000A1F800C01F720A2FCDD1236802880E49C9
:102AE0005A6000221A604E6826B9C1E9003302809C
:102AF0002260BFE733604B60F9E700BFDC220220B1
:102B0000BC1E0220B41E022044910000249100004B
:102B1000E29A0000B8230220D4220220044B10B510
:102B2000044618688368E1B25B689847204610BD88
:102B3000DC220220F8B506460B4615464FF020026F
:102B4000EFF3118C82F31188BFF36F8F194C21685A
:102B500049B1194A5068884205D000200860506881
:102B600098B9C2E90011154A116829B15768086877
:102B7000B942106008BF50608CF31188BFF36F8FAB
:102B8000216029B900202860F8BD01605160EAE7A2
:102B900048680831F6D05C1E8442A8BF044630461F
:102BA000224605F063FC0023335501232B60E01817
:102BB000EAE700BFC01E0220B41E0220D422022079
:102BC00037B500251D4B1E4AC3E900551D4B03F5C3
:102BD00002711360C3F80852196051601A4801F07D
:102BE00065FE1A4C206028B3836823B19B6C13B137
:102BF0002A4617499847206883685B6B53B198470A
:102C000040B1206883689B6923B101220DF107015F
:102C10009847F5E700230F4A2068138082681C4616
:102C2000926A02B1904784F31188BFF36F8F00203E
:102C300003B030BD4FF0FF30FAE700BFD4220220CE
:102C4000B41E0220C41E02200C9B0000DC220220C5
:102C5000592A0000B823022038B543680446981862
:102C60008028154608D80648184405F0FFFB0020C8
:102C700062682A44626038BD4FF00040FBE700BF45
:102C8000BE23022040F606132DE9F041DFF828812B
:102C9000D2B0D8F80000ADF80C30404B81885C68A9
:102CA0000378C4F3072201330370002342EA0422AD
:102CB00042800A0242EA1122437082800821009376
:102CC00041F2210204F01CFE0123354F41F22102A2
:102CD0002146ADF8100000930346384604F010FE7C
:102CE0000225304E40BA3368ADF81000022103A827
:102CF0005B68984704F10A035BBA0DF112010222E6
:102D000006A8ADF8123005F0B1FBD8F80010082283
:102D10000DF11A00ADF8125005F0A8FBBDF8120035
:102D200006AB083080B222463946ADF8120018448E
:102D300005F09CFBBDF8120006AB204480B22A4689
:102D4000ADF8120004A9184405F090FBBDF812304C
:102D500005AA2B449BB2ADF812300093AD2106AB0F
:102D600026A8FEF707FD05993368ADF8121026A8CE
:102D70005B6889B29847336829465B680A48984778
:102D80000A4B0B490B48C91AC908890141F00301D4
:102D900004F0E6FF52B0BDE8F08100BF340002202D
:102DA000BE230220E0220220229B0000249100008A
:102DB0002C910000259B0000E422022038B50C4C29
:102DC0000C4D4FF0FF322146284605F069FE0A49B6
:102DD000204605F0FAF900230022204605F03DFECA
:102DE0002146284605F06DFEBDE83840FFF74ABF92
:102DF000F8220220E8220220289B00002DE9FF4152
:102E00000C681B4F02380D46C4F500710090194B39
:102E1000381903AA0131FEF72DFD044628BB2B68A3
:102E2000039A1344022B2B601BD93988023B0E02F4
:102E300046EA1126B6B29E4213D14FF0010803466E
:102E400041F221023146CDF80080B81C04F058FD53
:102E500038B9022E05D92B68023B1F442B60BC7089
:102E60004446204604B0BDE8F0814FF0FF34F8E757
:102E70003E240220412602202DE9F04F0729044676
:102E8000B3B060D9027812F0FD055CD14288A1F19F
:102E90000806130243EA12239BB2B34253D382883B
:102EA000AC4BAD491860130243EA122383802A46D3
:102EB000AA484D6005F0C4FDA388012B40F0BD81F8
:102EC000E3792BB1012B00F09C80FFF777FF3AE00C
:102ED0004FF0FF32A249A14805F0E2FDA149A04808
:102EE00005F073F94FF0FF329D4808A905F0D5FDB4
:102EF000002600279C4DDFF89482DFF8949231463B
:102F0000002004F008F907A9C0B2FFF739FA044617
:102F100058B92023014610AA079805F019F8109B0C
:102F2000AB4216D0079805F012F8002F08BF012E0B
:102F30000CD108A98A4805F0C4FD8949874805F0E5
:102F4000C0FDFFF79FFE33B0BDE8F08F01260027DC
:102F5000D5E740230DF1600A019321462046CDE9D3
:102F60000344079B0294CDF800A010AAFDF7E4FBF0
:102F70000028D7D1079804F0EAFF4FF0FF320CA9E0
:102F800008A805F08DFD41460CA805F01EF9324653
:102F90003B460CA805F061FD49460CA805F015F963
:102FA0009DF85410504605F0EEF84FF02E0B32AB62
:102FB000441C18449DF8551000F868BC0AEB040046
:102FC00005F0E1F832AB2044441C1844BDF856101B
:102FD00000F868BC0AEB040005F0D5F832AB2044D9
:102FE00003440130169903F868BC504405F0CBF84F
:102FF00051460CA805F0E9F80CA908A805F061FDF8
:1030000093E7314618AA04F108000C9500F00EFA77
:1030100078BB0324554B564A2146D21AD208920156
:10302000544842F0030204F0AAFE4FF0FF324C492C
:103030004A4805F035FD5049494805F0C6F8224692
:103040004748E31705F009FD4CB94C49444805F0E1
:10305000BCF84B4B42481A68234605F0F6FC404941
:103060003E4805F02EFDFFF70DFE0C9804F06FFFB3
:1030700069E74FF0FF3A4FF0000B2A462846D0464A
:10308000D9462F46319C18ABA24227D1B9F1000F87
:1030900008BFB8F1FF3FBCD0002FBAD0002104F028
:1030A0003AF80CA9C0B2FFF76BF90028B1D158EA81
:1030B0000903334E0AD10C9B30609A6800235245B5
:1030C00073EB0B03A5DB2F4BC3F800A00021336883
:1030D000494508BF434519D000249BE7197C0329C3
:1030E00004D8DFE801F00206090E986801321433B3
:1030F000CAE7D3E90275F9E799688A464FEAE17BA6
:10310000F4E7996888464FEAE179EFE71D4A2B44D6
:10311000116891468B4207D20C9804F085FFB5FBED
:10312000F0F303FB10502D1A306810A92844FDF766
:10313000F1FA0F4B0D4A0446A3EB02084FEAD808F8
:103140004FEA881830B3104848F0010104F008FE37
:1031500060E700BFE422022034000220E8220220BF
:10316000F82202202B9B00003DB8F396249100002A
:103170002C910000EC9B0000289B0000F59B0000B8
:10318000082302200C2302203A9B0000DD9500005A
:10319000329B0000334B10991A689B46914213D022
:1031A000314848F00302196004F0E9FDDDE910122E
:1031B0000C9804F013FF044630B121462B4848F028
:1031C000010204F0DCFD25E7316848F0030A6A18C3
:1031D0005346274804F0EAFD2B463A4631680C98DE
:1031E00004F0D3FE00287FF414AF33681D44D9F8EF
:1031F000003035609D427FF46FAF0C9804F0BBF84F
:1032000010A9FDF787FA044618B11A4848F00101E1
:103210009CE71099DBF8003099427FF75DAF52468A
:10322000114804F0ACFDDDE910120C9804F0D6FE54
:10323000044600283FF4EEAEBFE7002B7FF483AED8
:10324000E379012B3FF441AE052B7FF47CAEFFF711
:10325000B5FD00214FF4005002F084F80120FFF783
:10326000CBF870E63C000220609B00007E9B0000D3
:103270009C9B0000B79B00002DE9F3411B4F0024ED
:1032800005463E461A4BDFF86C8000941860C4F582
:1032900000712B6801AA0131381998470028019B59
:1032A00001DC002BF3D004442BB940F201239C42F3
:1032B000EDD10024EBE73378062B09D17378092B85
:1032C0000BD1002300936946A01EFFF797FD04E091
:1032D000042B02D17378142BF5D00128E9D1009981
:1032E00040460239FFF7C8FDE3E700BF3F26022052
:1032F000E0220220402402202DE9F0410768054623
:103300000C4617B90020BDE8F08100231A46D0F81A
:10331000088004F0FAFF88B1D4E900123E4805F0B5
:1033200095F8064650B90346024604F108012846BE
:1033300004F0B1FF10B126740120E4E70023214618
:103340001A4628462F60C5F8088004F0DEFF80B1D9
:10335000D4E90012314805F079F8034648B902462D
:1033600004F10801284604F0D0FF10B101202074B8
:10337000C9E7002321461A4628462F60C5F8088071
:1033800004F0C3FF80B1D4E90012254805F05EF8CF
:10339000034648B9024604F10801284604F07BFFC1
:1033A00010B102232374C7E7002321461A4628469A
:1033B0002F60C5F8088004F0A8FF78B1D4E90012A6
:1033C000184805F043F8034640B9024604F10801E5
:1033D000284604F060FF08B10323E3E700232146F9
:1033E0001A4628462F60C5F8088004F08EFF002892
:1033F00088D0D4E900120C4805F028F803460028CC
:1034000080D1024604F10801284604F07EFF00281E
:103410003FF478AF0423C5E792950000F99B0000C4
:10342000FE9B0000F59B0000029C000070B501258A
:103430008CB0014409AE052309900A911446304628
:103440002A4607A90B9504F06BFF002360B11422F4
:10345000CDE90143CDE9033205212846044B00960E
:1034600004F1640204F07AFF00F001000CB070BDBA
:10347000F9320000094A0A49936809689867D967D0
:1034800008494B6843F080534B60002383F3118855
:10349000BFF36F8F9368D86F704700BF642302201B
:1034A0007893000000ED00E00F498A684FF0380083
:1034B0001044EFF3098C80E8F01F202080F311887E
:1034C000BFF36F8F094F4FF000660A6A8A603E6053
:1034D000906F0023936780F3118802F1380090E821
:1034E000F01F8CF3098870476423022004ED00E08C
:1034F0001EF0040F0CBFEFF30880EFF30980816921
:1035000011F8021C0229FFD001B504F056FF01BDDD
:1035100043B2002B08DB012200F01F0002FA00F08A
:10352000024A5B0942F82300704700BF00E100E057
:10353000054B420953F82220012300F01F0003FA33
:1035400000F01040704700BF00E100E043B2002BE4
:1035500001F10101ACBF03F16043064B4FEA411199
:10356000C9B2ABBF03F5614300F00F0083F800134D
:103570001954704714ED00E042F8203C009B0B49C1
:1035800042F81C3C019B21F0010142F8183C029BCF
:1035900042F8081C42F8143C4FF0807342F8043C97
:1035A0000023203A82658367704700BF097B0000D3
:1035B00008B506460D4614460023E1EE103A00F029
:1035C000BFF9074B9E60204685F30988002163B64A
:1035D00081F31188BFF36F8F0022002304F094FA67
:1035E00064230220014910220A60704710ED00E0B8
:1035F00072B6404080F31188BFF36F8FBFF34F8FD7
:1036000030BF62B6BFF36F8F704700BF72B64940DC
:1036100081F3118820BF80F3118862B6704700BF24
:1036200030BFFFF7FDBF00BF174A08B5174B22F0A8
:103630007F029A60BFF34F8FBFF36F8FD3F888205C
:1036400022F47002C3F88820D3F8882042F4A00244
:10365000C3F888200E4A536823F040435360BFF3F9
:103660004F8FBFF36F8F0023E1EE103AEFF3148317
:1036700023F0040383F3148801F040F901F048F9C2
:1036800000F026F901F076F90000000000ED00E0FE
:1036900030EF00E001B5EFF30580A0F110004FEA34
:1036A000C0000449014409C99847BDE801400249E6
:1036B000084700001C8F00009138000004F00BFB4D
:1036C000202080F3118808484FF40061401880F3EF
:1036D0000988EFF314800221084380F31488BFF3B4
:1036E0006F8FFFF7A1FF0000A8540220EFF30880BE
:1036F000EFF3098101B5724600F04EF801BD00BF3D
:103700000C4B9A6A9A6A9A6A920708D55A6B9A6A17
:10371000120604D518B19A6A22F080029A6200203B
:10372000044B9A6A9A6A9A6A9A6A42F0FF029A620B
:103730000870704700ED00E00D4B9A6A9A6A9A6A29
:10374000920508D59A6B9A6A120404D518B19A6A40
:1037500022F400429A620020054B9A6A9A6AD205C6
:1037600058BF9A6A9A6A42F47F429A620870704718
:1037700000ED00E0074B00209A6A9A6A9A6A9A6AFA
:103780009A6A9A6A9A6A9A6A6FEA02426FEA1242DF
:103790009A62704700ED00E070B5364B00255B681B
:1037A0008AB0C3F3080385F31188BFF36F8F02F06B
:1037B0007F44B4F17F4F12D102F00C04082C0ED0DC
:1037C00014074EBF0E46064601250022033B8DF826
:1037D0000720032B47D8DFE803F0043E423B2E4688
:1037E000F3E7244BDA6A92073DD4DC6A14F0804494
:1037F00008D028331B78EBB101200DF10701FFF74A
:103800007FFF04469DF8073093B92022314602A875
:1038100004F02CFE099B45B3C3F3080222B96FEAFA
:1038200053236FEA43230993204602A904F0C3FD02
:103830000AB070BD104B1B782BB101200DF10701B0
:10384000FFF77AFFDDE70D4B188884B2002CD9D042
:10385000FFF790FFD5E700200DF10701CFE700202B
:103860000DF10701ECE70024CCE723F4FF7323F00C
:103870000103D8E700ED00E029ED00E02AED00E0CB
:10388000024A536943F010035361704700ED00E0B2
:10389000044B9968186A884203D003494FF080525C
:1038A0000A6070476423022004ED00E0BFF34F8FED
:1038B0000549064BCA6802F4E0621343CB60BFF3CC
:1038C0004F8F00BFFDE700BF00ED00E00400FA05E8
:1038D000002320210348C2180133412B82F8001332
:1038E000F9D1704700E100E010B5044601F0BEFBDD
:1038F000114B9B68A34207D1EFF3058383B10F4AB5
:10390000536843F0805353604FF02003EFF311806E
:1039100083F31188BFF36F8FBDE8104005F053B9F2
:103920004FF02003EFF3118083F31188BFF36F8F03
:10393000FFF7A0FDE8E700BF6423022000ED00E0F0
:1039400010B50E4B88B002930D4B0E4C03930E4BEB
:103950000E4A049302AB019301A82346012100F013
:103960003DF9002307930A4B0121E41A05A80593AA
:10397000069400F03DF908B010BD00BF0000022021
:1039800000000000000004200600010000000220EA
:10399000A801022010B50B680C7A23F01F0204F076
:1039A0001F031A43CB68640923F01F03044943EA49
:1039B000440343F001038860CA600B6110BD00BF7F
:1039C00090ED00E008B5074A074B0146D21AD2082D
:1039D0009201064842F0010204F0D1F96FF015009F
:1039E00008BD00BF34910000249100000A9C000033
:1039F0002DE9F04F0746884614460026564D85B0FF
:103A0000464535DA57F82630D3F80490B9F1000F5F
:103A100051D0B9F11F0F1ED919F01F0F1BD1D3F8C8
:103A200000A01AF01F0F16D1504604F0F2FC834696
:103A300009EB0A00013804F0ECFC83451CD06FF060
:103A4000150B464A464B5946D21AD20892014548B0
:103A500042F0010208E03146404A414B4248D21A46
:103A6000D208920142F0010204F089F96FF01504C6
:103A7000204605B0BDE8F08F1BF1160FE1D0631EA4
:103A80005B45DEDBC5F808B0E868C5F808B02B690F
:103A900057F8261020F01F0043F01F0AD1E900322A
:103AA0001A44984202F1FF3918D1CA4505D15FFA8C
:103AB0008BF004F08DFC0136A2E7C5F808B0EB6886
:103AC00022F01F0203F01F031A43EA60E0B204F081
:103AD0007FFC10F1160FC9D0441CECE7C5F808B004
:103AE0002A69013B23F01F0302F01F021343CA455A
:103AF000E0B22B61EBD004F06BFC10F1160FB5D0E7
:103B0000C5F808B0EA689DF808300AF1FF3A62F398
:103B100004038DF808302B699DF808205B0863F3D7
:103B2000471257F826308DF80820D3E900130B44CC
:103B3000009323F01F03441C5344A3EB0903E0B29A
:103B400023F01F030F28039302D9FFF73BFFC0E7C1
:103B50006946FFF71FFFBFE790ED00E034910000DA
:103B600024910000539C0000309C00000522034B70
:103B70005A60BFF34F8FBFF36F8F704790ED00E037
:103B8000BFF35F8F0022014B5A60704790ED00E059
:103B900038B50E4C2568102D14D8FFF7F1FF002022
:103BA0000B4B0C4A1A63854205D10B4B1D70FFF776
:103BB000DDFF002038BD616801EB0011FFF7EAFE70
:103BC0000130F0E74FF0FF30F4E700BF98920000BB
:103BD00090ED00E0AAFF44004028022010B5034CFD
:103BE0002278FFF705FF207010BD00BF402802209B
:103BF0002DE9F74F264D8A4606464FF00008AB46A2
:103C0000244FD0451BDAD6F80490B9F1000F39D013
:103C100031680846019104F0FCFB0199044609EB68
:103C20000100013804F0F5FB84424FF014021A4BF6
:103C300008D06FF0150302FB08F84BF8083003B00A
:103C4000BDE8F08F14F1160F2C60F8D01978A1425E
:103C5000F5DD02FB08B0BC60BC60FC6800F1080147
:103C6000007B64F30400087138690C79400860F344
:103C700047140C71F96821F01F016960396921F05E
:103C80001F01296108F1010814350C36B9E700BF9E
:103C90001023022090ED00E04028022010B50B48D0
:103CA00000F004FE60B1C46883684FF420621F21F5
:103CB0001B68984738B9236823F00043236010BD80
:103CC0006FF01200FBE70020F9E700BFF09400005E
:103CD000064A00F01F0002EB8000D0F8003223F407
:103CE000403343EA0141C0F8001270470025845078
:103CF00008B5094B1A786AB901210D201970052100
:103D0000FFF724FC0D20FFF703FC4FF00042034BAC
:103D1000C3F80423002008BD4128022000D0005031
:103D2000284B70B546682848134083423BD00DD8D5
:103D3000062B15D005D89BB1022B36D06FF015009D
:103D400030E0B3F5801FF9D1012309E01F48834219
:103D50002DD0B3F5A00F2CD0B3F5800FEED10223F8
:103D6000D0064CBF0325C2F3401582F4807412F4D0
:103D7000007FC2F34020C4F3002406D012F4006F89
:103D8000766818D001228A40B26040EA44020020DE
:103D900042EA032301F01F010D4A43EA8503803103
:103DA00042F8213070BD0723DAE70423D8E7052362
:103DB000D6E70323D4E7520542BF01228A40F260CE
:103DC000E3E700BF0600F00006001000020040001C
:103DD00000258450F8B50D464168C768087A05F09B
:103DE0001F06B2F5A03F46EA40160AD1674806F022
:103DF0001F01803150F82110CC0707D56FF0220049
:103E0000B7E0B2F5005FF96800F0A4800121F8681E
:103E1000A9400143F96001217869A940B2F5A03FAA
:103E2000BA690CBF08438843B3F5C02F0CBF0A43DF
:103E30008A43B3F5802F4FF00003BA613A69786185
:103E40000CBF114322EA0101514A3961D2F804132F
:103E5000C9B203F5A27052F82000C0F304208642D4
:103E60007DD121FA03F0C00779D501219940CC43D7
:103E70004848D0E8EFCF0CEA040CC0E8EECFBEF122
:103E8000000FF6D19B0003F1A04303F55043D3F894
:103E9000100520F00100C3F81005C2F80813002136
:103EA0003046FFF715FFFB68EB4013F001034FD0DE
:103EB0007B69EB4013F001045CD0BB690022EB404E
:103EC000DB0754BF396903254FF001075EBF21FAB4
:103ED00005F505F00105C5F102052E4958BFEDB203
:103EE00007FA02F4D1E8EF0F40EA0403C1E8EC3F1F
:103EF000BCF1000FF6D1D04010F0010334D1910095
:103F000001F1A04101F55041D1F81005403220F4F3
:103F1000473020F44070C1F8100536029200D1F805
:103F2000100506F4F85692B246EA054602F1A042A0
:103F300002F550420643C1F8106513601268D1F8CB
:103F4000102542F00102C1F81025114AC2F80443BD
:103F500018460EE00120A84021EA00015AE701338B
:103F6000082B7FF476AF9AE70132082AB8D16FF0B8
:103F70001200F8BD39693046E94001F00101C1F194
:103F80000301C9B2FFF7A4FE2046F2E700258450E2
:103F900000D00050402302202DE9F8433F4F3E68F7
:103FA000002E4FD04FF001084FF000093C4BDD6868
:103FB000D3E905210A4325EA02053A4A1B69146937
:103FC0005C4025EA040475BB3D603B680023012585
:103FD0001F463548D0F8042305FA03F1114211D0E9
:103FE0009A0002F1A04202F55142116851B103F565
:103FF000A27150F821101760C1F3042105FA01F1F4
:1040000012680C430133082BE4D1ECB94EB1012600
:104010000027234DEC68D5E905210A4324EA020470
:1040200054BBBDE8F88315EA080F06D0002109F05B
:104030001F00FFF74DFE25EA080509F101094FEAC7
:104040004808C0E73446C1E7154B59680029DDD060
:104050000D68164F002D38BF00258A68224002D017
:1040600038464B689847002DD0D02B682946002B46
:1040700038BF00231D46F0E726420CD0296907F01F
:104080001F00F94001F00101C1F10301C9B2FFF7BE
:104090001FFE24EA060401377600C1E77CD10050F8
:1040A000242302200025845000D000500401022067
:1040B000024B0B6001231360704700BF44230220B2
:1040C000004870470893000070B50D46144604F090
:1040D00047FC21460646284604F063FA00B3B5FBC8
:1040E000F6F306FB1353DBB9B4FBF6F306FB134000
:1040F000B0B9A64213D84FF0FF324FF0FF330A4851
:1041000001F076F904F02CFC0646284600F01EFB70
:10411000A41B3544F9D1044801F04AF9204670BD8A
:104120006FF01500FBE700BF4C23022010B5012201
:104130000648114604F0F3FD04F015FC044C206021
:1041400004F00EFC6060002010BD00BF4C23022074
:10415000442302202DE9F0410E461946304615460B
:104160001C4604F01EFAB8B3CCB34FF0FF324FF048
:10417000FF331C4801F03CF916F003070CD0C7F1DF
:104180000407A74228BF2746294630463A4600F092
:104190000DFB3E443D44E41B002724F00308474543
:1041A00007EB060013D16FF00303A20803FB0242E2
:1041B000E9190AB100F0FAFA0B4AD2F80034DB0729
:1041C000FBD5084801F0F4F80020BDE8F081E9597A
:1041D00000F0DAFA0437E2E76FF01500F5E7204661
:1041E000F3E700BF4C23022000900350F0B54B7959
:1041F000012B29D0032B24D110268B79032B20D11E
:10420000CC7924B1012C1CD143681B79CBB10A793C
:1042100012B1022A15D10E220B684568B3F5164F6C
:104220002D6865D02DD8B3F5165F64D016D8B3F5D8
:10423000966F62D00AD8B3F5967F61D0B3F5167F3A
:1042400061D06FF0220052E00026D6E7B3F5166F7A
:104250005CD0B3F5965FF4D1374B3CE0B3F5E14F5A
:1042600057D007D8B3F5615F55D0B3F5964FE8D175
:10427000324B30E047F61227BB42E2D14FF4000345
:1042800029E0B3F5613F48D013D8B3F5963F47D046
:1042900009D84DF6C027BB4244D0B3F5614FD0D109
:1042A0004FF46B0317E0B3F5E13FCAD14FF0EB7366
:1042B00011E0B3F5612F38D008D8214FBB4237D079
:1042C000B3F5E12FBDD14FF0E86304E01D4FBB42D1
:1042D000B7D14FF08053C5F82435C3683443224327
:1042E000043303C9C5F86C2583E803000020F0BD42
:1042F0004FF41D03EFE7144BEDE74FF49E23EAE77D
:104300004FF4A033E7E74FF41C33E4E74FF41D23E9
:10431000E1E70E4BDFE70E4BDDE74FF06C73DAE7BA
:104320000C4BD8E74FF46503D5E74FF07063D2E745
:104330004FF08063CFE700BF00B0130000A04E0035
:1043400090D0030040420F000050270000C07500CD
:1043500000F03A0000903A0170B5054600220121B4
:104360000820FFF7F3F80820FFF7D2F800224021D9
:104370006B68EE681C681A4BC4F8002535609960BC
:104380000321C3F81812C3F814220623C4F80C350D
:104390000523C4F814354FF0FF33E968C4F8083535
:1043A0002846C4F810350431FFF720FFB0B90823C0
:1043B000C4F80035C4F81001D4F8103106F1140324
:1043C000C4F834350123F268C4F8383592682360A4
:1043D000C4F84425C4F84805A360E36070BD00BF7D
:1043E0000025845040EA0103C3F30E0330B58BB9B6
:1043F00040F21515094CC90BC0F3C730994201D1E1
:10440000002030BDC218D2B202F5C07244F822506A
:104410000133F3E76FF01500F3E700BF0030005001
:10442000054B1868043B1B68092B03D1431E5842F7
:1044300058417047002070473401FF0008B54C4BCD
:104440001B68092B01BF4FF050230022C3F8142131
:10445000C3F81821FFF7E4FF30B10123454A136088
:10446000A2F63822C2F87835414B1B68092B07D1D8
:10447000414B1B68012B1EBF0122404BC3F878251E
:10448000FFF7CEFF10B10E223D4B1A60384B1B6870
:10449000092B04D100223B4B1A6001225A600022F2
:1044A000D30003F57F03D3F80013013108D0D3F80C
:1044B00000130132D3F80433B2F5807F0B60EFD1E3
:1044C000314BDA69D1073BD5304B1946D3F800247C
:1044D000012AFBD1C3F80425D1F80034012BFBD10C
:1044E000294BDA69D20708D5DA69284922F0010296
:1044F000DA61D1F80024012AFBD11A6A01320AD10B
:104500001A6A22F0FF0242F020021A621F4AD2F811
:104510000034012BFBD100221C4BC3F80425D3F837
:104520000024012AFBD1BFF34F8F1949194BCA68E8
:1045300002F4E0621343CB60BFF34F8F00BFFDE78F
:104540001B6A0133C0D0124BD3F88C2042F4406276
:10455000C3F88C20D3F8882042F47002C3F8882076
:10456000BFF34F8FBFF36F8F0B4B0C4A1A6008BD20
:104570003001FF00384A00503401FF000040005075
:10458000E4AE03500C4700500080FF000090035041
:1045900000ED00E00400FA05680002200090D0035E
:1045A000044B1A7922B9012218601A710248704727
:1045B000024870475C2302200000AD0B0C00AD0BDD
:1045C00010B1012820D070474FF05022D2F8183493
:1045D000D2F81814C90311D503F00303022B0DD12F
:1045E000C2F8183500220D4B1A601B6802224FF0EA
:1045F0005023C3F8042301229A6070474FF05023E0
:104600000122C3F81825EDE70022054B1A601B684C
:104610004FF05023C3F80403186070470451005052
:104620000051005038B510B1012818D038BD4FF0F6
:1046300050230222012142F210751C46C3F80823C0
:10464000154A10601268154A1160D4F81834DB035B
:10465000ECD5012004F061F9013DF6D1E6E74FF019
:104660005024002242F210750D4BC4F808031A6062
:104670001B680C4B1860D4F80C34D4F80C2403F0ED
:104680000103D203D2D5002BD0D0012004F045F98C
:10469000013DF0D1CAE700BF045100500C5000505A
:1046A0000051005004500050164B10B51A6852B11A
:1046B000002018601B6801224FF05023C3F8082324
:1046C000114B1B689847114B1A688AB100221A6077
:1046D0001B684FF05023D3F81824D3F8181402F0B5
:1046E0000302012A4FF0020103D1C3F818159A60A2
:1046F00010BDC3F80813044B0120BDE810401B682F
:10470000184700BF005100505C23022004510050A4
:104710000022034BC3F88425C3F80425704700BF6B
:1047200000900350002370B5074C934200D170BD38
:1047300051F82350D4F80864F607FBD540F823500D
:10474000BFF35F8F0133F0E70090035008B5C0F36B
:104750000B0383B90222094BC3F88425C3F804254F
:104760004FF0FF320260D3F80024D207FBD5FFF7E9
:10477000CFFF034808BD0348FCE700BF009003508B
:104780000000AD0B0A00AD0B0122074BC3F88425D6
:10479000C3F80425D3F80824D207FBD50160BFF382
:1047A0005F8FFFF7B5BF00BF009003502DE9F843BE
:1047B000012315461D4A0446C2F88435C2F8043563
:1047C00010F003030E46904614D0C3F10407AF4225
:1047D00028BF2F463A46A0EB030904F0ABF8D8F8FF
:1047E0000834DA07FBD5C9F80000BFF35F8FED1B73
:1047F0003C443E44AA0831462046FFF793FF15F09B
:1048000003020ED025F003052C442046711904F054
:1048100091F8064AD2F80834DB07FBD52060BFF3D5
:104820005F8FBDE8F843FFF773BF00BF00900350F0
:10483000F8B5104B104F53F82050013053F820605A
:10484000AE4200D8F8BDD5E900342046984770B193
:104850006CB10123E41B094A2411610952F82100BB
:1048600004F01F0403FA04F4044342F8214008351D
:10487000E6E700BF64930000D40002203401022068
:10488000084BC01A0011084B420953F8222001239B
:1048900000F01F0003FA00F010420CBF1846002081
:1048A000704700BFD400022034010220114970B5C6
:1048B00005460E46104C8C4204D10F4CB4420AD12E
:1048C000002414E02046FFF7DBFF10B12368AB4261
:1048D0000DD01034EFE72046FFF7D2FF08B91034AF
:1048E000ECE72846216803F0A5FD0028F7D1204613
:1048F00070BD00BF34010220D40002200248034AE8
:104900000021121A03F0DDBDA80102206428022054
:1049100008B50648064A0749121A03F0A7FDBDE884
:104920000840054A0549064803F0A0BD00000220E2
:10493000A8010220A89C000000000000A89C000024
:1049400000000220012208B5084B02201A70FFF770
:104950006FFF0320FFF76CFF00F0D0FDFBF7D4FDE5
:10496000034A137B23F00103137308BD622802205E
:10497000E00202202DE98048A7B0FDF7B3FADFF886
:10498000EC9089F308880024E023304D4FF0010BB0
:1049900085F82230EC772C766C76AC766B6A2C4EF0
:1049A00043F4E0236B62FEF76BFFFEF71BFE4FF054
:1049B000FF33AB62EB6240F20113264DADF82430B9
:1049C00006ABAB602046CDE92044FFF731FF012064
:1049D000FFF72EFFDFF898A000F06AFC1E4B2E6256
:1049E0004FF420521D49059330465346CDE9034B01
:1049F000CDE90144009400F025FD737B804623F04F
:104A000004033046737304F00AF90F23144F4FF474
:104A1000A072CDE902431349134B3846CDE904B4E3
:104A2000CDE9004400F00EFD7B7B524623F00403E9
:104A30007B7305F1180341463046C5E90633EF6044
:104A40002C75C5F80490FEF7B3FD00BF00ED00E043
:104A5000E002022064230220A09C0000682B0220B8
:104A600060020220685302201F8E0000A85C022012
:104A70004549000070B50E4B0E4CA34201D30020F7
:104A800070BDD3E9030141EA000212F003020BD129
:104A90009D685A61AA4201D11C33EEE75E6901327A
:104AA0000E6059610144F5E76FF01500E8E700BFBB
:104AB0003801022038010220D3B50C4616461F46A5
:104AC0004FF02003EFF3118183F31188BFF36F8F51
:104AD00043695BB123601B68436183690133836170
:104AE000002081F31188BFF36F8F11E056EA0702AF
:104AF00003D16FF00B002360F3E70246CDE90067B6
:104B0000044800F04FFB18B9034B9B685B692360B6
:104B100002B0D0BD632802206423022070B5044691
:104B20000D464FF02003EFF3118683F31188BFF396
:104B30006F8F04F0CFF858B100212A68C167426135
:104B400004F06DF83146BDE87040084800F010B937
:104B50002B6862691A602B686361A369013BA361DA
:104B600086F31188BFF36F8F70BD00BF63280220EA
:104B70002DE9F341044616461F464FF02003EFF39C
:104B8000118883F31188BFF36F8FC368324A6BB10A
:104B900080689168884219D056EA070318D188F3D3
:104BA0001188BFF36F8F6FF00F000CE0916891F9DF
:104BB0000E100133E36093682161A36088F31188CC
:104BC000BFF36F8F002002B0BDE8F0812169F0E7EC
:104BD00090F90E3091F90E109942A8BF194621EABA
:104BE000E17199422CDA00F01FFB0546224641464E
:104BF000CDE90067194800F0D5FA0028E3D04FF05E
:104C00002003EFF3118683F31188BFF36F8F2368BE
:104C10002169A34207D033B193F90E309942A8BF5E
:104C2000194621EAE171A06890F90E30994209D144
:104C30006DB13146094800F09BF86FF00A00C2E7F9
:104C40000025D3E700F0F0FA0028F2D1F0E786F370
:104C50001188BFF36F8FF0E76423022063280220DE
:104C600038B583680446002B36D01E4A92689342BA
:104C700035D1DA7B013ADA73C368012B05D0013BE9
:104C8000C36000F0D5F8002038BD4FF02003EFF3EB
:104C9000118583F31188BFF36F8F0169806890F9E4
:104CA0000E30994201D000F0BFFA204604F012F80D
:104CB000A06058B190F90E2022610022C26703F073
:104CC000AEFF2946084800F053F8DAE7E06085F3C4
:104CD0001188BFF36F8FD4E76FF01500D4E74FF062
:104CE000FF30D1E7642302206328022010B5084C6E
:104CF00023685BB1FDF7E2FD2268064910440861B4
:104D0000BDE810400021104604F046B810BD00BFB9
:104D10009823022064230220F8B50C464FF02003AC
:104D2000EFF3118583F31188BFF36F8F4FF40041C8
:104D300040F2E73600270022E1FB0067094B3046CE
:104D40001A6139464FF47A720023FBF7FBF9064BE0
:104D50001860064B1C60FFF7C9FF85F31188BFF38D
:104D60006F8FF8BD64230220982302209423022031
:104D700049B9EFF3058030B9054B1A6A9B689A422E
:104D800001D0FEF777BB81F31188BFF36F8F7047B7
:104D9000642302204FF02003EFF3118183F3118885
:104DA000BFF36F8F044B9A68D37B013BD37381F3BE
:104DB0001188BFF36F8F704764230220094B03F102
:104DC0002402824205D19B688B4202D14B7BDB06D9
:104DD00006D1D1E9003213605A600023C1E90033E3
:104DE000704700BF6423022070B5104C064604F1E2
:104DF000240003F00AFF0546A368597B880644BFD8
:104E000041F00801597305B9E5684EB95A7BD206DD
:104E100006D1AA6922B9DA897F2A01D9236270BD35
:104E2000AB4201D0FFF762FF2562F8E7642302205E
:104E300010B54FF02003EFF3118483F31188BFF313
:104E40006F8F084B00209A68D37B0133D373FFF731
:104E5000CBFF84F31188BFF36F8FBDE8104003F0E0
:104E6000BEBE00BF6423022070B4437BDB062AD1A0
:104E7000836943BB154A114651F8244F8C4218BF31
:104E80002346002B38BF0023946AB3B190F90E601B
:104E900093F90E50AE4203DBA3420ED01B68F4E739
:104EA0005A68C0E9003210605860437B63F07F03AA
:104EB000437370BC0020FFF797BFC0E90014936AEA
:104EC00018609062F1E770BC704700BF6423022055
:104ED00010B54FF02002EFF3118482F31188BFF375
:104EE0006F8F427B510704D484F31188BFF36F8F17
:104EF00010BD22F004024273FFF7B6FF2146BDE861
:104F000010400148FFF734BF6328022070B590F9C4
:104F10000D300146002B02DA1748FFF74FFF174A02
:104F2000104650F8243F946A834208BF0023002BA8
:104F300038BF0023D3B191F90E6093F90E50AE4201
:104F400003DBA34212D01B68F4E75868C1E90030C4
:104F5000016059604B7B906863F07F034B73431A89
:104F600058425841BDE87040FFF73EBFC1E9000418
:104F7000936A19609162EDE788230220642302207E
:104F8000014670B54FF02003EFF3118483F31188CD
:104F9000BFF36F8F164B174A98681568A8421D46D5
:104FA00006D1FFF7A3FE84F31188BFF36F8F70BDA6
:104FB00000261660104A1268BAB1C2897F2A14D836
:104FC000427BD20611D10D4A90F90E6012689642CA
:104FD0000BDB0B4A904208D01A698A4202DCFFF7C9
:104FE00095FFDEE7521A1A61DDE700232B61DAE74D
:104FF000642302209023022098230220942302207D
:105000006002022070B50446183003F09FFE4FF096
:105010002003EFF3118683F31188BFF36F8F94F9A8
:105020000D30002B07DA21460E48FFF7C7FE637BE1
:1050300003F07F0363730C4D637BA86843F0100398
:105040006373031B58425841FFF7CEFE86F3118865
:10505000BFF36F8FAB68A34203D1BDE8704003F08C
:10506000BEBD70BD8823022064230220036E2DE99B
:10507000F041044603B1984704F1180003F066FEBE
:105080004FF02003EFF3118683F31188BFF36F8F86
:10509000637BD80623D1A2690ABB190607D521462E
:1050A0001E48FFF78BFE637B03F07F0363731C4B8B
:1050B0009868021B50425041FFF796FE0027637B21
:1050C00004F1300843F008036373256B454500D0B5
:1050D00095B986F31188BFF36F8FBDE8F0819B0708
:1050E000ECD52146A068FFF769FE637B23F002033D
:1050F00063730023A360E1E705F1180003F026FEC7
:10510000A8682946FFF75AFE6B7B284623F0020366
:105110006B73AF60EF67FFF7A7FED6E78823022027
:105120006423022008B590F90D300146002B06DA01
:105130000748FFF743FE4B7B03F07F034B73054BA0
:105140009868431A58425841BDE80840FFF74CBEE2
:1051500088230220642302202DE9F04106461446EC
:105160001D464FF02003EFF3118783F31188BFF33F
:105170006F8F03F084FD87F31188BFF36F8F6B1C73
:1051800008BFB4F1FF3F08D022462B4606F11800B5
:105190000349BDE8F04100F05BBABDE8F08100BF13
:1051A0003F8C000010B50C46064B11469868064B24
:1051B0001860DDE90223FFF7CFFF2046BDE810406D
:1051C000FEF758B96423022090230220F8B5054663
:1051D00003F0FDFD2C184FF02003EFF3118783F34C
:1051E0001188BFF36F8F0D4E0D4BB0681860FFF73D
:1051F00099FFB0680B492A46EB17183000F028FADF
:10520000B2683846537B43F010035373FEF732F90C
:1052100003F0DDFD201A20EAE070F8BD64230220CF
:10522000902302203F8C00002DE9F04104464FF00E
:105230002003EFF3118883F31188BFF36F8F437B53
:105240004EB2DB062ED1856965BB184F214607F1AA
:105250002400FFF7B3FD7B6ABA6A834218BF1D467C
:10526000002D38BF0025A673B5B195F90E10B142D7
:1052700003DCAA4210D02D68F6E76A68C4E9005240
:1052800014606C600120FFF7AFFD012088F31188E6
:10529000BFF36F8FBDE8F081C4E90002BB6A1C60F8
:1052A000BC62EFE70020A673F0E700BF6423022092
:1052B0000021044B084603F12402C3E90922FFF749
:1052C0002BBD00BF64230220F8B5244C244BA268F8
:1052D0009A4230D04FF02003EFF3118583F3118809
:1052E000BFF36F8FA16804F12400FFF767FD636AC5
:1052F000A268834208BF0023002B38BF0023A16AA5
:105300002BB392F90E7093F90E60B74203DB8B4218
:105310001DD01B68F4E75968C2E900310A605A6081
:10532000537B012063F07F035373FFF75DFD85F32B
:105330001188BFF36F8F4FF02003EFF3118083F3D9
:105340001188BFF36F8FBDE8F840FEF793B8C2E94C
:105350000001A36A1A60A262E2E700BF6423022090
:10536000600202200B46013308BFB0F1FF3F10B5C9
:1053700006D10B4B9868FFF745FE4FF0FF3010BD8C
:10538000044648B9FFF7A0FF4FF47A7084FB00345D
:10539000D80B40EA4440F2E7FFF718FF0446F3E772
:1053A00064230220014B9868704700BF64230220E9
:1053B00038B504464FF02003EFF3118583F31188CD
:1053C000BFF36F8F03F086FC48B10022C26703F081
:1053D00026FC2946BDE838400448FFF7C9BCD4E99B
:1053E00002329A4218BF0133A360F2E76328022019
:1053F00037B514461D464FF02003EFF3118183F3B8
:105400001188BFF36F8F836843B1013B836081F3E1
:105410001188BFF36F8F002003B030BD54EA05033D
:1054200006D181F31188BFF36F8F6FF00F00F3E7A0
:105430000246CDE900450248FFF7B4FEECE700BFA5
:10544000632802202DE9B04100F1300585B0C0E9A4
:105450000C550E9D04460573042545730D9D0732BA
:105460008573002522F00702C0E91A1201EB020839
:105470000C9AC0E90655C573056702920B9A019212
:105480000A9A00924246FEF777F8054BC4E9175591
:105490009B6803B15B6F4046636705B0BDE8B081B0
:1054A00064230220F0B5002587B00595109DDDE945
:1054B000126704950F9D044603950E9D02950D9D60
:1054C00001950C9D0095FFF7BDFF7B1C08BFB6F151
:1054D000FF3F05D056EA070305D12046FFF7F8FC49
:1054E000204607B0F0BD32463B46034904F11800A0
:1054F00000F0AEF8F4E700BF3F8C00002DE9F04764
:105500002A4E2B4DB04686B0B54205F1300410D37B
:10551000FFF740FC4FF4004940F2E7360027244CE7
:10552000DFF890A0444521D306B0BDE8F047FFF76F
:105530007FBC54F8043C059354F8103C049354F891
:10554000143C039354F8183C029354F81C3C019308
:1055500054F8203C009354E90A2354E90C01FFF766
:1055600071FF54F8303CDD652546CDE7636A5A1C6F
:105570000DD03046394623EAE373C9FB0301B94233
:1055800008BFB042256804D12846FFF7A1FC30349B
:10559000C8E74FF47A720023FAF7D4FD02460B46AF
:1055A00005F11800514600F053F8F0E738010220E9
:1055B000380102203F8C0000034B1B680BB9FDF73C
:1055C0007DB90020704700BF9C23022030B50368DE
:1055D00068B10A4A5268904209D043B1D3E9042124
:1055E000D0E90445121945EB0101C3E904214268E1
:1055F00013605A600023C0E9003330BD6C00022004
:10560000114B10B51C689C4208BF0024FFF7D4FF63
:10561000BCB1D4E90423121A63EBE073B2F1004F7A
:1056200073F100010DDA1946002A71F100031046EA
:1056300000DA0020054B1B6913B19842A8BF184639
:1056400010BD6FF00040F5E76C00022064230220DB
:105650002DE9F74F019119464B1C08BFB2F1FF3FEE
:1056600082466BD06FF001034FF0FF3B541C41F1B9
:105670000005B3EB04086BEB0509B8F1000F79F1F5
:1056800000030FDBFFF798FF6FF00103324AD2E906
:10569000001C5B1A6BEB0C021E1B62EB0507341A35
:1056A00067EBE075019BCAF808304FF02003EFF379
:1056B000118683F31188BFF36F8FFFF77DFF012CF5
:1056C00075F10003BCBF01240025244B24181A687F
:1056D00045EBE0759A42CAE9044501D05F6852B9CA
:1056E0005A68CAF80030CAF804205A68C2F800A004
:1056F000C3F804A014E0D2E90489DAE9044544457A
:1057000075EB09011DDAB8EB040069EB0501C2E98C
:1057100004015168CAE90021C1F800A0C2F804A040
:105720001A689A4206D0924504D1FFF769FF00211A
:10573000FDF75EF886F31188BFF36F8F03B0BDE805
:10574000F08FB4EB080065EB0901BA42CAE9040125
:10575000C6D01268C3E700BF600302206C000220BD
:105760002DE9F74F0646FFF70BFC4FF02003EFF350
:10577000118483F31188BFF36F8FDFF8B0A02A4D37
:105780005146DFF8ACB02E60D5F800C0DBF8000061
:105790006246DAE90089D3175845CDE900230DD0D8
:1057A00060B1D0E90467B445BB411DDA009BB6EB9C
:1057B000030C019B67EB0306C0E904C60026009BAF
:1057C0002E6013EB0802019B43EB0903C1E90023A0
:1057D000FFF716FF3146FDF70BF884F31188BFF38E
:1057E0006F8F03B0BDE8F08F0022002318EB06088E
:1057F00049EBE679C0E90423ACEB0606CAE9008967
:105800002E60FFF7E3FE84F31188BFF36F8F836888
:1058100098474FF02003EFF3118483F31188BFF30F
:105820006F8F0249B0E700BF9C2302206003022073
:105830006C00022010B54FF02003EFF3118483F3C6
:105840001188BFF36F8FFDF739F8064BD3E90023BA
:10585000121843F1000384F31188BFF36F8F1046D1
:10586000194610BD60030220F8B5D0E90A23561C82
:1058700043F10007002F08BF022E044602D30C4953
:10588000FFF7E6FE236B01332363236A0BB1204647
:10589000984754F8185FA54208D03DB1284603F058
:1058A00082F9284603F0BBF90023EB67F8BD00BF7F
:1058B000695800002DE9734F194606461046DDE988
:1058C0000A234C1C08BFB0F1FF3F8046894647D0F1
:1058D00014461D4654EA050316D06FF00103B3EBDE
:1058E000020A4FF0FF3363EB050BBAF1000F7BF1B7
:1058F000000309DA12F1FF3445F1FF35012C75F18F
:105900000003BCBF012400256FF001031B1A0093A4
:105910004FF0FF3363EB01030193DDE90023002A1D
:1059200073F100030CDA10F1FF3841F1FF39B8F1DF
:10593000000F79F10003BCBF4FF000084FF00009E1
:10594000304603F003FA00234246336330464B46A9
:105950000549C6E90A4502B0BDE8704FFFF778BEB9
:1059600002B0BDE8708F00BF6958000038B5064C22
:10597000064DAC4201D3002038BD2046D4E90112C7
:1059800003F061FA1434F4E73801022038010220F0
:1059900010B50A4C23681BB101230020236010BD01
:1059A00000F098F80028F7D00138062803D8044BF7
:1059B00053F8200010BD034810BD00BFA0230220F3
:1059C0007C930000FE8FFFFFBFF34F8F0549064B0E
:1059D000CA6802F4E0621343CB60BFF34F8F00BF8D
:1059E000FDE700BF00ED00E00400FA05014B5B6835
:1059F000184700BF74000220024BD0E90012C3E92F
:105A0000001270477400022048B143682BB1BFF305
:105A10005F8F0023036018467047024870476FF499
:105A2000E0407047EA8FFFFF10B5044628B1636875
:105A300013B100232360636010BD024B02485B6812
:105A40009847F4E7740002209893000010B50446CC
:105A500030B100226368226043F00103636010BD2F
:105A60000148FFF7C3FFF4E7C093000080B143682B
:105A700063B10122D0E8EF3FC0E8E12F0029F9D15E
:105A8000012BF7D0BFF35F8F0020704702487047AB
:105A90006FF4E040704700BFEA8FFFFF70B40B4B1C
:105AA0000668C268D0E90154C3E90242C3E900654F
:105AB000D1E903020E68064BD1E90154C3E9006540
:105AC000C3E902401A6170BC704700BF8400022025
:105AD0009400022010B500F033F820B1032400F048
